{
  "_format": "hh-sol-artifact-1",
  "contractName": "CrosswordPrizes",
  "sourceName": "contracts/CrosswordPrizes.sol",
  "abi": [
    {
      "inputs": [
        {
          "internalType": "address",
          "name": "initialAdmin",
          "type": "address"
        }
      ],
      "stateMutability": "nonpayable",
      "type": "constructor"
    },
    {
      "inputs": [],
      "name": "AccessControlBadConfirmation",
      "type": "error"
    },
    {
      "inputs": [
        {
          "internalType": "address",
          "name": "account",
          "type": "address"
        },
        {
          "internalType": "bytes32",
          "name": "neededRole",
          "type": "bytes32"
        }
      ],
      "name": "AccessControlUnauthorizedAccount",
      "type": "error"
    },
    {
      "inputs": [],
      "name": "EnforcedPause",
      "type": "error"
    },
    {
      "inputs": [],
      "name": "ExpectedPause",
      "type": "error"
    },
    {
      "inputs": [],
      "name": "ReentrancyGuardReentrantCall",
      "type": "error"
    },
    {
      "inputs": [
        {
          "internalType": "address",
          "name": "token",
          "type": "address"
        }
      ],
      "name": "SafeERC20FailedOperation",
      "type": "error"
    },
    {
      "anonymous": false,
      "inputs": [
        {
          "indexed": true,
          "internalType": "bytes32",
          "name": "crosswordId",
          "type": "bytes32"
        },
        {
          "indexed": false,
          "internalType": "uint256",
          "name": "activationTime",
          "type": "uint256"
        }
      ],
      "name": "CrosswordActivated",
      "type": "event"
    },
    {
      "anonymous": false,
      "inputs": [
        {
          "indexed": true,
          "internalType": "bytes32",
          "name": "crosswordId",
          "type": "bytes32"
        },
        {
          "indexed": true,
          "internalType": "address",
          "name": "token",
          "type": "address"
        },
        {
          "indexed": false,
          "internalType": "uint256",
          "name": "prizePool",
          "type": "uint256"
        },
        {
          "indexed": false,
          "internalType": "address",
          "name": "creator",
          "type": "address"
        }
      ],
      "name": "CrosswordCreated",
      "type": "event"
    },
    {
      "anonymous": false,
      "inputs": [
        {
          "indexed": true,
          "internalType": "address",
          "name": "sender",
          "type": "address"
        },
        {
          "indexed": false,
          "internalType": "uint256",
          "name": "amount",
          "type": "uint256"
        }
      ],
      "name": "NativeCeloReceived",
      "type": "event"
    },
    {
      "anonymous": false,
      "inputs": [
        {
          "indexed": false,
          "internalType": "address",
          "name": "account",
          "type": "address"
        }
      ],
      "name": "Paused",
      "type": "event"
    },
    {
      "anonymous": false,
      "inputs": [
        {
          "indexed": true,
          "internalType": "bytes32",
          "name": "crosswordId",
          "type": "bytes32"
        },
        {
          "indexed": true,
          "internalType": "address",
          "name": "winner",
          "type": "address"
        },
        {
          "indexed": false,
          "internalType": "uint256",
          "name": "amount",
          "type": "uint256"
        },
        {
          "indexed": false,
          "internalType": "uint256",
          "name": "rank",
          "type": "uint256"
        }
      ],
      "name": "PrizeDistributed",
      "type": "event"
    },
    {
      "anonymous": false,
      "inputs": [
        {
          "indexed": true,
          "internalType": "bytes32",
          "name": "role",
          "type": "bytes32"
        },
        {
          "indexed": true,
          "internalType": "bytes32",
          "name": "previousAdminRole",
          "type": "bytes32"
        },
        {
          "indexed": true,
          "internalType": "bytes32",
          "name": "newAdminRole",
          "type": "bytes32"
        }
      ],
      "name": "RoleAdminChanged",
      "type": "event"
    },
    {
      "anonymous": false,
      "inputs": [
        {
          "indexed": true,
          "internalType": "bytes32",
          "name": "role",
          "type": "bytes32"
        },
        {
          "indexed": true,
          "internalType": "address",
          "name": "account",
          "type": "address"
        },
        {
          "indexed": true,
          "internalType": "address",
          "name": "sender",
          "type": "address"
        }
      ],
      "name": "RoleGranted",
      "type": "event"
    },
    {
      "anonymous": false,
      "inputs": [
        {
          "indexed": true,
          "internalType": "bytes32",
          "name": "role",
          "type": "bytes32"
        },
        {
          "indexed": true,
          "internalType": "address",
          "name": "account",
          "type": "address"
        },
        {
          "indexed": true,
          "internalType": "address",
          "name": "sender",
          "type": "address"
        }
      ],
      "name": "RoleRevoked",
      "type": "event"
    },
    {
      "anonymous": false,
      "inputs": [
        {
          "indexed": true,
          "internalType": "address",
          "name": "token",
          "type": "address"
        },
        {
          "indexed": false,
          "internalType": "bool",
          "name": "allowed",
          "type": "bool"
        }
      ],
      "name": "TokenAllowed",
      "type": "event"
    },
    {
      "anonymous": false,
      "inputs": [
        {
          "indexed": true,
          "internalType": "bytes32",
          "name": "crosswordId",
          "type": "bytes32"
        },
        {
          "indexed": true,
          "internalType": "address",
          "name": "token",
          "type": "address"
        },
        {
          "indexed": false,
          "internalType": "uint256",
          "name": "amount",
          "type": "uint256"
        },
        {
          "indexed": false,
          "internalType": "address",
          "name": "recoveredBy",
          "type": "address"
        }
      ],
      "name": "UnclaimedPrizesRecovered",
      "type": "event"
    },
    {
      "anonymous": false,
      "inputs": [
        {
          "indexed": false,
          "internalType": "address",
          "name": "account",
          "type": "address"
        }
      ],
      "name": "Unpaused",
      "type": "event"
    },
    {
      "stateMutability": "payable",
      "type": "fallback"
    },
    {
      "inputs": [],
      "name": "ADMIN_ROLE",
      "outputs": [
        {
          "internalType": "bytes32",
          "name": "",
          "type": "bytes32"
        }
      ],
      "stateMutability": "view",
      "type": "function"
    },
    {
      "inputs": [],
      "name": "DEFAULT_ADMIN_ROLE",
      "outputs": [
        {
          "internalType": "bytes32",
          "name": "",
          "type": "bytes32"
        }
      ],
      "stateMutability": "view",
      "type": "function"
    },
    {
      "inputs": [],
      "name": "MAX_CONFIGURABLE_WINNERS",
      "outputs": [
        {
          "internalType": "uint256",
          "name": "",
          "type": "uint256"
        }
      ],
      "stateMutability": "view",
      "type": "function"
    },
    {
      "inputs": [],
      "name": "MAX_END_TIME",
      "outputs": [
        {
          "internalType": "uint256",
          "name": "",
          "type": "uint256"
        }
      ],
      "stateMutability": "view",
      "type": "function"
    },
    {
      "inputs": [],
      "name": "MAX_PERCENTAGE",
      "outputs": [
        {
          "internalType": "uint256",
          "name": "",
          "type": "uint256"
        }
      ],
      "stateMutability": "view",
      "type": "function"
    },
    {
      "inputs": [],
      "name": "MAX_SINGLE_WINNER_PERCENTAGE",
      "outputs": [
        {
          "internalType": "uint256",
          "name": "",
          "type": "uint256"
        }
      ],
      "stateMutability": "view",
      "type": "function"
    },
    {
      "inputs": [],
      "name": "OPERATOR_ROLE",
      "outputs": [
        {
          "internalType": "bytes32",
          "name": "",
          "type": "bytes32"
        }
      ],
      "stateMutability": "view",
      "type": "function"
    },
    {
      "inputs": [],
      "name": "RECOVERY_WINDOW",
      "outputs": [
        {
          "internalType": "uint256",
          "name": "",
          "type": "uint256"
        }
      ],
      "stateMutability": "view",
      "type": "function"
    },
    {
      "inputs": [
        {
          "internalType": "bytes32",
          "name": "crosswordId",
          "type": "bytes32"
        }
      ],
      "name": "activateCrossword",
      "outputs": [],
      "stateMutability": "nonpayable",
      "type": "function"
    },
    {
      "inputs": [
        {
          "internalType": "address",
          "name": "",
          "type": "address"
        }
      ],
      "name": "allowedTokens",
      "outputs": [
        {
          "internalType": "bool",
          "name": "",
          "type": "bool"
        }
      ],
      "stateMutability": "view",
      "type": "function"
    },
    {
      "inputs": [
        {
          "internalType": "bytes32",
          "name": "crosswordId",
          "type": "bytes32"
        }
      ],
      "name": "claimPrize",
      "outputs": [],
      "stateMutability": "nonpayable",
      "type": "function"
    },
    {
      "inputs": [
        {
          "internalType": "bytes32",
          "name": "crosswordId",
          "type": "bytes32"
        },
        {
          "internalType": "address",
          "name": "token",
          "type": "address"
        },
        {
          "internalType": "uint256",
          "name": "prizePool",
          "type": "uint256"
        },
        {
          "internalType": "uint256[]",
          "name": "winnerPercentages",
          "type": "uint256[]"
        },
        {
          "internalType": "uint256",
          "name": "endTime",
          "type": "uint256"
        }
      ],
      "name": "createCrossword",
      "outputs": [],
      "stateMutability": "nonpayable",
      "type": "function"
    },
    {
      "inputs": [
        {
          "internalType": "bytes32",
          "name": "crosswordId",
          "type": "bytes32"
        },
        {
          "internalType": "uint256",
          "name": "prizePool",
          "type": "uint256"
        },
        {
          "internalType": "uint256[]",
          "name": "winnerPercentages",
          "type": "uint256[]"
        },
        {
          "internalType": "uint256",
          "name": "endTime",
          "type": "uint256"
        }
      ],
      "name": "createCrosswordWithNativeCELO",
      "outputs": [],
      "stateMutability": "payable",
      "type": "function"
    },
    {
      "inputs": [
        {
          "internalType": "bytes32",
          "name": "",
          "type": "bytes32"
        }
      ],
      "name": "crosswords",
      "outputs": [
        {
          "internalType": "address",
          "name": "token",
          "type": "address"
        },
        {
          "internalType": "uint256",
          "name": "totalPrizePool",
          "type": "uint256"
        },
        {
          "internalType": "uint256",
          "name": "activationTime",
          "type": "uint256"
        },
        {
          "internalType": "uint256",
          "name": "endTime",
          "type": "uint256"
        },
        {
          "internalType": "enum CrosswordPrizes.CrosswordState",
          "name": "state",
          "type": "uint8"
        },
        {
          "internalType": "uint256",
          "name": "createdAt",
          "type": "uint256"
        },
        {
          "internalType": "uint256",
          "name": "claimedAmount",
          "type": "uint256"
        }
      ],
      "stateMutability": "view",
      "type": "function"
    },
    {
      "inputs": [
        {
          "internalType": "bytes32",
          "name": "crosswordId",
          "type": "bytes32"
        }
      ],
      "name": "getCompletionsCount",
      "outputs": [
        {
          "internalType": "uint256",
          "name": "",
          "type": "uint256"
        }
      ],
      "stateMutability": "view",
      "type": "function"
    },
    {
      "inputs": [
        {
          "internalType": "bytes32",
          "name": "crosswordId",
          "type": "bytes32"
        }
      ],
      "name": "getCrosswordDetails",
      "outputs": [
        {
          "internalType": "address",
          "name": "token",
          "type": "address"
        },
        {
          "internalType": "uint256",
          "name": "totalPrizePool",
          "type": "uint256"
        },
        {
          "internalType": "uint256[]",
          "name": "winnerPercentages",
          "type": "uint256[]"
        },
        {
          "components": [
            {
              "internalType": "address",
              "name": "user",
              "type": "address"
            },
            {
              "internalType": "uint256",
              "name": "timestamp",
              "type": "uint256"
            },
            {
              "internalType": "uint256",
              "name": "rank",
              "type": "uint256"
            }
          ],
          "internalType": "struct CrosswordPrizes.CompletionRecord[]",
          "name": "completions",
          "type": "tuple[]"
        },
        {
          "internalType": "uint256",
          "name": "activationTime",
          "type": "uint256"
        },
        {
          "internalType": "uint256",
          "name": "endTime",
          "type": "uint256"
        },
        {
          "internalType": "enum CrosswordPrizes.CrosswordState",
          "name": "state",
          "type": "uint8"
        }
      ],
      "stateMutability": "view",
      "type": "function"
    },
    {
      "inputs": [],
      "name": "getMaxWinners",
      "outputs": [
        {
          "internalType": "uint256",
          "name": "",
          "type": "uint256"
        }
      ],
      "stateMutability": "view",
      "type": "function"
    },
    {
      "inputs": [
        {
          "internalType": "bytes32",
          "name": "role",
          "type": "bytes32"
        }
      ],
      "name": "getRoleAdmin",
      "outputs": [
        {
          "internalType": "bytes32",
          "name": "",
          "type": "bytes32"
        }
      ],
      "stateMutability": "view",
      "type": "function"
    },
    {
      "inputs": [
        {
          "internalType": "bytes32",
          "name": "crosswordId",
          "type": "bytes32"
        },
        {
          "internalType": "address",
          "name": "user",
          "type": "address"
        }
      ],
      "name": "getUserRank",
      "outputs": [
        {
          "internalType": "uint256",
          "name": "",
          "type": "uint256"
        }
      ],
      "stateMutability": "view",
      "type": "function"
    },
    {
      "inputs": [
        {
          "internalType": "bytes32",
          "name": "role",
          "type": "bytes32"
        },
        {
          "internalType": "address",
          "name": "account",
          "type": "address"
        }
      ],
      "name": "grantRole",
      "outputs": [],
      "stateMutability": "nonpayable",
      "type": "function"
    },
    {
      "inputs": [
        {
          "internalType": "bytes32",
          "name": "role",
          "type": "bytes32"
        },
        {
          "internalType": "address",
          "name": "account",
          "type": "address"
        }
      ],
      "name": "hasRole",
      "outputs": [
        {
          "internalType": "bool",
          "name": "",
          "type": "bool"
        }
      ],
      "stateMutability": "view",
      "type": "function"
    },
    {
      "inputs": [
        {
          "internalType": "bytes32",
          "name": "crosswordId",
          "type": "bytes32"
        },
        {
          "internalType": "address",
          "name": "user",
          "type": "address"
        }
      ],
      "name": "isWinner",
      "outputs": [
        {
          "internalType": "bool",
          "name": "",
          "type": "bool"
        }
      ],
      "stateMutability": "view",
      "type": "function"
    },
    {
      "inputs": [],
      "name": "maxWinners",
      "outputs": [
        {
          "internalType": "uint256",
          "name": "",
          "type": "uint256"
        }
      ],
      "stateMutability": "view",
      "type": "function"
    },
    {
      "inputs": [],
      "name": "pause",
      "outputs": [],
      "stateMutability": "nonpayable",
      "type": "function"
    },
    {
      "inputs": [],
      "name": "paused",
      "outputs": [
        {
          "internalType": "bool",
          "name": "",
          "type": "bool"
        }
      ],
      "stateMutability": "view",
      "type": "function"
    },
    {
      "inputs": [
        {
          "internalType": "bytes32",
          "name": "crosswordId",
          "type": "bytes32"
        },
        {
          "internalType": "address",
          "name": "user",
          "type": "address"
        }
      ],
      "name": "recordCompletion",
      "outputs": [
        {
          "internalType": "bool",
          "name": "awardedPrize",
          "type": "bool"
        }
      ],
      "stateMutability": "nonpayable",
      "type": "function"
    },
    {
      "inputs": [
        {
          "internalType": "bytes32",
          "name": "crosswordId",
          "type": "bytes32"
        }
      ],
      "name": "recoverUnclaimedPrizes",
      "outputs": [],
      "stateMutability": "nonpayable",
      "type": "function"
    },
    {
      "inputs": [
        {
          "internalType": "bytes32",
          "name": "role",
          "type": "bytes32"
        },
        {
          "internalType": "address",
          "name": "callerConfirmation",
          "type": "address"
        }
      ],
      "name": "renounceRole",
      "outputs": [],
      "stateMutability": "nonpayable",
      "type": "function"
    },
    {
      "inputs": [
        {
          "internalType": "bytes32",
          "name": "role",
          "type": "bytes32"
        },
        {
          "internalType": "address",
          "name": "account",
          "type": "address"
        }
      ],
      "name": "revokeRole",
      "outputs": [],
      "stateMutability": "nonpayable",
      "type": "function"
    },
    {
      "inputs": [
        {
          "internalType": "address",
          "name": "token",
          "type": "address"
        },
        {
          "internalType": "bool",
          "name": "allowed",
          "type": "bool"
        }
      ],
      "name": "setAllowedToken",
      "outputs": [],
      "stateMutability": "nonpayable",
      "type": "function"
    },
    {
      "inputs": [
        {
          "internalType": "uint256",
          "name": "newMaxWinners",
          "type": "uint256"
        }
      ],
      "name": "setMaxWinners",
      "outputs": [],
      "stateMutability": "nonpayable",
      "type": "function"
    },
    {
      "inputs": [
        {
          "internalType": "bytes4",
          "name": "interfaceId",
          "type": "bytes4"
        }
      ],
      "name": "supportsInterface",
      "outputs": [
        {
          "internalType": "bool",
          "name": "",
          "type": "bool"
        }
      ],
      "stateMutability": "view",
      "type": "function"
    },
    {
      "inputs": [],
      "name": "unpause",
      "outputs": [],
      "stateMutability": "nonpayable",
      "type": "function"
    },
    {
      "stateMutability": "payable",
      "type": "receive"
    }
  ],
  "bytecode": "0x6080604052600360055534801561001557600080fd5b50604051612e5a380380612e5a83398101604081905261003491610181565b600180556100436000826100d5565b5061006e7fa49807205ce4d355092ef5a8a18f56e8913cf4a201fbe287825b095693c21775826100d5565b506100997f97667070c54ef182b0f5858b034beac1b6f3089aa2d3188bb1e8929f4fa9b929826100d5565b50506000805260046020527f17ef568e3e12ab5b9c7254a8d58478811de00f9e6eb34345acd53bf8fd09d3ec805460ff191660011790556101b1565b6000828152602081815260408083206001600160a01b038516845290915281205460ff16610177576000838152602081815260408083206001600160a01b03861684529091529020805460ff1916600117905561012f3390565b6001600160a01b0316826001600160a01b0316847f2f8788117e7eff1d82e926ec794901d17c78024a50270940304540a733656f0d60405160405180910390a450600161017b565b5060005b92915050565b60006020828403121561019357600080fd5b81516001600160a01b03811681146101aa57600080fd5b9392505050565b612c9a806101c06000396000f3fe6080604052600436106101f25760003560e01c80639745808a1161010d578063d30c2efe116100a0578063e5b4a8a51161006f578063e5b4a8a514610605578063e744092e1461061a578063ec03a37a1461064a578063ef9923aa1461067d578063f5b541a6146106925761022f565b8063d30c2efe14610536578063d547741f1461054c578063d9cbe53c1461056c578063dfdfde301461058c5761022f565b8063ac9e5b5c116100dc578063ac9e5b5c146104cd578063b0fc9440146104e0578063cde8e5d314610500578063d17b18c4146105165761022f565b80639745808a146104475780639c0b1d64146104675780639cc19f5b14610498578063a217fddf146104b85761022f565b80633ab2648a1161018557806375b238fc1161015457806375b238fc146103d05780638456cb59146103f25780638aaa22841461040757806391d14854146104275761022f565b80633ab2648a1461036d5780633f4ba83a1461038d5780634c255c97146103a25780635c975abb146103b85761022f565b80631ca1954e116101c15780631ca1954e14610296578063248a9ca3146102fd5780632f2ff15d1461032d57806336568abe1461034d5761022f565b806301ffc9a7146102615780630a4636b2146102965780630a713d68146102bb5780630e5e0bb0146102dd5761022f565b3661022f5760405134815233907fedd7fd210c5046985d2cac8bd79b331beb7816848ac1f52930622cb31d9a14fd906020015b60405180910390a2005b60405134815233907fedd7fd210c5046985d2cac8bd79b331beb7816848ac1f52930622cb31d9a14fd90602001610225565b34801561026d57600080fd5b5061028161027c3660046124c8565b6106c6565b60405190151581526020015b60405180910390f35b3480156102a257600080fd5b506102ad62278d0081565b60405190815260200161028d565b3480156102c757600080fd5b506102db6102d63660046124f9565b6106fd565b005b3480156102e957600080fd5b506102db6102f83660046124f9565b610894565b34801561030957600080fd5b506102ad6103183660046124f9565b60009081526020819052604090206001015490565b34801561033957600080fd5b506102db61034836600461252e565b610c0f565b34801561035957600080fd5b506102db61036836600461252e565b610c3a565b34801561037957600080fd5b506102db61038836600461260f565b610c72565b34801561039957600080fd5b506102db610fe1565b3480156103ae57600080fd5b506102ad61271081565b3480156103c457600080fd5b5060025460ff16610281565b3480156103dc57600080fd5b506102ad600080516020612c4583398151915281565b3480156103fe57600080fd5b506102db610ff7565b34801561041357600080fd5b506102db610422366004612678565b61100a565b34801561043357600080fd5b5061028161044236600461252e565b61106d565b34801561045357600080fd5b506102ad61046236600461252e565b611096565b34801561047357600080fd5b506102ad6104823660046124f9565b6000908152600360208190526040909120015490565b3480156104a457600080fd5b506102816104b336600461252e565b611133565b3480156104c457600080fd5b506102ad600081565b6102db6104db3660046126b4565b6111a0565b3480156104ec57600080fd5b506102db6104fb3660046124f9565b6114de565b34801561050c57600080fd5b506102ad60055481565b34801561052257600080fd5b506102db6105313660046124f9565b6119f1565b34801561054257600080fd5b506102ad611f4081565b34801561055857600080fd5b506102db61056736600461252e565b611adf565b34801561057857600080fd5b5061028161058736600461252e565b611b04565b34801561059857600080fd5b506105f26105a73660046124f9565b60036020526000908152604090208054600182015460058301546006840154600785015460088601546009909601546001600160a01b039095169593949293919260ff909116919087565b60405161028d9796959493929190612744565b34801561061157600080fd5b506102ad600a81565b34801561062657600080fd5b5061028161063536600461278b565b60046020526000908152604090205460ff1681565b34801561065657600080fd5b5061066a6106653660046124f9565b611f7f565b60405161028d9796959493929190612804565b34801561068957600080fd5b506005546102ad565b34801561069e57600080fd5b506102ad7f97667070c54ef182b0f5858b034beac1b6f3089aa2d3188bb1e8929f4fa9b92981565b60006001600160e01b03198216637965db0b60e01b14806106f757506301ffc9a760e01b6001600160e01b03198316145b92915050565b600080516020612c45833981519152610715816120b6565b61071d6120c0565b60008281526003602052604090206002600782015460ff1660028111156107465761074661270c565b036107a25760405162461bcd60e51b815260206004820152602160248201527f43726f7373776f72645072697a65733a20616c726561647920636f6d706c65746044820152606560f81b60648201526084015b60405180910390fd5b6001600782015460ff1660028111156107bd576107bd61270c565b0361080a5760405162461bcd60e51b815260206004820152601f60248201527f43726f7373776f72645072697a65733a20616c726561647920616374697665006044820152606401610799565b80546001600160a01b0316151580610826575080600101544710155b6108425760405162461bcd60e51b815260040161079990612892565b60078101805460ff19166001179055426005820181905560405190815283907f866c1294f23fc719c565ed4c7188b24e3e7bccde328f0b50425b902bf19bc83d906020015b60405180910390a2505050565b600080516020612c458339815191526108ac816120b6565b6108b4612129565b6108bc6120c0565b60008281526003602052604090206002600782015460ff1660028111156108e5576108e561270c565b146109425760405162461bcd60e51b815260206004820152602760248201527f43726f7373776f72645072697a65733a2063726f7373776f7264206e6f7420636044820152666f6d706c65746560c81b6064820152608401610799565b62278d00816005015461095591906128f9565b4210156109b95760405162461bcd60e51b815260206004820152602c60248201527f43726f7373776f72645072697a65733a207265636f766572792077696e646f7760448201526b081b9bdd08195b185c1cd95960a21b6064820152608401610799565b6000816005015411610a1e5760405162461bcd60e51b815260206004820152602860248201527f43726f7373776f72645072697a65733a2063726f7373776f7264206e6f74206160448201526718dd1a5d985d195960c21b6064820152608401610799565b80546000906001600160a01b0316610a4b5781600901548260010154610a44919061290c565b9050610abc565b81546040516370a0823160e01b81523060048201526001600160a01b039091169081906370a0823190602401602060405180830381865afa158015610a94573d6000803e3d6000fd5b505050506040513d601f19601f82011682018060405250810190610ab8919061291f565b9150505b8015610c005781546001600160a01b0316610b8d57604051600090339083908381818185875af1925050503d8060008114610b13576040519150601f19603f3d011682016040523d82523d6000602084013e610b18565b606091505b5050905080610b875760405162461bcd60e51b815260206004820152603560248201527f43726f7373776f72645072697a65733a206e61746976652043454c4f207265636044820152741bdd995c9e481d1c985b9cd9995c8819985a5b1959605a1b6064820152608401610799565b50610bb0565b81546001600160a01b0316610bae335b6001600160a01b0383169084612153565b505b81546001600160a01b0316847f4f9dbc6a445a64ff84ec788dbb2b2882a37630c9397338d10c7568bc438d10238333604080519283526001600160a01b0390911660208301520160405180910390a35b5050610c0b60018055565b5050565b600082815260208190526040902060010154610c2a816120b6565b610c3483836121b2565b50505050565b6001600160a01b0381163314610c635760405163334bd91960e11b815260040160405180910390fd5b610c6d8282612244565b505050565b600080516020612c45833981519152610c8a816120b6565b610c926120c0565b6001600160a01b038516610d0e5760405162461bcd60e51b815260206004820152603760248201527f43726f7373776f72645072697a65733a20746f6b656e2063616e6e6f7420626560448201527f207a65726f206164647265737320666f722045524332300000000000000000006064820152608401610799565b6001600160a01b03851660009081526004602052604090205460ff16610d815760405162461bcd60e51b815260206004820152602260248201527f43726f7373776f72645072697a65733a20746f6b656e206e6f7420616c6c6f77604482015261195960f21b6064820152608401610799565b60008411610da15760405162461bcd60e51b815260040161079990612938565b6000835111610dc25760405162461bcd60e51b81526004016107999061298a565b60055483511115610de55760405162461bcd60e51b8152600401610799906129cb565b8251841015610e065760405162461bcd60e51b815260040161079990612a0c565b6000805b8451811015610eb6576000858281518110610e2757610e27612a5d565b602002602001015111610e4c5760405162461bcd60e51b815260040161079990612a73565b611f40858281518110610e6157610e61612a5d565b60200260200101511115610e875760405162461bcd60e51b815260040161079990612ad0565b848181518110610e9957610e99612a5d565b602002602001015182610eac91906128f9565b9150600101610e0a565b50612710811115610ed95760405162461bcd60e51b815260040161079990612b22565b8215610f0b57610eec62278d00426128f9565b831115610f0b5760405162461bcd60e51b815260040161079990612b70565b85610f216001600160a01b0382163330896122af565b600088815260036020908152604090912080546001600160a01b0319166001600160a01b038a161781556001810188905586519091610f67916002840191890190612468565b506006810185905560078101805460ff19169055426008820155600060098201556001600160a01b038816897f0fee001940c4884b8fa17931fc404ceb7673af8459a49404e484d47be2f0bcc08933604080519283526001600160a01b0390911660208301520160405180910390a3505050505050505050565b6000610fec816120b6565b610ff46122e8565b50565b6000611002816120b6565b610ff461233a565b6000611015816120b6565b6001600160a01b038316600081815260046020908152604091829020805460ff191686151590811790915591519182527f9a8e30a8658b96ab3f034ce4bac6806278b4aee5880ccdd1ac35e4ed5bb31d239101610887565b6000918252602082815260408084206001600160a01b0393909316845291905290205460ff1690565b6000828152600360205260408120815b600382015481101561112857836001600160a01b03168260030182815481106110d1576110d1612a5d565b60009182526020909120600390910201546001600160a01b0316036111205781600301818154811061110557611105612a5d565b906000526020600020906003020160020154925050506106f7565b6001016110a6565b506000949350505050565b6000828152600360205260408120815b600382015481101561112857836001600160a01b031682600301828154811061116e5761116e612a5d565b60009182526020909120600390910201546001600160a01b031603611198576001925050506106f7565b600101611143565b600080516020612c458339815191526111b8816120b6565b6111c06120c0565b8334146112295760405162461bcd60e51b815260206004820152603160248201527f43726f7373776f72645072697a65733a2073656e742076616c7565206d757374604482015270081b585d18da081c1c9a5e99481c1bdbdb607a1b6064820152608401610799565b6000805260046020527f17ef568e3e12ab5b9c7254a8d58478811de00f9e6eb34345acd53bf8fd09d3ec5460ff166112b45760405162461bcd60e51b815260206004820152602860248201527f43726f7373776f72645072697a65733a206e61746976652043454c4f206e6f7460448201526708185b1b1bddd95960c21b6064820152608401610799565b600084116112d45760405162461bcd60e51b815260040161079990612938565b60008351116112f55760405162461bcd60e51b81526004016107999061298a565b600554835111156113185760405162461bcd60e51b8152600401610799906129cb565b82518410156113395760405162461bcd60e51b815260040161079990612a0c565b6000805b84518110156113e957600085828151811061135a5761135a612a5d565b60200260200101511161137f5760405162461bcd60e51b815260040161079990612a73565b611f4085828151811061139457611394612a5d565b602002602001015111156113ba5760405162461bcd60e51b815260040161079990612ad0565b8481815181106113cc576113cc612a5d565b6020026020010151826113df91906128f9565b915060010161133d565b5061271081111561140c5760405162461bcd60e51b815260040161079990612b22565b821561143e5761141f62278d00426128f9565b83111561143e5760405162461bcd60e51b815260040161079990612b70565b600086815260036020908152604090912080546001600160a01b03191681556001810187905585519091611479916002840191880190612468565b506006810184905560078101805460ff191690554260088201556000600982018190556040805188815233602082015281518a927f0fee001940c4884b8fa17931fc404ceb7673af8459a49404e484d47be2f0bcc0928290030190a350505050505050565b6114e6612129565b6114ee6120c0565b60008181526003602052604090206002600782015460ff1660028111156115175761151761270c565b146115985760405162461bcd60e51b815260206004820152604560248201527f43726f7373776f72645072697a65733a2063726f7373776f7264206e6f74206360448201527f6f6d706c657465206f72207072697a657320616c726561647920646973747269606482015264189d5d195960da1b608482015260a401610799565b33600090815260048201602052604090205460ff16156115fa5760405162461bcd60e51b815260206004820181905260248201527f43726f7373776f72645072697a65733a20616c726561647920636c61696d65646044820152606401610799565b6000805b600383015481101561167e57336001600160a01b031683600301828154811061162957611629612a5d565b60009182526020909120600390910201546001600160a01b0316036116765782600301818154811061165d5761165d612a5d565b906000526020600020906003020160020154915061167e565b6001016115fe565b50600081116116de5760405162461bcd60e51b815260206004820152602660248201527f43726f7373776f72645072697a65733a206e6f742061207665726966696564206044820152653bb4b73732b960d11b6064820152608401610799565b60028201548111156117445760405162461bcd60e51b815260206004820152602960248201527f43726f7373776f72645072697a65733a2072616e6b20746f6f206c6f7720666f604482015268722061207072697a6560b81b6064820152608401610799565b60006127106002840161175860018561290c565b8154811061176857611768612a5d565b906000526020600020015484600101546117829190612bbf565b61178c9190612bd6565b9050600081116117ea5760405162461bcd60e51b815260206004820152602360248201527f43726f7373776f72645072697a65733a206e6f207072697a6520617661696c61604482015262626c6560e81b6064820152608401610799565b3360009081526004840160205260409020805460ff1916600117905582546001600160a01b03166118cc5780836009015461182591906128f9565b4710156118445760405162461bcd60e51b815260040161079990612892565b604051600090339083908381818185875af1925050503d8060008114611886576040519150601f19603f3d011682016040523d82523d6000602084013e61188b565b606091505b50509050806118ac5760405162461bcd60e51b815260040161079990612bf8565b818460090160008282546118c091906128f9565b909155506119a8915050565b82546040516370a0823160e01b81523060048201526001600160a01b0390911690829082906370a0823190602401602060405180830381865afa158015611917573d6000803e3d6000fd5b505050506040513d601f19601f8201168201806040525081019061193b919061291f565b101561199d5760405162461bcd60e51b815260206004820152602b60248201527f43726f7373776f72645072697a65733a20696e73756666696369656e7420746f60448201526a6b656e2062616c616e636560a81b6064820152608401610799565b6119a633610b9d565b505b6040805182815260208101849052339186917f0842894bd3663e1d874d069f4495d64331ee07871e8fa4e159ae698421912c90910160405180910390a3505050610ff460018055565b600080516020612c45833981519152611a09816120b6565b60008211611a755760405162461bcd60e51b815260206004820152603360248201527f43726f7373776f72645072697a65733a206d61782077696e6e657273206d75736044820152720742062652067726561746572207468616e203606c1b6064820152608401610799565b600a821115611ad95760405162461bcd60e51b815260206004820152602a60248201527f43726f7373776f72645072697a65733a206d61782077696e6e657273206578636044820152691959591cc81b1a5b5a5d60b21b6064820152608401610799565b50600555565b600082815260208190526040902060010154611afa816120b6565b610c348383612244565b60007f97667070c54ef182b0f5858b034beac1b6f3089aa2d3188bb1e8929f4fa9b929611b30816120b6565b611b386120c0565b60008481526003602052604090206001600782015460ff166002811115611b6157611b6161270c565b14611bbc5760405162461bcd60e51b815260206004820152602560248201527f43726f7373776f72645072697a65733a2063726f7373776f7264206e6f742061604482015264637469766560d81b6064820152608401610799565b6001600160a01b038416611c275760405162461bcd60e51b815260206004820152602c60248201527f43726f7373776f72645072697a65733a2075736572206164647265737320636160448201526b6e6e6f74206265207a65726f60a01b6064820152608401610799565b6001600160a01b038416600090815260048201602052604090205460ff1615611ca25760405162461bcd60e51b815260206004820152602760248201527f43726f7373776f72645072697a65733a20616c7265616479207265636569766560448201526664207072697a6560c81b6064820152608401610799565b600681015415611d00578060060154421115611d005760405162461bcd60e51b815260206004820181905260248201527f43726f7373776f72645072697a65733a20646561646c696e65207061737365646044820152606401610799565b60028101546003820154101580611d1d5750600554600382015410155b15611d2c576000925050611f78565b6003810154600090611d3f9060016128f9565b604080516060810182526001600160a01b0388811680835242602080850191825284860187815260038a810180546001808201835560009283528583208a519290940290930180546001600160a01b031916919098161787559351868201559051600295860155928252600489019052938420805460ff191682179055939450909261271091860190611dd2908661290c565b81548110611de257611de2612a5d565b90600052602060002001548560010154611dfc9190612bbf565b611e069190612bd6565b90508015611ef75783546001600160a01b0316611edf57808460090154611e2d91906128f9565b471015611e4c5760405162461bcd60e51b815260040161079990612892565b6000876001600160a01b03168260405160006040518083038185875af1925050503d8060008114611e99576040519150601f19603f3d011682016040523d82523d6000602084013e611e9e565b606091505b5050905080611ebf5760405162461bcd60e51b815260040161079990612bf8565b81856009016000828254611ed391906128f9565b90915550611ef7915050565b83546001600160a01b0316611ef5818984612153565b505b60408051828152602081018590526001600160a01b038916918a917f0842894bd3663e1d874d069f4495d64331ee07871e8fa4e159ae698421912c90910160405180910390a360028401546003850154101580611f5a5750600554600385015410155b15611f6f5760078401805460ff191660021790555b60019550505050505b5092915050565b6000818152600360208181526040808420805460018201546005830154600684015460078501546002860180548851818b0281018b019099528089528b9a60609a8b9a8d9a8b9a8b9a91996001600160a01b03909116989197948a01959094919360ff909216929187919083018282801561201957602002820191906000526020600020905b815481526020019060010190808311612005575b5050505050945083805480602002602001604051908101604052809291908181526020016000905b82821015612096576000848152602090819020604080516060810182526003860290920180546001600160a01b0316835260018082015484860152600290910154918301919091529083529092019101612041565b505050509350975097509750975097509750975050919395979092949650565b610ff48133612377565b60025460ff161561211f5760405162461bcd60e51b815260206004820152602360248201527f43726f7373776f72645072697a65733a20636f6e7472616374206973207061756044820152621cd95960ea1b6064820152608401610799565b6121276123b0565b565b60026001540361214c57604051633ee5aeb560e01b815260040160405180910390fd5b6002600155565b6040516001600160a01b03838116602483015260448201839052610c6d91859182169063a9059cbb906064015b604051602081830303815290604052915060e01b6020820180516001600160e01b0383818316178352505050506123d4565b60006121be838361106d565b61223c576000838152602081815260408083206001600160a01b03861684529091529020805460ff191660011790556121f43390565b6001600160a01b0316826001600160a01b0316847f2f8788117e7eff1d82e926ec794901d17c78024a50270940304540a733656f0d60405160405180910390a45060016106f7565b5060006106f7565b6000612250838361106d565b1561223c576000838152602081815260408083206001600160a01b0386168085529252808320805460ff1916905551339286917ff6391f5c32d9c69d2a47ea670b442974b53935d1edc7fd64eb21e047a839171b9190a45060016106f7565b6040516001600160a01b038481166024830152838116604483015260648201839052610c349186918216906323b872dd90608401612180565b6122f0612445565b6002805460ff191690557f5db9ee0a495bf2e6ff9c91a7834c1ba4fdd244a5e8aa4e537bd38aeae4b073aa335b6040516001600160a01b03909116815260200160405180910390a1565b6123426120c0565b6002805460ff191660011790557f62e78cea01bee320cd4e420270b5ea74000d11b0c9f74754ebdbfc544b05a25861231d3390565b612381828261106d565b610c0b5760405163e2517d3f60e01b81526001600160a01b038216600482015260248101839052604401610799565b60025460ff16156121275760405163d93c066560e01b815260040160405180910390fd5b600080602060008451602086016000885af1806123f7576040513d6000823e3d81fd5b50506000513d9150811561240f57806001141561241c565b6001600160a01b0384163b155b15610c3457604051635274afe760e01b81526001600160a01b0385166004820152602401610799565b60025460ff1661212757604051638dfc202b60e01b815260040160405180910390fd5b8280548282559060005260206000209081019282156124a3579160200282015b828111156124a3578251825591602001919060010190612488565b506124af9291506124b3565b5090565b5b808211156124af57600081556001016124b4565b6000602082840312156124da57600080fd5b81356001600160e01b0319811681146124f257600080fd5b9392505050565b60006020828403121561250b57600080fd5b5035919050565b80356001600160a01b038116811461252957600080fd5b919050565b6000806040838503121561254157600080fd5b8235915061255160208401612512565b90509250929050565b634e487b7160e01b600052604160045260246000fd5b600082601f83011261258157600080fd5b813567ffffffffffffffff81111561259b5761259b61255a565b8060051b604051601f19603f830116810181811067ffffffffffffffff821117156125c8576125c861255a565b6040529182526020818501810192908101868411156125e657600080fd5b6020860192505b838310156126055782358152602092830192016125ed565b5095945050505050565b600080600080600060a0868803121561262757600080fd5b8535945061263760208701612512565b935060408601359250606086013567ffffffffffffffff81111561265a57600080fd5b61266688828901612570565b95989497509295608001359392505050565b6000806040838503121561268b57600080fd5b61269483612512565b9150602083013580151581146126a957600080fd5b809150509250929050565b600080600080608085870312156126ca57600080fd5b8435935060208501359250604085013567ffffffffffffffff8111156126ef57600080fd5b6126fb87828801612570565b949793965093946060013593505050565b634e487b7160e01b600052602160045260246000fd5b6003811061274057634e487b7160e01b600052602160045260246000fd5b9052565b6001600160a01b038816815260208101879052604081018690526060810185905260e081016127766080830186612722565b60a082019390935260c0015295945050505050565b60006020828403121561279d57600080fd5b6124f282612512565b600081518084526020840193506020830160005b828110156127fa57815180516001600160a01b031687526020808201518189015260409182015191880191909152606090960195909101906001016127ba565b5093949350505050565b6001600160a01b0388168152602080820188905260e0604083018190528751908301819052600091880190610100840190835b81811015612855578351835260209384019390920191600101612837565b5050838103606085015261286981896127a6565b925050508460808301528360a083015261288660c0830184612722565b98975050505050505050565b60208082526031908201527f43726f7373776f72645072697a65733a20696e73756666696369656e74206e61604082015270746976652043454c4f2062616c616e636560781b606082015260800190565b634e487b7160e01b600052601160045260246000fd5b808201808211156106f7576106f76128e3565b818103818111156106f7576106f76128e3565b60006020828403121561293157600080fd5b5051919050565b60208082526032908201527f43726f7373776f72645072697a65733a207072697a6520706f6f6c206d75737460408201527102062652067726561746572207468616e20360741b606082015260800190565b60208082526021908201527f43726f7373776f72645072697a65733a2077696e6e65727320726571756972656040820152601960fa1b606082015260800190565b60208082526021908201527f43726f7373776f72645072697a65733a20746f6f206d616e792077696e6e65726040820152607360f81b606082015260800190565b60208082526031908201527f43726f7373776f72645072697a65733a207072697a6520706f6f6c20746f6f20604082015270736d616c6c20666f722077696e6e65727360781b606082015260800190565b634e487b7160e01b600052603260045260246000fd5b60208082526039908201527f43726f7373776f72645072697a65733a2077696e6e65722070657263656e746160408201527f6765206d7573742062652067726561746572207468616e203000000000000000606082015260800190565b60208082526032908201527f43726f7373776f72645072697a65733a2073696e676c652077696e6e657220706040820152710cae4c6cadce8c2ceca40e8dede40d0d2ced60731b606082015260800190565b6020808252602e908201527f43726f7373776f72645072697a65733a20746f74616c2070657263656e74616760408201526d652065786365656473203130302560901b606082015260800190565b6020808252602f908201527f43726f7373776f72645072697a65733a20656e642074696d6520746f6f20666160408201526e7220696e207468652066757475726560881b606082015260800190565b80820281158282048414176106f7576106f76128e3565b600082612bf357634e487b7160e01b600052601260045260246000fd5b500490565b6020808252602c908201527f43726f7373776f72645072697a65733a206e61746976652043454c4f2074726160408201526b1b9cd9995c8819985a5b195960a21b60608201526080019056fea49807205ce4d355092ef5a8a18f56e8913cf4a201fbe287825b095693c21775a2646970667358221220e63087bb1e7459de97a0bd3109ff15e0b03e52de865a8726aa48345fc120454364736f6c634300081c0033",
  "linkReferences": {},
  "deployedLinkReferences": {},
  "address": "0xd9110b8eedc6a3a66e951de728fe5be6736a5fee"
}