{
  "_format": "hh-sol-artifact-1",
  "contractName": "CrosswordCore",
  "sourceName": "contracts/CrosswordCore.sol",
  "abi": [
    {
      "inputs": [
        {
          "internalType": "address",
          "name": "initialOwner",
          "type": "address"
        }
      ],
      "stateMutability": "nonpayable",
      "type": "constructor"
    },
    {
      "inputs": [],
      "name": "AccessControlBadConfirmation",
      "type": "error"
    },
    {
      "inputs": [
        {
          "internalType": "address",
          "name": "account",
          "type": "address"
        },
        {
          "internalType": "bytes32",
          "name": "neededRole",
          "type": "bytes32"
        }
      ],
      "name": "AccessControlUnauthorizedAccount",
      "type": "error"
    },
    {
      "inputs": [],
      "name": "ECDSAInvalidSignature",
      "type": "error"
    },
    {
      "inputs": [
        {
          "internalType": "uint256",
          "name": "length",
          "type": "uint256"
        }
      ],
      "name": "ECDSAInvalidSignatureLength",
      "type": "error"
    },
    {
      "inputs": [
        {
          "internalType": "bytes32",
          "name": "s",
          "type": "bytes32"
        }
      ],
      "name": "ECDSAInvalidSignatureS",
      "type": "error"
    },
    {
      "inputs": [],
      "name": "EnforcedPause",
      "type": "error"
    },
    {
      "inputs": [],
      "name": "ExpectedPause",
      "type": "error"
    },
    {
      "inputs": [
        {
          "internalType": "address",
          "name": "owner",
          "type": "address"
        }
      ],
      "name": "OwnableInvalidOwner",
      "type": "error"
    },
    {
      "inputs": [
        {
          "internalType": "address",
          "name": "account",
          "type": "address"
        }
      ],
      "name": "OwnableUnauthorizedAccount",
      "type": "error"
    },
    {
      "inputs": [],
      "name": "ReentrancyGuardReentrantCall",
      "type": "error"
    },
    {
      "anonymous": false,
      "inputs": [
        {
          "indexed": true,
          "internalType": "bytes32",
          "name": "crosswordId",
          "type": "bytes32"
        },
        {
          "indexed": true,
          "internalType": "address",
          "name": "user",
          "type": "address"
        },
        {
          "indexed": false,
          "internalType": "uint256",
          "name": "timestamp",
          "type": "uint256"
        },
        {
          "indexed": false,
          "internalType": "uint256",
          "name": "durationMs",
          "type": "uint256"
        }
      ],
      "name": "CrosswordCompleted",
      "type": "event"
    },
    {
      "anonymous": false,
      "inputs": [
        {
          "indexed": true,
          "internalType": "bytes32",
          "name": "crosswordId",
          "type": "bytes32"
        },
        {
          "indexed": false,
          "internalType": "string",
          "name": "crosswordData",
          "type": "string"
        },
        {
          "indexed": false,
          "internalType": "address",
          "name": "updatedBy",
          "type": "address"
        }
      ],
      "name": "CrosswordUpdated",
      "type": "event"
    },
    {
      "anonymous": false,
      "inputs": [
        {
          "indexed": true,
          "internalType": "address",
          "name": "previousOwner",
          "type": "address"
        },
        {
          "indexed": true,
          "internalType": "address",
          "name": "newOwner",
          "type": "address"
        }
      ],
      "name": "OwnershipTransferred",
      "type": "event"
    },
    {
      "anonymous": false,
      "inputs": [
        {
          "indexed": false,
          "internalType": "address",
          "name": "account",
          "type": "address"
        }
      ],
      "name": "Paused",
      "type": "event"
    },
    {
      "anonymous": false,
      "inputs": [
        {
          "indexed": true,
          "internalType": "bytes32",
          "name": "role",
          "type": "bytes32"
        },
        {
          "indexed": true,
          "internalType": "bytes32",
          "name": "previousAdminRole",
          "type": "bytes32"
        },
        {
          "indexed": true,
          "internalType": "bytes32",
          "name": "newAdminRole",
          "type": "bytes32"
        }
      ],
      "name": "RoleAdminChanged",
      "type": "event"
    },
    {
      "anonymous": false,
      "inputs": [
        {
          "indexed": true,
          "internalType": "bytes32",
          "name": "role",
          "type": "bytes32"
        },
        {
          "indexed": true,
          "internalType": "address",
          "name": "account",
          "type": "address"
        },
        {
          "indexed": true,
          "internalType": "address",
          "name": "sender",
          "type": "address"
        }
      ],
      "name": "RoleGranted",
      "type": "event"
    },
    {
      "anonymous": false,
      "inputs": [
        {
          "indexed": true,
          "internalType": "bytes32",
          "name": "role",
          "type": "bytes32"
        },
        {
          "indexed": true,
          "internalType": "address",
          "name": "account",
          "type": "address"
        },
        {
          "indexed": true,
          "internalType": "address",
          "name": "sender",
          "type": "address"
        }
      ],
      "name": "RoleRevoked",
      "type": "event"
    },
    {
      "anonymous": false,
      "inputs": [
        {
          "indexed": false,
          "internalType": "address",
          "name": "account",
          "type": "address"
        }
      ],
      "name": "Unpaused",
      "type": "event"
    },
    {
      "inputs": [],
      "name": "DEFAULT_ADMIN_ROLE",
      "outputs": [
        {
          "internalType": "bytes32",
          "name": "",
          "type": "bytes32"
        }
      ],
      "stateMutability": "view",
      "type": "function"
    },
    {
      "inputs": [
        {
          "internalType": "uint256",
          "name": "durationMs",
          "type": "uint256"
        },
        {
          "internalType": "string",
          "name": "username",
          "type": "string"
        },
        {
          "internalType": "string",
          "name": "displayName",
          "type": "string"
        },
        {
          "internalType": "string",
          "name": "pfpUrl",
          "type": "string"
        },
        {
          "internalType": "bytes",
          "name": "signature",
          "type": "bytes"
        }
      ],
      "name": "completeCrossword",
      "outputs": [],
      "stateMutability": "nonpayable",
      "type": "function"
    },
    {
      "inputs": [
        {
          "internalType": "address",
          "name": "user",
          "type": "address"
        },
        {
          "internalType": "uint256",
          "name": "durationMs",
          "type": "uint256"
        },
        {
          "internalType": "string",
          "name": "username",
          "type": "string"
        },
        {
          "internalType": "string",
          "name": "displayName",
          "type": "string"
        },
        {
          "internalType": "string",
          "name": "pfpUrl",
          "type": "string"
        },
        {
          "internalType": "bytes",
          "name": "signature",
          "type": "bytes"
        }
      ],
      "name": "completeCrosswordForUser",
      "outputs": [],
      "stateMutability": "nonpayable",
      "type": "function"
    },
    {
      "inputs": [
        {
          "internalType": "bytes32",
          "name": "",
          "type": "bytes32"
        },
        {
          "internalType": "uint256",
          "name": "",
          "type": "uint256"
        }
      ],
      "name": "crosswordCompletions",
      "outputs": [
        {
          "internalType": "address",
          "name": "user",
          "type": "address"
        },
        {
          "internalType": "uint256",
          "name": "completionTimestamp",
          "type": "uint256"
        },
        {
          "internalType": "uint256",
          "name": "durationMs",
          "type": "uint256"
        }
      ],
      "stateMutability": "view",
      "type": "function"
    },
    {
      "inputs": [],
      "name": "currentCrosswordData",
      "outputs": [
        {
          "internalType": "string",
          "name": "",
          "type": "string"
        }
      ],
      "stateMutability": "view",
      "type": "function"
    },
    {
      "inputs": [],
      "name": "currentCrosswordId",
      "outputs": [
        {
          "internalType": "bytes32",
          "name": "",
          "type": "bytes32"
        }
      ],
      "stateMutability": "view",
      "type": "function"
    },
    {
      "inputs": [],
      "name": "emergencyClearCrossword",
      "outputs": [],
      "stateMutability": "nonpayable",
      "type": "function"
    },
    {
      "inputs": [
        {
          "internalType": "bytes32",
          "name": "crosswordId",
          "type": "bytes32"
        }
      ],
      "name": "getCrosswordCompletions",
      "outputs": [
        {
          "components": [
            {
              "internalType": "address",
              "name": "user",
              "type": "address"
            },
            {
              "internalType": "uint256",
              "name": "completionTimestamp",
              "type": "uint256"
            },
            {
              "internalType": "uint256",
              "name": "durationMs",
              "type": "uint256"
            }
          ],
          "internalType": "struct CrosswordCore.CrosswordCompletion[]",
          "name": "",
          "type": "tuple[]"
        }
      ],
      "stateMutability": "view",
      "type": "function"
    },
    {
      "inputs": [],
      "name": "getCurrentCrossword",
      "outputs": [
        {
          "internalType": "bytes32",
          "name": "",
          "type": "bytes32"
        },
        {
          "internalType": "string",
          "name": "",
          "type": "string"
        },
        {
          "internalType": "uint256",
          "name": "",
          "type": "uint256"
        }
      ],
      "stateMutability": "view",
      "type": "function"
    },
    {
      "inputs": [
        {
          "internalType": "bytes32",
          "name": "role",
          "type": "bytes32"
        }
      ],
      "name": "getRoleAdmin",
      "outputs": [
        {
          "internalType": "bytes32",
          "name": "",
          "type": "bytes32"
        }
      ],
      "stateMutability": "view",
      "type": "function"
    },
    {
      "inputs": [
        {
          "internalType": "address",
          "name": "user",
          "type": "address"
        }
      ],
      "name": "getUserProfile",
      "outputs": [
        {
          "internalType": "string",
          "name": "",
          "type": "string"
        },
        {
          "internalType": "string",
          "name": "",
          "type": "string"
        },
        {
          "internalType": "string",
          "name": "",
          "type": "string"
        },
        {
          "internalType": "uint256",
          "name": "",
          "type": "uint256"
        }
      ],
      "stateMutability": "view",
      "type": "function"
    },
    {
      "inputs": [
        {
          "internalType": "bytes32",
          "name": "role",
          "type": "bytes32"
        },
        {
          "internalType": "address",
          "name": "account",
          "type": "address"
        }
      ],
      "name": "grantRole",
      "outputs": [],
      "stateMutability": "nonpayable",
      "type": "function"
    },
    {
      "inputs": [
        {
          "internalType": "bytes32",
          "name": "",
          "type": "bytes32"
        },
        {
          "internalType": "address",
          "name": "",
          "type": "address"
        }
      ],
      "name": "hasCompletedCrossword",
      "outputs": [
        {
          "internalType": "bool",
          "name": "",
          "type": "bool"
        }
      ],
      "stateMutability": "view",
      "type": "function"
    },
    {
      "inputs": [
        {
          "internalType": "bytes32",
          "name": "role",
          "type": "bytes32"
        },
        {
          "internalType": "address",
          "name": "account",
          "type": "address"
        }
      ],
      "name": "hasRole",
      "outputs": [
        {
          "internalType": "bool",
          "name": "",
          "type": "bool"
        }
      ],
      "stateMutability": "view",
      "type": "function"
    },
    {
      "inputs": [],
      "name": "lastUpdateTime",
      "outputs": [
        {
          "internalType": "uint256",
          "name": "",
          "type": "uint256"
        }
      ],
      "stateMutability": "view",
      "type": "function"
    },
    {
      "inputs": [],
      "name": "owner",
      "outputs": [
        {
          "internalType": "address",
          "name": "",
          "type": "address"
        }
      ],
      "stateMutability": "view",
      "type": "function"
    },
    {
      "inputs": [],
      "name": "pause",
      "outputs": [],
      "stateMutability": "nonpayable",
      "type": "function"
    },
    {
      "inputs": [],
      "name": "paused",
      "outputs": [
        {
          "internalType": "bool",
          "name": "",
          "type": "bool"
        }
      ],
      "stateMutability": "view",
      "type": "function"
    },
    {
      "inputs": [],
      "name": "renounceOwnership",
      "outputs": [],
      "stateMutability": "nonpayable",
      "type": "function"
    },
    {
      "inputs": [
        {
          "internalType": "bytes32",
          "name": "role",
          "type": "bytes32"
        },
        {
          "internalType": "address",
          "name": "callerConfirmation",
          "type": "address"
        }
      ],
      "name": "renounceRole",
      "outputs": [],
      "stateMutability": "nonpayable",
      "type": "function"
    },
    {
      "inputs": [
        {
          "internalType": "bytes32",
          "name": "role",
          "type": "bytes32"
        },
        {
          "internalType": "address",
          "name": "account",
          "type": "address"
        }
      ],
      "name": "revokeRole",
      "outputs": [],
      "stateMutability": "nonpayable",
      "type": "function"
    },
    {
      "inputs": [
        {
          "internalType": "bytes32",
          "name": "crosswordId",
          "type": "bytes32"
        },
        {
          "internalType": "string",
          "name": "crosswordData",
          "type": "string"
        }
      ],
      "name": "setCrossword",
      "outputs": [],
      "stateMutability": "nonpayable",
      "type": "function"
    },
    {
      "inputs": [
        {
          "internalType": "address",
          "name": "newSigner",
          "type": "address"
        }
      ],
      "name": "setSigner",
      "outputs": [],
      "stateMutability": "nonpayable",
      "type": "function"
    },
    {
      "inputs": [],
      "name": "signer",
      "outputs": [
        {
          "internalType": "address",
          "name": "",
          "type": "address"
        }
      ],
      "stateMutability": "view",
      "type": "function"
    },
    {
      "inputs": [
        {
          "internalType": "bytes4",
          "name": "interfaceId",
          "type": "bytes4"
        }
      ],
      "name": "supportsInterface",
      "outputs": [
        {
          "internalType": "bool",
          "name": "",
          "type": "bool"
        }
      ],
      "stateMutability": "view",
      "type": "function"
    },
    {
      "inputs": [
        {
          "internalType": "address",
          "name": "newOwner",
          "type": "address"
        }
      ],
      "name": "transferOwnership",
      "outputs": [],
      "stateMutability": "nonpayable",
      "type": "function"
    },
    {
      "inputs": [],
      "name": "unpause",
      "outputs": [],
      "stateMutability": "nonpayable",
      "type": "function"
    },
    {
      "inputs": [
        {
          "internalType": "bytes32",
          "name": "crosswordId",
          "type": "bytes32"
        },
        {
          "internalType": "address",
          "name": "user",
          "type": "address"
        }
      ],
      "name": "userCompletedCrossword",
      "outputs": [
        {
          "internalType": "bool",
          "name": "",
          "type": "bool"
        }
      ],
      "stateMutability": "view",
      "type": "function"
    },
    {
      "inputs": [
        {
          "internalType": "address",
          "name": "",
          "type": "address"
        }
      ],
      "name": "userProfiles",
      "outputs": [
        {
          "internalType": "string",
          "name": "username",
          "type": "string"
        },
        {
          "internalType": "string",
          "name": "displayName",
          "type": "string"
        },
        {
          "internalType": "string",
          "name": "pfpUrl",
          "type": "string"
        },
        {
          "internalType": "uint256",
          "name": "timestamp",
          "type": "uint256"
        }
      ],
      "stateMutability": "view",
      "type": "function"
    }
  ],
  "bytecode": "0x608060405234610028576100196100146100bf565b6100f4565b6040516128bf90816103f98239f35b600080fd5b634e487b7160e01b600052604160045260246000fd5b90601f01601f191681019081106001600160401b0382111761006457604052565b61002d565b9061007d61007660405190565b9283610043565b565b6001600160a01b031690565b90565b6100978161007f565b0361002857565b9050519061007d8261008e565b906020828203126100285761008b9161009e565b61008b612cb8803803806100d281610069565b9283398101906100ab565b61008b61008b61008b9290565b61008b60006100dd565b6101649061010181610167565b6101128161010d6100ea565b6102b5565b5061013d817fa49807205ce4d355092ef5a8a18f56e8913cf4a201fbe287825b095693c217756102b5565b507f97667070c54ef182b0f5858b034beac1b6f3089aa2d3188bb1e8929f4fa9b9296102b5565b50565b61007d906101a6565b61008b60016100dd565b90600019905b9181191691161790565b61019961008b6101a1926100dd565b60025461017a565b600255565b6101af906101bf565b61007d6101ba610170565b61018a565b61007d9061007d9061007d9061007d90610207565b61007f61008b61008b9290565b61008b906101d4565b6101f39061007f565b9052565b60208101929161007d91906101ea565b6000610212816101e1565b61021b8161007f565b6102248461007f565b1461023457505061007d9061037a565b631e4fbdf760e01b8252819061024d90600483016101f7565b0390fd5b905b600052602052604060002090565b61008b9061007f906001600160a01b031682565b61008b90610261565b61008b90610275565b906102539061027e565b9060ff90610180565b906102aa61008b6102b192151590565b8254610291565b9055565b6102c66102c283836103d6565b1590565b15610334576001916102ed836102e88360006102e28785610251565b01610287565b61029a565b339061032361031d61031d7f2f8788117e7eff1d82e926ec794901d17c78024a50270940304540a733656f0d9590565b9261027e565b9261032d60405190565b600090a490565b5050600090565b61008b9061007f565b61008b60005461033b565b906001600160a01b0390610180565b61036d61008b6103759261027e565b60005461034f565b600055565b610382610344565b9061038c8161035e565b6103bf6103b97f8be0079c531659141344cd1fd0a4f28419497f9722a3daafe3b4186f6b6457e09361027e565b9161027e565b916103c960405190565b600090a3565b5460ff1690565b61008b9160006102e26103f3936103eb600090565b506001610251565b6103cf56fe6080604052600436101561001257600080fd5b60003560e01c806301ffc9a7146101e25780631dc626b1146101dd5780631e31df88146101d8578063238ac933146101d3578063248a9ca3146101ce57806324cbad25146101c95780632f2ff15d146101c4578063317d609b146101bf57806331bd2691146101ba578063332d56d7146101b557806336568abe146101b05780633f4ba83a146101ab5780635c975abb146101a65780636c19e783146101a1578063715018a61461019c5780637849dbaa14610197578063842a42e3146101925780638456cb591461018d5780638da5cb5b1461018857806391d1485414610183578063987ee1561461017e578063a090a35614610179578063a217fddf14610174578063b38e9dde1461016f578063c8f33c911461016a578063cb0e184914610165578063d547741f14610160578063dd1242121461015b5763f2fde38b036101e757610d8d565b610d6a565b610cbd565b610c9d565b610bc9565b610b94565b610a8d565b610a49565b61098f565b610975565b61095c565b610946565b610930565b610908565b6108d0565b6108ba565b6108a1565b61088b565b610874565b610845565b61076d565b610734565b61063f565b610625565b610589565b61054d565b6104e6565b6102c7565b610235565b600080fd5b6001600160e01b03191690565b610202816101ec565b036101e757565b90503590610216826101f9565b565b602060048203126101e75761022e906004610209565b90565b9052565b346101e75761026061024e61024936610218565b610da3565b60405191829182901515815260200190565b0390f35b80610202565b9050359061021682610264565b6001600160a01b031690565b61022e90610277565b61020281610283565b905035906102168261028c565b906004916040838203126101e75761022e9060206102c0828661026a565b9401610295565b346101e75761026061024e6102db366102a2565b90610df0565b600460009103126101e757565b634e487b7160e01b600052600060045260246000fd5b634e487b7160e01b600052602260045260246000fd5b906001600283049216801561033a575b602083101461033557565b610304565b91607f169161032a565b90600092918054916103626103588461031a565b8083529160200190565b916001936001811690816000146103d65750600114610382575b50505050565b8394955061039890939293600052602060002090565b6000945b6103af575b50505001903880808061037c565b8185939510156103ce578054838501526020909201939182018261039c565b8294506103a1565b60ff191684525050151560200201925038905080808061037c565b9061022e91610344565b634e487b7160e01b600052604160045260246000fd5b90601f01601f191681019081106001600160401b0382111761043257604052565b6103fb565b906102166104519261044860405190565b938480926103f1565b0383610411565b906000106104695761022e90610437565b6102ee565b61022e60006005610458565b60005b83811061048d5750506000910152565b818101518382015260200161047d565b6104be6104c76020936104d1936104b2815190565b80835293849260200190565b9586910161047a565b601f01601f191690565b0190565b602080825261022e9291019061049d565b346101e7576104f4366102e1565b6102606104ff61046e565b604051918291826104d5565b61022e916008021c610277565b610277565b9061022e915461050b565b61022e6000600a61051d565b61023190610283565b6020810192916102169190610534565b346101e75761055b366102e1565b610260610566610528565b6040515b9182918261053d565b602060048203126101e75761022e90600461026a565b346101e7576102606105a261059d36610573565b610e1b565b6040519182918290815260200190565b905b600052602052604060002090565b61051861022e61022e92610277565b61022e906105c2565b61022e906105d1565b906105b4906105da565b61022e916008021c5b60ff1690565b9061022e91546105ed565b61062061022e9261061b60009360086105b2565b6105e3565b6105fc565b346101e75761026061024e610639366102a2565b90610607565b346101e757610656610650366102a2565b90610e5c565b604051005b60405190610216606083610411565b60405190610216608083610411565b9061021661068660405190565b9283610411565b6001600160401b03811161043257602090601f01601f19160190565b90826000939282370152565b909291926106ca6106c58261068d565b610679565b93818552818301116101e7576102169160208501906106a9565b9080601f830112156101e75781602061022e933591016106b5565b9060046040818403126101e757610716838261026a565b9260208201356001600160401b0381116101e75761022e92016106e4565b346101e757610656610745366106ff565b90611266565b61022e916008021c81565b9061022e915461074b565b61022e60006004610756565b346101e75761077b366102e1565b6102606105a2610761565b602060048203126101e75761022e906004610295565b61022e9081565b61022e60065461079c565b61022e60025461079c565b61022e905461079c565b6107ce9060096105e3565b906107d882610437565b916107e560018201610437565b9161022e60036107f760028501610437565b93016107b9565b949391610216936108326108409261082460609560808b01908b820360008d015261049d565b9089820360208b015261049d565b90878203604089015261049d565b940152565b346101e75761026061085e61085936610786565b6107c3565b9061086b94929460405190565b948594856107fe565b346101e757610656610885366102a2565b90611270565b346101e757610899366102e1565b6106566112c1565b346101e7576108af366102e1565b61026061024e6112c9565b346101e7576106566108cb36610786565b6113b1565b346101e7576108de366102e1565b6106566113f2565b908152929161021691604090610840906060870190878203602089015261049d565b346101e757610916366102e1565b610260610921611403565b604051919391938493846108e6565b346101e75761093e366102e1565b6106566114a0565b346101e757610954366102e1565b6106566114be565b346101e75761096a366102e1565b6102606105666114c6565b346101e75761026061024e610989366102a2565b906114ce565b346101e75761026061085e6109a336610786565b6114f1565b90604080610216936109c260008201516000860190610534565b6109d160208201516020860152565b0151910152565b906104d1816060936109a8565b90610a056109fe6109f4845190565b8084529260200190565b9260200190565b9060005b818110610a165750505090565b909192610a30610a2960019286516109d8565b9460200190565b929101610a09565b602080825261022e929101906109e5565b346101e757610260610a62610a5d36610573565b61161f565b60405191829182610a38565b61022e61022e61022e9290565b61022e6000610a6e565b61022e610a7b565b346101e757610a9b366102e1565b6102606105a2610a85565b906004916040838203126101e75761022e906020610ac4828661026a565b940161026a565b634e487b7160e01b600052603260045260246000fd5b8054821015610b0457610afb600391600052602060002090565b91020190600090565b610acb565b61022e600054610283565b61022e600a54610283565b61022e9054610283565b610b349060076105b2565b90610b3d825490565b8110156101e757610b4d91610ae1565b50610b5781610b1f565b9161022e60026107f7600185016107b9565b604090610b906102169496959396610b8960608401986000850190610534565b6020830152565b0152565b346101e757610260610bae610ba836610aa6565b90610b29565b60405191939193849384610b69565b61022e60006006610756565b346101e757610bd7366102e1565b6102606105a2610bbd565b909182601f830112156101e7578135916001600160401b0383116101e75760200192600183028401116101e757565b60049160a0838303126101e757610c28828461026a565b926001600160401b039160208201358381116101e75784610c4a918401610be2565b93909460408401358281116101e75781610c65918601610be2565b93909460608101358481116101e75783610c80918301610be2565b93909460808301359081116101e757610c999201610be2565b9091565b346101e757610656610cae36610c11565b97969096959195949294611cfe565b346101e757610656610cce366102a2565b90611d2a565b60049060c0828203126101e757610ceb8183610295565b92610cf9826020850161026a565b926001600160401b039160408201358381116101e75784610d1b918401610be2565b93909460608401358281116101e75781610d36918601610be2565b93909460808101358481116101e75783610d51918301610be2565b93909460a08301359081116101e757610c999201610be2565b346101e757610656610d7b36610cd4565b98979097969196959295949394611ff4565b346101e757610656610d9e36610786565b612058565b610db3637965db0b60e01b6101ec565b610dbc826101ec565b14908115610dc8575090565b61022e9150612061565b61022e906105f6565b61022e600354610dd2565b61022e9054610dd2565b61022e9161061b610e0b92610e03600090565b5060086105b2565b610de6565b61022e60045461079c565b6001610e3361022e92610e2c600090565b50826105b2565b016107b9565b9061021691610e4f610e4a82610e1b565b61207e565b90610e5991612089565b50565b9061021691610e39565b610e736106c5601261068d565b9060128252565b610e876106c5600a61068d565b90600a8252565b610e9b6106c5600c61068d565b90600c8252565b610eaf6106c5600e61068d565b90600e8252565b610ec36106c5601161068d565b9060118252565b610ed76106c5601061068d565b9060108252565b610eeb6106c5601461068d565b9060148252565b610eff6106c5600f61068d565b90600f8252565b610f0e610e66565b712737ba1037bbb732b91037b91030b236b4b760711b602082015290565b61022e610f06565b61022e610f2c565b9061021691610f70610f4d306105da565b610f56306105da565b903390610f6a610f64610f34565b936105da565b90612109565b9061021691610f7d61211d565b6111f2565b610f8a610e7a565b694461746120656d70747960b01b602082015290565b61022e610f82565b61022e610fa0565b90600019905b9181191691161790565b610fcd61022e610fd59290565b600454610fb0565b600455565b9160001960089290920291821b911b610fb6565b9190610fff61022e61100793610a6e565b908354610fda565b9055565b6102169060008091610fee565b818110611023575050565b8061102f60019261100b565b01611018565b9190601f811161104457505050565b61105661021693600052602060002090565b906020601f840181900483019310611078575b6020601f909101040190611018565b9091508190611069565b9060001960089091021c191690565b8161109b91611082565b906002021790565b906110ac815190565b906001600160401b038211610432576110cf826110c9855461031a565b85611035565b602090601f83116001146110fd576110079291600091836110f2575b5050611091565b0151905038806110eb565b601f1983169161111285600052602060002090565b9260005b81811061115157509160029391856001969410611137575b50505002019055565b611147910151601f841690611082565b905538808061112e565b91936020600181928787015181550195019201611116565b6102169060056110a3565b90610216916110a3565b61118d61022e61119592610a6e565b600654610fb0565b600655565b6111a961022e6111b192610a6e565b600254610fb0565b600255565b906111c661022e61100792610a6e565b8254610fb0565b929160206111ea610216936040870190878203600089015261049d565b940190610534565b61120d6111fd610fa8565b6112076001610a6e565b8461213d565b61121681610fc0565b61121f82611169565b6112284261117e565b337f1fcbf8c050c3ad4a9a3d6c5ca8f983e2e64047546e28251a7cc5a80daae27e73919261126161125860405190565b928392836111cd565b0390a2565b9061021691610f3c565b9061127f33610283565b610283565b61128882610283565b0361129657610e599161215d565b63334bd91960e11b60009081528060045b0390fd5b6112b6610e4a610a7b565b61021661021661220e565b6102166112ab565b61022e610ddb565b7fa49807205ce4d355092ef5a8a18f56e8913cf4a201fbe287825b095693c2177590565b61021690611304610e4a6112d1565b611397565b611311610e8e565b6b5a65726f206164647265737360a01b602082015290565b61022e611309565b61022e611329565b906001600160a01b0390610fb6565b61135761022e61135f926105da565b600a54611339565b600a55565b61137361022e61137b926105da565b600054611339565b600055565b9061139061022e611007926105da565b8254611339565b610216906113ac6113a6611331565b82612216565b611348565b610216906112f5565b6113c2612238565b6102166113e0565b61051861022e61022e9290565b61022e906113ca565b6102166113ed60006113d7565b612271565b6102166113ba565b61022e90610437565b61140b610e10565b6114136107a3565b909161141f60056113fa565b9190565b61142b612238565b61021661147d565b90601f8111611440575050565b61145261021692600052602060002090565b908190611078565b61146d611467825461031a565b82611433565b60009055565b610216600561145a565b61148f61148a6000610a6e565b610fc0565b611497611473565b6102164261117e565b610216611423565b6114b3610e4a610a7b565b61021661021661230b565b6102166114a8565b61022e610b09565b61022e9160006114eb610e0b936114e3600090565b5060016105b2565b016105e3565b61022e61150891611500606090565b5060096105e3565b600181019160028201919061141f61153461152e611528600386016107b9565b946113fa565b956113fa565b936113fa565b6001600160401b0381116104325760208091020190565b9061155e6106c58361153a565b918252565b9061023190610283565b61022e61065b565b906102166115af600261158661156d565b9461159961159382610b1f565b87611563565b610e336115a8600183016107b9565b6020880152565b6040840152565b61022e90611575565b906115c8825490565b6115d181611551565b9260206115e76020860192600052602060002090565b6000925b8484106115f9575050505050565b600383600192611608856115b6565b8152019201930192906115eb565b61022e906115bf565b61163661022e9161162e606090565b5060076105b2565b611616565b90611654989796959493929161164f61231d565b61165c565b610216612359565b90610216989796959493929161167061211d565b611a49565b61167d610ea2565b6d24b73b30b634b21039b2b73232b960911b602082015290565b61022e611675565b61022e611697565b6116af610eb6565b70105b1c9958591e4818dbdb5c1b195d1959607a1b602082015290565b61022e6116a7565b61022e6116cc565b156116e45750565b6112a7906116f160405190565b62461bcd60e51b8152918291600483016104d5565b61170e610e8e565b6b139bc818dc9bdcdcdddbdc9960a21b602082015290565b61022e611706565b61022e611726565b61173e610e8e565b6b04475726174696f6e203e20360a41b602082015290565b61022e611736565b61022e611756565b61176e610eca565b6f496e76616c696420757365726e616d6560801b602082015290565b61022e611766565b61022e61178a565b61022e9136916106b5565b61022e6064610a6e565b6117b7610ede565b73496e76616c696420646973706c6179206e616d6560601b602082015290565b61022e6117af565b61022e6117d7565b61022e60c8610a6e565b61022e6101f4610a6e565b611804610eca565b6f5066702055524c20746f6f206c6f6e6760801b602082015290565b61022e6117fc565b61022e611820565b611838610ea2565b6d14da59db995c881b9bdd081cd95d60921b602082015290565b61022e611830565b61022e611852565b61186e61023191610283565b60601b90565b9261189760206104d194611891601488611891829b9a8699611862565b01918252565b018092611862565b6118a7610eb6565b70496e76616c6964207369676e617475726560781b602082015290565b61022e61189f565b61022e6118c4565b61022e6103e8610a6e565b6118e7610ef2565b6e4d617820636f6d706c6574696f6e7360881b602082015290565b61022e6118df565b61022e611902565b61022e9051610283565b5190565b600261195c60406102169461194061193a60008301611912565b86611380565b61195761194e602083015190565b600187016111b6565b015190565b91016111b6565b91906104695761021691611920565b80549190600160401b831015610432578261199591600161021695018155610ae1565b90611963565b9060ff90610fb6565b6119b361022e6119bb92151590565b60035461199b565b600355565b906119d061022e61100792151590565b825461199b565b61022e61066a565b600361195c6060610216946119fe6119f8600083015190565b86611174565b611a15611a0c602083015190565b60018701611174565b611957611a23604083015190565b60028701611174565b90610216916119df565b9081526040810192916102169160200152565b9796929195939096611a5961169f565b611a639033612216565b611a6b610e10565b9788946008611a7a87826105b2565b33611a84916105e3565b611a8d90610de6565b15611a966116d4565b611a9f916116dc565b600093611aab85610a6e565b8890611ab561172e565b91141590611ac2916116dc565b8c611acb61175e565b611ad491612369565b600192611adf611792565b611ae98d8761179a565b611af286610a6e565b9182611afd9261213d565b611b056117a5565b8d611b0e611792565b90611b19908961179a565b91611b2392612381565b611b2b6117df565b611b35898b61179a565b91611b3f9261213d565b611b476117e7565b611b4f6117df565b611b59898b61179a565b91611b6392612381565b611b6b6117f1565b8a8c611b75611828565b91611b7f9161179a565b91611b8992612381565b8d611b92610b14565b90611b9b61185a565b611ba59083612216565b611bae306105da565b9a611bb860405190565b91829160209d8e8401923392611bce9385611874565b908103825203611bde9082610411565b8051906020012092611bee6118cc565b92611bf89461239d565b508a600781611c0781836105b2565b54611c106118d4565b611c1861190a565b911090611c24916116dc565b611c2d916105b2565b8d611c3661156d565b90611c4333898401611563565b611c4d42838d0152565b6040820152611c5b91611972565b611c64916105b2565b33611c6e916105e3565b90611c78916119c0565b611c806119d7565b97611c8a9161179a565b90870152611c979161179a565b90840152611ca49161179a565b6040820152611cb4426060830152565b611cbf3360096105e3565b90611cc991611a2c565b60008051602061286a833981519152611ce1336105da565b92611ceb60405190565b80914290611cf99183611a36565b0390a3565b90610216989796959493929161163b565b9061021691611d20610e4a82610e1b565b90610e599161215d565b9061021691611d0f565b90611654999897969594939291611d4961231d565b90610216999897969594939291611d5e61211d565b8098999794939695929199611d7161169f565b611d7b9083612216565b611d83610e10565b9860089183611d928c856105b2565b90611d9c916105e3565b611da590610de6565b15611dae6116d4565b611db7916116dc565b611dc16000610a6e565b8b90611dcb61172e565b91141590611dd8916116dc565b8c611de161175e565b611dea91612369565b611df2611792565b611dfc8b8761179a565b611e066001610a6e565b9182611e119261213d565b611e196117a5565b611e21611792565b611e2b8d8961179a565b91611e3592612381565b611e3d6117df565b611e47888a61179a565b91611e519261213d565b611e596117e7565b611e616117df565b611e6b888a61179a565b91611e7592612381565b611e7d6117f1565b611e85611828565b611e8f8a8c61179a565b91611e9992612381565b8c8b611ea3610b14565b91611eac61185a565b611eb69084612216565b611ebf306105da565b90611ec960405190565b9283926020840192611edc923385611874565b908103825203611eec9082610411565b8051906020012092611efc6118cc565b92611f069461239d565b5088600781611f1581836105b2565b54611f1e6118d4565b611f2661190a565b911090611f32916116dc565b611f3b916105b2565b611f4361156d565b611f4d8582611563565b611f58426020830152565b611f638e6040830152565b611f6c91611972565b611f75916105b2565b90611f7f916105e3565b6001611f8a916119c0565b611f926119d7565b95611f9c9161179a565b8552611fa79161179a565b6020840152611fb59161179a565b6040820152611fc5426060830152565b611fd08360096105e3565b90611fda91611a2c565b60008051602061286a8339815191529091611ce1906105da565b90610216999897969594939291611d34565b61021690612012612238565b600061201d816113d7565b61202681610283565b61202f84610283565b1461203f57505061021690612271565b631e4fbdf760e01b825281906112a7906004830161053d565b61021690612006565b61207a6120746301ffc9a760e01b6101ec565b916101ec565b1490565b610216903390612424565b61209a61209683836114ce565b1590565b15612102576001916120bb836120b68360006114eb87856105b2565b6119c0565b33906120f16120eb6120eb7f2f8788117e7eff1d82e926ec794901d17c78024a50270940304540a733656f0d9590565b926105da565b926120fb60405190565b600090a490565b5050600090565b916121189161021694936124c2565b6116dc565b6121256112c9565b61212b57565b63d93c066560e01b6000908152600490fd5b9061215661141f61215261191c610216969590565b9290565b10156116dc565b9061216881836114ce565b156121025761218260006120b683826114eb8760016105b2565b33906121b26120eb6120eb7ff6391f5c32d9c69d2a47ea670b442974b53935d1edc7fd64eb21e047a839171b9590565b926121bc60405190565b600090a4600190565b6121cd6125ee565b6102166121da60006119a4565b336122097f5db9ee0a495bf2e6ff9c91a7834c1ba4fdd244a5e8aa4e537bd38aeae4b073aa9161056a60405190565b0390a1565b6102166121c5565b906102169161223161222b61127a60006113d7565b91610283565b14156116dc565b6122406114c6565b339061224e61222b83610283565b036122565750565b63118cdaa760e01b60009081529081906112a790600461053d565b612279610b09565b9061228381611364565b6122b66122b07f8be0079c531659141344cd1fd0a4f28419497f9722a3daafe3b4186f6b6457e0936105da565b916105da565b916122c060405190565b8080611cf9565b6122cf61211d565b6102166122dc60016119a4565b336122097f62e78cea01bee320cd4e420270b5ea74000d11b0c9f74754ebdbfc544b05a2589161056a60405190565b6102166122c7565b61022e6002610a6e565b6123256107ae565b61232d612313565b90811461233d576102169061119a565b633ee5aeb560e01b6000908152600490fd5b61022e6001610a6e565b61021661236461234f565b61119a565b906102169161237b61141f6000610a6e565b116116dc565b9061239661141f61215261191c610216969590565b11156116dc565b6123fa916123ee61022e9596946123e86123f4946123b9600090565b507b0ca2ba3432b932bab69029b4b3b732b21026b2b9b9b0b3b29d05199960211b600052601c52603c60002090565b9261179a565b90612611565b93610283565b61240384610283565b146116dc565b916020610216929493610b9060408201966000830190610534565b9061243261209682846114ce565b61243a575050565b63e2517d3f60e01b60009081529182916112a791906004612409565b905051906102168261028c565b906020828203126101e75761022e91612456565b6040513d6000823e3d90fd5b801515610202565b9050519061021682612483565b906020828203126101e75761022e9161248b565b9081526040810192916102169160200190610534565b6124da6124f2919392936124d4600090565b506105da565b638da5cb5b906124e960405190565b92839260e01b90565b825281600481016020948593815a930392fa9081156125bc576000916125c1575b5061252061222b84610283565b14918215612530575b5050905090565b915061256461253f82946105da565b6391d1485461256f61254f6112d1565b9561255960405190565b968795869460e01b90565b8452600484016124ac565b91815a930392fa9182156125bc5760009261258f575b5050803880612529565b6125ae9250803d106125b5575b6125a68183610411565b810190612498565b3880612585565b503d61259c565b612477565b6125e19150823d84116125e7575b6125d98183610411565b810190612463565b38612513565b503d6125cf565b6125f96120966112c9565b6125ff57565b638dfc202b60e01b6000908152600490fd5b61022e9161261e91612627565b909291926126c7565b90600091612633825190565b61264061141f6041610a6e565b0361266a5761266392506020820151906060604084015193015160001a906127aa565b9192909190565b50905061268761268261267d60006113d7565b925190565b610a6e565b909160029190565b634e487b7160e01b600052602160045260246000fd5b600411156126af57565b61268f565b90610216826126a5565b61022e90610a6e565b906000916126d4836126b4565b6126dd826126b4565b036126e757505050565b6126f160016126b4565b6126fa826126b4565b0361270e5763f645eedf60e01b8352600483fd5b61271860026126b4565b612721826126b4565b0361274a57506112a761273483926126be565b63fce698f760e01b835260048301526024820190565b61275d61275760036126b4565b916126b4565b14612766575050565b6335e2f38360e21b82526004820152602490fd5b610b90610216946127a3606094989795612799608086019a6000870152565b60ff166020850152565b6040830152565b939291906127b7836126be565b6127d961141f6fa2a8918ca85bafe22016d0b997e4df60600160ff1b03610a6e565b1161285357916127f6916020936127ef60405190565b968761277a565b9260009384918280526001815a930392fa156125bc57815190612818836113d7565b61282181610283565b61282a84610283565b1461283f575061283983610a6e565b91929190565b91509161284b90610a6e565b909160019190565b505090915061286260006113d7565b916003919056fed874e861282b2f8594edf306850dc2b69894038be0181c78618d086be9d6a7b8a264697066735822122037b5daff501a396468fcad022f94d4a99bcb11ef3061819d6d677c568ab429c264736f6c634300081c0033",
  "linkReferences": {},
  "deployedLinkReferences": {}
}