{
  "_format": "hh-sol-artifact-1",
  "contractName": "CrosswordPrizes",
  "sourceName": "contracts/CrosswordPrizes.sol",
  "abi": [
    {
      "inputs": [
        {
          "internalType": "address",
          "name": "initialAdmin",
          "type": "address"
        }
      ],
      "stateMutability": "nonpayable",
      "type": "constructor"
    },
    {
      "inputs": [],
      "name": "AccessControlBadConfirmation",
      "type": "error"
    },
    {
      "inputs": [
        {
          "internalType": "address",
          "name": "account",
          "type": "address"
        },
        {
          "internalType": "bytes32",
          "name": "neededRole",
          "type": "bytes32"
        }
      ],
      "name": "AccessControlUnauthorizedAccount",
      "type": "error"
    },
    {
      "inputs": [],
      "name": "EnforcedPause",
      "type": "error"
    },
    {
      "inputs": [],
      "name": "ExpectedPause",
      "type": "error"
    },
    {
      "inputs": [
        {
          "internalType": "address",
          "name": "owner",
          "type": "address"
        }
      ],
      "name": "OwnableInvalidOwner",
      "type": "error"
    },
    {
      "inputs": [
        {
          "internalType": "address",
          "name": "account",
          "type": "address"
        }
      ],
      "name": "OwnableUnauthorizedAccount",
      "type": "error"
    },
    {
      "inputs": [],
      "name": "ReentrancyGuardReentrantCall",
      "type": "error"
    },
    {
      "inputs": [
        {
          "internalType": "address",
          "name": "token",
          "type": "address"
        }
      ],
      "name": "SafeERC20FailedOperation",
      "type": "error"
    },
    {
      "anonymous": false,
      "inputs": [
        {
          "indexed": true,
          "internalType": "bytes32",
          "name": "crosswordId",
          "type": "bytes32"
        },
        {
          "indexed": false,
          "internalType": "uint256",
          "name": "activationTime",
          "type": "uint256"
        }
      ],
      "name": "CrosswordActivated",
      "type": "event"
    },
    {
      "anonymous": false,
      "inputs": [
        {
          "indexed": true,
          "internalType": "bytes32",
          "name": "crosswordId",
          "type": "bytes32"
        },
        {
          "indexed": true,
          "internalType": "address",
          "name": "token",
          "type": "address"
        },
        {
          "indexed": false,
          "internalType": "uint256",
          "name": "prizePool",
          "type": "uint256"
        },
        {
          "indexed": false,
          "internalType": "address",
          "name": "creator",
          "type": "address"
        }
      ],
      "name": "CrosswordCreated",
      "type": "event"
    },
    {
      "anonymous": false,
      "inputs": [
        {
          "indexed": false,
          "internalType": "uint256",
          "name": "oldMaxWinners",
          "type": "uint256"
        },
        {
          "indexed": false,
          "internalType": "uint256",
          "name": "newMaxWinners",
          "type": "uint256"
        },
        {
          "indexed": false,
          "internalType": "address",
          "name": "changedBy",
          "type": "address"
        }
      ],
      "name": "MaxWinnersChanged",
      "type": "event"
    },
    {
      "anonymous": false,
      "inputs": [
        {
          "indexed": true,
          "internalType": "address",
          "name": "sender",
          "type": "address"
        },
        {
          "indexed": false,
          "internalType": "uint256",
          "name": "amount",
          "type": "uint256"
        }
      ],
      "name": "NativeCeloReceived",
      "type": "event"
    },
    {
      "anonymous": false,
      "inputs": [
        {
          "indexed": true,
          "internalType": "address",
          "name": "previousOwner",
          "type": "address"
        },
        {
          "indexed": true,
          "internalType": "address",
          "name": "newOwner",
          "type": "address"
        }
      ],
      "name": "OwnershipTransferred",
      "type": "event"
    },
    {
      "anonymous": false,
      "inputs": [
        {
          "indexed": false,
          "internalType": "address",
          "name": "account",
          "type": "address"
        }
      ],
      "name": "Paused",
      "type": "event"
    },
    {
      "anonymous": false,
      "inputs": [
        {
          "indexed": true,
          "internalType": "bytes32",
          "name": "crosswordId",
          "type": "bytes32"
        },
        {
          "indexed": true,
          "internalType": "address",
          "name": "winner",
          "type": "address"
        },
        {
          "indexed": false,
          "internalType": "uint256",
          "name": "amount",
          "type": "uint256"
        },
        {
          "indexed": false,
          "internalType": "uint256",
          "name": "rank",
          "type": "uint256"
        }
      ],
      "name": "PrizeDistributed",
      "type": "event"
    },
    {
      "anonymous": false,
      "inputs": [
        {
          "indexed": true,
          "internalType": "bytes32",
          "name": "crosswordId",
          "type": "bytes32"
        },
        {
          "indexed": true,
          "internalType": "address",
          "name": "user",
          "type": "address"
        },
        {
          "indexed": false,
          "internalType": "uint256",
          "name": "amount",
          "type": "uint256"
        },
        {
          "indexed": false,
          "internalType": "string",
          "name": "reason",
          "type": "string"
        }
      ],
      "name": "PrizeTransferFailed",
      "type": "event"
    },
    {
      "anonymous": false,
      "inputs": [
        {
          "indexed": true,
          "internalType": "bytes32",
          "name": "role",
          "type": "bytes32"
        },
        {
          "indexed": true,
          "internalType": "bytes32",
          "name": "previousAdminRole",
          "type": "bytes32"
        },
        {
          "indexed": true,
          "internalType": "bytes32",
          "name": "newAdminRole",
          "type": "bytes32"
        }
      ],
      "name": "RoleAdminChanged",
      "type": "event"
    },
    {
      "anonymous": false,
      "inputs": [
        {
          "indexed": true,
          "internalType": "bytes32",
          "name": "role",
          "type": "bytes32"
        },
        {
          "indexed": true,
          "internalType": "address",
          "name": "account",
          "type": "address"
        },
        {
          "indexed": true,
          "internalType": "address",
          "name": "sender",
          "type": "address"
        }
      ],
      "name": "RoleGranted",
      "type": "event"
    },
    {
      "anonymous": false,
      "inputs": [
        {
          "indexed": true,
          "internalType": "bytes32",
          "name": "role",
          "type": "bytes32"
        },
        {
          "indexed": true,
          "internalType": "address",
          "name": "account",
          "type": "address"
        },
        {
          "indexed": true,
          "internalType": "address",
          "name": "sender",
          "type": "address"
        }
      ],
      "name": "RoleRevoked",
      "type": "event"
    },
    {
      "anonymous": false,
      "inputs": [
        {
          "indexed": true,
          "internalType": "address",
          "name": "token",
          "type": "address"
        },
        {
          "indexed": false,
          "internalType": "bool",
          "name": "allowed",
          "type": "bool"
        }
      ],
      "name": "TokenAllowed",
      "type": "event"
    },
    {
      "anonymous": false,
      "inputs": [
        {
          "indexed": true,
          "internalType": "bytes32",
          "name": "crosswordId",
          "type": "bytes32"
        },
        {
          "indexed": true,
          "internalType": "address",
          "name": "token",
          "type": "address"
        },
        {
          "indexed": false,
          "internalType": "uint256",
          "name": "amount",
          "type": "uint256"
        },
        {
          "indexed": false,
          "internalType": "address",
          "name": "recoveredBy",
          "type": "address"
        }
      ],
      "name": "UnclaimedPrizesRecovered",
      "type": "event"
    },
    {
      "anonymous": false,
      "inputs": [
        {
          "indexed": false,
          "internalType": "address",
          "name": "account",
          "type": "address"
        }
      ],
      "name": "Unpaused",
      "type": "event"
    },
    {
      "stateMutability": "payable",
      "type": "fallback"
    },
    {
      "inputs": [],
      "name": "DEFAULT_ADMIN_ROLE",
      "outputs": [
        {
          "internalType": "bytes32",
          "name": "",
          "type": "bytes32"
        }
      ],
      "stateMutability": "view",
      "type": "function"
    },
    {
      "inputs": [
        {
          "internalType": "bytes32",
          "name": "crosswordId",
          "type": "bytes32"
        }
      ],
      "name": "activateCrossword",
      "outputs": [],
      "stateMutability": "nonpayable",
      "type": "function"
    },
    {
      "inputs": [
        {
          "internalType": "address",
          "name": "",
          "type": "address"
        }
      ],
      "name": "allowedTokens",
      "outputs": [
        {
          "internalType": "bool",
          "name": "",
          "type": "bool"
        }
      ],
      "stateMutability": "view",
      "type": "function"
    },
    {
      "inputs": [
        {
          "internalType": "bytes32",
          "name": "crosswordId",
          "type": "bytes32"
        }
      ],
      "name": "claimPrize",
      "outputs": [],
      "stateMutability": "nonpayable",
      "type": "function"
    },
    {
      "inputs": [
        {
          "internalType": "bytes32",
          "name": "crosswordId",
          "type": "bytes32"
        },
        {
          "internalType": "address",
          "name": "token",
          "type": "address"
        },
        {
          "internalType": "uint256",
          "name": "prizePool",
          "type": "uint256"
        },
        {
          "internalType": "uint256[]",
          "name": "winnerPercentages",
          "type": "uint256[]"
        },
        {
          "internalType": "uint256",
          "name": "endTime",
          "type": "uint256"
        }
      ],
      "name": "createCrossword",
      "outputs": [],
      "stateMutability": "payable",
      "type": "function"
    },
    {
      "inputs": [
        {
          "internalType": "bytes32",
          "name": "crosswordId",
          "type": "bytes32"
        },
        {
          "internalType": "address",
          "name": "token",
          "type": "address"
        },
        {
          "internalType": "uint256",
          "name": "prizePool",
          "type": "uint256"
        },
        {
          "internalType": "uint256[]",
          "name": "winnerPercentages",
          "type": "uint256[]"
        },
        {
          "internalType": "uint256",
          "name": "endTime",
          "type": "uint256"
        }
      ],
      "name": "createCrosswordWithoutValue",
      "outputs": [],
      "stateMutability": "nonpayable",
      "type": "function"
    },
    {
      "inputs": [
        {
          "internalType": "bytes32",
          "name": "",
          "type": "bytes32"
        }
      ],
      "name": "crosswordCeloBalance",
      "outputs": [
        {
          "internalType": "uint256",
          "name": "",
          "type": "uint256"
        }
      ],
      "stateMutability": "view",
      "type": "function"
    },
    {
      "inputs": [
        {
          "internalType": "bytes32",
          "name": "",
          "type": "bytes32"
        }
      ],
      "name": "crosswords",
      "outputs": [
        {
          "internalType": "address",
          "name": "token",
          "type": "address"
        },
        {
          "internalType": "uint256",
          "name": "totalPrizePool",
          "type": "uint256"
        },
        {
          "internalType": "uint256",
          "name": "activationTime",
          "type": "uint256"
        },
        {
          "internalType": "uint256",
          "name": "endTime",
          "type": "uint256"
        },
        {
          "internalType": "enum CrosswordPrizes.CrosswordState",
          "name": "state",
          "type": "uint8"
        },
        {
          "internalType": "uint256",
          "name": "createdAt",
          "type": "uint256"
        },
        {
          "internalType": "uint256",
          "name": "claimedAmount",
          "type": "uint256"
        }
      ],
      "stateMutability": "view",
      "type": "function"
    },
    {
      "inputs": [
        {
          "internalType": "bytes32",
          "name": "crosswordId",
          "type": "bytes32"
        }
      ],
      "name": "depositNativeCELOForCrossword",
      "outputs": [],
      "stateMutability": "payable",
      "type": "function"
    },
    {
      "inputs": [
        {
          "internalType": "bytes32",
          "name": "crosswordId",
          "type": "bytes32"
        }
      ],
      "name": "fundNativeCELOForCrossword",
      "outputs": [],
      "stateMutability": "payable",
      "type": "function"
    },
    {
      "inputs": [],
      "name": "fundingContract",
      "outputs": [
        {
          "internalType": "address",
          "name": "",
          "type": "address"
        }
      ],
      "stateMutability": "view",
      "type": "function"
    },
    {
      "inputs": [
        {
          "internalType": "bytes32",
          "name": "crosswordId",
          "type": "bytes32"
        }
      ],
      "name": "getCrosswordDetails",
      "outputs": [
        {
          "internalType": "address",
          "name": "token",
          "type": "address"
        },
        {
          "internalType": "uint256",
          "name": "totalPrizePool",
          "type": "uint256"
        },
        {
          "internalType": "uint256[]",
          "name": "winnerPercentages",
          "type": "uint256[]"
        },
        {
          "internalType": "address[]",
          "name": "winners",
          "type": "address[]"
        },
        {
          "internalType": "uint256",
          "name": "activationTime",
          "type": "uint256"
        },
        {
          "internalType": "uint256",
          "name": "endTime",
          "type": "uint256"
        },
        {
          "internalType": "enum CrosswordPrizes.CrosswordState",
          "name": "state",
          "type": "uint8"
        },
        {
          "internalType": "bool",
          "name": "isFinalized",
          "type": "bool"
        }
      ],
      "stateMutability": "view",
      "type": "function"
    },
    {
      "inputs": [],
      "name": "getMaxWinners",
      "outputs": [
        {
          "internalType": "uint256",
          "name": "",
          "type": "uint256"
        }
      ],
      "stateMutability": "view",
      "type": "function"
    },
    {
      "inputs": [
        {
          "internalType": "bytes32",
          "name": "role",
          "type": "bytes32"
        }
      ],
      "name": "getRoleAdmin",
      "outputs": [
        {
          "internalType": "bytes32",
          "name": "",
          "type": "bytes32"
        }
      ],
      "stateMutability": "view",
      "type": "function"
    },
    {
      "inputs": [
        {
          "internalType": "bytes32",
          "name": "crosswordId",
          "type": "bytes32"
        },
        {
          "internalType": "address",
          "name": "user",
          "type": "address"
        }
      ],
      "name": "getUserRank",
      "outputs": [
        {
          "internalType": "uint256",
          "name": "",
          "type": "uint256"
        }
      ],
      "stateMutability": "view",
      "type": "function"
    },
    {
      "inputs": [
        {
          "internalType": "address",
          "name": "operator",
          "type": "address"
        }
      ],
      "name": "grantOperatorRole",
      "outputs": [],
      "stateMutability": "nonpayable",
      "type": "function"
    },
    {
      "inputs": [
        {
          "internalType": "bytes32",
          "name": "role",
          "type": "bytes32"
        },
        {
          "internalType": "address",
          "name": "account",
          "type": "address"
        }
      ],
      "name": "grantRole",
      "outputs": [],
      "stateMutability": "nonpayable",
      "type": "function"
    },
    {
      "inputs": [
        {
          "internalType": "bytes32",
          "name": "role",
          "type": "bytes32"
        },
        {
          "internalType": "address",
          "name": "account",
          "type": "address"
        }
      ],
      "name": "hasRole",
      "outputs": [
        {
          "internalType": "bool",
          "name": "",
          "type": "bool"
        }
      ],
      "stateMutability": "view",
      "type": "function"
    },
    {
      "inputs": [
        {
          "internalType": "bytes32",
          "name": "crosswordId",
          "type": "bytes32"
        },
        {
          "internalType": "address",
          "name": "user",
          "type": "address"
        }
      ],
      "name": "isWinner",
      "outputs": [
        {
          "internalType": "bool",
          "name": "",
          "type": "bool"
        }
      ],
      "stateMutability": "view",
      "type": "function"
    },
    {
      "inputs": [],
      "name": "maxWinners",
      "outputs": [
        {
          "internalType": "uint256",
          "name": "",
          "type": "uint256"
        }
      ],
      "stateMutability": "view",
      "type": "function"
    },
    {
      "inputs": [],
      "name": "owner",
      "outputs": [
        {
          "internalType": "address",
          "name": "",
          "type": "address"
        }
      ],
      "stateMutability": "view",
      "type": "function"
    },
    {
      "inputs": [],
      "name": "pause",
      "outputs": [],
      "stateMutability": "nonpayable",
      "type": "function"
    },
    {
      "inputs": [],
      "name": "paused",
      "outputs": [
        {
          "internalType": "bool",
          "name": "",
          "type": "bool"
        }
      ],
      "stateMutability": "view",
      "type": "function"
    },
    {
      "inputs": [
        {
          "internalType": "bytes32",
          "name": "crosswordId",
          "type": "bytes32"
        }
      ],
      "name": "receiveNativeCELOForCrossword",
      "outputs": [],
      "stateMutability": "payable",
      "type": "function"
    },
    {
      "inputs": [
        {
          "internalType": "bytes32",
          "name": "crosswordId",
          "type": "bytes32"
        },
        {
          "internalType": "address",
          "name": "user",
          "type": "address"
        }
      ],
      "name": "recordCompletion",
      "outputs": [
        {
          "internalType": "bool",
          "name": "awardedPrize",
          "type": "bool"
        }
      ],
      "stateMutability": "nonpayable",
      "type": "function"
    },
    {
      "inputs": [
        {
          "internalType": "bytes32",
          "name": "crosswordId",
          "type": "bytes32"
        }
      ],
      "name": "recoverUnclaimedPrizes",
      "outputs": [],
      "stateMutability": "nonpayable",
      "type": "function"
    },
    {
      "inputs": [],
      "name": "renounceOwnership",
      "outputs": [],
      "stateMutability": "nonpayable",
      "type": "function"
    },
    {
      "inputs": [
        {
          "internalType": "bytes32",
          "name": "role",
          "type": "bytes32"
        },
        {
          "internalType": "address",
          "name": "callerConfirmation",
          "type": "address"
        }
      ],
      "name": "renounceRole",
      "outputs": [],
      "stateMutability": "nonpayable",
      "type": "function"
    },
    {
      "inputs": [
        {
          "internalType": "bytes32",
          "name": "role",
          "type": "bytes32"
        },
        {
          "internalType": "address",
          "name": "account",
          "type": "address"
        }
      ],
      "name": "revokeRole",
      "outputs": [],
      "stateMutability": "nonpayable",
      "type": "function"
    },
    {
      "inputs": [
        {
          "internalType": "address",
          "name": "token",
          "type": "address"
        },
        {
          "internalType": "bool",
          "name": "allowed",
          "type": "bool"
        }
      ],
      "name": "setAllowedToken",
      "outputs": [],
      "stateMutability": "nonpayable",
      "type": "function"
    },
    {
      "inputs": [
        {
          "internalType": "address",
          "name": "_fundingContract",
          "type": "address"
        }
      ],
      "name": "setFundingContract",
      "outputs": [],
      "stateMutability": "nonpayable",
      "type": "function"
    },
    {
      "inputs": [
        {
          "internalType": "uint256",
          "name": "newMaxWinners",
          "type": "uint256"
        }
      ],
      "name": "setMaxWinners",
      "outputs": [],
      "stateMutability": "nonpayable",
      "type": "function"
    },
    {
      "inputs": [
        {
          "internalType": "bytes4",
          "name": "interfaceId",
          "type": "bytes4"
        }
      ],
      "name": "supportsInterface",
      "outputs": [
        {
          "internalType": "bool",
          "name": "",
          "type": "bool"
        }
      ],
      "stateMutability": "view",
      "type": "function"
    },
    {
      "inputs": [
        {
          "internalType": "address",
          "name": "newOwner",
          "type": "address"
        }
      ],
      "name": "transferOwnership",
      "outputs": [],
      "stateMutability": "nonpayable",
      "type": "function"
    },
    {
      "inputs": [],
      "name": "unpause",
      "outputs": [],
      "stateMutability": "nonpayable",
      "type": "function"
    },
    {
      "inputs": [
        {
          "internalType": "bytes32",
          "name": "",
          "type": "bytes32"
        },
        {
          "internalType": "address",
          "name": "",
          "type": "address"
        }
      ],
      "name": "userRankInCrossword",
      "outputs": [
        {
          "internalType": "uint256",
          "name": "",
          "type": "uint256"
        }
      ],
      "stateMutability": "view",
      "type": "function"
    },
    {
      "stateMutability": "payable",
      "type": "receive"
    }
  ],
  "bytecode": "0x608060405234610028576100196100146100bf565b610198565b6040516136ed908161043a8239f35b600080fd5b634e487b7160e01b600052604160045260246000fd5b90601f01601f191681019081106001600160401b0382111761006457604052565b61002d565b9061007d61007660405190565b9283610043565b565b6001600160a01b031690565b90565b6100978161007f565b0361002857565b9050519061007d8261008e565b906020828203126100285761008b9161009e565b61008b613b27803803806100d281610069565b9283398101906100ab565b90600019905b9181191691161790565b61008b61008b61008b9290565b61010961008b610111926100ed565b6006546100dd565b600655565b61008b60006100ed565b61007f61008b61008b9290565b61008b90610120565b61008b9061007f906001600160a01b031682565b61008b90610136565b61008b9061014a565b9061016690610153565b600052602052604060002090565b9060ff906100e3565b9061018d61008b61019492151590565b8254610174565b9055565b610212906101a581610231565b6101af60036100fa565b6101c0816101bb610116565b6102fb565b506101eb817fa49807205ce4d355092ef5a8a18f56e8913cf4a201fbe287825b095693c217756102fb565b507f97667070c54ef182b0f5858b034beac1b6f3089aa2d3188bb1e8929f4fa9b9296102fb565b5061007d600161022c610225600061012d565b600561015c565b61017d565b61007d90610260565b61008b60016100ed565b61025361008b61025b926100ed565b6002546100dd565b600255565b61026990610279565b61007d61027461023a565b610244565b61007d9061007d9061007d9061007d906102ab565b6102979061007f565b9052565b60208101929161007d919061028e565b60006102b68161012d565b6102bf8161007f565b6102c88461007f565b146102d857505061007d906103bb565b631e4fbdf760e01b825281906102f1906004830161029b565b0390fd5b90610166565b61030c6103088383610417565b1590565b156103755760019161032e8361022c83600061032887856102f5565b0161015c565b339061036461035e61035e7f2f8788117e7eff1d82e926ec794901d17c78024a50270940304540a733656f0d9590565b92610153565b9261036e60405190565b600090a490565b5050600090565b61008b9061007f565b61008b60005461037c565b906001600160a01b03906100e3565b6103ae61008b6103b692610153565b600054610390565b600055565b6103c3610385565b906103cd8161039f565b6104006103fa7f8be0079c531659141344cd1fd0a4f28419497f9722a3daafe3b4186f6b6457e093610153565b91610153565b9161040a60405190565b600090a3565b5460ff1690565b61008b9160006103286104349361042c600090565b5060016102f5565b61041056fe60806040526004361015610026575b361561001e5761001c6127a4565b005b61001c6127a4565b60003560e01c806301ffc9a7146102625780630a713d681461025d5780630e5e0bb0146102585780631c294efd14610253578063248a9ca31461024e57806327ac0c58146102495780632f2ff15d14610244578063353ca9a51461023f57806336568abe1461023a5780633ab2648a146102355780633f4ba83a146102305780635c975abb1461022b578063715018a6146102265780638456cb59146102215780638aaa22841461021c5780638da5cb5b1461021757806391d14854146102125780639745808a1461020d578063995df76c146102085780639cc19f5b14610203578063a217fddf146101fe578063b0fc9440146101f9578063b289e284146101f4578063cde8e5d3146101ef578063d17b18c4146101ea578063d547741f146101e5578063d9cbe53c146101e0578063dfdfde30146101db578063e744092e146101d6578063e7b09cea146101d1578063ebd00c5b146101b8578063ec03a37a146101cc578063ef9923aa146101c7578063f2fde38b146101c2578063f39130e5146101bd5763f5ee83f90361000e575b61098d565b610b1b565b610b05565b610aec565b610ab7565b61097c565b610963565b610904565b6107ab565b610794565b61077e565b610765565b610740565b61071a565b610701565b6106c8565b6106af565b610671565b610657565b610631565b610601565b6105b1565b61059b565b610582565b61056c565b610547565b61049f565b610485565b6103fa565b6103bf565b610396565b610380565b610329565b61030e565b6102b5565b6001600160e01b03191690565b61027d81610267565b0361028457565b600080fd5b9050359061029682610274565b565b60206004820312610284576102ae906004610289565b90565b9052565b34610284576102e16102ce6102c936610298565b610b38565b6040515b91829182901515815260200190565b0390f35b8061027d565b90503590610296826102e5565b60206004820312610284576102ae9060046102eb565b346102845761032461031f366102f8565b610f3e565b604051005b346102845761032461033a366102f8565b61135c565b6001600160a01b031690565b6102ae9061033f565b61027d8161034b565b9050359061029682610354565b60206004820312610284576102ae90600461035d565b34610284576103246103913661036a565b6113e0565b34610284576102e16103af6103aa366102f8565b6113e9565b6040519182918290815260200190565b34610284576103246103d03661036a565b611450565b90600491604083820312610284576102ae9060206103f382866102eb565b940161035d565b346102845761032461040b366103d5565b90611477565b905b600052602052604060002090565b6104306102ae6102ae9261033f565b61033f565b6102ae90610421565b6102ae90610435565b906104139061043e565b6102ae916008021c81565b906102ae9154610451565b6104806102ae9261047b6000936007610411565b610447565b61045c565b34610284576102e16103af610499366103d5565b90610467565b34610284576103246104b0366103d5565b90611481565b909182601f83011215610284578135916001600160401b03831161028457602001926020830284011161028457565b60049160a083830312610284576104fc82846102eb565b9261050a836020830161035d565b9261051881604084016102eb565b9260608301356001600160401b038111610284578261053e6080946102ae9387016104b6565b949095016102eb565b610324610553366104e5565b949390939291926115b8565b6004600091031261028457565b346102845761057a3661055f565b6103246115dc565b34610284576105903661055f565b6102e16102ce6115ef565b34610284576105a93661055f565b610324611614565b34610284576105bf3661055f565b610324611632565b80151561027d565b90503590610296826105c7565b90600491604083820312610284576102ae9060206105fa828661035d565b94016105cf565b3461028457610324610612366105dc565b906116c6565b6102b19061034b565b6020810192916102969190610618565b346102845761063f3661055f565b6102e161064a6116d0565b6040515b91829182610621565b34610284576102e16102ce61066b366103d5565b906116d8565b34610284576102e16103af610685366103d5565b90611700565b6102ae916008021c61033f565b906102ae915461068b565b6102ae60006009610698565b34610284576106bd3661055f565b6102e161064a6106a3565b34610284576102e16102ce6106dc366103d5565b9061171b565b6102ae6102ae6102ae9290565b6102ae60006106e2565b6102ae6106ef565b346102845761070f3661055f565b6102e16103af6106f9565b346102845761032461072b366102f8565b611c94565b60006104806102ae926008610411565b34610284576102e16103af610754366102f8565b610730565b6102ae6000600661045c565b34610284576107733661055f565b6102e16103af610759565b346102845761032461078f366102f8565b611dac565b34610284576103246107a5366103d5565b90611dd0565b34610284576102e16102ce6107bf366103d5565b90611e04565b6102ae60005461034b565b6102ae60095461034b565b6102ae905461034b565b6102ae9081565b6102ae6006546107e5565b6102ae6002546107e5565b6102ae90546107e5565b6102ae905b60ff1690565b6102ae905461080c565b61082c906004610411565b610835816107db565b9161084260018301610802565b9161084f60058201610802565b9161085c60068301610802565b9161086960078201610817565b916102ae600961087b60088501610802565b9301610802565b634e487b7160e01b600052602160045260246000fd5b600311156108a257565b610882565b9061029682610898565b6102ae906108a7565b6102b1906108b1565b949290979695939160e0860198600087016108dd91610618565b602086015260408501526060840152608083016108f9916108ba565b60a082015260c00152565b34610284576102e161091d610918366102f8565b610821565b9361092d97959793919360405190565b978897886108c3565b6102ae916008021c610811565b906102ae9154610936565b600061095e6102ae926005610447565b610943565b34610284576102e16102ce6109773661036a565b61094e565b610324610988366102f8565b611fad565b610324610999366102f8565b611fe9565b0190565b906109c26109bb6109b1845190565b8084529260200190565b9260200190565b9060005b8181106109d35750505090565b9091926109f06109e96001928651815260200190565b9460200190565b9291016109c6565b9061099e81602093610618565b90610a146109bb6109b1845190565b9060005b818110610a255750505090565b909192610a386109e960019286516109f8565b929101610a18565b9395610a9e610a9660e0979b9a98610a8888610aaf98610a7b6102969e99610a74610aa59a60006101008701960190610618565b60208d0152565b8a820360408c01526109a2565b9088820360608a0152610a05565b9a6080870152565b60a0850152565b60c08301906108ba565b019015159052565b34610284576102e1610ad0610acb366102f8565b6120f1565b94610ae398969894919493929360405190565b98899889610a40565b3461028457610afa3661055f565b6102e16103af612208565b3461028457610324610b163661036a565b612262565b3461028457610324610b2c366104e5565b94939093929192612796565b610b48637965db0b60e01b610267565b610b5182610267565b14908115610b5d575090565b6102ae91506127e5565b7fa49807205ce4d355092ef5a8a18f56e8913cf4a201fbe287825b095693c2177590565b61029690610b9f610b9a610b67565b612802565b61029690610bab61280d565b610e87565b634e487b7160e01b600052604160045260246000fd5b90601f01601f191681019081106001600160401b03821117610be757604052565b610bb0565b60405190610296606083610bc6565b90610296610c0860405190565b9283610bc6565b6001600160401b038111610be757602090601f01601f19160190565b610c3d610c38600e610c0f565b610bfb565b90600e8252565b610c51610c386012610c0f565b9060128252565b610c65610c386013610c0f565b9060138252565b610c79610c38600f610c0f565b90600f8252565b610c8d610c38600c610c0f565b90600c8252565b610ca1610c386009610c0f565b9060098252565b610cb5610c386014610c0f565b9060148252565b610cc9610c386007610c0f565b9060078252565b610cdd610c386011610c0f565b9060118252565b610cf1610c386010610c0f565b9060108252565b6d111bd95cc81b9bdd08195e1a5cdd60921b9052565b610d16610c2b565b9061029660208301610cf8565b6102ae610d0e565b6102ae610d23565b60005b838110610d465750506000910152565b8181015183820152602001610d36565b610d77610d8060209361099e93610d6b815190565b80835293849260200190565b95869101610d33565b601f01601f191690565b60208082526102ae92910190610d56565b15610da35750565b610dc590610db060405190565b62461bcd60e51b815291829160048301610d8a565b0390fd5b15610dd057565b60405162461bcd60e51b815260206004820152600c60248201526b4e6f7420696e61637469766560a01b6044820152606490fd5b9060ff905b9181191691161790565b90610e236102ae610e2a926108b1565b8254610e04565b9055565b9060001990610e09565b610e476102ae610e4f926106e2565b600654610e2e565b600655565b610e636102ae610e6b926106e2565b600254610e2e565b600255565b90610e806102ae610e2a926106e2565b8254610e2e565b610f06610e986102ae836004610411565b610ec9610ea760088301610802565b610eb8610eb460006106e2565b9190565b90610ec1610d2b565b911415610d9b565b610efc600160078301610ef7610ede82610817565b610ef1610eeb60006108a7565b916108a7565b14610dc9565b610e13565b6005429101610e70565b7f866c1294f23fc719c565ed4c7188b24e3e7bccde328f0b50425b902bf19bc83d610f3060405190565b42815280602081015b0390a2565b61029690610b8b565b61029690610f56610b9a610b67565b610f6790610f62612837565b610f6f565b610296612873565b61029690610f7b61280d565b611140565b600e8152602090810161099e81610cf8565b60208082526102ae9101610f80565b15610fa857565b60405162461bcd60e51b815280610dc560048201610f92565b15610fc857565b60405162461bcd60e51b815260206004820152600c60248201526b4e6f7420636f6d706c65746560a01b6044820152606490fd5b6102ae62278d006106e2565b634e487b7160e01b600052601160045260246000fd5b9190820180921161102b57565b611008565b1561103757565b60405162461bcd60e51b815260206004820152601260248201527115da5b991bddc81b9bdd08195b185c1cd95960721b6044820152606490fd5b6104306102ae6102ae9290565b6102ae90611071565b90505190610296826102e5565b90602082820312610284576102ae91611087565b6040513d6000823e3d90fd5b906110c1610c3883610c0f565b918252565b3d156110e0576110d53d6110b4565b903d6000602084013e565b606090565b156110ec57565b60405162461bcd60e51b815260206004820152601460248201527310d15313c81c9958dbdd995c9e4819985a5b195960621b6044820152606490fd5b908152604081019291610296916020905b0190610618565b61114e6102ae826004610411565b9061117861117f600893611163858201610802565b906000928392611172846106e2565b95869190565b1415610fa1565b6111a161118e60078301610817565b61119b610eeb60026108a7565b14610fc1565b6111cc6111c46102ae6111b660058501610802565b6111be610ffc565b9061101e565b421015611030565b01916111d7836107db565b6111f16111eb6111e68561107e565b61034b565b9161034b565b036112a9578161125b939261125692611226611215611210898b610411565b610802565b9161122189849b610411565b610e70565b6112356112303381565b61043e565b9061123f60405190565b908192825a940393f16112506110c6565b506110e5565b6107db565b903361128e6112887f4f9dbc6a445a64ff84ec788dbb2b2882a37630c9397338d10c7568bc438d10239390565b9361043e565b936112a461129b60405190565b92839283611128565b0390a3565b5092506112bb611230611230836107db565b60206112e76370a08231926112cf3061043e565b936112f26112dc60405190565b958694859360e01b90565b835260048301610621565b91815a930392fa9384156113575793611322575b5061125b906112568461131b611230846107db565b33906128bc565b61125b9193506113499060203d602011611350575b6113418183610bc6565b810190611094565b9290611306565b503d611337565b6110a8565b61029690610f47565b61029690611374610b9a610b67565b6113d7565b906001600160a01b0390610e09565b6113976102ae61139f9261043e565b600954611379565b600955565b6113b36102ae6113bb9261043e565b600054611379565b600055565b906113d06102ae610e2a9261043e565b8254611379565b61029690611388565b61029690611365565b60016114016102ae926113fa600090565b5082610411565b01610802565b61029690611416610b9a6106ef565b61143f565b7f97667070c54ef182b0f5858b034beac1b6f3089aa2d3188bb1e8929f4fa9b92990565b6102969061144b61141b565b611477565b61029690611407565b906102969161146a610b9a826113e9565b9061147491612904565b50565b9061029691611459565b9061148b3361034b565b6114948261034b565b036114a2576114749161297f565b63334bd91960e11b6000908152600490fd5b6114bc610c44565b712737ba1037bbb732b91037b91030b236b4b760711b602082015290565b6102ae6114b4565b6102ae6114da565b90610296959493929161151c6114ff3061043e565b6115083061043e565b9033906115166112886114e2565b906129e7565b90610296959493929161152d61280d565b6115a3565b6001600160401b038111610be75760208091020190565b92919092611559610c3885611532565b9380855260209283808701920283019281841161028457915b838310611580575050505050565b84809161158d84866102eb565b815201920191611572565b6102ae913691611549565b9261029695946115b291611598565b92612a9a565b9061029695949392916114ea565b6115d1610b9a6106ef565b610296610296612c72565b6102966115c6565b6102ae60035461080c565b6102ae6115e4565b6115ff612c7a565b61029661029661160f600061107e565b612cb3565b6102966115f7565b611627610b9a6106ef565b610296610296612d4d565b61029661161c565b906102969161164a610b9a6106ef565b61167b565b61165e6102ae61166692151590565b600354610e04565b600355565b90610e236102ae610e2a92151590565b61168f8261168a836005610447565b61166b565b610f396116bc7f9a8e30a8658b96ab3f034ce4bac6806278b4aee5880ccdd1ac35e4ed5bb31d239261043e565b926102d260405190565b906102969161163a565b6102ae6107c5565b6102ae9160006116f56116fb936116ed600090565b506001610411565b01610447565b610817565b6102ae9161047b61121092611713600090565b506007610411565b61172e9161047b61121092611713600090565b61173b610eb460006106e2565b1190565b610f679061174b612837565b6102969061175761280d565b61197b565b611764610c58565b724e6f74206163746976652f636f6d706c65746560681b602082015290565b6102ae61175c565b6102ae611783565b61179b610c6c565b6e105b1c9958591e4818db185a5b5959608a1b602082015290565b6102ae611793565b6102ae6117b6565b6117ce610c80565b6b2737ba1030903bb4b73732b960a11b602082015290565b6102ae6117c6565b6102ae6117e6565b6117fe610c80565b6b496e76616c69642072616e6b60a01b602082015290565b6102ae6117f6565b6102ae611816565b9190820391821161102b57565b634e487b7160e01b600052603260045260246000fd5b805482101561186c57611863600191600052602060002090565b91020190600090565b611833565b8181029291811591840414171561102b57565b6102ae6127106106e2565b634e487b7160e01b600052601260045260246000fd5b81156118af570490565b61188f565b6118bc610c94565b6805072697a65203e20360bc1b602082015290565b6102ae6118b4565b6102ae6118d1565b6118e9610ca8565b73496e73756666696369656e742062616c616e636560601b602082015290565b6102ae6118e1565b6102ae611909565b611921610c6c565b6e151c985b9cd9995c8819985a5b1959608a1b602082015290565b6102ae611919565b6102ae61193c565b9081526040602082018190526102ae92910190610d56565b9081526040810192916102969160200152565b0152565b60049061198b6102ae8284610411565b9060089161199a838201610802565b9260006119b96119b06119ac836106e2565b9690565b86610ec1610d2b565b600792838101966119c988610817565b976001986119d9610eeb8b6108a7565b14908115611c76575b506119eb61178b565b6119f491610d9b565b81019385611a023387610447565b611a0b90610817565b1515841515611a186117be565b911490611a2491610d9b565b611a2d91610411565b33611a3791610447565b611a4090610802565b958690611a4b6117ee565b611a56918311610d9b565b6002820190611a63825490565b611a6b61181e565b91111590611a7891610d9b565b611a81886106e2565b611a8b9088611826565b611a9491611849565b611a9d9161045c565b611aa8828901610802565b90611ab291611871565b611aba611884565b611ac3916118a5565b96611acc6118d9565b611ad69089612d55565b611ae03386610447565b90611aea9161166b565b86828201611af7816107db565b611b008561107e565b611b099061034b565b90611b139061034b565b03611c5a575050600990611b42611b306102ae6112108988610411565b8990611b3a611911565b911115610d9b565b611b67611b4f8786610411565b611b618a611b5c83610802565b611826565b90610e70565b0192611b84611b7e88611b7987610802565b61101e565b85610e70565b611bae8280611b956112303361043e565b6040518b8192825a940393f1611ba96110c6565b501590565b611be757505050505b6000805160206136788339815191529091611bd13361043e565b936112a4611bde60405190565b92839283611964565b84955093611c1692611c04611c099361168a611c23983390610447565b610411565b611b6186611b7983610802565b611b6184611b5c83610802565b611c2b611944565b60008051602061369883398151915290611c443361043e565b936112a4611c5160405190565b9283928361194c565b909350611c71945061131b925061123091506107db565b611bb7565b611c809150610817565b611c8d610eeb60026108a7565b14386119e2565b6102969061173f565b61029690611cac610b9a610b67565b611d31565b611cb9610cbc565b6604d6178203e20360cc1b602082015290565b6102ae611cb1565b6102ae6103e86106e2565b611ce7610cd0565b7013585e08195e18d959591cc81b1a5b5a5d607a1b602082015290565b6102ae611cdf565b6102ae611d04565b908152606081019392610296929091604091611139906020830152565b611d42611d3c611ccc565b82612d55565b611d5c611d4d611cd4565b611d55611d0c565b9083612d6d565b611d646107ec565b90611d6e81610e38565b3391611da77f03de711598b94393a7a0ad6765b4322e8bea2022937f56eabbc8d5d1ff99046f93611d9e60405190565b93849384611d14565b0390a1565b61029690611c9d565b9061029691611dc6610b9a826113e9565b906114749161297f565b9061029691611db5565b906102ae9291611deb610b9a61141b565b906102ae9291611df961280d565b506102ae9190612e14565b6102ae91906000611dda565b61029690611e1c61280d565b611f09565b15611e2857565b60405162461bcd60e51b815260206004820152602960248201527f4f6e6c7920617574686f72697a65642066756e64696e6720636f6e74726163746044820152680818d85b88199d5b9960ba1b6064820152608490fd5b15611e8657565b60405162461bcd60e51b815260206004820152601f60248201527f43726f7373776f72642075736573206e6f6e2d6e617469766520746f6b656e006044820152606490fd5b15611ed257565b60405162461bcd60e51b815260206004820152600f60248201526e4d7573742073656e642076616c756560881b6044820152606490fd5b611f9a61029691611f2d611f1e6111e66107d0565b611f273361034b565b14611e21565b611f93611f3e6102ae836004610411565b611f8c611f4d60088301610802565b91611f866111eb6111e6611f8060008095611f7a611f71611f6d846106e2565b9a90565b8a610ec1610d2b565b016107db565b9361107e565b14611e7f565b3411611ecb565b6008610411565b611b61611fa682610802565b349061101e565b61029690611e10565b61029690611fc5610b9a610b67565b61029690611fd161280d565b611f9a61029691611f93611f3e6102ae836004610411565b61029690611fb6565b9061200d6120016109b1845490565b92600052602060002090565b9060005b81811061201e5750505090565b90919261204261203b60019261203387610802565b815260200190565b9460010190565b929101612011565b906102ae91611ff2565b9061029661206e9261206560405190565b9384809261204a565b0383610bc6565b6102ae90612054565b906110c1610c3883611532565b369037565b906102966120a66120a08461207e565b93611532565b601f19016020840161208b565b805482101561186c57611863600391600052602060002090565b906120d6825190565b81101561186c576020809102010190565b906102b19061034b565b6102ae61210891612100600090565b506004610411565b60009190612115816107db565b9260019161212560018201610802565b9361213260028301612075565b9361213f60058401610802565b9261214c60068201610802565b926007820192600361216661216086610817565b95610817565b612173610eeb60026108a7565b1493019061217f825490565b61218d610eb46102ae8c5190565b1015612200578154975b6121a089612090565b928399836121ad846106e2565b905b6121bc575b505050505050565b818110156121fb57806121ef6121e0866121d96121f595886120b3565b50016107db565b6121ea838a6120cd565b6120e7565b60010190565b846121af565b6121b4565b885197612197565b6102ae6107ec565b6102969061221c612c7a565b60006122278161107e565b6122308161034b565b6122398461034b565b1461224957505061029690612cb3565b631e4fbdf760e01b82528190610dc59060048301610621565b61029690612210565b90610296959493929161227f610b9a610b67565b90610296959493929161229061280d565b612587565b61229d610c2b565b6d416c72656164792065786973747360901b602082015290565b6102ae612295565b6102ae6122b7565b6122cf610cd0565b70151bdad95b881b9bdd08185b1b1bddd959607a1b602082015290565b6102ae6122c7565b6102ae6122ec565b1561230357565b60405162461bcd60e51b815260206004820152601260248201527114195c98d95b9d1859d95cc81b995959195960721b6044820152606490fd5b612345610ce4565b6f546f6f206d616e792077696e6e65727360801b602082015290565b6102ae61233d565b6102ae612361565b612379610ce4565b6f22b732103a34b6b2903a37b7903330b960811b602082015290565b6102ae612371565b6102ae612395565b919081101561186c576020020190565b356102ae816102e5565b6102ae611f406106e2565b6123d2610c58565b720a0cae4c6cadce8c2ceca40e8dede40d0d2ced606b1b602082015290565b6102ae6123ca565b6102ae6123f1565b612409610c2b565b6d050657263656e74616765203e20360941b602082015290565b6102ae612401565b612433610c80565b6b546f74616c203e203130302560a01b602082015290565b6102ae61242b565b6102ae61244b565b634e487b7160e01b600052600060045260246000fd5b9160001960089290920291821b911b610e09565b91906124966102ae610e2a936106e2565b908354612471565b6102969060008091612485565b8181106124b6575050565b806124c260019261249e565b016124ab565b9190918282106124d757505050565b61029692916124ed905b91600052602060002090565b91820191016124ab565b90600160401b8111610be7578161250f610296935490565b908281556124c8565b9091906001600160401b038211610be75761253c6124e16001946102ae85856124f7565b838493046000935b612550575b5050505050565b808410156125775784809460206125696102ae876123b5565b950194818501550193612544565b612549565b906102969291612518565b906125c0959496929160049561259d8288610411565b6125aa6008809201610802565b976000906125d06125ba836106e2565b9b8c9b90565b8b6125c96122bf565b9114610d9b565b6125ef6125e16116fb886005610447565b6125e96122f4565b90610d9b565b6126006125fa6118d9565b88612d55565b6126268c612610819d8e116122fc565b6126186107ec565b612620612369565b91612d6d565b898403612777575b895b8b8b10156126a05761269361269a916111be8f8e818f61266f61265f61265a8561265a97856123a5565b6123b5565b6126676123bf565b6126206123f9565b61268e61268061265a8585856123a5565b612688612423565b90612d55565b6123a5565b9a60010190565b99612630565b879b50869a50612736989c869a6127158a61270c6127036102ae8c6127309c9f9960069f9e8f9b8e8e9d6127279f6111eb61271e9f6126f5926126f06111e6926126e8611884565b612620612453565b61107e565b14612762575b505050610411565b9a878c016113c0565b60018a01610e70565b6002880161257c565b60078501610e13565b42908301610e70565b01610e70565b3361128e6112887f0fee001940c4884b8fa17931fc404ceb7673af8459a49404e484d47be2f0bcc09390565b61276f9261122191610411565b81868e6126fb565b612791612782610ffc565b61278a61239d565b9086612d6d565b61262e565b90610296959493929161226b565b7fedd7fd210c5046985d2cac8bd79b331beb7816848ac1f52930622cb31d9a14fd6127ce3361043e565b906127d860405190565b3481528060208101610f39565b6127fe6127f86301ffc9a760e01b610267565b91610267565b1490565b6102969033906133ca565b6128156115ef565b61281b57565b63d93c066560e01b6000908152600490fd5b6102ae60026106e2565b61283f6107f7565b61284761282d565b9081146128575761029690610e54565b633ee5aeb560e01b6000908152600490fd5b6102ae60016106e2565b61029661287e612869565b610e54565b61289c6128966102ae9263ffffffff1690565b60e01b90565b610267565b91602061029692949361197760408201966000830190610618565b6128ff6004926128f0610296956128d663a9059cbb612883565b926128e060405190565b96879460208601908152016128a1565b60208201810382520383610bc6565b6133fc565b61291561291183836116d8565b1590565b15612978576001916129318361168a8360006116f58785610411565b33906129676129616129617f2f8788117e7eff1d82e926ec794901d17c78024a50270940304540a733656f0d9590565b9261043e565b9261297160405190565b600090a490565b5050600090565b9061298a81836116d8565b15612978576129a4600061168a83826116f5876001610411565b33906129d46129616129617ff6391f5c32d9c69d2a47ea670b442974b53935d1edc7fd64eb21e047a839171b9590565b926129de60405190565b600090a4600190565b916129f69161029694936134cd565b610d9b565b612a03610c2b565b6d0acc2d8eaca40dad2e6dac2e8c6d60931b602082015290565b6102ae6129fb565b6102ae612a1d565b8151906001600160401b038211610be757612a576124e1600194612a5185856124f7565b60200190565b838493046000935b612a6a575050505050565b80841015612577578480946020612a826102ae875190565b950194818501550193612a5f565b9061029691612a2d565b93949190600494612aab8187610411565b96612ab96008809901610802565b976000612acf6125c0612acb836106e2565b9b90565b612ae06125e16116fb876005610447565b612af1612aeb6118d9565b87612d55565b612b068a612b006102ae8b5190565b116122fc565b612b11612610895190565b898303612c0f575b895b612b266102ae8a5190565b8b1015612b6c57612693612b66916111be612b578e612b606126808f8381612b5b61265f612b5784612b57966120cd565b5190565b6120cd565b8d6120cd565b99612b1b565b84979a50612730929161271e612bd06102ae6006988b9e8b9e999b6127369d612b9a612727996126e8611884565b612ba66111e68961107e565b612baf8361034b565b03612bf357611c049150612bc634826125c9612a25565b611221848b610411565b95612bdd8c8489016113c0565b612bea8d60018901610e70565b60028701612a90565b612bff611c049261043e565b33612c093061043e565b9161361e565b612c29612c1a610ffc565b612c2261239d565b9085612d6d565b612b19565b612c36613654565b610296612c43600061164f565b33611da77f5db9ee0a495bf2e6ff9c91a7834c1ba4fdd244a5e8aa4e537bd38aeae4b073aa9161064e60405190565b610296612c2e565b612c826116d0565b3390612c906111eb8361034b565b03612c985750565b63118cdaa760e01b6000908152908190610dc5906004610621565b612cbb6107c5565b90612cc5816113a4565b612cf8612cf27f8be0079c531659141344cd1fd0a4f28419497f9722a3daafe3b4186f6b6457e09361043e565b9161043e565b91612d0260405190565b80806112a4565b612d1161280d565b610296612d1e600161164f565b33611da77f62e78cea01bee320cd4e420270b5ea74000d11b0c9f74754ebdbfc544b05a2589161064e60405190565b610296612d09565b9061029691612d67610eb460006106e2565b11610d9b565b612d7b610eb4610296949390565b1115610d9b565b6102ae610bec565b6102ae905161034b565b6002612dd0604061029694612db4612dae60008301612d8a565b866113c0565b612dcb612dc2602083015190565b60018701610e70565b015190565b9101610e70565b9190612de65761029691612d94565b61245b565b80549190600160401b831015610be75782612e0e916001610296950181556120b3565b90612dd7565b600491612e246102ae8385610411565b91600780840193612e3485610817565b90600191612e44610eeb846108a7565b036133be576000612e576111e68261107e565b80612e618861034b565b146133b25790829184612e82940198612e798a610802565b611172846106e2565b1461338e576006840185612e986102ae83610802565b11908161339c575b5061338e576003840199612eb28b5490565b966002860197612ec6610eb46102ae8b5490565b10158015613376575b6133665786612ee86102ae6112108e61047b8f8f610411565b1161336657918c8c928c94612efb855490565b928d87612f07846106e2565b9586612f129161101e565b9e8f928c83612f1f612d82565b91820190612f2c916120e7565b60209a612f3942838e0152565b612f44866040840152565b90612f4e91612deb565b612f5791610411565b90612f6191610447565b90612f6b91610e70565b890195612f789087610447565b90612f829161166b565b612f8b90610802565b90612f96908b611826565b612fa0908a611849565b612fa99161045c565b612fb291611871565b612fba611884565b612fc3916118a5565b9b858701988d86612fd38c6107db565b612fdc9061034b565b148061335d575b613342575b50612fff610eb46102ae612ffa855490565b935490565b1015908115613329575b50613318575b508a9586119b8c61302a575b50505050505050505050505090565b878b9461303a6111e68d9b6107db565b036131e7575050506008946130556102ae6112108989610411565b1061316a57828061306560405190565b808d86825a940393f16130766110c6565b50156130d5575050505061309a9161308d91610411565b611b6186611b5c83610802565b6130b36112886000805160206136788339815191529390565b936130c0611bde60405190565b0390a35b38808080808080808080808061301b565b6130fc9650600995506130ee9394509061168a91610447565b01611b6185611b5c83610802565b6131626131186112886000805160206136988339815191529390565b9361312260405190565b91829182908152604060208201819052601b908201527a13985d1a5d994810d15313c81d1c985b9cd9995c8819985a5b1959602a1b606082015260800190565b0390a36130c4565b6131839650600995506130ee9394509061168a91610447565b61316261319f6112886000805160206136988339815191529390565b936131a960405190565b9182918290815260406020820181905260199082015278496e73756666696369656e742043454c4f2062616c616e636560381b606082015260800190565b9095506131fe9298975061123091969493506107db565b918461322b61320c8561043e565b6370a0823161323461321d3061043e565b604051998a95869460e01b90565b84528301610621565b91815a930392fa948515611357578a958a9561325592859261330257505090565b1061328c57506132669394506128bc565b61327f6112886000805160206136788339815191529390565b93613162611bde60405190565b93505061168a915061329d93610447565b6131626132b96112886000805160206136988339815191529390565b936132c360405190565b91829182908152604060208201819052601a9082015279496e73756666696369656e7420746f6b656e2062616c616e636560301b606082015260800190565b6102ae9250803d10611350576113418183610bc6565b600261332391610e13565b3861300f565b54905061333a610eb46102ae6107ec565b101538613009565b61335790611b6160098b0191611b7983610802565b8d612fe8565b50898111612fe3565b5050505097505050505050505090565b508b54613387610eb46102ae6107ec565b1015612ecf565b505097505050505050505090565b6133aa91506102ae90610802565b421138612ea0565b50965050505050505090565b50505050505050600090565b906133d861291182846116d8565b6133e0575050565b63e2517d3f60e01b6000908152918291610dc5919060046128a1565b6020600083819451908285855a930192f11561347e576134283d835190613422856106e2565b92839190565b03613468575061343e61343a8361043e565b3b90565b145b613448575050565b610dc5613455839261043e565b635274afe760e01b835260048301610621565b9050613477610eb460016106e2565b1415613440565b50604051903d90823e3d90fd5b9050519061029682610354565b90602082820312610284576102ae9161348b565b90505190610296826105c7565b90602082820312610284576102ae916134ac565b6134e56134fd919392936134df600090565b5061043e565b638da5cb5b906134f460405190565b92839260e01b90565b825281600481016020948593815a930392fa908115611357576000916135c7575b5061352b6111eb8461034b565b1491821561353b575b5050905090565b915061356f61354a829461043e565b6391d1485461357a61355a610b67565b9561356460405190565b968795869460e01b90565b845260048401611128565b91815a930392fa9182156113575760009261359a575b5050803880613534565b6135b99250803d106135c0575b6135b18183610bc6565b8101906134b9565b3880613590565b503d6135a7565b6135e79150823d84116135ed575b6135df8183610bc6565b810190613498565b3861351e565b503d6135d5565b604090611977610296949695939661361460608401986000850190610618565b6020830190610618565b906128ff906128f06102969560049561363a6323b872dd612883565b9361364460405190565b97889560208701908152016135f4565b61365f6129116115ef565b61366557565b638dfc202b60e01b6000908152600490fdfe0842894bd3663e1d874d069f4495d64331ee07871e8fa4e159ae698421912c905371e4fa1d9f0e3c6b83c7a9cdca6238a5ec6a25565a40f43c7955dae372c775a2646970667358221220b6be0cc194151f9dddf7eac91ffd679906f204103e602ca1d90eb5845a870c3864736f6c634300081c0033",
  "linkReferences": {},
  "deployedLinkReferences": {}
}