{
  "_format": "hh-sol-artifact-1",
  "contractName": "CrosswordBoard",
  "sourceName": "contracts/CrosswordBoard.sol",
  "abi": [
    {
      "inputs": [
        {
          "internalType": "address",
          "name": "_crosswordCore",
          "type": "address"
        },
        {
          "internalType": "address",
          "name": "_crosswordPrizes",
          "type": "address"
        },
        {
          "internalType": "address",
          "name": "_userProfiles",
          "type": "address"
        },
        {
          "internalType": "address",
          "name": "_configManager",
          "type": "address"
        },
        {
          "internalType": "address",
          "name": "_adminManager",
          "type": "address"
        },
        {
          "internalType": "address",
          "name": "_publicCrosswordManager",
          "type": "address"
        }
      ],
      "stateMutability": "nonpayable",
      "type": "constructor"
    },
    {
      "inputs": [],
      "name": "EnforcedPause",
      "type": "error"
    },
    {
      "inputs": [],
      "name": "ExpectedPause",
      "type": "error"
    },
    {
      "inputs": [
        {
          "internalType": "address",
          "name": "owner",
          "type": "address"
        }
      ],
      "name": "OwnableInvalidOwner",
      "type": "error"
    },
    {
      "inputs": [
        {
          "internalType": "address",
          "name": "account",
          "type": "address"
        }
      ],
      "name": "OwnableUnauthorizedAccount",
      "type": "error"
    },
    {
      "inputs": [],
      "name": "ReentrancyGuardReentrantCall",
      "type": "error"
    },
    {
      "anonymous": false,
      "inputs": [
        {
          "indexed": false,
          "internalType": "address",
          "name": "core",
          "type": "address"
        },
        {
          "indexed": false,
          "internalType": "address",
          "name": "prizes",
          "type": "address"
        },
        {
          "indexed": false,
          "internalType": "address",
          "name": "profiles",
          "type": "address"
        },
        {
          "indexed": false,
          "internalType": "address",
          "name": "config",
          "type": "address"
        },
        {
          "indexed": false,
          "internalType": "address",
          "name": "admin",
          "type": "address"
        },
        {
          "indexed": false,
          "internalType": "address",
          "name": "publicManager",
          "type": "address"
        }
      ],
      "name": "ContractsUpdated",
      "type": "event"
    },
    {
      "anonymous": false,
      "inputs": [
        {
          "indexed": true,
          "internalType": "address",
          "name": "previousOwner",
          "type": "address"
        },
        {
          "indexed": true,
          "internalType": "address",
          "name": "newOwner",
          "type": "address"
        }
      ],
      "name": "OwnershipTransferred",
      "type": "event"
    },
    {
      "anonymous": false,
      "inputs": [
        {
          "indexed": false,
          "internalType": "address",
          "name": "account",
          "type": "address"
        }
      ],
      "name": "Paused",
      "type": "event"
    },
    {
      "anonymous": false,
      "inputs": [
        {
          "indexed": false,
          "internalType": "address",
          "name": "account",
          "type": "address"
        }
      ],
      "name": "Unpaused",
      "type": "event"
    },
    {
      "inputs": [
        {
          "internalType": "bytes32",
          "name": "crosswordId",
          "type": "bytes32"
        }
      ],
      "name": "activateCrossword",
      "outputs": [],
      "stateMutability": "nonpayable",
      "type": "function"
    },
    {
      "inputs": [
        {
          "internalType": "bytes32",
          "name": "crosswordId",
          "type": "bytes32"
        }
      ],
      "name": "activatePublicCrossword",
      "outputs": [],
      "stateMutability": "nonpayable",
      "type": "function"
    },
    {
      "inputs": [],
      "name": "adminManager",
      "outputs": [
        {
          "internalType": "contract IAdminManager",
          "name": "",
          "type": "address"
        }
      ],
      "stateMutability": "view",
      "type": "function"
    },
    {
      "inputs": [
        {
          "internalType": "bytes32",
          "name": "crosswordId",
          "type": "bytes32"
        }
      ],
      "name": "claimPrize",
      "outputs": [],
      "stateMutability": "nonpayable",
      "type": "function"
    },
    {
      "inputs": [
        {
          "internalType": "uint256",
          "name": "durationMs",
          "type": "uint256"
        },
        {
          "internalType": "string",
          "name": "username",
          "type": "string"
        },
        {
          "internalType": "string",
          "name": "displayName",
          "type": "string"
        },
        {
          "internalType": "string",
          "name": "pfpUrl",
          "type": "string"
        },
        {
          "internalType": "bytes",
          "name": "signature",
          "type": "bytes"
        }
      ],
      "name": "completeCrossword",
      "outputs": [],
      "stateMutability": "nonpayable",
      "type": "function"
    },
    {
      "inputs": [],
      "name": "configManager",
      "outputs": [
        {
          "internalType": "contract IConfigManager",
          "name": "",
          "type": "address"
        }
      ],
      "stateMutability": "view",
      "type": "function"
    },
    {
      "inputs": [
        {
          "internalType": "bytes32",
          "name": "crosswordId",
          "type": "bytes32"
        },
        {
          "internalType": "address",
          "name": "token",
          "type": "address"
        },
        {
          "internalType": "uint256",
          "name": "prizePool",
          "type": "uint256"
        },
        {
          "internalType": "uint256[]",
          "name": "winnerPercentages",
          "type": "uint256[]"
        },
        {
          "internalType": "uint256",
          "name": "endTime",
          "type": "uint256"
        }
      ],
      "name": "createCrossword",
      "outputs": [],
      "stateMutability": "payable",
      "type": "function"
    },
    {
      "inputs": [
        {
          "internalType": "bytes32",
          "name": "crosswordId",
          "type": "bytes32"
        },
        {
          "internalType": "string",
          "name": "name",
          "type": "string"
        },
        {
          "internalType": "string",
          "name": "crosswordData",
          "type": "string"
        },
        {
          "internalType": "string",
          "name": "sponsoredBy",
          "type": "string"
        }
      ],
      "name": "createPublicCrossword",
      "outputs": [],
      "stateMutability": "payable",
      "type": "function"
    },
    {
      "inputs": [
        {
          "internalType": "bytes32",
          "name": "crosswordId",
          "type": "bytes32"
        },
        {
          "internalType": "string",
          "name": "name",
          "type": "string"
        },
        {
          "internalType": "string",
          "name": "crosswordData",
          "type": "string"
        },
        {
          "internalType": "string",
          "name": "sponsoredBy",
          "type": "string"
        },
        {
          "internalType": "uint256",
          "name": "maxWinners",
          "type": "uint256"
        },
        {
          "internalType": "uint256",
          "name": "prizePool",
          "type": "uint256"
        },
        {
          "internalType": "uint256[]",
          "name": "winnerPercentages",
          "type": "uint256[]"
        },
        {
          "internalType": "uint256",
          "name": "endTime",
          "type": "uint256"
        }
      ],
      "name": "createPublicCrosswordWithNativeCELOPrizePool",
      "outputs": [],
      "stateMutability": "payable",
      "type": "function"
    },
    {
      "inputs": [
        {
          "internalType": "bytes32",
          "name": "crosswordId",
          "type": "bytes32"
        },
        {
          "internalType": "string",
          "name": "name",
          "type": "string"
        },
        {
          "internalType": "string",
          "name": "crosswordData",
          "type": "string"
        },
        {
          "internalType": "string",
          "name": "sponsoredBy",
          "type": "string"
        },
        {
          "internalType": "uint256",
          "name": "maxWinners",
          "type": "uint256"
        },
        {
          "internalType": "address",
          "name": "token",
          "type": "address"
        },
        {
          "internalType": "uint256",
          "name": "prizePool",
          "type": "uint256"
        },
        {
          "internalType": "uint256[]",
          "name": "winnerPercentages",
          "type": "uint256[]"
        },
        {
          "internalType": "uint256",
          "name": "endTime",
          "type": "uint256"
        }
      ],
      "name": "createPublicCrosswordWithPrizePool",
      "outputs": [],
      "stateMutability": "nonpayable",
      "type": "function"
    },
    {
      "inputs": [],
      "name": "crosswordCore",
      "outputs": [
        {
          "internalType": "contract ICrosswordCore",
          "name": "",
          "type": "address"
        }
      ],
      "stateMutability": "view",
      "type": "function"
    },
    {
      "inputs": [],
      "name": "crosswordPrizes",
      "outputs": [
        {
          "internalType": "contract ICrosswordPrizes",
          "name": "",
          "type": "address"
        }
      ],
      "stateMutability": "view",
      "type": "function"
    },
    {
      "inputs": [],
      "name": "emergencyClearCrossword",
      "outputs": [],
      "stateMutability": "nonpayable",
      "type": "function"
    },
    {
      "inputs": [
        {
          "internalType": "bytes32",
          "name": "crosswordId",
          "type": "bytes32"
        }
      ],
      "name": "fundCrosswordPrizes",
      "outputs": [],
      "stateMutability": "payable",
      "type": "function"
    },
    {
      "inputs": [],
      "name": "getActivePublicCrosswords",
      "outputs": [
        {
          "internalType": "bytes32[]",
          "name": "",
          "type": "bytes32[]"
        }
      ],
      "stateMutability": "view",
      "type": "function"
    },
    {
      "inputs": [],
      "name": "getAllPublicCrosswords",
      "outputs": [
        {
          "internalType": "bytes32[]",
          "name": "",
          "type": "bytes32[]"
        }
      ],
      "stateMutability": "view",
      "type": "function"
    },
    {
      "inputs": [],
      "name": "getCurrentCrossword",
      "outputs": [
        {
          "internalType": "bytes32",
          "name": "",
          "type": "bytes32"
        },
        {
          "internalType": "string",
          "name": "",
          "type": "string"
        },
        {
          "internalType": "uint256",
          "name": "",
          "type": "uint256"
        }
      ],
      "stateMutability": "view",
      "type": "function"
    },
    {
      "inputs": [
        {
          "internalType": "bytes32",
          "name": "crosswordId",
          "type": "bytes32"
        }
      ],
      "name": "getPublicCrosswordDetails",
      "outputs": [
        {
          "internalType": "string",
          "name": "name",
          "type": "string"
        },
        {
          "internalType": "string",
          "name": "sponsoredBy",
          "type": "string"
        },
        {
          "internalType": "string",
          "name": "crosswordData",
          "type": "string"
        },
        {
          "internalType": "address",
          "name": "token",
          "type": "address"
        },
        {
          "internalType": "uint256",
          "name": "totalPrizePool",
          "type": "uint256"
        },
        {
          "internalType": "uint256",
          "name": "maxWinners",
          "type": "uint256"
        },
        {
          "internalType": "uint256[]",
          "name": "winnerPercentages",
          "type": "uint256[]"
        },
        {
          "internalType": "uint256",
          "name": "activationTime",
          "type": "uint256"
        },
        {
          "internalType": "uint256",
          "name": "endTime",
          "type": "uint256"
        },
        {
          "internalType": "uint256",
          "name": "createdAt",
          "type": "uint256"
        },
        {
          "internalType": "bool",
          "name": "isActive",
          "type": "bool"
        },
        {
          "internalType": "bool",
          "name": "isCompleted",
          "type": "bool"
        },
        {
          "internalType": "address",
          "name": "creator",
          "type": "address"
        }
      ],
      "stateMutability": "view",
      "type": "function"
    },
    {
      "inputs": [
        {
          "internalType": "bytes32",
          "name": "crosswordId",
          "type": "bytes32"
        },
        {
          "internalType": "address",
          "name": "user",
          "type": "address"
        }
      ],
      "name": "getUserRank",
      "outputs": [
        {
          "internalType": "uint256",
          "name": "",
          "type": "uint256"
        }
      ],
      "stateMutability": "view",
      "type": "function"
    },
    {
      "inputs": [
        {
          "internalType": "address",
          "name": "addr",
          "type": "address"
        }
      ],
      "name": "isAdminAddress",
      "outputs": [
        {
          "internalType": "bool",
          "name": "",
          "type": "bool"
        }
      ],
      "stateMutability": "view",
      "type": "function"
    },
    {
      "inputs": [],
      "name": "isReturnHomeButtonVisible",
      "outputs": [
        {
          "internalType": "bool",
          "name": "",
          "type": "bool"
        }
      ],
      "stateMutability": "view",
      "type": "function"
    },
    {
      "inputs": [
        {
          "internalType": "bytes32",
          "name": "crosswordId",
          "type": "bytes32"
        },
        {
          "internalType": "address",
          "name": "user",
          "type": "address"
        }
      ],
      "name": "isWinner",
      "outputs": [
        {
          "internalType": "bool",
          "name": "",
          "type": "bool"
        }
      ],
      "stateMutability": "view",
      "type": "function"
    },
    {
      "inputs": [],
      "name": "owner",
      "outputs": [
        {
          "internalType": "address",
          "name": "",
          "type": "address"
        }
      ],
      "stateMutability": "view",
      "type": "function"
    },
    {
      "inputs": [],
      "name": "pauseAll",
      "outputs": [],
      "stateMutability": "nonpayable",
      "type": "function"
    },
    {
      "inputs": [],
      "name": "paused",
      "outputs": [
        {
          "internalType": "bool",
          "name": "",
          "type": "bool"
        }
      ],
      "stateMutability": "view",
      "type": "function"
    },
    {
      "inputs": [],
      "name": "publicCrosswordManager",
      "outputs": [
        {
          "internalType": "contract IPublicCrosswordManager",
          "name": "",
          "type": "address"
        }
      ],
      "stateMutability": "view",
      "type": "function"
    },
    {
      "inputs": [],
      "name": "renounceOwnership",
      "outputs": [],
      "stateMutability": "nonpayable",
      "type": "function"
    },
    {
      "inputs": [
        {
          "internalType": "bytes32",
          "name": "crosswordId",
          "type": "bytes32"
        },
        {
          "internalType": "string",
          "name": "crosswordData",
          "type": "string"
        }
      ],
      "name": "setCrossword",
      "outputs": [],
      "stateMutability": "nonpayable",
      "type": "function"
    },
    {
      "inputs": [
        {
          "internalType": "address",
          "name": "fundingContractAddr",
          "type": "address"
        }
      ],
      "name": "setFundingContractForPrizes",
      "outputs": [],
      "stateMutability": "nonpayable",
      "type": "function"
    },
    {
      "inputs": [
        {
          "internalType": "address",
          "name": "newSigner",
          "type": "address"
        }
      ],
      "name": "setSigner",
      "outputs": [],
      "stateMutability": "nonpayable",
      "type": "function"
    },
    {
      "inputs": [
        {
          "internalType": "address",
          "name": "newOwner",
          "type": "address"
        }
      ],
      "name": "transferOwnership",
      "outputs": [],
      "stateMutability": "nonpayable",
      "type": "function"
    },
    {
      "inputs": [],
      "name": "unpauseAll",
      "outputs": [],
      "stateMutability": "nonpayable",
      "type": "function"
    },
    {
      "inputs": [
        {
          "internalType": "address",
          "name": "_crosswordCore",
          "type": "address"
        },
        {
          "internalType": "address",
          "name": "_crosswordPrizes",
          "type": "address"
        },
        {
          "internalType": "address",
          "name": "_userProfiles",
          "type": "address"
        },
        {
          "internalType": "address",
          "name": "_configManager",
          "type": "address"
        },
        {
          "internalType": "address",
          "name": "_adminManager",
          "type": "address"
        },
        {
          "internalType": "address",
          "name": "_publicCrosswordManager",
          "type": "address"
        }
      ],
      "name": "updateContractAddresses",
      "outputs": [],
      "stateMutability": "nonpayable",
      "type": "function"
    },
    {
      "inputs": [
        {
          "internalType": "string",
          "name": "username",
          "type": "string"
        },
        {
          "internalType": "string",
          "name": "displayName",
          "type": "string"
        },
        {
          "internalType": "string",
          "name": "pfpUrl",
          "type": "string"
        },
        {
          "internalType": "string",
          "name": "bio",
          "type": "string"
        },
        {
          "internalType": "string",
          "name": "website",
          "type": "string"
        }
      ],
      "name": "updateProfile",
      "outputs": [],
      "stateMutability": "nonpayable",
      "type": "function"
    },
    {
      "inputs": [
        {
          "internalType": "bytes32",
          "name": "crosswordId",
          "type": "bytes32"
        },
        {
          "internalType": "address",
          "name": "user",
          "type": "address"
        }
      ],
      "name": "userCompletedCrossword",
      "outputs": [
        {
          "internalType": "bool",
          "name": "",
          "type": "bool"
        }
      ],
      "stateMutability": "view",
      "type": "function"
    },
    {
      "inputs": [],
      "name": "userProfiles",
      "outputs": [
        {
          "internalType": "contract IUserProfiles",
          "name": "",
          "type": "address"
        }
      ],
      "stateMutability": "view",
      "type": "function"
    },
    {
      "stateMutability": "payable",
      "type": "receive"
    }
  ],
  "bytecode": "0x60806040523461002f5761002061001461010c565b94939093929192610132565b604051612713908161084e8239f35b600080fd5b634e487b7160e01b600052604160045260246000fd5b90601f01601f191681019081106001600160401b0382111761006b57604052565b610034565b9061008461007d60405190565b928361004a565b565b6001600160a01b031690565b90565b61009e81610086565b0361002f57565b9050519061008482610095565b909160c08284031261002f576100c883836100a5565b926100d681602085016100a5565b926100e482604083016100a5565b926100926100f584606085016100a5565b9360a061010582608087016100a5565b94016100a5565b61012a612f618038038061011f81610070565b9283398101906100b2565b909192939495565b90610084959493929161014433610149565b6106c0565b61008490610195565b6100926100926100929290565b6100926001610152565b90600019905b9181191691161790565b61018861009261019092610152565b600154610169565b600155565b61019e906101e1565b6100846101a961015f565b610179565b6100866100926100929290565b610092906101ae565b6101cd90610086565b9052565b60208101929161008491906101c4565b60006101ec816101bb565b6101f581610086565b6101fe84610086565b1461020e575050610084906106fe565b631e4fbdf760e01b8252819061022790600483016101d1565b0390fd5b90610084959493929161023c610753565b6105b2565b6001600160401b03811161006b57602090601f01601f19160190565b0190565b61027361026e602b610241565b610070565b90602b8252565b61028761026e602d610241565b90602d8252565b61029b61026e602f610241565b90602f8252565b6102af61026e602c610241565b90602c8252565b6102be610261565b7f43726f7373776f7264426f6172643a20636f726520616464726573732063616e60208201526a6e6f74206265207a65726f60a81b604082015290565b6100926102b6565b6100926102fb565b61031361027a565b7f43726f7373776f7264426f6172643a207072697a65732061646472657373206360208201526c616e6e6f74206265207a65726f60981b604082015290565b61009261030b565b610092610352565b61036a61028e565b7f43726f7373776f7264426f6172643a2070726f66696c6573206164647265737360208201526e2063616e6e6f74206265207a65726f60881b604082015290565b610092610362565b6100926103ab565b6103c361027a565b7f43726f7373776f7264426f6172643a20636f6e6669672061646472657373206360208201526c616e6e6f74206265207a65726f60981b604082015290565b6100926103bb565b610092610402565b61041a6102a2565b7f43726f7373776f7264426f6172643a2061646d696e206164647265737320636160208201526b6e6e6f74206265207a65726f60a01b604082015290565b610092610412565b610092610458565b61009290610086906001600160a01b031682565b61009290610468565b6100929061047c565b90610100600160a81b039060081b61016f565b6104b06100926104b892610485565b60025461048e565b600255565b906001600160a01b039061016f565b6104db6100926104e392610485565b6003546104bd565b600355565b6104f76100926104ff92610485565b6004546104bd565b600455565b61051361009261051b92610485565b6005546104bd565b600555565b61052f61009261053792610485565b6006546104bd565b600655565b61054b61009261055392610485565b6007546104bd565b600755565b91946105a16105ab9298979561059760a09661058d6100849a61058360c08a019e60008b01906101c4565b60208901906101c4565b60408701906101c4565b60608501906101c4565b60808301906101c4565b01906101c4565b92936106bb929591946105cc6105c6610303565b86610824565b6105dd6105d761035a565b87610824565b6105ee6105e86103b3565b88610824565b6105ff6105f961040a565b82610824565b61061061060a610460565b83610824565b61062161061b610460565b84610824565b61063261062d86610485565b6104a1565b61064361063e87610485565b6104cc565b61065461064f88610485565b6104e8565b61066561066082610485565b610504565b61067661067183610485565b610520565b61068761068284610485565b61053c565b7f49e1de879727329b7d4d720127457a2857bcb190b237b00840edb50feb9361e0966106b260405190565b96879687610558565b0390a1565b90610084959493929161022b565b61009290610086565b6100926000546106ce565b6106f16100926106f992610485565b6000546104bd565b600055565b6107066106d7565b90610710816106e2565b61074361073d7f8be0079c531659141344cd1fd0a4f28419497f9722a3daafe3b4186f6b6457e093610485565b91610485565b9161074d60405190565b600090a3565b61075b610845565b339061076f61076983610086565b91610086565b036107775750565b63118cdaa760e01b60009081529081906102279060046101d1565b60005b8381106107a55750506000910152565b8181015183820152602001610795565b6107d66107df60209361025d936107ca815190565b80835293849260200190565b95869101610792565b601f01601f191690565b6020808252610092929101906107b5565b156108025750565b6102279061080f60405190565b62461bcd60e51b8152918291600483016107e9565b906100849161083e61076961083960006101bb565b610086565b14156107fa565b6100926106d756fe6080604052600436101561001b575b361561001957600080fd5b005b60003560e01c80630236bb5a1461025b57806303ff1a96146102565780630a713d68146102515780630f9969481461024c578063182296c3146102475780631a831f16146102425780631dc626b11461023d578063317d609b146102385780633ab2648a1461023357806340553dcd1461022e57806347ce16f614610229578063595c6a67146102245780635c975abb1461021f5780636c19e7831461021a578063715018a6146102155780637807bd3c146102105780637849dbaa1461020b5780637e82686314610206578063842a42e3146102015780638a2ddd03146101fc5780638da5cb5b146101f75780639745808a146101f25780639cc19f5b146101ed578063a210b6a4146101e8578063a5f00e7d146101e3578063b043e032146101de578063b0fc9440146101d9578063b55c3f97146101d4578063c4dc53d3146101cf578063ca0ab075146101ca578063cb0e1849146101c5578063cd10f4c6146101c0578063d9e268f7146101bb578063f2fde38b146101b6578063f6ebc190146101b15763f8e5cbdb0361000e57610e2d565b610d0f565b610ca4565b610c8b565b610c68565b610b89565b610b37565b610b15565b610afc565b610ada565b610ab7565b6109d7565b6109be565b610998565b61096e565b610949565b61091a565b610904565b6108f3565b6108cb565b610838565b6107ba565b6107a4565b610787565b610771565b610756565b610696565b610672565b6105ca565b6104b9565b61047b565b61044a565b6103c2565b610329565b61030e565b6102b6565b6001600160a01b031690565b61027590610260565b90565b6102818161026c565b0361028857565b600080fd5b9050359061029a82610278565b565b602060048203126102885761027590600461028d565b9052565b34610288576102e16102cf6102ca3661029c565b610ea8565b60405191829182901515815260200190565b0390f35b80610281565b9050359061029a826102e5565b60206004820312610288576102759060046102eb565b346102885761032461031f366102f8565b610f36565b604051005b346102885761032461033a366102f8565b610fc2565b6004600091031261028857565b600091031261028857565b0190565b9061037b61037461036a845190565b8084529260200190565b9260200190565b9060005b81811061038c5750505090565b9091926103a96103a26001928651815260200190565b9460200190565b92910161037f565b60208082526102759291019061035b565b34610288576103d03661033f565b6102e16103db61107f565b604051918291826103b1565b610275916008021c610260565b610260565b9061027591546103e7565b610275600060076103f9565b6103f461027561027592610260565b61027590610410565b6102759061041f565b6102b290610428565b60208101929161029a9190610431565b34610288576104583661033f565b6102e1610463610404565b6040519182918261043a565b610275600160026103f9565b34610288576104893661033f565b6102e161046361046f565b90600491604083820312610288576102759060206104b282866102eb565b940161028d565b34610288576102e16102cf6104cd36610494565b90611110565b634e487b7160e01b600052604160045260246000fd5b90601f01601f191681019081106001600160401b0382111761050a57604052565b6104d3565b9061029a61051c60405190565b92836104e9565b6001600160401b03811161050a57602090601f01601f19160190565b90826000939282370152565b9092919261056061055b82610523565b61050f565b93818552818301116102885761029a91602085019061053f565b9080601f83011215610288578160206102759335910161054b565b906004604081840312610288576105ac83826102eb565b9260208201356001600160401b03811161028857610275920161057a565b34610288576103246105db36610595565b9061116c565b909182601f83011215610288578135916001600160401b03831161028857602001926020830284011161028857565b60049160a0838303126102885761062782846102eb565b92610635836020830161028d565b9261064381604084016102eb565b9260608301356001600160401b03811161028857826106696080946102759387016105e1565b949095016102eb565b61032461067e36610610565b94939093929192611219565b610275600060036103f9565b34610288576106a43661033f565b6102e161046361068a565b90600461010081840312610288576106c783826102eb565b926001600160401b0392602083013584811161028857826106e991850161057a565b936040840135818111610288578361070291860161057a565b936060810135828111610288578461071b91830161057a565b9361072981608084016102eb565b936107378260a085016102eb565b9360c0840135908111610288578261066960e0946102759387016105e1565b610324610762366106af565b97969096959195949294611330565b346102885761077f3661033f565b610324611575565b34610288576107953661033f565b6102e16102cf60025460ff1690565b34610288576103246107b53661029c565b6117e9565b34610288576107c83661033f565b61032461182e565b6004608081830312610288576107e682826102eb565b926001600160401b03916020810135838111610288578461080891830161057a565b936040820135848111610288578161082191840161057a565b93606083013590811161028857610275920161057a565b610324610844366107d0565b92919091611836565b60005b8381106108605750506000910152565b8181015183820152602001610850565b61089161089a60209361035793610885815190565b80835293849260200190565b9586910161084d565b601f01601f191690565b908152929161029a916040906108c69060608701908782036020890152610870565b940152565b34610288576108d93661033f565b6102e16108e4611903565b604051919391938493846108a4565b6103246108ff366102f8565b6119c3565b34610288576109123661033f565b6103246119cc565b34610288576109283661033f565b610324611a05565b6102b29061026c565b60208101929161029a9190610930565b34610288576109573661033f565b6102e1610962611a88565b60405191829182610939565b34610288576102e161098861098236610494565b90611aa4565b6040519182918290815260200190565b34610288576102e16102cf6109ac36610494565b90611b14565b610275600060066103f9565b34610288576109cc3661033f565b6102e16104636109b2565b34610288576109e53661033f565b6102e16102cf611b42565b909182601f83011215610288578135916001600160401b03831161028857602001926001830284011161028857565b60049060a082820312610288576001600160401b0382358181116102885782610a499185016109f0565b93909460208201358381116102885784610a649184016109f0565b93909460408401358281116102885781610a7f9186016109f0565b93909460608101358481116102885783610a9a9183016109f0565b939094608083013590811161028857610ab392016109f0565b9091565b3461028857610324610ac836610a1f565b98979097969196959295949394611c21565b3461028857610324610aeb366102f8565b611c6a565b610275600060046103f9565b3461028857610b0a3661033f565b6102e1610463610af0565b3461028857610324610b263661029c565b611cd2565b610275600060056103f9565b3461028857610b453661033f565b6102e1610463610b2b565b60049160a08383031261028857610b6782846102eb565b926001600160401b039160208201358381116102885784610a649184016109f0565b3461028857610324610b9a36610b50565b97969096959195949294611d41565b906004916101208382031261028857610bc281846102eb565b926001600160401b039160208201358381116102885781610be491840161057a565b9360408301358481116102885782610bfd91850161057a565b9360608401358181116102885783610c1691860161057a565b93610c2484608083016102eb565b93610c328160a0840161028d565b93610c408260c085016102eb565b9360e084013590811161028857610c5c836102759286016105e1565b939094610100016102eb565b3461028857610324610c7936610ba9565b98979097969196959295949394611f17565b3461028857610c993661033f565b6102e16103db611f55565b3461028857610324610cb53661029c565b611fc6565b9060049060c08284031261028857610cd2838361028d565b92610ce0816020850161028d565b92610cee826040830161028d565b92610275610cff846060850161028d565b9360a06104b2826080870161028d565b3461028857610324610d2036610cba565b949390939291926123c8565b90610d3b61037461036a845190565b9060005b818110610d4c5750505090565b909192610d626103a26001928651815260200190565b929101610d3f565b9890610dfa610e26999f9e9c969561029a9e99610ded610e1c9a6101809f988f610de9610e129c610de2610dd760a095610dc9610e0a9f610dbb610e029f6101a08a01908a820360008c0152610870565b9088820360208a0152610870565b908682036040880152610870565b986060850190610930565b6080830152565b0152565b8c820360c08e0152610d2c565b9e60e08b0152565b610100890152565b610120870152565b1515610140850152565b1515610160830152565b0190610930565b34610288576102e1610e46610e41366102f8565b612543565b99610e5f9d9b9d99919998929897939796949660405190565b9d8e9d8e610d6a565b61027560065461026c565b801515610281565b9050519061029a82610e73565b906020828203126102885761027591610e7b565b6040513d6000823e3d90fd5b6020610ed9610ebd610eb8610e68565b610428565b630236bb5a610ee4610ece60405190565b958694859360e01b90565b835260048301610939565b91815a930392fa908115610f2657600091610efd575090565b610275915060203d602011610f1f575b610f1781836104e9565b810190610e88565b503d610f0d565b610e9c565b61027560075461026c565b610f41610eb8610f2b565b630a713d6890803b1561028857610f6991610f77610f5e60405190565b948594859360e01b90565b835260048301526024820190565b600094858094825a940393f18015610f2657610f91575050565b8161029a92903d10610fb0575b610fa881836104e9565b81019061034c565b503d610f9e565b61027560035461026c565b610f41610eb8610fb7565b6001600160401b03811161050a5760208091020190565b9050519061029a826102e5565b9291909261100161055b85610fcd565b9380855260209283808701920283019281841161028857915b838310611028575050505050565b8480916110358486610fe4565b81520192019161101a565b9080601f8301121561028857815161027592602001610ff1565b906020828203126102885781516001600160401b038111610288576102759201611040565b6110a7600061108f610eb8610f2b565b6319e2ba7c9061109e60405190565b93849260e01b90565b8252816004810191815a930392fa908115610f26576000916110c7575090565b61027591503d806000833e6110dc81836104e9565b81019061105a565b6102759060081c610260565b6102756002546110e4565b90815260408101929161029a91602090610e26565b9061114960209161111f600090565b5061112b610eb86110f0565b90610ee4631dc626b19161113e60405190565b968795869460e01b90565b8452600484016110fb565b90815260406020820181905261027592910190610870565b90611178610eb86110f0565b63317d609b813b1561028857610f7761119f9361119460405190565b958695869460e01b90565b845260048401611154565b9037565b8183529091602001916001600160fb1b038111610288578291602061035792029384916111aa565b9695939461029a9561120c6080956112056108c6966111fb8d97600060a08a01990152565b60208d0190610930565b60408b0152565b88830360608a01526111ae565b9491929390611229610eb8610fb7565b92633ab2648a92843b1561028857600096611256966112619461124b60405190565b9a8b998a9860e01b90565b8852600488016111d6565b815a9103923491f18015610f26576112765750565b61029a906000610fa881836104e9565b1561128d57565b60405162461bcd60e51b815260206004820152601b60248201527a15985b1d59481b5d5cdd08195c5d585b081c1c9a5e99481c1bdbdb602a1b604482015280606481015b0390fd5b6103f46102756102759290565b610275906112d5565b9261131461132292610275969461130760808801926000890152565b8682036020880152610870565b908482036040860152610870565b916060818403910152610870565b96929490959193506113496113428290565b3414611286565b611354610eb8610fb7565b633ab2648a6000996113658b6112e2565b90833b15610288578a968c96611256966113829461124b60405190565b815a9103923491f18015610f2657611454575b506113a1610eb8610fb7565b630a713d6890803b15610288576113bd91879161109e60405190565b82526004820188905281836024820192825a940393f18015610f2657611438575b506113ea610eb8610f2b565b9063d25e3fc690823b156102885761142361141894889692879361140d60405190565b998a98899760e01b90565b8752600487016112eb565b92825a940393f18015610f2657610f91575050565b61144e90863d8811610fb057610fa881836104e9565b386113de565b61146a90863d8811610fb057610fa881836104e9565b38611395565b61147d61055b6026610523565b9060268252565b61149161055b602b610523565b90602b8252565b6114a561055b602d610523565b90602d8252565b6114b961055b602f610523565b90602f8252565b6114cd61055b602c610523565b90602c8252565b6114dc611470565b7f43726f7373776f7264426f6172643a2063616c6c6572206973206e6f7420616e6020820152651030b236b4b760d11b604082015290565b6102756114d4565b610275611514565b602080825261027592910190610870565b1561153d5750565b6112d19061154a60405190565b62461bcd60e51b815291829160048301611524565b61027560045461026c565b61027560055461026c565b611580610eb8610e68565b630236bb5a61159861159160405190565b9160e01b90565b8152602081600493816115ad33878301610939565b91815a930392fa8015610f26576115d5916000916117ca575b506115cf61151c565b90611535565b6115e0610eb86110f0565b90638456cb5991803b1561028857611604926115fb60405190565b93849160e01b90565b8082529181848101600096878094825a940393f18015610f26576117ae575b5061162f610eb8610fb7565b803b15610288578361164060405190565b838152918290818387820192825a940393f18015610f2657611792575b50611669610eb861155f565b803b15610288578361167a60405190565b838152918290818387820192825a940393f18015610f2657611776575b506116a3610eb861156a565b803b1561028857836116b460405190565b838152918290818387820192825a940393f18015610f265761175a575b506116dd610eb8610e68565b803b1561028857836116ee60405190565b838152918290818387820192825a940393f18015610f265761173e575b50611717610eb8610f2b565b91823b15610288576114239284928361172f60405190565b95869485938452830160000190565b61175490843d8611610fb057610fa881836104e9565b3861170b565b61177090843d8611610fb057610fa881836104e9565b386116d1565b61178c90843d8611610fb057610fa881836104e9565b38611697565b6117a890843d8611610fb057610fa881836104e9565b3861165d565b6117c490843d8611610fb057610fa881836104e9565b38611623565b6117e3915060203d602011610f1f57610f1781836104e9565b386115c6565b6117f4610eb86110f0565b636c19e78390803b1561028857610ed991610f77610f5e60405190565b6118196125ee565b61029a61029a61182960006112e2565b612649565b61029a611811565b929190611844610eb8610f2b565b9063d25e3fc690823b1561028857600094611871946112619261186660405190565b988997889660e01b90565b8652600486016112eb565b9092919261188c61055b82610523565b93818552818301116102885761029a91602085019061084d565b9080601f830112156102885781516102759260200161187c565b9091606082840312610288576118d68383610fe4565b602083015190936001600160401b0382116102885760406118fc826102759487016118a6565b9401610fe4565b61192b90611912610eb86110f0565b90637849dbaa9161192260405190565b93849360e01b90565b835282600481016000958693815a930392fa918215610f26578390848094611955575b5050929190565b915091935061197692503d8091833e61196e81836104e9565b8101906118c0565b91388094929461194e565b61029a9061198d6125ee565b61029a9061199961269e565b6119a4610eb8610fb7565b63e7b09cea813b1561028857600091610f6991611261610ece60405190565b61029a90611981565b6119d7610eb86110f0565b63842a42e3813b15610288576119f9916119f060405190565b92839260e01b90565b82528160048101610f77565b611a10610eb8610e68565b630236bb5a611a2161159160405190565b815260208160049381611a3633878301610939565b91815a930392fa8015610f2657611a57916000916117ca57506115cf61151c565b611a62610eb86110f0565b90633f4ba83a91803b1561028857611604926115fb60405190565b61027560005461026c565b610275611a7d565b906020828203126102885761027591610fe4565b90611149602091611ab3600090565b50611abf610eb8610fb7565b90611ad2639745808a9161113e60405190565b91815a930392fa908115610f2657600091611aeb575090565b610275915060203d602011611b0d575b611b0581836104e9565b810190611a90565b503d611afb565b90611149602091611b23600090565b50611b2f610eb8610fb7565b90610ee4639cc19f5b9161113e60405190565b611b616020611b52610eb861156a565b636bc122c99061109e60405190565b8252604060048301526013604483015272686f6d655f627574746f6e5f76697369626c6560681b6064830152600160248301528160848101610ee4565b919061089a81611bb5816103579560209181520190565b809561053f565b98969491611c05936102759b9995611be98c611bf794611c139b9660a08301926000818503910152611b9e565b8c810360208e015291611b9e565b9189830360408b0152611b9e565b918683036060880152611b9e565b926080818503910152611b9e565b989396919792959094611c35610eb861155f565b9763b043e03297893b1561028857611c5f9a610f7798611c5460405190565b9d8e9d8e9c60e01b90565b8c5260048c01611bbc565b611c75610eb8610fb7565b63b0fc944090803b1561028857610f6991610f77610f5e60405190565b61029a90611c9e6125ee565b61029a90611caa61269e565b611cb5610eb8610fb7565b631c294efd90803b1561028857610ed991610f77610f5e60405190565b61029a90611c92565b98969491611d3396916102759b9995611d2595611d0a611d179460208f610de960c08201976000830190610930565b8c830360408e0152611b9e565b9189830360608b0152611b9e565b918683036080880152611b9e565b9260a0818503910152611b9e565b97929496919695909395611d56610eb86110f0565b9663dd12421296883b1561028857611d8099611d8c97611d7560405190565b9c8d9c8d9b60e01b90565b8b523360048c01611cdb565b600093848094825a940393f1918215610f2657611dcd92611e73575b5080611db5610eb86110f0565b637849dbaa90611dc460405190565b94859260e01b90565b8252816004810191815a930392fa918215610f26578192611e55575b506020611e17611dfa610eb8610fb7565b63d9cbe53c84611e24611e0c60405190565b978895869460e01b90565b84523390600485016110fb565b92825a940393f1908115610f265750611e3a5750565b611e529060203d602011610f1f57610f1781836104e9565b50565b611e6a9192503d8084833e61196e81836104e9565b50919091611de9565b611e8990823d8411610fb057610fa881836104e9565b38611da8565b9a9997926108c696611ef98d976080611ef461029a9e99611ee68c6101009f9998611ed8611f039a611f0a9d611ecb6101208601926000870152565b8482036020860152610870565b916040818403910152610870565b8c810360608e015290610870565b990152565b60a08d0190610930565b60c08b0152565b88830360e08a01526111ae565b989396919792959094611f2b610eb8610f2b565b9763c37c295c97893b1561028857611f4a9a610f7798611c5460405190565b8c5260048c01611e8f565b6110a76000611f65610eb8610f2b565b63321c7dc49061109e60405190565b61029a90611f806125ee565b6000611f8b816112e2565b611f948161026c565b611f9d8461026c565b14611fad57505061029a90612649565b631e4fbdf760e01b825281906112d19060048301610939565b61029a90611f74565b9061029a9594939291611fe06125ee565b6122ba565b611fed611484565b7f43726f7373776f7264426f6172643a20636f726520616464726573732063616e60208201526a6e6f74206265207a65726f60a81b604082015290565b610275611fe5565b61027561202a565b612042611498565b7f43726f7373776f7264426f6172643a207072697a65732061646472657373206360208201526c616e6e6f74206265207a65726f60981b604082015290565b61027561203a565b610275612081565b6120996114ac565b7f43726f7373776f7264426f6172643a2070726f66696c6573206164647265737360208201526e2063616e6e6f74206265207a65726f60881b604082015290565b610275612091565b6102756120da565b6120f2611498565b7f43726f7373776f7264426f6172643a20636f6e6669672061646472657373206360208201526c616e6e6f74206265207a65726f60981b604082015290565b6102756120ea565b610275612131565b6121496114c0565b7f43726f7373776f7264426f6172643a2061646d696e206164647265737320636160208201526b6e6e6f74206265207a65726f60a01b604082015290565b610275612141565b610275612187565b90610100600160a81b039060081b5b9181191691161790565b6121bf6102756121c792610428565b600254612197565b600255565b906001600160a01b03906121a6565b6121ea6102756121f292610428565b6003546121cc565b600355565b61220661027561220e92610428565b6004546121cc565b600455565b61222261027561222a92610428565b6005546121cc565b600555565b61223e61027561224692610428565b6006546121cc565b600655565b61225a61027561226292610428565b6007546121cc565b600755565b91946122b0610e26929897956122a660a09661229c61029a9a61229260c08a019e60008b0190610930565b6020890190610930565b6040870190610930565b6060850190610930565b6080830190610930565b92936123c3929591946122d46122ce612032565b866126bc565b6122e56122df612089565b876126bc565b6122f66122f06120e2565b886126bc565b612307612301612139565b826126bc565b61231861231261218f565b836126bc565b61232961232361218f565b846126bc565b61233a61233586610428565b6121b0565b61234b61234687610428565b6121db565b61235c61235788610428565b6121f7565b61236d61236882610428565b612213565b61237e61237983610428565b61222f565b61238f61238a84610428565b61224b565b7f49e1de879727329b7d4d720127457a2857bcb190b237b00840edb50feb9361e0966123ba60405190565b96879687612267565b0390a1565b9061029a9594939291611fcf565b9050519061029a82610278565b929190926123f361055b85610fcd565b9380855260209283808701920283019281841161028857915b83831061241a575050505050565b8480916124278486610fe4565b81520192019161240c565b9080601f83011215610288578151610275926020016123e3565b916101a0838303126102885782516001600160401b03929083811161028857816124779186016118a6565b93602081015184811161028857826124909183016118a6565b93604082015181811161028857836124a99184016118a6565b936124b784606085016123d6565b936124c58160808601610fe4565b936124d38260a08301610fe4565b9360c082015190811161028857826124ec918301612432565b926124fa8360e08401610fe4565b92612509816101008501610fe4565b92612518826101208301610fe4565b9261027561252a846101408501610e7b565b93612539816101608601610e7b565b93610180016123d6565b90610f6990612553610eb8610f2b565b63ec03a37a61256f61256460405190565b958695869360e01b90565b6000958693815a930392fa918215610f265783908480948194829483948480948194829483948480946125ae575b50509c9b9a99989796959493929190565b9b509b50509b5050505050505050506125d992503d8091833e6125d181836104e9565b81019061244c565b91939597999b38809e929496989a9c9e61259d565b6125f6611a88565b339061260a6126048361026c565b9161026c565b036126125750565b63118cdaa760e01b60009081529081906112d1906004610939565b61263c61027561264492610428565b6000546121cc565b600055565b612651611a7d565b9061265b8161262d565b61268e6126887f8be0079c531659141344cd1fd0a4f28419497f9722a3daafe3b4186f6b6457e093610428565b91610428565b9161269860405190565b600090a3565b60025460ff166126aa57565b63d93c066560e01b6000908152600490fd5b9061029a916126d66126046126d160006112e2565b61026c565b141561153556fea2646970667358221220087a27632602fe9ab2a0a1a71dd6672aab75b45286cf05df9104c4616cb2a3d564736f6c634300081c0033",
  "linkReferences": {},
  "deployedLinkReferences": {}
}