{
  "_format": "hh-sol-artifact-1",
  "contractName": "PublicCrosswordManager",
  "sourceName": "contracts/PublicCrosswordManager.sol",
  "abi": [
    {
      "inputs": [
        {
          "internalType": "address",
          "name": "initialOwner",
          "type": "address"
        }
      ],
      "stateMutability": "nonpayable",
      "type": "constructor"
    },
    {
      "inputs": [],
      "name": "EnforcedPause",
      "type": "error"
    },
    {
      "inputs": [],
      "name": "ExpectedPause",
      "type": "error"
    },
    {
      "inputs": [
        {
          "internalType": "address",
          "name": "owner",
          "type": "address"
        }
      ],
      "name": "OwnableInvalidOwner",
      "type": "error"
    },
    {
      "inputs": [
        {
          "internalType": "address",
          "name": "account",
          "type": "address"
        }
      ],
      "name": "OwnableUnauthorizedAccount",
      "type": "error"
    },
    {
      "inputs": [],
      "name": "ReentrancyGuardReentrantCall",
      "type": "error"
    },
    {
      "inputs": [
        {
          "internalType": "address",
          "name": "token",
          "type": "address"
        }
      ],
      "name": "SafeERC20FailedOperation",
      "type": "error"
    },
    {
      "anonymous": false,
      "inputs": [
        {
          "indexed": true,
          "internalType": "bytes32",
          "name": "crosswordId",
          "type": "bytes32"
        },
        {
          "indexed": false,
          "internalType": "uint256",
          "name": "activationTime",
          "type": "uint256"
        }
      ],
      "name": "CrosswordActivated",
      "type": "event"
    },
    {
      "anonymous": false,
      "inputs": [
        {
          "indexed": true,
          "internalType": "bytes32",
          "name": "crosswordId",
          "type": "bytes32"
        },
        {
          "indexed": false,
          "internalType": "string",
          "name": "name",
          "type": "string"
        },
        {
          "indexed": false,
          "internalType": "string",
          "name": "sponsoredBy",
          "type": "string"
        },
        {
          "indexed": true,
          "internalType": "address",
          "name": "creator",
          "type": "address"
        },
        {
          "indexed": false,
          "internalType": "uint256",
          "name": "timestamp",
          "type": "uint256"
        }
      ],
      "name": "CrosswordCreated",
      "type": "event"
    },
    {
      "anonymous": false,
      "inputs": [
        {
          "indexed": true,
          "internalType": "bytes32",
          "name": "crosswordId",
          "type": "bytes32"
        },
        {
          "indexed": false,
          "internalType": "string",
          "name": "crosswordData",
          "type": "string"
        },
        {
          "indexed": false,
          "internalType": "address",
          "name": "updatedBy",
          "type": "address"
        }
      ],
      "name": "CrosswordDataUpdated",
      "type": "event"
    },
    {
      "anonymous": false,
      "inputs": [
        {
          "indexed": true,
          "internalType": "address",
          "name": "previousOwner",
          "type": "address"
        },
        {
          "indexed": true,
          "internalType": "address",
          "name": "newOwner",
          "type": "address"
        }
      ],
      "name": "OwnershipTransferred",
      "type": "event"
    },
    {
      "anonymous": false,
      "inputs": [
        {
          "indexed": false,
          "internalType": "address",
          "name": "account",
          "type": "address"
        }
      ],
      "name": "Paused",
      "type": "event"
    },
    {
      "anonymous": false,
      "inputs": [
        {
          "indexed": true,
          "internalType": "bytes32",
          "name": "crosswordId",
          "type": "bytes32"
        },
        {
          "indexed": true,
          "internalType": "address",
          "name": "token",
          "type": "address"
        },
        {
          "indexed": false,
          "internalType": "uint256",
          "name": "amount",
          "type": "uint256"
        },
        {
          "indexed": false,
          "internalType": "address",
          "name": "funder",
          "type": "address"
        }
      ],
      "name": "PrizePoolFunded",
      "type": "event"
    },
    {
      "anonymous": false,
      "inputs": [
        {
          "indexed": false,
          "internalType": "address",
          "name": "account",
          "type": "address"
        }
      ],
      "name": "Unpaused",
      "type": "event"
    },
    {
      "inputs": [],
      "name": "MAX_WINNERS",
      "outputs": [
        {
          "internalType": "uint256",
          "name": "",
          "type": "uint256"
        }
      ],
      "stateMutability": "view",
      "type": "function"
    },
    {
      "inputs": [
        {
          "internalType": "bytes32",
          "name": "crosswordId",
          "type": "bytes32"
        }
      ],
      "name": "activateCrossword",
      "outputs": [],
      "stateMutability": "nonpayable",
      "type": "function"
    },
    {
      "inputs": [
        {
          "internalType": "uint256",
          "name": "",
          "type": "uint256"
        }
      ],
      "name": "allCrosswordIds",
      "outputs": [
        {
          "internalType": "bytes32",
          "name": "",
          "type": "bytes32"
        }
      ],
      "stateMutability": "view",
      "type": "function"
    },
    {
      "inputs": [
        {
          "internalType": "address",
          "name": "",
          "type": "address"
        }
      ],
      "name": "allowedTokens",
      "outputs": [
        {
          "internalType": "bool",
          "name": "",
          "type": "bool"
        }
      ],
      "stateMutability": "view",
      "type": "function"
    },
    {
      "inputs": [
        {
          "internalType": "bytes32",
          "name": "crosswordId",
          "type": "bytes32"
        },
        {
          "internalType": "string",
          "name": "name",
          "type": "string"
        },
        {
          "internalType": "string",
          "name": "crosswordData",
          "type": "string"
        },
        {
          "internalType": "string",
          "name": "sponsoredBy",
          "type": "string"
        }
      ],
      "name": "createCrossword",
      "outputs": [],
      "stateMutability": "payable",
      "type": "function"
    },
    {
      "inputs": [
        {
          "internalType": "bytes32",
          "name": "crosswordId",
          "type": "bytes32"
        },
        {
          "internalType": "string",
          "name": "name",
          "type": "string"
        },
        {
          "internalType": "string",
          "name": "crosswordData",
          "type": "string"
        },
        {
          "internalType": "string",
          "name": "sponsoredBy",
          "type": "string"
        },
        {
          "internalType": "uint256",
          "name": "maxWinners",
          "type": "uint256"
        },
        {
          "internalType": "uint256",
          "name": "prizePool",
          "type": "uint256"
        },
        {
          "internalType": "uint256[]",
          "name": "winnerPercentages",
          "type": "uint256[]"
        },
        {
          "internalType": "uint256",
          "name": "endTime",
          "type": "uint256"
        }
      ],
      "name": "createCrosswordWithNativeCELOPrizePool",
      "outputs": [],
      "stateMutability": "payable",
      "type": "function"
    },
    {
      "inputs": [
        {
          "internalType": "bytes32",
          "name": "crosswordId",
          "type": "bytes32"
        },
        {
          "internalType": "string",
          "name": "name",
          "type": "string"
        },
        {
          "internalType": "string",
          "name": "crosswordData",
          "type": "string"
        },
        {
          "internalType": "string",
          "name": "sponsoredBy",
          "type": "string"
        },
        {
          "internalType": "uint256",
          "name": "maxWinners",
          "type": "uint256"
        },
        {
          "internalType": "address",
          "name": "token",
          "type": "address"
        },
        {
          "internalType": "uint256",
          "name": "prizePool",
          "type": "uint256"
        },
        {
          "internalType": "uint256[]",
          "name": "winnerPercentages",
          "type": "uint256[]"
        },
        {
          "internalType": "uint256",
          "name": "endTime",
          "type": "uint256"
        }
      ],
      "name": "createCrosswordWithPrizePool",
      "outputs": [],
      "stateMutability": "nonpayable",
      "type": "function"
    },
    {
      "inputs": [],
      "name": "creationFee",
      "outputs": [
        {
          "internalType": "uint256",
          "name": "",
          "type": "uint256"
        }
      ],
      "stateMutability": "view",
      "type": "function"
    },
    {
      "inputs": [
        {
          "internalType": "bytes32",
          "name": "",
          "type": "bytes32"
        }
      ],
      "name": "crosswords",
      "outputs": [
        {
          "internalType": "string",
          "name": "name",
          "type": "string"
        },
        {
          "internalType": "string",
          "name": "sponsoredBy",
          "type": "string"
        },
        {
          "internalType": "string",
          "name": "crosswordData",
          "type": "string"
        },
        {
          "internalType": "address",
          "name": "token",
          "type": "address"
        },
        {
          "internalType": "uint256",
          "name": "totalPrizePool",
          "type": "uint256"
        },
        {
          "internalType": "uint256",
          "name": "maxWinners",
          "type": "uint256"
        },
        {
          "internalType": "uint256",
          "name": "activationTime",
          "type": "uint256"
        },
        {
          "internalType": "uint256",
          "name": "endTime",
          "type": "uint256"
        },
        {
          "internalType": "uint256",
          "name": "createdAt",
          "type": "uint256"
        },
        {
          "internalType": "bool",
          "name": "isActive",
          "type": "bool"
        },
        {
          "internalType": "bool",
          "name": "isCompleted",
          "type": "bool"
        },
        {
          "internalType": "address",
          "name": "creator",
          "type": "address"
        }
      ],
      "stateMutability": "view",
      "type": "function"
    },
    {
      "inputs": [
        {
          "internalType": "bytes32",
          "name": "crosswordId",
          "type": "bytes32"
        }
      ],
      "name": "fundPrizePool",
      "outputs": [],
      "stateMutability": "payable",
      "type": "function"
    },
    {
      "inputs": [
        {
          "internalType": "bytes32",
          "name": "crosswordId",
          "type": "bytes32"
        },
        {
          "internalType": "uint256",
          "name": "amount",
          "type": "uint256"
        }
      ],
      "name": "fundPrizePoolWithToken",
      "outputs": [],
      "stateMutability": "nonpayable",
      "type": "function"
    },
    {
      "inputs": [],
      "name": "getActiveCrosswordIds",
      "outputs": [
        {
          "internalType": "bytes32[]",
          "name": "",
          "type": "bytes32[]"
        }
      ],
      "stateMutability": "view",
      "type": "function"
    },
    {
      "inputs": [],
      "name": "getAllCrosswordIds",
      "outputs": [
        {
          "internalType": "bytes32[]",
          "name": "",
          "type": "bytes32[]"
        }
      ],
      "stateMutability": "view",
      "type": "function"
    },
    {
      "inputs": [
        {
          "internalType": "bytes32",
          "name": "crosswordId",
          "type": "bytes32"
        }
      ],
      "name": "getCrosswordDetails",
      "outputs": [
        {
          "internalType": "string",
          "name": "name",
          "type": "string"
        },
        {
          "internalType": "string",
          "name": "sponsoredBy",
          "type": "string"
        },
        {
          "internalType": "string",
          "name": "crosswordData",
          "type": "string"
        },
        {
          "internalType": "address",
          "name": "token",
          "type": "address"
        },
        {
          "internalType": "uint256",
          "name": "totalPrizePool",
          "type": "uint256"
        },
        {
          "internalType": "uint256",
          "name": "maxWinners",
          "type": "uint256"
        },
        {
          "internalType": "uint256[]",
          "name": "winnerPercentages",
          "type": "uint256[]"
        },
        {
          "internalType": "uint256",
          "name": "activationTime",
          "type": "uint256"
        },
        {
          "internalType": "uint256",
          "name": "endTime",
          "type": "uint256"
        },
        {
          "internalType": "uint256",
          "name": "createdAt",
          "type": "uint256"
        },
        {
          "internalType": "bool",
          "name": "isActive",
          "type": "bool"
        },
        {
          "internalType": "bool",
          "name": "isCompleted",
          "type": "bool"
        },
        {
          "internalType": "address",
          "name": "creator",
          "type": "address"
        }
      ],
      "stateMutability": "view",
      "type": "function"
    },
    {
      "inputs": [],
      "name": "owner",
      "outputs": [
        {
          "internalType": "address",
          "name": "",
          "type": "address"
        }
      ],
      "stateMutability": "view",
      "type": "function"
    },
    {
      "inputs": [],
      "name": "pause",
      "outputs": [],
      "stateMutability": "nonpayable",
      "type": "function"
    },
    {
      "inputs": [],
      "name": "paused",
      "outputs": [
        {
          "internalType": "bool",
          "name": "",
          "type": "bool"
        }
      ],
      "stateMutability": "view",
      "type": "function"
    },
    {
      "inputs": [],
      "name": "renounceOwnership",
      "outputs": [],
      "stateMutability": "nonpayable",
      "type": "function"
    },
    {
      "inputs": [
        {
          "internalType": "address",
          "name": "token",
          "type": "address"
        },
        {
          "internalType": "bool",
          "name": "allowed",
          "type": "bool"
        }
      ],
      "name": "setAllowedToken",
      "outputs": [],
      "stateMutability": "nonpayable",
      "type": "function"
    },
    {
      "inputs": [
        {
          "internalType": "uint256",
          "name": "fee",
          "type": "uint256"
        }
      ],
      "name": "setCreationFee",
      "outputs": [],
      "stateMutability": "nonpayable",
      "type": "function"
    },
    {
      "inputs": [
        {
          "internalType": "address",
          "name": "newOwner",
          "type": "address"
        }
      ],
      "name": "transferOwnership",
      "outputs": [],
      "stateMutability": "nonpayable",
      "type": "function"
    },
    {
      "inputs": [],
      "name": "unpause",
      "outputs": [],
      "stateMutability": "nonpayable",
      "type": "function"
    },
    {
      "inputs": [
        {
          "internalType": "bytes32",
          "name": "crosswordId",
          "type": "bytes32"
        },
        {
          "internalType": "string",
          "name": "crosswordData",
          "type": "string"
        }
      ],
      "name": "updateCrosswordData",
      "outputs": [],
      "stateMutability": "nonpayable",
      "type": "function"
    },
    {
      "inputs": [
        {
          "internalType": "address",
          "name": "to",
          "type": "address"
        },
        {
          "internalType": "uint256",
          "name": "amount",
          "type": "uint256"
        }
      ],
      "name": "withdrawFees",
      "outputs": [],
      "stateMutability": "nonpayable",
      "type": "function"
    },
    {
      "stateMutability": "payable",
      "type": "receive"
    }
  ],
  "bytecode": "0x608060405234610028576100196100146100bf565b61018e565b60405161287e90816103038239f35b600080fd5b634e487b7160e01b600052604160045260246000fd5b90601f01601f191681019081106001600160401b0382111761006457604052565b61002d565b9061007d61007660405190565b9283610043565b565b6001600160a01b031690565b90565b6100978161007f565b0361002857565b9050519061007d8261008e565b906020828203126100285761008b9161009e565b61008b612b81803803806100d281610069565b9283398101906100ab565b90600019905b9181191691161790565b61008b61008b61008b9290565b61010961008b610111926100ed565b6006546100dd565b600655565b61007f61008b61008b9290565b61008b90610116565b61008b9061007f906001600160a01b031682565b61008b9061012c565b61008b90610140565b9061015c90610149565b600052602052604060002090565b9060ff906100e3565b9061018361008b61018a92151590565b825461016a565b9055565b610197906101bf565b6101a160006100fa565b61007d60016101ba6101b36000610123565b6004610152565b610173565b61007d906101ee565b61008b60016100ed565b6101e161008b6101e9926100ed565b6001546100dd565b600155565b6101f790610224565b61007d6102026101c8565b6101d2565b6102109061007f565b9052565b60208101929161007d9190610207565b600061022f81610123565b6102388161007f565b6102418461007f565b1461025157505061007d906102ad565b631e4fbdf760e01b8252819061026a9060048301610214565b0390fd5b61008b9061007f565b61008b60005461026e565b906001600160a01b03906100e3565b6102a061008b6102a892610149565b600054610282565b600055565b6102b5610277565b906102bf81610291565b6102f26102ec7f8be0079c531659141344cd1fd0a4f28419497f9722a3daafe3b4186f6b6457e093610149565b91610149565b916102fc60405190565b600090a356fe6080604052600436101561001b575b361561001957600080fd5b005b60003560e01c80630a713d681461019b57806319e2ba7c1461019657806329a62a7614610191578063321c7dc41461018c5780633f4ba83a14610187578063427b88ee146101825780635c975abb1461017d578063646025c214610178578063715018a614610173578063754035d21461016e5780638456cb59146101695780638aaa2284146101645780638da5cb5b1461015f578063a705b3101461015a578063ad3b1b4714610155578063b7d8622514610150578063bef913fe1461014b578063c37c295c14610146578063d25e3fc614610141578063dce0b4e41461013c578063dfdfde3014610137578063e744092e14610132578063ec03a37a1461012d5763f2fde38b0361000e57610e01565b610dc6565b610cac565b610c03565b6108c2565b6108a1565b610816565b61073e565b6106aa565b610693565b610664565b61063e565b61060e565b610593565b61057c565b610531565b61051a565b6104ca565b6104af565b6102f8565b6102df565b6102b6565b610272565b6101d6565b805b036101a957565b600080fd5b905035906101bb826101a0565b565b602060048203126101a9576101d39060046101ae565b90565b346101a9576101ec6101e7366101bd565b6110d3565b60405180805b0390f35b600460009103126101a957565b9052565b0190565b9061022b61022461021a845190565b8084529260200190565b9260200190565b9060005b81811061023c5750505090565b9091926102596102526001928651815260200190565b9460200190565b92910161022f565b60208082526101d39291019061020b565b346101a957610280366101f6565b6101f261028b611161565b60405191829182610261565b6101d36101d36101d39290565b6101d3600a610297565b6101d36102a4565b346101a9576102c4366101f6565b6101f26102cf6102ae565b6040519182918290815260200190565b346101a9576102ed366101f6565b6101f261028b611200565b346101a957610306366101f6565b6101ec611310565b634e487b7160e01b600052604160045260246000fd5b90601f01601f191681019081106001600160401b0382111761034557604052565b61030e565b906101bb61035760405190565b9283610324565b6001600160401b03811161034557602090601f01601f19160190565b90826000939282370152565b9092919261039b6103968261035e565b61034a565b93818552818301116101a9576101bb91602085019061037a565b9080601f830112156101a9578160206101d393359101610386565b909182601f830112156101a9578135916001600160401b0383116101a95760200192602083028401116101a957565b906004610100818403126101a95761041783826101ae565b926001600160401b039260208301358481116101a957826104399185016103b5565b9360408401358181116101a957836104529186016103b5565b9360608101358281116101a9578461046b9183016103b5565b9361047981608084016101ae565b936104878260a085016101ae565b9360c08401359081116101a957826104a660e0946101d39387016103d0565b949095016101ae565b6101ec6104bb366103ff565b97969096959195949294611413565b346101a9576104d8366101f6565b6101f26104e3611424565b60405191829182901515815260200190565b906004916040838203126101a9576101d390602061051382866101ae565b94016101ae565b346101a9576101ec61052b366104f5565b90611592565b346101a95761053f366101f6565b6101ec6115b9565b9060046040818403126101a95761055e83826101ae565b9260208201356001600160401b0381116101a9576101d392016103b5565b346101a9576101ec61058d36610547565b906118b7565b346101a9576105a1366101f6565b6101ec6118d4565b6001600160a01b031690565b6101d3906105a9565b6101a2816105b5565b905035906101bb826105be565b8015156101a2565b905035906101bb826105d4565b906004916040838203126101a9576101d390602061060782866105c7565b94016105dc565b346101a9576101ec61061f366105e9565b906118f8565b610203906105b5565b6020810192916101bb9190610625565b346101a95761064c366101f6565b6101f2610657611902565b6040515b9182918261062e565b6101ec610670366101bd565b611a21565b906004916040838203126101a9576101d390602061051382866105c7565b346101a9576101ec6106a436610675565b90611adc565b346101a9576101ec6106bb366101bd565b611afb565b634e487b7160e01b600052603260045260246000fd5b80548210156106f9576106f0600191600052602060002090565b91020190600090565b6106c0565b6101d3916008021c81565b906101d391546106fe565b60056000610720825490565b83101561073b57506101d391610735916106d6565b90610709565b80fd5b346101a9576101f26102cf610752366101bd565b610714565b90600491610120838203126101a95761077081846101ae565b926001600160401b039160208201358381116101a957816107929184016103b5565b9360408301358481116101a957826107ab9185016103b5565b9360608401358181116101a957836107c49186016103b5565b936107d284608083016101ae565b936107e08160a084016105c7565b936107ee8260c085016101ae565b9360e08401359081116101a95761080a836101d39286016103d0565b939094610100016101ae565b346101a9576101ec61082736610757565b98979097969196959295949394611b9b565b60046080818303126101a95761084f82826101ae565b926001600160401b039160208101358381116101a957846108719183016103b5565b9360408201358481116101a9578161088a9184016103b5565b9360608301359081116101a9576101d392016103b5565b6101ec6108ad36610839565b92919091611bee565b6101d360006006610709565b346101a9576108d0366101f6565b6101f26102cf6108b6565b905b600052602052604060002090565b634e487b7160e01b600052602260045260246000fd5b9060016002830492168015610921575b602083101461091c57565b6108eb565b91607f1691610911565b906000929180549161094961093f84610901565b8083529160200190565b916001936001811690816000146109bd5750600114610969575b50505050565b8394955061097f90939293600052602060002090565b6000945b610996575b505050019038808080610963565b8185939510156109b55780548385015260209092019391820182610983565b829450610988565b60ff1916845250501515602002019250389050808080610963565b906101d39161092b565b906101bb6109fc926109f360405190565b938480926109d8565b0383610324565b6105a9565b6101d36000546105b5565b6101d390546105b5565b6101d39081565b6101d3600654610a1d565b6101d39054610a1d565b6101d3905b60ff1690565b6101d3600254610a39565b6101d39054610a39565b6101d39060081c610a3e565b6101d39054610a59565b6101d39060101c6105a9565b6101d39054610a6f565b610a909060036108db565b90610a9a826109e2565b91610aa7600182016109e2565b91610ab4600283016109e2565b91610ac160038201610a13565b91610ace60048301610a2f565b91610adb60058201610a2f565b91610ae860078301610a2f565b91610af560088201610a2f565b91600a610b0460098401610a2f565b9201610b0f81610a4f565b916101d3610b1c83610a65565b92610a7b565b60005b838110610b355750506000910152565b8181015183820152602001610b25565b610b66610b6f60209361020793610b5a815190565b80835293849260200190565b95869101610b22565b601f01601f191690565b999795939c9b9a9896949291906101808b018b810360008d0152610b9c91610b45565b8a810360208c0152610bad91610b45565b89810360408b0152610bbe91610b45565b9a60608901610bcc91610625565b608088015260a087015260c086015260e085015261010084015215156101208301521515610140820152610160016101bb91610625565b346101a9576101f2610c1c610c17366101bd565b610a85565b98610c359c9a9c98919897929796939695949560405190565b9c8d9c8d610b79565b602060048203126101a9576101d39060046105c7565b610a036101d36101d3926105a9565b6101d390610c54565b6101d390610c63565b906108dd90610c6c565b6101d3916008021c610a3e565b906101d39154610c7f565b6000610ca76101d3926004610c75565b610c8c565b346101a9576101f26104e3610cc036610c3e565b610c97565b90610cd461022461021a845190565b9060005b818110610ce55750505090565b909192610cfb6102526001928651815260200190565b929101610cd8565b9890610d93610dbf999f9e9c96956101bb9e99610d86610db59a6101809f988f610d82610dab9c610d7b610d7060a095610d62610da39f610d54610d9b9f6101a08a01908a820360008c0152610b45565b9088820360208a0152610b45565b908682036040880152610b45565b986060850190610625565b6080830152565b0152565b8c820360c08e0152610cc5565b9e60e08b0152565b610100890152565b610120870152565b1515610140850152565b1515610160830152565b0190610625565b346101a9576101f2610ddf610dda366101bd565b611c6d565b99610df89d9b9d99919998929897939796949660405190565b9d8e9d8e610d03565b346101a9576101ec610e1236610c3e565b611d63565b6101bb90610e23611d6c565b611005565b610e35610396600e61035e565b90600e8252565b610e49610396601161035e565b9060118252565b610e5d610396601361035e565b9060138252565b610e71610396600c61035e565b90600c8252565b610e85610396601061035e565b9060108252565b610e94610e28565b6d111bd95cc81b9bdd08195e1a5cdd60921b602082015290565b6101d3610e8c565b6101d3610eae565b60208082526101d392910190610b45565b15610ed75750565b610ef990610ee460405190565b62461bcd60e51b815291829160048301610ebe565b0390fd5b15610f0457565b60405162461bcd60e51b815260206004820152600e60248201526d416c72656164792061637469766560901b6044820152606490fd5b15610f4157565b60405162461bcd60e51b81526020600482015260196024820152784f6e6c792063726561746f722063616e20616374697661746560381b6044820152606490fd5b9060ff905b9181191691161790565b610fa06101d3610fa892151590565b600254610f82565b600255565b90610fbd6101d3610fc492151590565b8254610f82565b9055565b9060001990610f87565b610fe16101d3610fe992610297565b600654610fc8565b600655565b90610ffe6101d3610fc492610297565b8254610fc8565b61109b6110166101d38360036108db565b61104761102560098301610a2f565b6110366110326000610297565b9190565b9061103f610eb6565b911415610ecf565b6110916001600a830161106861106361105f83610a4f565b1590565b610efd565b61108c3361108661108061107b85610a7b565b6105b5565b916105b5565b14610f3a565b610fad565b6007429101610fee565b7f866c1294f23fc719c565ed4c7188b24e3e7bccde328f0b50425b902bf19bc83d6110c560405190565b42815280602081015b0390a2565b6101bb90610e17565b906110f76110eb61021a845490565b92600052602060002090565b9060005b8181106111085750505090565b90919261112c61112560019261111d87610a2f565b815260200190565b9460010190565b9291016110fb565b906101d3916110dc565b906101bb6109fc9261114f60405190565b93848092611134565b6101d39061113e565b6101d36005611158565b634e487b7160e01b600052601160045260246000fd5b60001981146111905760010190565b61116b565b6001600160401b0381116103455760208091020190565b906111b961039683611195565b918252565b369037565b906101bb6111d96111d3846111ac565b93611195565b601f1901602084016111be565b906111ef825190565b8110156106f9576020809102010190565b60009061120c82610297565b805b600561121b6101d3825490565b82101561126d57600a6112406112469261123a610735866003936106d6565b906108db565b01610a4f565b611258575b60010161120e565b61120e565b9061126561125391611181565b91905061124b565b505061127e611284919392936111c3565b91610297565b91825b60056112946101d3825490565b8210156112f6576112b2600a611240600361123a61073587876106d6565b6112c5575b50600101611287565b611287565b81946112ea6112dd6107356112c0956112ef956106d6565b6112e783886111e6565b52565b611181565b93906112b7565b5050915090565b611305611d8c565b6101bb6101bb611e0e565b6101bb6112fd565b906101bb989796959493929161132c611d6c565b6113d3565b611339610e28565b6d0acc2d8eaca40dad2e6dac2e8c6d60931b602082015290565b6101d3611331565b6101d3611353565b610a036101d36101d39290565b6101d390611363565b9291909261138961039685611195565b938085526020928380870192028301928184116101a957915b8383106113b0575050505050565b8480916113bd84866101ae565b8152019201916113a2565b6101d3913691611379565b9493969061140d6101bb99979493926113fd6113ec8890565b34906113f661135b565b9114610ecf565b6114076000611370565b956113c8565b956122b0565b906101bb9897969594939291611318565b6101d3610a44565b906101bb91611439611d6c565b6114c4565b1561144557565b60405162461bcd60e51b815260206004820152602660248201527f43726f7373776f72642075736573206e61746976652043454c4f2c206e6f7420604482015265746f6b656e7360d01b6064820152608490fd5b91906114a4565b9290565b820180921161119057565b9081526040810192916101bb91602090610dbf565b6003906115576114d76101d383856108db565b926114e761102560098601610a2f565b830161150c6114f582610a13565b61150561108061107b6000611370565b141561143e565b611552600461152261151d84610a13565b610c6c565b956115398833988961153330610c6c565b91612675565b0161154c8761154783610a2f565b611499565b90610fee565b610a13565b916115776115716000805160206128298339815191529390565b93610c6c565b9361158d61158460405190565b928392836114af565b0390a3565b906101bb9161142c565b6115a4611d8c565b6101bb6101bb6115b46000611370565b6126bf565b6101bb61159c565b906101bb916115ce611d6c565b61181f565b156115da57565b60405162461bcd60e51b81526020600482015260176024820152764f6e6c792063726561746f722063616e2075706461746560481b6044820152606490fd5b1561162057565b60405162461bcd60e51b815260206004820152601e60248201527f43616e6e6f7420757064617465206163746976652063726f7373776f726400006044820152606490fd5b9160001960089290920291821b911b610f87565b919061168a6101d3610fc493610297565b908354611665565b6101bb9060008091611679565b8181106116aa575050565b806116b6600192611692565b0161169f565b9190601f81116116cb57505050565b6116dd6101bb93600052602060002090565b906020601f8401819004830193106116ff575b6020601f90910104019061169f565b90915081906116f0565b9060001960089091021c191690565b8161172291611709565b906002021790565b90611733815190565b906001600160401b03821161034557611756826117508554610901565b856116bc565b602090601f831160011461178457610fc4929160009183611779575b5050611718565b015190503880611772565b601f1983169161179985600052602060002090565b9260005b8181106117d8575091600293918560019694106117be575b50505002019055565b6117ce910151601f841690611709565b90553880806117b5565b9193602060018192878701518155019501920161179d565b906101bb9161172a565b929160206118176101bb9360408701908782036000890152610b45565b940190610625565b61182d6101d38260036108db565b61183c61102560098301610a2f565b61187f836002339361187961187461105f600a840161186f61186061107b83610a7b565b6118698b6105b5565b146115d3565b610a4f565b611619565b016117f0565b7f74bf64bba6dda456f56f525efa14df02542f57c2398ceafa67e8971cd6c115fa91926110ce6118ae60405190565b928392836117fa565b906101bb916115c1565b6118c9611d8c565b6101bb6101bb612759565b6101bb6118c1565b906101bb916118e9611d8c565b9061108c6101bb926004610c75565b906101bb916118dc565b6101d3610a08565b6101bb90611916611d6c565b61197e565b1561192257565b60405162461bcd60e51b815260206004820152602e60248201527f43616e206f6e6c792066756e64206e61746976652043454c4f207072697a652060448201526d706f6f6c73206469726563746c7960901b6064820152608490fd5b61198c6101d38260036108db565b6119ef600461199d60098401610a2f565b926119b060009461103661103287610297565b6119db6119c86119c260038401610a13565b95611370565b946119d5611080876105b5565b1461191b565b0161154c6119e882610a2f565b3490611499565b339161158d611a0d6115716000805160206128298339815191529390565b93611a1760405190565b91829134836114af565b6101bb9061190a565b906101bb91611a37611d8c565b611aa8565b906111b96103968361035e565b3d15611a6357611a583d611a3c565b903d6000602084013e565b606090565b15611a6f57565b60405162461bcd60e51b815260206004820152601160248201527015da5d1a191c985dd85b0819985a5b1959607a1b6044820152606490fd5b60006101bb92611abb61151d8394610c6c565b90611ac560405190565b908192825a940393f1611ad6611a49565b50611a68565b906101bb91611a2a565b6101bb90611af2611d8c565b6101bb90610fd2565b6101bb90611ae6565b906101bb999897969594939291611b19611d6c565b611b53565b611b26610e3c565b70151bdad95b881b9bdd08185b1b1bddd959607a1b602082015290565b6101d3611b1e565b6101d3611b43565b9594939761140d906101bb9a98611b7f611b7161186f896004610c75565b611b79611b4b565b90610ecf565b611b9688611b8c89610c6c565b3361153330610c6c565b6113c8565b906101bb999897969594939291611b04565b906101bb939291611bbc611d6c565b91906101bb93916000611bd161127e82611370565b938492611bdd846111c3565b94611be86001610297565b976122b0565b906101bb939291611bad565b6101d3906109e2565b90611c126110eb61021a845490565b9060005b818110611c235750505090565b909192611c3861112560019261111d87610a2f565b929101611c16565b906101d391611c03565b906101bb6109fc92611c5b60405190565b93848092611c40565b6101d390611c4a565b6101d3611c8491611c7c606090565b5060036108db565b9060098201611c9561102582610a2f565b611c9e83611bfa565b92611cab60018201611bfa565b92611cb860028301611bfa565b92611cc560038401610a13565b92611cd260048201610a2f565b92611cdf60058301610a2f565b92611cec60068401611c64565b92611cf960078201610a2f565b92600a610b04611d0b60088501610a2f565b94610a2f565b6101bb90611d1d611d8c565b6000611d2881611370565b611d31816105b5565b611d3a846105b5565b14611d4a5750506101bb906126bf565b631e4fbdf760e01b82528190610ef9906004830161062e565b6101bb90611d11565b611d74611424565b611d7a57565b63d93c066560e01b6000908152600490fd5b611d94611902565b3390611da2611080836105b5565b03611daa5750565b63118cdaa760e01b6000908152908190610ef990600461062e565b611dcd612761565b6101bb611dda6000610f91565b33611e097f5db9ee0a495bf2e6ff9c91a7834c1ba4fdd244a5e8aa4e537bd38aeae4b073aa9161065b60405190565b0390a1565b6101bb611dc5565b611e1e610e28565b6d416c72656164792065786973747360901b602082015290565b6101d3611e16565b6101d3611e38565b15611e4f57565b60405162461bcd60e51b815260206004820152601060248201526f13985b59481a5cc81c995c5d5a5c995960821b6044820152606490fd5b15611e8e57565b60405162461bcd60e51b815260206004820152601a60248201527910dc9bdcdcdddbdc990819185d18481a5cc81c995c5d5a5c995960321b6044820152606490fd5b15611ed757565b60405162461bcd60e51b8152602060048201526013602482015272496e76616c6964206d61782077696e6e65727360681b6044820152606490fd5b15611f1957565b60405162461bcd60e51b815260206004820152601b60248201527a546f6f206d616e792077696e6e65722070657263656e746167657360281b6044820152606490fd5b6101d3611f40610297565b611f6f610e50565b720a0cae4c6cadce8c2ceca40e8dede40d0d2ced606b1b602082015290565b6101d3611f67565b6101d3611f8e565b15611fa557565b60405162461bcd60e51b8152602060048201526016602482015275050657263656e74616765206d757374206265203e20360541b6044820152606490fd5b6101d3612710610297565b611ff6610e64565b6b546f74616c203e203130302560a01b602082015290565b6101d3611fee565b6101d361200e565b6101d362278d00610297565b612032610e78565b6f22b732103a34b6b2903a37b7903330b960811b602082015290565b6101d361202a565b6101d361204e565b1561206557565b60405162461bcd60e51b815260206004820152600d60248201526c1499599d5b990819985a5b1959609a1b6044820152606490fd5b156120a157565b60405162461bcd60e51b8152602060048201526019602482015278496e73756666696369656e74206372656174696f6e2066656560381b6044820152606490fd5b9190820391821161119057565b906001600160a01b0390610f87565b61210d6101d361211592610c6c565b6000546120ef565b600055565b9061212a6101d3610fc492610c6c565b82546120ef565b91909182821061214057505050565b6101bb9291612156905b91600052602060002090565b918201910161169f565b90600160401b811161034557816121786101bb935490565b90828155612131565b8151906001600160401b038211610345576121ab61214a6001946121a58585612160565b60200190565b838493046000935b6121bf575b5050505050565b808410156121e55784809460206121d76101d3875190565b9501948185015501936121b3565b6121b8565b906101bb91612181565b9061ff009060081b610f87565b906122116101d3610fc492151590565b82546121f4565b9062010000600160b01b039060101b610f87565b9061223c6101d3610fc492610c6c565b8254612218565b919061168a6101d3610fc49390565b80549190600160401b83101561034557826122759160016101bb950181556106d6565b90612243565b9392906122ab6101bb9361229d604093606089019089820360008b0152610b45565b908782036020890152610b45565b940152565b959094979192979693966003976122d260096122cc8a8c6108db565b01610a2f565b986000996122ee6122e56114a08d610297565b826113f6611e40565b612303816122fd6101d38c5190565b11611e48565b612318816123126101d38a5190565b11611e87565b858181118061260c575b61232b90611ed0565b816123376101d3885190565b1161251e575b508088036124ff575b806123526101d3610a24565b11156124c257506123646101d3610a24565b612371349182101561209a565b61237c6101d3610a24565b10612483575b61238c89826108db565b95612399898c89016117f0565b6123a68c600189016117f0565b6123b390600288016117f0565b8501906123bf9161211a565b6123cc9060048501610fee565b6123d990600684016121ea565b6123e69060058301610fee565b600a8101946123f6600187610fad565b6124009086612201565b61240d4260098301610fee565b61241a4260078301610fee565b6008019061242791610fee565b3392836124339161222c565b61243e826005612252565b7ff24f070c86c9e28666da65bae5bd4391996115389e595b36d9a03dbb890276ef919261246a90610c6c565b9361247460405190565b918291429061158d928461227b565b6124bd8a8061249261151d3381565b6124a361249d610a24565b346120e2565b604051908192825a940393f16124b7611a49565b5061205e565b612382565b80341190816124f5575b5015612382576124bd8a806124e161151d3381565b60405180815a9103923491f16124b7611a49565b90508314386124cc565b61251961250a61201e565b612512612056565b908a612784565b612346565b92859c9894919a96929d99959b97936125358d5190565b111561254090611f12565b8a9d8b612553819f6101d3611032915190565b10156125dd576125cd8e9f8e9f908f8f83826125bb612582936125a56125866125826125c69a6125c0996111e6565b5190565b6125946110326101d3611f5c565b9061259d611f96565b911115610ecf565b6125b56101d361258286866111e6565b11611f9e565b6111e6565b90611499565b9f60010190565b612553819f6101d3611032915190565b92969a9194989c5092969a94989c612606906125fd6110326101d3611fe3565b9061259d612016565b3861233d565b5061232b61261b6101d36102a4565b8211159050612322565b61263e6126386101d39263ffffffff1690565b60e01b90565b6001600160e01b03191690565b604090610d826101bb949695939661266b60608401986000850190610625565b6020830190610625565b906126ba906126ab6101bb956004956126916323b872dd612625565b9361269b60405190565b978895602087019081520161264b565b60208201810382520383610324565b612799565b6126c7610a08565b906126d1816120fe565b6127046126fe7f8be0079c531659141344cd1fd0a4f28419497f9722a3daafe3b4186f6b6457e093610c6c565b91610c6c565b9161270e60405190565b808061158d565b61271d611d6c565b6101bb61272a6001610f91565b33611e097f62e78cea01bee320cd4e420270b5ea74000d11b0c9f74754ebdbfc544b05a2589161065b60405190565b6101bb612715565b61276c61105f611424565b61277257565b638dfc202b60e01b6000908152600490fd5b6127926110326101bb949390565b1115610ecf565b6020600083819451908285855a930192f11561281b576127c53d8351906127bf85610297565b92839190565b0361280557506127db6127d783610c6c565b3b90565b145b6127e5575050565b610ef96127f28392610c6c565b635274afe760e01b83526004830161062e565b90506128146110326001610297565b14156127dd565b50604051903d90823e3d90fdfeb9535ee5324c89ee6c306f8b43cbbe4cbc22d052a2383cbe0a07210685bfb252a26469706673582212207f2c4f0a99ba99fafe2d1f799385347987e9123a11b1e4267d8d71228a2b134064736f6c634300081c0033",
  "linkReferences": {},
  "deployedLinkReferences": {}
}