{
  "_format": "hh-sol-artifact-1",
  "contractName": "CrosswordBoard",
  "sourceName": "contracts/CrosswordBoard.sol",
  "abi": [
    {
      "inputs": [
        {
          "internalType": "address",
          "name": "initialOwner",
          "type": "address"
        }
      ],
      "stateMutability": "nonpayable",
      "type": "constructor"
    },
    {
      "inputs": [],
      "name": "AccessControlBadConfirmation",
      "type": "error"
    },
    {
      "inputs": [
        {
          "internalType": "address",
          "name": "account",
          "type": "address"
        },
        {
          "internalType": "bytes32",
          "name": "neededRole",
          "type": "bytes32"
        }
      ],
      "name": "AccessControlUnauthorizedAccount",
      "type": "error"
    },
    {
      "inputs": [],
      "name": "ECDSAInvalidSignature",
      "type": "error"
    },
    {
      "inputs": [
        {
          "internalType": "uint256",
          "name": "length",
          "type": "uint256"
        }
      ],
      "name": "ECDSAInvalidSignatureLength",
      "type": "error"
    },
    {
      "inputs": [
        {
          "internalType": "bytes32",
          "name": "s",
          "type": "bytes32"
        }
      ],
      "name": "ECDSAInvalidSignatureS",
      "type": "error"
    },
    {
      "inputs": [],
      "name": "EnforcedPause",
      "type": "error"
    },
    {
      "inputs": [],
      "name": "ExpectedPause",
      "type": "error"
    },
    {
      "inputs": [
        {
          "internalType": "address",
          "name": "owner",
          "type": "address"
        }
      ],
      "name": "OwnableInvalidOwner",
      "type": "error"
    },
    {
      "inputs": [
        {
          "internalType": "address",
          "name": "account",
          "type": "address"
        }
      ],
      "name": "OwnableUnauthorizedAccount",
      "type": "error"
    },
    {
      "inputs": [],
      "name": "ReentrancyGuardReentrantCall",
      "type": "error"
    },
    {
      "inputs": [
        {
          "internalType": "address",
          "name": "token",
          "type": "address"
        }
      ],
      "name": "SafeERC20FailedOperation",
      "type": "error"
    },
    {
      "anonymous": false,
      "inputs": [
        {
          "indexed": true,
          "internalType": "address",
          "name": "admin",
          "type": "address"
        },
        {
          "indexed": false,
          "internalType": "address",
          "name": "addedBy",
          "type": "address"
        }
      ],
      "name": "AdminAdded",
      "type": "event"
    },
    {
      "anonymous": false,
      "inputs": [
        {
          "indexed": true,
          "internalType": "address",
          "name": "admin",
          "type": "address"
        },
        {
          "indexed": false,
          "internalType": "address",
          "name": "removedBy",
          "type": "address"
        }
      ],
      "name": "AdminRemoved",
      "type": "event"
    },
    {
      "anonymous": false,
      "inputs": [
        {
          "indexed": true,
          "internalType": "string",
          "name": "key",
          "type": "string"
        },
        {
          "indexed": false,
          "internalType": "bool",
          "name": "value",
          "type": "bool"
        },
        {
          "indexed": false,
          "internalType": "address",
          "name": "setter",
          "type": "address"
        }
      ],
      "name": "ConfigBoolSet",
      "type": "event"
    },
    {
      "anonymous": false,
      "inputs": [
        {
          "indexed": true,
          "internalType": "string",
          "name": "key",
          "type": "string"
        },
        {
          "indexed": false,
          "internalType": "string",
          "name": "value",
          "type": "string"
        },
        {
          "indexed": false,
          "internalType": "address",
          "name": "setter",
          "type": "address"
        }
      ],
      "name": "ConfigSet",
      "type": "event"
    },
    {
      "anonymous": false,
      "inputs": [
        {
          "indexed": true,
          "internalType": "string",
          "name": "key",
          "type": "string"
        },
        {
          "indexed": false,
          "internalType": "uint256",
          "name": "value",
          "type": "uint256"
        },
        {
          "indexed": false,
          "internalType": "address",
          "name": "setter",
          "type": "address"
        }
      ],
      "name": "ConfigUIntSet",
      "type": "event"
    },
    {
      "anonymous": false,
      "inputs": [
        {
          "indexed": true,
          "internalType": "bytes32",
          "name": "crosswordId",
          "type": "bytes32"
        },
        {
          "indexed": false,
          "internalType": "uint256",
          "name": "activationTime",
          "type": "uint256"
        }
      ],
      "name": "CrosswordActivated",
      "type": "event"
    },
    {
      "anonymous": false,
      "inputs": [
        {
          "indexed": true,
          "internalType": "bytes32",
          "name": "crosswordId",
          "type": "bytes32"
        },
        {
          "indexed": true,
          "internalType": "address",
          "name": "user",
          "type": "address"
        },
        {
          "indexed": false,
          "internalType": "uint256",
          "name": "timestamp",
          "type": "uint256"
        },
        {
          "indexed": false,
          "internalType": "uint256",
          "name": "durationMs",
          "type": "uint256"
        }
      ],
      "name": "CrosswordCompleted",
      "type": "event"
    },
    {
      "anonymous": false,
      "inputs": [
        {
          "indexed": true,
          "internalType": "bytes32",
          "name": "crosswordId",
          "type": "bytes32"
        },
        {
          "indexed": true,
          "internalType": "address",
          "name": "token",
          "type": "address"
        },
        {
          "indexed": false,
          "internalType": "uint256",
          "name": "prizePool",
          "type": "uint256"
        },
        {
          "indexed": false,
          "internalType": "address",
          "name": "creator",
          "type": "address"
        }
      ],
      "name": "CrosswordCreated",
      "type": "event"
    },
    {
      "anonymous": false,
      "inputs": [
        {
          "indexed": true,
          "internalType": "bytes32",
          "name": "crosswordId",
          "type": "bytes32"
        },
        {
          "indexed": false,
          "internalType": "string",
          "name": "crosswordData",
          "type": "string"
        },
        {
          "indexed": false,
          "internalType": "address",
          "name": "updatedBy",
          "type": "address"
        }
      ],
      "name": "CrosswordUpdated",
      "type": "event"
    },
    {
      "anonymous": false,
      "inputs": [
        {
          "indexed": false,
          "internalType": "uint256",
          "name": "oldMaxWinners",
          "type": "uint256"
        },
        {
          "indexed": false,
          "internalType": "uint256",
          "name": "newMaxWinners",
          "type": "uint256"
        },
        {
          "indexed": false,
          "internalType": "address",
          "name": "changedBy",
          "type": "address"
        }
      ],
      "name": "MaxWinnersChanged",
      "type": "event"
    },
    {
      "anonymous": false,
      "inputs": [
        {
          "indexed": true,
          "internalType": "address",
          "name": "sender",
          "type": "address"
        },
        {
          "indexed": false,
          "internalType": "uint256",
          "name": "amount",
          "type": "uint256"
        }
      ],
      "name": "NativeCeloReceived",
      "type": "event"
    },
    {
      "anonymous": false,
      "inputs": [
        {
          "indexed": true,
          "internalType": "address",
          "name": "previousOwner",
          "type": "address"
        },
        {
          "indexed": true,
          "internalType": "address",
          "name": "newOwner",
          "type": "address"
        }
      ],
      "name": "OwnershipTransferred",
      "type": "event"
    },
    {
      "anonymous": false,
      "inputs": [
        {
          "indexed": false,
          "internalType": "address",
          "name": "account",
          "type": "address"
        }
      ],
      "name": "Paused",
      "type": "event"
    },
    {
      "anonymous": false,
      "inputs": [
        {
          "indexed": true,
          "internalType": "bytes32",
          "name": "crosswordId",
          "type": "bytes32"
        },
        {
          "indexed": true,
          "internalType": "address",
          "name": "winner",
          "type": "address"
        },
        {
          "indexed": false,
          "internalType": "uint256",
          "name": "amount",
          "type": "uint256"
        },
        {
          "indexed": false,
          "internalType": "uint256",
          "name": "rank",
          "type": "uint256"
        }
      ],
      "name": "PrizeDistributed",
      "type": "event"
    },
    {
      "anonymous": false,
      "inputs": [
        {
          "indexed": true,
          "internalType": "bytes32",
          "name": "crosswordId",
          "type": "bytes32"
        },
        {
          "indexed": true,
          "internalType": "address",
          "name": "user",
          "type": "address"
        },
        {
          "indexed": false,
          "internalType": "uint256",
          "name": "amount",
          "type": "uint256"
        },
        {
          "indexed": false,
          "internalType": "string",
          "name": "reason",
          "type": "string"
        }
      ],
      "name": "PrizeTransferFailed",
      "type": "event"
    },
    {
      "anonymous": false,
      "inputs": [
        {
          "indexed": true,
          "internalType": "bytes32",
          "name": "role",
          "type": "bytes32"
        },
        {
          "indexed": true,
          "internalType": "bytes32",
          "name": "previousAdminRole",
          "type": "bytes32"
        },
        {
          "indexed": true,
          "internalType": "bytes32",
          "name": "newAdminRole",
          "type": "bytes32"
        }
      ],
      "name": "RoleAdminChanged",
      "type": "event"
    },
    {
      "anonymous": false,
      "inputs": [
        {
          "indexed": true,
          "internalType": "bytes32",
          "name": "role",
          "type": "bytes32"
        },
        {
          "indexed": true,
          "internalType": "address",
          "name": "account",
          "type": "address"
        },
        {
          "indexed": true,
          "internalType": "address",
          "name": "sender",
          "type": "address"
        }
      ],
      "name": "RoleGranted",
      "type": "event"
    },
    {
      "anonymous": false,
      "inputs": [
        {
          "indexed": true,
          "internalType": "bytes32",
          "name": "role",
          "type": "bytes32"
        },
        {
          "indexed": true,
          "internalType": "address",
          "name": "account",
          "type": "address"
        },
        {
          "indexed": true,
          "internalType": "address",
          "name": "sender",
          "type": "address"
        }
      ],
      "name": "RoleRevoked",
      "type": "event"
    },
    {
      "anonymous": false,
      "inputs": [
        {
          "indexed": false,
          "internalType": "address",
          "name": "oldSigner",
          "type": "address"
        },
        {
          "indexed": false,
          "internalType": "address",
          "name": "newSigner",
          "type": "address"
        },
        {
          "indexed": false,
          "internalType": "address",
          "name": "updatedBy",
          "type": "address"
        }
      ],
      "name": "SignerUpdated",
      "type": "event"
    },
    {
      "anonymous": false,
      "inputs": [
        {
          "indexed": true,
          "internalType": "address",
          "name": "token",
          "type": "address"
        },
        {
          "indexed": false,
          "internalType": "bool",
          "name": "allowed",
          "type": "bool"
        }
      ],
      "name": "TokenAllowed",
      "type": "event"
    },
    {
      "anonymous": false,
      "inputs": [
        {
          "indexed": true,
          "internalType": "bytes32",
          "name": "crosswordId",
          "type": "bytes32"
        },
        {
          "indexed": true,
          "internalType": "address",
          "name": "token",
          "type": "address"
        },
        {
          "indexed": false,
          "internalType": "uint256",
          "name": "amount",
          "type": "uint256"
        },
        {
          "indexed": false,
          "internalType": "address",
          "name": "recoveredBy",
          "type": "address"
        }
      ],
      "name": "UnclaimedPrizesRecovered",
      "type": "event"
    },
    {
      "anonymous": false,
      "inputs": [
        {
          "indexed": false,
          "internalType": "address",
          "name": "account",
          "type": "address"
        }
      ],
      "name": "Unpaused",
      "type": "event"
    },
    {
      "stateMutability": "payable",
      "type": "fallback"
    },
    {
      "inputs": [],
      "name": "ADMIN_ROLE",
      "outputs": [
        {
          "internalType": "bytes32",
          "name": "",
          "type": "bytes32"
        }
      ],
      "stateMutability": "view",
      "type": "function"
    },
    {
      "inputs": [],
      "name": "DEFAULT_ADMIN_ROLE",
      "outputs": [
        {
          "internalType": "bytes32",
          "name": "",
          "type": "bytes32"
        }
      ],
      "stateMutability": "view",
      "type": "function"
    },
    {
      "inputs": [],
      "name": "HOME_BUTTON_VISIBLE",
      "outputs": [
        {
          "internalType": "string",
          "name": "",
          "type": "string"
        }
      ],
      "stateMutability": "view",
      "type": "function"
    },
    {
      "inputs": [],
      "name": "MAX_COMPLETIONS_PER_CROSSWORD",
      "outputs": [
        {
          "internalType": "uint256",
          "name": "",
          "type": "uint256"
        }
      ],
      "stateMutability": "view",
      "type": "function"
    },
    {
      "inputs": [],
      "name": "MAX_CONFIGURABLE_WINNERS",
      "outputs": [
        {
          "internalType": "uint256",
          "name": "",
          "type": "uint256"
        }
      ],
      "stateMutability": "view",
      "type": "function"
    },
    {
      "inputs": [],
      "name": "MAX_DISPLAYNAME_LENGTH",
      "outputs": [
        {
          "internalType": "uint256",
          "name": "",
          "type": "uint256"
        }
      ],
      "stateMutability": "view",
      "type": "function"
    },
    {
      "inputs": [],
      "name": "MAX_END_TIME",
      "outputs": [
        {
          "internalType": "uint256",
          "name": "",
          "type": "uint256"
        }
      ],
      "stateMutability": "view",
      "type": "function"
    },
    {
      "inputs": [],
      "name": "MAX_PERCENTAGE",
      "outputs": [
        {
          "internalType": "uint256",
          "name": "",
          "type": "uint256"
        }
      ],
      "stateMutability": "view",
      "type": "function"
    },
    {
      "inputs": [],
      "name": "MAX_PFPURL_LENGTH",
      "outputs": [
        {
          "internalType": "uint256",
          "name": "",
          "type": "uint256"
        }
      ],
      "stateMutability": "view",
      "type": "function"
    },
    {
      "inputs": [],
      "name": "MAX_SINGLE_WINNER_PERCENTAGE",
      "outputs": [
        {
          "internalType": "uint256",
          "name": "",
          "type": "uint256"
        }
      ],
      "stateMutability": "view",
      "type": "function"
    },
    {
      "inputs": [],
      "name": "MAX_USERNAME_LENGTH",
      "outputs": [
        {
          "internalType": "uint256",
          "name": "",
          "type": "uint256"
        }
      ],
      "stateMutability": "view",
      "type": "function"
    },
    {
      "inputs": [],
      "name": "MAX_WINNERS_CONFIG",
      "outputs": [
        {
          "internalType": "string",
          "name": "",
          "type": "string"
        }
      ],
      "stateMutability": "view",
      "type": "function"
    },
    {
      "inputs": [],
      "name": "OPERATOR_ROLE",
      "outputs": [
        {
          "internalType": "bytes32",
          "name": "",
          "type": "bytes32"
        }
      ],
      "stateMutability": "view",
      "type": "function"
    },
    {
      "inputs": [],
      "name": "RECOVERY_WINDOW",
      "outputs": [
        {
          "internalType": "uint256",
          "name": "",
          "type": "uint256"
        }
      ],
      "stateMutability": "view",
      "type": "function"
    },
    {
      "inputs": [
        {
          "internalType": "bytes32",
          "name": "crosswordId",
          "type": "bytes32"
        }
      ],
      "name": "activateCrossword",
      "outputs": [],
      "stateMutability": "nonpayable",
      "type": "function"
    },
    {
      "inputs": [
        {
          "internalType": "address",
          "name": "newAdmin",
          "type": "address"
        }
      ],
      "name": "addAdmin",
      "outputs": [],
      "stateMutability": "nonpayable",
      "type": "function"
    },
    {
      "inputs": [
        {
          "internalType": "uint256",
          "name": "",
          "type": "uint256"
        }
      ],
      "name": "admins",
      "outputs": [
        {
          "internalType": "address",
          "name": "",
          "type": "address"
        }
      ],
      "stateMutability": "view",
      "type": "function"
    },
    {
      "inputs": [
        {
          "internalType": "address",
          "name": "",
          "type": "address"
        }
      ],
      "name": "allowedTokens",
      "outputs": [
        {
          "internalType": "bool",
          "name": "",
          "type": "bool"
        }
      ],
      "stateMutability": "view",
      "type": "function"
    },
    {
      "inputs": [
        {
          "internalType": "bytes32",
          "name": "crosswordId",
          "type": "bytes32"
        }
      ],
      "name": "claimPrize",
      "outputs": [],
      "stateMutability": "nonpayable",
      "type": "function"
    },
    {
      "inputs": [
        {
          "internalType": "uint256",
          "name": "durationMs",
          "type": "uint256"
        },
        {
          "internalType": "string",
          "name": "username",
          "type": "string"
        },
        {
          "internalType": "string",
          "name": "displayName",
          "type": "string"
        },
        {
          "internalType": "string",
          "name": "pfpUrl",
          "type": "string"
        },
        {
          "internalType": "bytes",
          "name": "signature",
          "type": "bytes"
        }
      ],
      "name": "completeCrossword",
      "outputs": [],
      "stateMutability": "nonpayable",
      "type": "function"
    },
    {
      "inputs": [
        {
          "internalType": "uint256",
          "name": "",
          "type": "uint256"
        }
      ],
      "name": "completedCrosswords",
      "outputs": [
        {
          "internalType": "bytes32",
          "name": "",
          "type": "bytes32"
        }
      ],
      "stateMutability": "view",
      "type": "function"
    },
    {
      "inputs": [
        {
          "internalType": "bytes32",
          "name": "crosswordId",
          "type": "bytes32"
        },
        {
          "internalType": "string",
          "name": "name",
          "type": "string"
        },
        {
          "internalType": "string",
          "name": "gridData",
          "type": "string"
        },
        {
          "internalType": "string",
          "name": "sponsoredBy",
          "type": "string"
        },
        {
          "internalType": "address",
          "name": "token",
          "type": "address"
        },
        {
          "internalType": "uint256",
          "name": "prizePool",
          "type": "uint256"
        },
        {
          "internalType": "uint256[]",
          "name": "winnerPercentages",
          "type": "uint256[]"
        },
        {
          "internalType": "uint256",
          "name": "endTime",
          "type": "uint256"
        }
      ],
      "name": "createCrossword",
      "outputs": [],
      "stateMutability": "nonpayable",
      "type": "function"
    },
    {
      "inputs": [
        {
          "internalType": "bytes32",
          "name": "crosswordId",
          "type": "bytes32"
        },
        {
          "internalType": "string",
          "name": "name",
          "type": "string"
        },
        {
          "internalType": "string",
          "name": "gridData",
          "type": "string"
        },
        {
          "internalType": "string",
          "name": "sponsoredBy",
          "type": "string"
        },
        {
          "internalType": "uint256",
          "name": "prizePool",
          "type": "uint256"
        },
        {
          "internalType": "uint256[]",
          "name": "winnerPercentages",
          "type": "uint256[]"
        },
        {
          "internalType": "uint256",
          "name": "endTime",
          "type": "uint256"
        }
      ],
      "name": "createCrosswordWithNativeCELO",
      "outputs": [],
      "stateMutability": "payable",
      "type": "function"
    },
    {
      "inputs": [
        {
          "internalType": "bytes32",
          "name": "crosswordId",
          "type": "bytes32"
        },
        {
          "internalType": "string",
          "name": "name",
          "type": "string"
        },
        {
          "internalType": "string",
          "name": "crosswordData",
          "type": "string"
        },
        {
          "internalType": "string",
          "name": "sponsoredBy",
          "type": "string"
        },
        {
          "internalType": "uint256",
          "name": "newMaxWinners",
          "type": "uint256"
        },
        {
          "internalType": "uint256",
          "name": "prizePool",
          "type": "uint256"
        },
        {
          "internalType": "uint256[]",
          "name": "winnerPercentages",
          "type": "uint256[]"
        },
        {
          "internalType": "uint256",
          "name": "endTime",
          "type": "uint256"
        }
      ],
      "name": "createCrosswordWithNativeCELOPrizePool",
      "outputs": [],
      "stateMutability": "payable",
      "type": "function"
    },
    {
      "inputs": [
        {
          "internalType": "bytes32",
          "name": "crosswordId",
          "type": "bytes32"
        },
        {
          "internalType": "string",
          "name": "name",
          "type": "string"
        },
        {
          "internalType": "string",
          "name": "crosswordData",
          "type": "string"
        },
        {
          "internalType": "string",
          "name": "sponsoredBy",
          "type": "string"
        },
        {
          "internalType": "uint256",
          "name": "newMaxWinners",
          "type": "uint256"
        },
        {
          "internalType": "address",
          "name": "token",
          "type": "address"
        },
        {
          "internalType": "uint256",
          "name": "prizePool",
          "type": "uint256"
        },
        {
          "internalType": "uint256[]",
          "name": "winnerPercentages",
          "type": "uint256[]"
        },
        {
          "internalType": "uint256",
          "name": "endTime",
          "type": "uint256"
        }
      ],
      "name": "createCrosswordWithPrizePool",
      "outputs": [],
      "stateMutability": "payable",
      "type": "function"
    },
    {
      "inputs": [
        {
          "internalType": "bytes32",
          "name": "",
          "type": "bytes32"
        }
      ],
      "name": "crosswordCeloBalance",
      "outputs": [
        {
          "internalType": "uint256",
          "name": "",
          "type": "uint256"
        }
      ],
      "stateMutability": "view",
      "type": "function"
    },
    {
      "inputs": [
        {
          "internalType": "bytes32",
          "name": "",
          "type": "bytes32"
        },
        {
          "internalType": "uint256",
          "name": "",
          "type": "uint256"
        }
      ],
      "name": "crosswordCompletions",
      "outputs": [
        {
          "internalType": "address",
          "name": "user",
          "type": "address"
        },
        {
          "internalType": "uint256",
          "name": "completionTimestamp",
          "type": "uint256"
        },
        {
          "internalType": "uint256",
          "name": "durationMs",
          "type": "uint256"
        }
      ],
      "stateMutability": "view",
      "type": "function"
    },
    {
      "inputs": [
        {
          "internalType": "bytes32",
          "name": "",
          "type": "bytes32"
        }
      ],
      "name": "crosswords",
      "outputs": [
        {
          "internalType": "address",
          "name": "token",
          "type": "address"
        },
        {
          "internalType": "uint256",
          "name": "totalPrizePool",
          "type": "uint256"
        },
        {
          "internalType": "uint256",
          "name": "activationTime",
          "type": "uint256"
        },
        {
          "internalType": "uint256",
          "name": "endTime",
          "type": "uint256"
        },
        {
          "internalType": "enum CrosswordBoard.CrosswordState",
          "name": "state",
          "type": "uint8"
        },
        {
          "internalType": "uint256",
          "name": "createdAt",
          "type": "uint256"
        },
        {
          "internalType": "uint256",
          "name": "claimedAmount",
          "type": "uint256"
        },
        {
          "internalType": "string",
          "name": "name",
          "type": "string"
        },
        {
          "internalType": "string",
          "name": "gridData",
          "type": "string"
        },
        {
          "internalType": "string",
          "name": "sponsoredBy",
          "type": "string"
        }
      ],
      "stateMutability": "view",
      "type": "function"
    },
    {
      "inputs": [],
      "name": "currentCrosswordData",
      "outputs": [
        {
          "internalType": "string",
          "name": "",
          "type": "string"
        }
      ],
      "stateMutability": "view",
      "type": "function"
    },
    {
      "inputs": [],
      "name": "currentCrosswordId",
      "outputs": [
        {
          "internalType": "bytes32",
          "name": "",
          "type": "bytes32"
        }
      ],
      "stateMutability": "view",
      "type": "function"
    },
    {
      "inputs": [],
      "name": "emergencyClearCrossword",
      "outputs": [],
      "stateMutability": "nonpayable",
      "type": "function"
    },
    {
      "inputs": [],
      "name": "getAdmins",
      "outputs": [
        {
          "internalType": "address[]",
          "name": "",
          "type": "address[]"
        }
      ],
      "stateMutability": "view",
      "type": "function"
    },
    {
      "inputs": [
        {
          "internalType": "string",
          "name": "key",
          "type": "string"
        }
      ],
      "name": "getBoolConfig",
      "outputs": [
        {
          "internalType": "bool",
          "name": "",
          "type": "bool"
        }
      ],
      "stateMutability": "view",
      "type": "function"
    },
    {
      "inputs": [
        {
          "internalType": "string",
          "name": "key",
          "type": "string"
        },
        {
          "internalType": "bool",
          "name": "defaultValue",
          "type": "bool"
        }
      ],
      "name": "getBoolConfigWithDefault",
      "outputs": [
        {
          "internalType": "bool",
          "name": "",
          "type": "bool"
        }
      ],
      "stateMutability": "view",
      "type": "function"
    },
    {
      "inputs": [],
      "name": "getCompletedCrosswords",
      "outputs": [
        {
          "internalType": "bytes32[]",
          "name": "",
          "type": "bytes32[]"
        }
      ],
      "stateMutability": "view",
      "type": "function"
    },
    {
      "inputs": [],
      "name": "getCompletedCrosswordsCount",
      "outputs": [
        {
          "internalType": "uint256",
          "name": "",
          "type": "uint256"
        }
      ],
      "stateMutability": "view",
      "type": "function"
    },
    {
      "inputs": [
        {
          "internalType": "bytes32",
          "name": "crosswordId",
          "type": "bytes32"
        }
      ],
      "name": "getCompletionsCount",
      "outputs": [
        {
          "internalType": "uint256",
          "name": "",
          "type": "uint256"
        }
      ],
      "stateMutability": "view",
      "type": "function"
    },
    {
      "inputs": [
        {
          "internalType": "bytes32",
          "name": "crosswordId",
          "type": "bytes32"
        }
      ],
      "name": "getCompletionsCountPrizes",
      "outputs": [
        {
          "internalType": "uint256",
          "name": "",
          "type": "uint256"
        }
      ],
      "stateMutability": "view",
      "type": "function"
    },
    {
      "inputs": [
        {
          "internalType": "bytes32",
          "name": "crosswordId",
          "type": "bytes32"
        }
      ],
      "name": "getCrosswordCompletions",
      "outputs": [
        {
          "components": [
            {
              "internalType": "address",
              "name": "user",
              "type": "address"
            },
            {
              "internalType": "uint256",
              "name": "completionTimestamp",
              "type": "uint256"
            },
            {
              "internalType": "uint256",
              "name": "durationMs",
              "type": "uint256"
            }
          ],
          "internalType": "struct CrosswordBoard.CrosswordCompletion[]",
          "name": "",
          "type": "tuple[]"
        }
      ],
      "stateMutability": "view",
      "type": "function"
    },
    {
      "inputs": [
        {
          "internalType": "bytes32",
          "name": "crosswordId",
          "type": "bytes32"
        }
      ],
      "name": "getCrosswordDetails",
      "outputs": [
        {
          "internalType": "address",
          "name": "token",
          "type": "address"
        },
        {
          "internalType": "uint256",
          "name": "totalPrizePool",
          "type": "uint256"
        },
        {
          "internalType": "uint256[]",
          "name": "winnerPercentages",
          "type": "uint256[]"
        },
        {
          "components": [
            {
              "internalType": "address",
              "name": "user",
              "type": "address"
            },
            {
              "internalType": "uint256",
              "name": "timestamp",
              "type": "uint256"
            },
            {
              "internalType": "uint256",
              "name": "rank",
              "type": "uint256"
            }
          ],
          "internalType": "struct CrosswordBoard.CompletionRecord[]",
          "name": "completions",
          "type": "tuple[]"
        },
        {
          "internalType": "uint256",
          "name": "activationTime",
          "type": "uint256"
        },
        {
          "internalType": "uint256",
          "name": "endTime",
          "type": "uint256"
        },
        {
          "internalType": "enum CrosswordBoard.CrosswordState",
          "name": "state",
          "type": "uint8"
        },
        {
          "internalType": "string",
          "name": "name",
          "type": "string"
        },
        {
          "internalType": "string",
          "name": "gridData",
          "type": "string"
        },
        {
          "internalType": "string",
          "name": "sponsoredBy",
          "type": "string"
        }
      ],
      "stateMutability": "view",
      "type": "function"
    },
    {
      "inputs": [
        {
          "internalType": "bytes32",
          "name": "crosswordId",
          "type": "bytes32"
        }
      ],
      "name": "getCrosswordFundingStatus",
      "outputs": [
        {
          "internalType": "uint256",
          "name": "totalPrizePool",
          "type": "uint256"
        },
        {
          "internalType": "uint256",
          "name": "claimedAmount",
          "type": "uint256"
        },
        {
          "internalType": "uint256",
          "name": "availableBalance",
          "type": "uint256"
        },
        {
          "internalType": "bool",
          "name": "hasFunding",
          "type": "bool"
        },
        {
          "internalType": "bool",
          "name": "isSufficientBalance",
          "type": "bool"
        }
      ],
      "stateMutability": "view",
      "type": "function"
    },
    {
      "inputs": [],
      "name": "getCurrentCrossword",
      "outputs": [
        {
          "internalType": "bytes32",
          "name": "crosswordId",
          "type": "bytes32"
        },
        {
          "internalType": "string",
          "name": "crosswordData",
          "type": "string"
        },
        {
          "internalType": "uint256",
          "name": "updatedAt",
          "type": "uint256"
        }
      ],
      "stateMutability": "view",
      "type": "function"
    },
    {
      "inputs": [],
      "name": "getMaxWinners",
      "outputs": [
        {
          "internalType": "uint256",
          "name": "",
          "type": "uint256"
        }
      ],
      "stateMutability": "view",
      "type": "function"
    },
    {
      "inputs": [],
      "name": "getMaxWinnersConfig",
      "outputs": [
        {
          "internalType": "uint256",
          "name": "",
          "type": "uint256"
        }
      ],
      "stateMutability": "view",
      "type": "function"
    },
    {
      "inputs": [
        {
          "internalType": "bytes32",
          "name": "role",
          "type": "bytes32"
        }
      ],
      "name": "getRoleAdmin",
      "outputs": [
        {
          "internalType": "bytes32",
          "name": "",
          "type": "bytes32"
        }
      ],
      "stateMutability": "view",
      "type": "function"
    },
    {
      "inputs": [
        {
          "internalType": "string",
          "name": "key",
          "type": "string"
        }
      ],
      "name": "getStringConfig",
      "outputs": [
        {
          "internalType": "string",
          "name": "",
          "type": "string"
        }
      ],
      "stateMutability": "view",
      "type": "function"
    },
    {
      "inputs": [
        {
          "internalType": "string",
          "name": "key",
          "type": "string"
        }
      ],
      "name": "getUIntConfig",
      "outputs": [
        {
          "internalType": "uint256",
          "name": "",
          "type": "uint256"
        }
      ],
      "stateMutability": "view",
      "type": "function"
    },
    {
      "inputs": [
        {
          "internalType": "string",
          "name": "key",
          "type": "string"
        },
        {
          "internalType": "uint256",
          "name": "defaultValue",
          "type": "uint256"
        }
      ],
      "name": "getUIntConfigWithDefault",
      "outputs": [
        {
          "internalType": "uint256",
          "name": "",
          "type": "uint256"
        }
      ],
      "stateMutability": "view",
      "type": "function"
    },
    {
      "inputs": [
        {
          "internalType": "address",
          "name": "user",
          "type": "address"
        }
      ],
      "name": "getUserProfile",
      "outputs": [
        {
          "internalType": "string",
          "name": "username",
          "type": "string"
        },
        {
          "internalType": "string",
          "name": "displayName",
          "type": "string"
        },
        {
          "internalType": "string",
          "name": "pfpUrl",
          "type": "string"
        },
        {
          "internalType": "uint256",
          "name": "timestamp",
          "type": "uint256"
        }
      ],
      "stateMutability": "view",
      "type": "function"
    },
    {
      "inputs": [
        {
          "internalType": "bytes32",
          "name": "crosswordId",
          "type": "bytes32"
        },
        {
          "internalType": "address",
          "name": "user",
          "type": "address"
        }
      ],
      "name": "getUserRank",
      "outputs": [
        {
          "internalType": "uint256",
          "name": "",
          "type": "uint256"
        }
      ],
      "stateMutability": "view",
      "type": "function"
    },
    {
      "inputs": [
        {
          "internalType": "bytes32",
          "name": "role",
          "type": "bytes32"
        },
        {
          "internalType": "address",
          "name": "account",
          "type": "address"
        }
      ],
      "name": "grantRole",
      "outputs": [],
      "stateMutability": "nonpayable",
      "type": "function"
    },
    {
      "inputs": [
        {
          "internalType": "bytes32",
          "name": "crosswordId",
          "type": "bytes32"
        },
        {
          "internalType": "address",
          "name": "user",
          "type": "address"
        }
      ],
      "name": "hasClaimedPrize",
      "outputs": [
        {
          "internalType": "bool",
          "name": "",
          "type": "bool"
        }
      ],
      "stateMutability": "view",
      "type": "function"
    },
    {
      "inputs": [
        {
          "internalType": "bytes32",
          "name": "",
          "type": "bytes32"
        },
        {
          "internalType": "address",
          "name": "",
          "type": "address"
        }
      ],
      "name": "hasCompletedCrossword",
      "outputs": [
        {
          "internalType": "bool",
          "name": "",
          "type": "bool"
        }
      ],
      "stateMutability": "view",
      "type": "function"
    },
    {
      "inputs": [
        {
          "internalType": "bytes32",
          "name": "role",
          "type": "bytes32"
        },
        {
          "internalType": "address",
          "name": "account",
          "type": "address"
        }
      ],
      "name": "hasRole",
      "outputs": [
        {
          "internalType": "bool",
          "name": "",
          "type": "bool"
        }
      ],
      "stateMutability": "view",
      "type": "function"
    },
    {
      "inputs": [
        {
          "internalType": "address",
          "name": "",
          "type": "address"
        }
      ],
      "name": "isAdmin",
      "outputs": [
        {
          "internalType": "bool",
          "name": "",
          "type": "bool"
        }
      ],
      "stateMutability": "view",
      "type": "function"
    },
    {
      "inputs": [
        {
          "internalType": "address",
          "name": "addr",
          "type": "address"
        }
      ],
      "name": "isAdminAddress",
      "outputs": [
        {
          "internalType": "bool",
          "name": "",
          "type": "bool"
        }
      ],
      "stateMutability": "view",
      "type": "function"
    },
    {
      "inputs": [
        {
          "internalType": "bytes32",
          "name": "",
          "type": "bytes32"
        }
      ],
      "name": "isCrosswordCompletedAdded",
      "outputs": [
        {
          "internalType": "bool",
          "name": "",
          "type": "bool"
        }
      ],
      "stateMutability": "view",
      "type": "function"
    },
    {
      "inputs": [],
      "name": "isReturnHomeButtonVisible",
      "outputs": [
        {
          "internalType": "bool",
          "name": "",
          "type": "bool"
        }
      ],
      "stateMutability": "view",
      "type": "function"
    },
    {
      "inputs": [
        {
          "internalType": "bytes32",
          "name": "crosswordId",
          "type": "bytes32"
        },
        {
          "internalType": "address",
          "name": "user",
          "type": "address"
        }
      ],
      "name": "isWinner",
      "outputs": [
        {
          "internalType": "bool",
          "name": "",
          "type": "bool"
        }
      ],
      "stateMutability": "view",
      "type": "function"
    },
    {
      "inputs": [],
      "name": "lastUpdateTime",
      "outputs": [
        {
          "internalType": "uint256",
          "name": "",
          "type": "uint256"
        }
      ],
      "stateMutability": "view",
      "type": "function"
    },
    {
      "inputs": [],
      "name": "maxWinners",
      "outputs": [
        {
          "internalType": "uint256",
          "name": "",
          "type": "uint256"
        }
      ],
      "stateMutability": "view",
      "type": "function"
    },
    {
      "inputs": [],
      "name": "owner",
      "outputs": [
        {
          "internalType": "address",
          "name": "",
          "type": "address"
        }
      ],
      "stateMutability": "view",
      "type": "function"
    },
    {
      "inputs": [],
      "name": "pause",
      "outputs": [],
      "stateMutability": "nonpayable",
      "type": "function"
    },
    {
      "inputs": [],
      "name": "paused",
      "outputs": [
        {
          "internalType": "bool",
          "name": "",
          "type": "bool"
        }
      ],
      "stateMutability": "view",
      "type": "function"
    },
    {
      "inputs": [
        {
          "internalType": "bytes32",
          "name": "crosswordId",
          "type": "bytes32"
        },
        {
          "internalType": "address",
          "name": "user",
          "type": "address"
        }
      ],
      "name": "recordCompletion",
      "outputs": [
        {
          "internalType": "bool",
          "name": "awardedPrize",
          "type": "bool"
        }
      ],
      "stateMutability": "nonpayable",
      "type": "function"
    },
    {
      "inputs": [
        {
          "internalType": "bytes32",
          "name": "crosswordId",
          "type": "bytes32"
        }
      ],
      "name": "recoverUnclaimedPrizes",
      "outputs": [],
      "stateMutability": "nonpayable",
      "type": "function"
    },
    {
      "inputs": [
        {
          "internalType": "address",
          "name": "adminToRemove",
          "type": "address"
        }
      ],
      "name": "removeAdmin",
      "outputs": [],
      "stateMutability": "nonpayable",
      "type": "function"
    },
    {
      "inputs": [],
      "name": "renounceOwnership",
      "outputs": [],
      "stateMutability": "nonpayable",
      "type": "function"
    },
    {
      "inputs": [
        {
          "internalType": "bytes32",
          "name": "role",
          "type": "bytes32"
        },
        {
          "internalType": "address",
          "name": "callerConfirmation",
          "type": "address"
        }
      ],
      "name": "renounceRole",
      "outputs": [],
      "stateMutability": "nonpayable",
      "type": "function"
    },
    {
      "inputs": [
        {
          "internalType": "bytes32",
          "name": "role",
          "type": "bytes32"
        },
        {
          "internalType": "address",
          "name": "account",
          "type": "address"
        }
      ],
      "name": "revokeRole",
      "outputs": [],
      "stateMutability": "nonpayable",
      "type": "function"
    },
    {
      "inputs": [
        {
          "internalType": "address",
          "name": "token",
          "type": "address"
        },
        {
          "internalType": "bool",
          "name": "allowed",
          "type": "bool"
        }
      ],
      "name": "setAllowedToken",
      "outputs": [],
      "stateMutability": "nonpayable",
      "type": "function"
    },
    {
      "inputs": [
        {
          "internalType": "string",
          "name": "key",
          "type": "string"
        },
        {
          "internalType": "bool",
          "name": "value",
          "type": "bool"
        }
      ],
      "name": "setBoolConfig",
      "outputs": [],
      "stateMutability": "nonpayable",
      "type": "function"
    },
    {
      "inputs": [
        {
          "internalType": "bytes32",
          "name": "crosswordId",
          "type": "bytes32"
        },
        {
          "internalType": "string",
          "name": "crosswordData",
          "type": "string"
        }
      ],
      "name": "setCrossword",
      "outputs": [],
      "stateMutability": "nonpayable",
      "type": "function"
    },
    {
      "inputs": [
        {
          "internalType": "bytes32",
          "name": "crosswordId",
          "type": "bytes32"
        },
        {
          "internalType": "string",
          "name": "crosswordData",
          "type": "string"
        },
        {
          "internalType": "uint256",
          "name": "newMaxWinners",
          "type": "uint256"
        }
      ],
      "name": "setCrosswordAndMaxWinners",
      "outputs": [],
      "stateMutability": "nonpayable",
      "type": "function"
    },
    {
      "inputs": [],
      "name": "setDefaultConfigurations",
      "outputs": [],
      "stateMutability": "nonpayable",
      "type": "function"
    },
    {
      "inputs": [
        {
          "internalType": "uint256",
          "name": "newMaxWinners",
          "type": "uint256"
        }
      ],
      "name": "setMaxWinners",
      "outputs": [],
      "stateMutability": "nonpayable",
      "type": "function"
    },
    {
      "inputs": [
        {
          "internalType": "uint256",
          "name": "newMaxWinners",
          "type": "uint256"
        }
      ],
      "name": "setMaxWinnersConfig",
      "outputs": [],
      "stateMutability": "nonpayable",
      "type": "function"
    },
    {
      "inputs": [
        {
          "internalType": "address",
          "name": "newSigner",
          "type": "address"
        }
      ],
      "name": "setSigner",
      "outputs": [],
      "stateMutability": "nonpayable",
      "type": "function"
    },
    {
      "inputs": [
        {
          "internalType": "string",
          "name": "key",
          "type": "string"
        },
        {
          "internalType": "string",
          "name": "value",
          "type": "string"
        }
      ],
      "name": "setStringConfig",
      "outputs": [],
      "stateMutability": "nonpayable",
      "type": "function"
    },
    {
      "inputs": [
        {
          "internalType": "string",
          "name": "key",
          "type": "string"
        },
        {
          "internalType": "uint256",
          "name": "value",
          "type": "uint256"
        }
      ],
      "name": "setUIntConfig",
      "outputs": [],
      "stateMutability": "nonpayable",
      "type": "function"
    },
    {
      "inputs": [],
      "name": "signer",
      "outputs": [
        {
          "internalType": "address",
          "name": "",
          "type": "address"
        }
      ],
      "stateMutability": "view",
      "type": "function"
    },
    {
      "inputs": [
        {
          "internalType": "bytes4",
          "name": "interfaceId",
          "type": "bytes4"
        }
      ],
      "name": "supportsInterface",
      "outputs": [
        {
          "internalType": "bool",
          "name": "",
          "type": "bool"
        }
      ],
      "stateMutability": "view",
      "type": "function"
    },
    {
      "inputs": [
        {
          "internalType": "address",
          "name": "newOwner",
          "type": "address"
        }
      ],
      "name": "transferOwnership",
      "outputs": [],
      "stateMutability": "nonpayable",
      "type": "function"
    },
    {
      "inputs": [],
      "name": "unpause",
      "outputs": [],
      "stateMutability": "nonpayable",
      "type": "function"
    },
    {
      "inputs": [
        {
          "internalType": "bytes32",
          "name": "crosswordId",
          "type": "bytes32"
        },
        {
          "internalType": "address",
          "name": "user",
          "type": "address"
        }
      ],
      "name": "userCompletedCrossword",
      "outputs": [
        {
          "internalType": "bool",
          "name": "",
          "type": "bool"
        }
      ],
      "stateMutability": "view",
      "type": "function"
    },
    {
      "inputs": [
        {
          "internalType": "address",
          "name": "",
          "type": "address"
        }
      ],
      "name": "userProfiles",
      "outputs": [
        {
          "internalType": "string",
          "name": "username",
          "type": "string"
        },
        {
          "internalType": "string",
          "name": "displayName",
          "type": "string"
        },
        {
          "internalType": "string",
          "name": "pfpUrl",
          "type": "string"
        },
        {
          "internalType": "uint256",
          "name": "timestamp",
          "type": "uint256"
        }
      ],
      "stateMutability": "view",
      "type": "function"
    },
    {
      "inputs": [
        {
          "internalType": "bytes32",
          "name": "",
          "type": "bytes32"
        },
        {
          "internalType": "address",
          "name": "",
          "type": "address"
        }
      ],
      "name": "userRankInCrossword",
      "outputs": [
        {
          "internalType": "uint256",
          "name": "",
          "type": "uint256"
        }
      ],
      "stateMutability": "view",
      "type": "function"
    },
    {
      "stateMutability": "payable",
      "type": "receive"
    }
  ],
  "bytecode": "0x6080346101c257601f616bd638819003918201601f19168301916001600160401b03831184841017610196578084926020946040528339810103126101c257516001600160a01b038116908181036101c25781156101ac57600080546001600160a01b031981168417825583916001600160a01b03909116907f8be0079c531659141344cd1fd0a4f28419497f9722a3daafe3b4186f6b6457e09080a360016002556003600c558160005260126020526040600020600160ff1982541617905560135491680100000000000000008310156101965760018301806013558310156101805760136000527f66de8ffda797e3de9c05e8fc57b3bf0ec28a930d40b0d285d93c06501cf6a09090920180546001600160a01b03191690921790915561013b9061012b816101c7565b5061013581610243565b506102db565b5060008052600b6020527fdf7de25b7f1fd6d0b5205f0e18f1f35bd7b8d84cce336588d184533ce43a6f76805460ff191660011790556040516167e290816103748239f35b634e487b7160e01b600052603260045260246000fd5b634e487b7160e01b600052604160045260246000fd5b631e4fbdf760e01b600052600060045260246000fd5b600080fd5b6001600160a01b0381166000908152600080516020616b76833981519152602052604090205460ff1661023d576001600160a01b03166000818152600080516020616b7683398151915260205260408120805460ff19166001179055339190600080516020616b568339815191528180a4600190565b50600090565b6001600160a01b0381166000908152600080516020616bb6833981519152602052604090205460ff1661023d576001600160a01b03166000818152600080516020616bb683398151915260205260408120805460ff191660011790553391907fa49807205ce4d355092ef5a8a18f56e8913cf4a201fbe287825b095693c2177590600080516020616b568339815191529080a4600190565b6001600160a01b0381166000908152600080516020616b96833981519152602052604090205460ff1661023d576001600160a01b03166000818152600080516020616b9683398151915260205260408120805460ff191660011790553391907f97667070c54ef182b0f5858b034beac1b6f3089aa2d3188bb1e8929f4fa9b92990600080516020616b568339815191529080a460019056fe60806040526004361015610026575b361561001e5761001c615c5c565b005b61001c615c5c565b60003560e01c8062860e0f1461430557806301ffc9a7146142af5780630236bb5a146138fc5780630599711d1461429657806307e353c21461413d5780630a4636b214613a0f5780630a713d6814613ff95780630d67f84314613fd55780630e5e0bb014613ce55780631087a03214613c9457806312b89f4b14613c4257806314bfd6d014613c005780631785f53c14613a145780631ca1954e14613a0f5780631cd896c1146139f35780631dc626b11461393b5780631e31df88146139d7578063238ac933146139ae578063248a9ca31461398857806324cbad251461393b57806324d7806c146138fc57806324f8facb146138ac5780632f2ff15d1461387b578063317d609b1461367857806331ae450b146135c857806331bd2691146135aa578063332d56d714613544578063353ca9a51461272f57806336568abe146134fe57806337a1df2b146134e25780633f4ba83a14613479578063427b88ee146132855780634c255c971461326857806350f8bd53146131765780635265cb0d146130fa5780635a53e88f14612e425780635bd059c014612e135780635c975abb14612df057806362d3a9e614612dbf5780636bc122c914612da65780636c19e78314612cc85780636fc4df2214612cab5780637048027514612b2c578063715018a614612ae557806375b238fc14612abc57806376cf795d146129b95780637849dbaa14612972578063842a42e3146129085780638456cb59146128ae57806384bc72301461289257806389444dfa146128755780638aaa2284146127ed5780638da5cb5b146127c457806391d14854146127775780639745808a1461272f578063987ee156146126a45780639c0b1d64146126785780639cc19f5b1461262e578063a090a35614612569578063a217fddf1461254d578063a5f00e7d14612531578063b0fc944014612093578063b289e28414612067578063b3542d171461052a578063b38e9dde14612005578063b423a06814611faf578063b827520514611e15578063becb5f9114611df7578063c001e82214611926578063c37c295c146112ac578063c8f33c911461128e578063cb0e184914610a3d578063cbb00d4b14610a21578063cde8e5d314610a03578063d17b18c414610990578063d30c2efe14610973578063d547741f1461093d578063d71ecbb2146108d7578063d9cbe53c14610840578063dfdfde301461077f578063e5b4a8a514610763578063e744092e14610724578063ec03a37a1461052f578063ef9923aa1461052a578063f2fde38b146104b3578063f4b53f71146104155763f5b541a60361000e57346104105760003660031901126104105760206040516000805160206165ed8339815191528152f35b600080fd5b346104105760003660031901126104105760405180602060105492838152018092601060005260206000209060005b81811061049d575050508161045a9103826143e8565b6040519182916020830190602084525180915260408301919060005b818110610484575050500390f35b8251845285945060209384019390920191600101610476565b8254845260209093019260019283019201610444565b34610410576020366003190112610410576104cc6144ef565b6104d4615e02565b6001600160a01b0316801561051457600080546001600160a01b03198116831782556001600160a01b03169060008051602061662d8339815191529080a3005b631e4fbdf760e01b600052600060045260246000fd5b610a03565b3461041057602036600319011261041057600435600052600a602052604060002060018060a01b0381541690600181015490600281019060038101936005820154600683015460ff60078501541691604051958687602083549283815201809360005260206000209260005b81811061070b5750506105b0925003886143e8565b88546105bb8161447b565b906105c960405192836143e8565b80825260208201809b60005260206000206000915b8383106106ed57505050506105f5600a88016146c2565b9561060e600c610607600b8b016146c2565b99016146c2565b986040519a6101408c01928c5260208c015261014060408c0152518091526101608a01929060005b8181106106d75750505060209089830360608b0152519182815201989060005b8181106106b757505050966106a4936106886106b3979694610695948a9b60808c015260a08b015260c08a01906148be565b87820360e0890152614787565b90858203610100870152614787565b90838203610120850152614787565b0390f35b90919960206060826106cc6001948f5161484f565b019b01929101610656565b8251855260209485019490920191600101610636565b600360206001926106fd856154e9565b8152019201920191906105de565b845483526001948501948c94506020909301920161059b565b34610410576020366003190112610410576001600160a01b036107456144ef565b16600052600b602052602060ff604060002054166040519015158152f35b34610410576000366003190112610410576020604051600a8152f35b3461041057602036600319011261041057600435600052600a602052602060406000206106b360018060a01b03825416916106a46001820154916106956005820154600683015460ff6007850154166108236008860154916009870154936107e9600a89016146c2565b95610802600c6107fb600b8c016146c2565b9a016146c2565b9a6040519e8f9e8f908152015260408d015260608c015260808b01906148be565b60a089015260c088015261014060e0880152610140870190614787565b3461041057604036600319011261041057610859614505565b3360009081527f31c1e66639f421f1853aeefe8ad6b62a3b96f3287efe23106923cd924aa025c2602052604090205460ff16156108b0576108a660209161089e615d68565b6004356157d5565b6040519015158152f35b63e2517d3f60e01b600052336004526000805160206165ed83398151915260245260446000fd5b34610410576020366003190112610410576004356001600160401b03811161041057610929602061090f6106b393369060040161451b565b9190826040519384928337810160048152030190206146c2565b604051918291602083526020830190614787565b346104105760403660031901126104105761001c60043561095c614505565b9061096e61096982615473565b615d2b565b615eba565b34610410576000366003190112610410576020604051611f408152f35b34610410576020366003190112610410577f03de711598b94393a7a0ad6765b4322e8bea2022937f56eabbc8d5d1ff99046f60606004356109cf615c8a565b6109da811515615253565b6109e7600a821115615766565b600c549080600c556040519182526020820152336040820152a1005b34610410576000366003190112610410576020600c54604051908152f35b34610410576000366003190112610410576106b361092961488d565b346104105760a0366003190112610410576004356024356001600160401b03811161041057610a7090369060040161451b565b6044356001600160401b03811161041057610a8f90369060040161451b565b90926064356001600160401b03811161041057610ab090369060040161451b565b926084356001600160401b03811161041057610ad090369060040161451b565b9690610ada615d85565b610ae2615d68565b3315611249576007549788600052600e602052604060002060018060a01b03331660005260205260ff604060002054166111fd5788156111ac57891561114f5787151580611144575b156110ef57831515806110e4575b1561108b576101f48711611046576016546001600160a01b031691821561100157610bdd91610bce610bd4928c8e6040519060208201923360601b8452603483015260548201523060601b607482015260688152610b986088826143e8565b5190207b0ca2ba3432b932bab69029b4b3b732b21026b2b9b9b0b3b29d05199960211b600052601c52603c600020923691614426565b9061645f565b9092919261649b565b6001600160a01b031603610fb25786600052600d6020526103e86040600020541015610f595786600052600d60205260406000209160405192610c1f846143cd565b338452426020850152604084018a9052805495600160401b871015610e7557610c61610c7e95610c5b89610c75956001610c8d9c018155614871565b90615716565b60405198610c6e8a6143b2565b3691614426565b87523691614426565b92602085019384523691614426565b60408301908152606083019142835233600052600f6020526040600020935180519060018060401b038211610e7557610cd082610cca88546145e1565b88614cb9565b602090601f8311600114610ef257610cf3929160009183610e00575b5050614cf3565b84555b51805160018501916001600160401b038211610e7557610d2082610d1a85546145e1565b85614cb9565b602090601f8311600114610e8b57610d42929160009183610e00575050614cf3565b90555b51805160028401916001600160401b038211610e7557610d6982610d1a85546145e1565b602090601f8311600114610e0b579180610d90926003969594600092610e00575050614cf3565b90555b519101556000818152600e60209081526040808320338085529252909120805460ff19166001179055610dc69082615f84565b506040519142835260208301527fd874e861282b2f8594edf306850dc2b69894038be0181c78618d086be9d6a7b860403393a36001600255005b015190508980610cec565b90601f1983169184600052816000209260005b818110610e5d575091600193918560039897969410610e45575b505050811b019055610d93565b015160001983881b60f8161c19169055888080610e38565b92936020600181928786015181550195019301610e1e565b634e487b7160e01b600052604160045260246000fd5b90601f1983169184600052816000209260005b818110610eda5750908460019594939210610ec1575b505050811b019055610d45565b015160001960f88460031b161c19169055888080610eb4565b92936020600181928786015181550195019301610e9e565b90601f1983169187600052816000209260005b818110610f415750908460019594939210610f28575b505050811b018455610cf6565b015160001960f88460031b161c19169055888080610f1b565b92936020600181928786015181550195019301610f05565b60405162461bcd60e51b815260206004820152602b60248201527f43726f7373776f7264426f6172643a206d6178696d756d20636f6d706c65746960448201526a1bdb9cc81c995858da195960aa1b6064820152608490fd5b60405162461bcd60e51b815260206004820152602160248201527f43726f7373776f7264426f6172643a20696e76616c6964207369676e617475726044820152606560f81b6064820152608490fd5b60405162461bcd60e51b815260206004820152601e60248201527f43726f7373776f7264426f6172643a207369676e6572206e6f742073657400006044820152606490fd5b60405162461bcd60e51b815260206004820152601f60248201527f43726f7373776f7264426f6172643a2070667055726c20746f6f206c6f6e67006044820152606490fd5b60405162461bcd60e51b815260206004820152602b60248201527f43726f7373776f7264426f6172643a20696e76616c696420646973706c61792060448201526a0dcc2daca40d8cadccee8d60ab1b6064820152608490fd5b5060c8841115610b39565b60405162461bcd60e51b815260206004820152602760248201527f43726f7373776f7264426f6172643a20696e76616c696420757365726e616d65604482015266040d8cadccee8d60cb1b6064820152608490fd5b506064881115610b2b565b60405162461bcd60e51b815260206004820152602f60248201527f43726f7373776f7264426f6172643a206475726174696f6e206d75737420626560448201526e02067726561746572207468616e203608c1b6064820152608490fd5b60405162461bcd60e51b815260206004820152602360248201527f43726f7373776f7264426f6172643a206e6f206163746976652063726f7373776044820152621bdc9960ea1b6064820152608490fd5b60405162461bcd60e51b8152602060048201526030602482015260008051602061668d83398151915260448201526f19081d1a1a5cc818dc9bdcdcdddbdc9960821b6064820152608490fd5b60405162461bcd60e51b815260206004820152601e60248201527f43726f7373776f7264426f6172643a20696e76616c69642073656e64657200006044820152606490fd5b34610410576000366003190112610410576020600954604051908152f35b610120366003190112610410576004356024356001600160401b038111610410576112db90369060040161445d565b906044356001600160401b038111610410576112fb90369060040161445d565b906064356001600160401b0381116104105761131b90369060040161445d565b906084359260a43560018060a01b0381168091036104105760c4359360e4356001600160401b03811161041057611356903690600401614492565b946101043596611364615c8a565b61136c615d85565b611374615d68565b611380855115156151f0565b61138b811515615253565b611398600a8211156152ba565b811515906113a582614930565b600787905585516001600160401b038111610e75576113ce816113c96008546145e1565b614c74565b6020601f82116001146118b657916113f7826114049361142e96956000916118ab575b50614cf3565b6008555b42600955615da5565b61140f851515615655565b84600052600b60205261142960ff604060002054166156c0565b614930565b61143a86511515614996565b6114498651600c5410156149e1565b6114568651821015614a2c565b600097885b87518a10156114b1576114a9600191611498611f406114908e61148a6114828f8390614a91565b511515614aa5565b8d614a91565b511115614b12565b6114a28c8b614a91565b5190614b78565b99019861145b565b886114c16127108a931115614b85565b80611877575b6114d384303389615f40565b6000888152600a6020526040902080546001600160a01b03191687178155600181018590558251909260028401906001600160401b038311610e7557600160401b8311610e7557602090825484845580851061185a575b500190600052602060002060005b8381106118465750505050600682015560078101805460ff191660011790554260058201819055600882015560006009820190815582519092600a830191906001600160401b038211610e755761159382610d1a85546145e1565b602090601f83116001146117df576115b59291600091836117d4575050614cf3565b90555b8551600b8201906001600160401b038111610e75576115e1816115db84546145e1565b84614cb9565b6020601f821160011461176a5781600c9493926116059260009161175f5750614cf3565b90555b84519101906001600160401b038111610e7557879461162b82610d1a85546145e1565b602090601f83116001146116ca5760008051602061674d83398151915298969460008051602061672d833981519152946116798561168b966116b59c9a9660009687926116bf575050614cf3565b90555b55604051918291339083614d06565b0390a3836000805160206165ad8339815191526020604051428152a260405191829133908361530c565b0390a26001600255005b015190508f80610cec565b90601f1983169184600052816000209260005b8181106117445750946001856116b59b999560009560008051602061674d8339815191529e9c9a9561168b9960008051602061672d8339815191529b1061172c575b505050811b01905561167c565b0151861960f88460031b161c191690558e808061171f565b8284015185558c9950600190940193602093840193016116dd565b90508a01518c6113f1565b601f1982169083600052806000209160005b8b8282106117bc575050918391600c969594600194106117a3575b5050811b019055611608565b8b015160001960f88460031b161c191690558b80611797565b6001849560209395849301518155019401920161177c565b015190508b80610cec565b90601f1983169184600052816000209260005b81811061182e5750908460019594939210611815575b505050811b0190556115b8565b015160001960f88460031b161c191690558a8080611808565b929360206001819287860151815501950193016117f2565b600190602084519401938184015501611538565b611871908460005285846000209182019101614c5d565b8c61152a565b62278d0042018042116118955761189090821115614be7565b6114c7565b634e487b7160e01b600052601160045260246000fd5b90508a01518f6113f1565b601f198216906008600052806000209160005b8a82821061190e5750509261142e9594926001928261140496106118f5575b5050811b016008556113fb565b8b015160001960f88460031b161c191690558e806118e8565b600184956020939584930151815501940192016118c9565b3461041057610100366003190112610410576004356024356001600160401b0381116104105761195a90369060040161445d565b906044356001600160401b0381116104105761197a90369060040161445d565b906064356001600160401b0381116104105761199a90369060040161445d565b906084356001600160a01b038116908190036104105760a4359260c4356001600160401b038111610410576119d3903690600401614492565b9360e435956119e0615c8a565b6119e8615d68565b6119f3841515615655565b83600052600b602052611a0d60ff604060002054166156c0565b611a18821515614930565b611a2486511515614996565b611a338651600c5410156149e1565b611a408651831015614a2c565b600097885b87518a1015611a7457611a6c600191611498611f406114908e61148a6114828f8390614a91565b990198611a45565b9088611a866127108a95941115614b85565b80611dd9575b611a988530338a615f40565b6000888152600a6020526040902080546001600160a01b03191688178155600181018690558451909460028601906001600160401b038311610e7557600160401b8311610e75576020908254848455808510611dbc575b500190600052602060002060005b838110611da85750505050600684015560078301805460ff1916600117905542600584018190556008840155600060098401558051600a8401916001600160401b038211610e7557611b5382610d1a85546145e1565b602090601f8311600114611d4157611b75929160009183611c4d575050614cf3565b90555b8051600b8301916001600160401b038211610e7557611b9b82610d1a85546145e1565b602090601f8311600114611cd6579180611bc292600c969594600092611c4d575050614cf3565b90555b83519101906001600160401b038111610e75578593611be882610d1a85546145e1565b602090601f8311600114611c58578260008051602061672d8339815191529593611c309593611c1f93600092611c4d575050614cf3565b90555b604051918291339083614d06565b0390a36000805160206165ad8339815191526020604051428152a2005b015190508a80610cec565b90601f1983169184600052816000209260005b818110611cbb575092600192859260008051602061672d8339815191529896611c30989610611ca2575b505050811b019055611c22565b015160001960f88460031b161c19169055898080611c95565b8284015185558a985060019094019360209384019301611c6b565b90601f1983169184600052816000209260005b818110611d295750916001939185600c9897969410611d10575b505050811b019055611bc5565b015160001960f88460031b161c19169055898080611d03565b92936020600181928786015181550195019301611ce9565b90601f1983169184600052816000209260005b818110611d905750908460019594939210611d77575b505050811b019055611b78565b015160001960f88460031b161c19169055898080611d6a565b92936020600181928786015181550195019301611d54565b600190602084519401938184015501611afd565b611dd3908460005285846000209182019101614c5d565b8c611aef565b62278d00420180421161189557611df290821115614be7565b611a8c565b34610410576000366003190112610410576020601054604051908152f35b34610410576040366003190112610410576004356001600160401b03811161041057611e4590369060040161451b565b6024356001600160401b03811161041057611e6490369060040161451b565b919092611e6f615c8a565b611e77615d68565b60405182828237600483820190815281900360200190206001600160401b038411610e7557611eb084611eaa83546145e1565b83614cb9565b6000601f8511600114611f385791849391611ee5856000805160206166ad83398151915297606096600091611f2d5750614cf3565b90555b816040519283928337810160008152039020938260405193849260408452816040850152848401376000828201840152336020830152601f01601f19168101030190a2005b90508901358a6113f1565b8181526020812090601f198616815b818110611f97575091869593916000805160206166ad833981519152976060969410611f7d575b5050600185811b019055611ee8565b880135600019600388901b60f8161c191690558780611f6e565b9192602060018192868c013581550194019201611f47565b34610410576020366003190112610410576004356001600160401b0381116104105760ff6020611fe48193369060040161451b565b91908260405193849283378101600581520301902054166040519015158152f35b3461041057604036600319011261041057602435600435600052600d602052604060002080548210156104105760609161203e91614871565b5060018060a01b0381541690600260018201549101549060405192835260208301526040820152f35b346104105760203660031901126104105760043560005260156020526020604060002054604051908152f35b34610410576020366003190112610410576004356120af615d85565b6120b7615d68565b80600052600a6020526040600020906001820154916120d783151561551a565b6005810154156124c6576000828152600e6020908152604080832033845290915290205460ff16156124465760008281526014602090815260408083203384529091529020549081156123e957600281018054831161238457600482019460018060a01b0333166000528560205260ff60406000205416612331576000198401908482116118955761216f61217c92612710946145c9565b90549060031b1c90614c4a565b049384156122d35733600090815260209190915260409020805460ff1916600117905580546001600160a01b031690811590816122bd575b501561223157508160005260156020526121d5836040600020541015615334565b6121ef600080808087335af16121e9615443565b506155f5565b81600052601560205260406000206122088482546153de565b90555b604051928352602083015260008051602061660d83398151915260403393a36001600255005b6040516370a0823160e01b8152306004820152602081602481855afa80156122b157859160009161227a575b509161226e82612275941015615589565b3390615dc2565b61220b565b9150506020813d6020116122a9575b81612296602093836143e8565b810103126104105751849061226e61225d565b3d9150612289565b6040513d6000823e3d90fd5b6009016122cb868254614b78565b9055856121b4565b60405162461bcd60e51b815260206004820152603060248201527f43726f7373776f7264426f6172643a206e6f207072697a6520617661696c616260448201526f6c6520666f7220796f75722072616e6b60801b6064820152608490fd5b60405162461bcd60e51b815260206004820152602560248201527f43726f7373776f7264426f6172643a207072697a6520616c726561647920636c604482015264185a5b595960da1b6064820152608490fd5b60405162461bcd60e51b815260206004820152603760248201527f43726f7373776f7264426f6172643a20796f75722072616e6b20697320746f6f604482015276206c6f7720746f20726563656976652061207072697a6560481b6064820152608490fd5b60405162461bcd60e51b815260206004820152602f60248201527f43726f7373776f7264426f6172643a20796f7520617265206e6f7420696e207460448201526e1a19481dda5b9b995c9cc81b1a5cdd608a1b6064820152608490fd5b60405162461bcd60e51b815260206004820152604c60248201527f43726f7373776f7264426f6172643a206e6f742061207665726966696564207760448201527f696e6e65722c20796f75206d75737420636f6d706c657465207468652063726f60648201526b1cdcdddbdc9908199a5c9cdd60a21b608482015260a490fd5b60405162461bcd60e51b815260206004820152603e60248201527f43726f7373776f7264426f6172643a2063726f7373776f7264206973206e6f7460448201527f206163746976617465642c206e6f207072697a657320746f20636c61696d00006064820152608490fd5b3461041057600036600319011261041057602060405160018152f35b3461041057600036600319011261041057602060405160008152f35b3461041057602036600319011261041057600435600052600d60205260406000208054906125968261447b565b916125a460405193846143e8565b80835260208301809260005260206000206000915b8383106126105784866040519182916020830190602084525180915260408301919060005b8181106125ec575050500390f35b919350916020606082612602600194885161484f565b0194019101918493926125de565b60036020600192612620856154e9565b8152019201920191906125b9565b3461041057604036600319011261041057612647614505565b600435600052601460205260406000209060018060a01b031660005260205260206040600020541515604051908152f35b3461041057602036600319011261041057600435600052600d6020526020604060002054604051908152f35b34610410576020366003190112610410576001600160a01b036126c56144ef565b16600052600f60205260406000206040516126df816143b2565b6126e8826146c2565b81526106b36126f9600184016146c2565b9160208101928352600361270f600286016146c2565b9485604084015201549081606082015251925193604051948594856147ac565b3461041057604036600319011261041057612748614505565b600435600052601460205260406000209060018060a01b03166000526020526020604060002054604051908152f35b3461041057604036600319011261041057612790614505565b600435600052600160205260406000209060018060a01b0316600052602052602060ff604060002054166040519015158152f35b34610410576000366003190112610410576000546040516001600160a01b039091168152602090f35b34610410576040366003190112610410576128066144ef565b6024359081151590818303610410577f9a8e30a8658b96ab3f034ce4bac6806278b4aee5880ccdd1ac35e4ed5bb31d239161286c602092612845615cd8565b60018060a01b03169485600052600b845260406000209060ff801983541691151516179055565b604051908152a2005b346104105760003660031901126104105760206040516101f48152f35b34610410576000366003190112610410576106b3610929614826565b34610410576000366003190112610410576128c7615cd8565b6128cf615d68565b600160ff1960035416176003557f62e78cea01bee320cd4e420270b5ea74000d11b0c9f74754ebdbfc544b05a2586020604051338152a1005b3461041057600036600319011261041057612921615e02565b60006007556129316008546145e1565b601f8111612945575b600060085542600955005b600860005261296c90601f0160051c60008051602061664d83398151915290810190614c5d565b8061293a565b34610410576000366003190112610410576007546009549061299261461b565b916129af6040519384938452606060208501526060840190614787565b9060408301520390f35b34610410576000366003190112610410576129d2615c8a565b612a056129f560206129e261488d565b8160405193828580945193849201614764565b81016004815203019020546145e1565b15612a6c575b612a1b6129f560206129e2614826565b15612a2257005b6003612a3160206129e2614826565b8101600681520301902055612a4c612a47614826565b6154c9565b6000805160206165cd8339815191526040805160038152336020820152a2005b612a7960206129e261488d565b81016005815203019020600160ff19825416179055612a99612a4761488d565b60008051602061658d8339815191526040805160018152336020820152a2612a0b565b346104105760003660031901126104105760206040516000805160206166cd8339815191528152f35b3461041057600036600319011261041057612afe615e02565b600080546001600160a01b0319811682556001600160a01b031660008051602061662d8339815191528280a3005b3461041057602036600319011261041057612b456144ef565b612b4d615e02565b6001600160a01b038116908115612c515781600052601260205260ff60406000205416612c00576000828152601260205260409020805460ff1916600117905560135490600160401b821015610e7557612bb0826001612bd49401601355614598565b9080546001600160a01b0360039390931b83811b199091169290931690921b179055565b7fbf3f493c772c8c283fd124432c2d0f539ab343faa04258fe88e52912d36b102b6020604051338152a2005b60405162461bcd60e51b8152602060048201526024808201527f43726f7373776f7264426f6172643a2061646d696e20616c72656164792065786044820152636973747360e01b6064820152608490fd5b60405162461bcd60e51b815260206004820152602c60248201527f43726f7373776f7264426f6172643a2061646d696e206164647265737320636160448201526b6e6e6f74206265207a65726f60a01b6064820152608490fd5b346104105760003660031901126104105760206040516103e88152f35b3461041057602036600319011261041057612ce16144ef565b612ce9615c8a565b6001600160a01b03168015612d4b5760607f138664d729004ff3df437e29920fe415a1c078a8ec492dea367b98e57020704891601654908060018060a01b03198316176016556040519160018060a01b031682526020820152336040820152a1005b60405162461bcd60e51b815260206004820152602d60248201527f43726f7373776f7264426f6172643a207369676e65722063616e6e6f7420626560448201526c207a65726f206164647265737360981b6064820152608490fd5b346104105760206108a6612db9366147eb565b91615487565b34610410576020366003190112610410576004356000526011602052602060ff604060002054166040519015158152f35b3461041057600036600319011261041057602060ff600354166040519015158152f35b3461041057602036600319011261041057600435600052600a6020526020600360406000200154604051908152f35b3461041057612e5036614548565b91612e59615c8a565b612e61615d68565b826040518383823760068482019081528190036020019020556000838072184f03e93ff9f4daa797ed6e38ed64bf6a1f0160401b8110156130d7575b600a906904ee2d6d415b85acef8160201b8110156130bb575b662386f26fc100008110156130a7575b6305f5e100811015613096575b612710811015613087575b6064811015613079575b101561306e575b600a60216001840193612f018561440b565b94612f0f60405196876143e8565b808652612f1e601f199161440b565b013660208701378401015b60001901916f181899199a1a9b1b9c1cb0b131b232b360811b8282061a8353048015612f5857600a9091612f29565b50506040518383823760048482019081528190036020019020815190916001600160401b038211610e7557612f9182610d1a85546145e1565b602090601f8311600114612ff25782612fed95936000805160206165cd833981519152979593612fc993600092610e00575050614cf3565b90555b81604051928392833781016000815203902092604051918291339083614d06565b0390a2005b90601f1983169184600052816000209260005b8181106130565750926001928592612fed98966000805160206165cd8339815191529a98961061303d575b505050811b019055612fcc565b015160001960f88460031b161c19169055888080613030565b92936020600181928786015181550195019301613005565b600190910190612eef565b606460029104930192612ee8565b61271060049104930192612ede565b6305f5e10060089104930192612ed3565b662386f26fc1000060109104930192612ec6565b602093909301926904ee2d6d415b85acef8160201b9004612eb6565b506040915072184f03e93ff9f4daa797ed6e38ed64bf6a1f0160401b8504612e9d565b3461041057604060008051602061658d833981519152613119366147eb565b9391613123615c8a565b61312b615d68565b6131548584518484823760208186810160058152030190209060ff801983541691151516179055565b81835192839283378101600081520390209281519015158152336020820152a2005b34610410576020366003190112610410576004356000908152600a602052604090206001810154600982015491546001600160a01b03169190826131ff5760a092504782116131f8576131c982476153de565b905b6131d583826153de565b821015916040519382855260208501526040840152151560608301526080820152f35b60006131c9565b6020602493604051948580926370a0823160e01b82523060048301525afa80156122b157600090613235575b60a09350906131cb565b506020833d602011613260575b8161324f602093836143e8565b810103126104105760a0925161322b565b3d9150613242565b346104105760003660031901126104105760206040516127108152f35b610100366003190112610410576004356024356001600160401b038111610410576132b490369060040161445d565b906044356001600160401b038111610410576132d490369060040161445d565b6064356001600160401b038111610410576132f390369060040161445d565b608435939060a43560c4356001600160401b0381116104105761331a903690600401614492565b91613323615c8a565b61332b615d85565b613333615d68565b61333f855115156151f0565b61334a871515615253565b613357600a8811156152ba565b613362821515614930565b61336d8234146148cb565b60078690558451966001600160401b038811610e7557613392886113c96008546145e1565b602097601f81116001146133f657916133d26116b5979694926113f7856133dd989660008051602061674d8339815191529c9d6000916133eb5750614cf3565b8560e435948a614d1f565b60405191829133908361530c565b90508a01518e6113f1565b601f1981166008600052896000209060005b8181106134615750926001836133d29360008051602061674d8339815191529c9d6133dd9a98966116b59d9c9a9810613448575050811b016008556113fb565b8b015160001960f88460031b161c191690558d806118e8565b898c0151835560209b8c019b60019093019201613408565b3461041057600036600319011261041057613492615cd8565b60035460ff8116156134d15760ff19166003557f5db9ee0a495bf2e6ff9c91a7834c1ba4fdd244a5e8aa4e537bd38aeae4b073aa6020604051338152a1005b638dfc202b60e01b60005260046000fd5b3461041057600036600319011261041057602060405160c88152f35b3461041057604036600319011261041057613517614505565b336001600160a01b038216036135335761001c90600435615eba565b63334bd91960e11b60005260046000fd5b34610410576020366003190112610410576001600160a01b036135656144ef565b16600052600f602052604060002061357c816146c2565b6106b361358b600184016146c2565b92600361359a600283016146c2565b91015490604051948594856147ac565b34610410576000366003190112610410576020600754604051908152f35b346104105760003660031901126104105760405180602060135492838152018092601360005260206000209060005b818110613659575050508161360d9103826143e8565b6040519182916020830190602084525180915260408301919060005b818110613637575050500390f35b82516001600160a01b0316845285945060209384019390920191600101613629565b82546001600160a01b03168452602090930192600192830192016135f7565b34610410576040366003190112610410576004356024356001600160401b038111610410576136ab90369060040161445d565b9060018060a01b036000541633148015613863575b801561383d575b156137dc576136d4615d85565b6136dc615d68565b6136e8825115156151f0565b60078190558151916001600160401b038311610e755761370d836113c96008546145e1565b602092601f81116001146137635790613742826116b59360008051602061674d83398151915295966000916137585750614cf3565b6008555b4260095560405191829133908361530c565b9050830151876113f1565b601f1981166008600052846000209060005b8181106137c457509160019160008051602061674d8339815191529596826116b59695106137ab575b5050811b01600855613746565b84015160001960f88460031b161c19169055868061379e565b84870151835560209687019660019093019201613775565b60405162461bcd60e51b815260206004820152603360248201527f43726f7373776f7264426f6172643a2063616c6c6572206973206e6f74207468604482015272329037bbb732b91037b91030b71030b236b4b760691b6064820152608490fd5b5033600090815260008051602061666d833981519152602052604090205460ff166136c7565b5033600052601260205260ff604060002054166136c0565b346104105760403660031901126104105761001c60043561389a614505565b906138a761096982615473565b615e2b565b34610410576040366003190112610410576138c5614505565b600435600052600a60205260046040600020019060018060a01b0316600052602052602060ff604060002054166040519015158152f35b34610410576020366003190112610410576001600160a01b0361391d6144ef565b166000526012602052602060ff604060002054166040519015158152f35b3461041057604036600319011261041057613954614505565b600435600052600e60205260406000209060018060a01b0316600052602052602060ff604060002054166040519015158152f35b346104105760203660031901126104105760206139a6600435615473565b604051908152f35b34610410576000366003190112610410576016546040516001600160a01b039091168152602090f35b34610410576000366003190112610410576106b361092961461b565b3461041057600036600319011261041057602060405160648152f35b61457a565b3461041057602036600319011261041057613a2d6144ef565b613a35615e02565b6001600160a01b031660008181526012602052604090205460ff1615613baf576000546001600160a01b03168114613b5e576000818152601260205260408120805460ff191690555b6013549081811015613b575782613a9482614598565b905460039190911b1c6001600160a01b031614613ab5576001915001613a7e565b600019820191821161189557612bb0613ad0613ae893614598565b905460039190911b1c6001600160a01b031691614598565b6013548015613b415760001901613afe81614598565b81549060018060a01b039060031b1b191690556013555b7fdb9d5d31320daf5bc7181d565b6da4d12e30f0f4d5aa324a992426c14a1d19ce6020604051338152a2005b634e487b7160e01b600052603160045260246000fd5b5050613b15565b60405162461bcd60e51b815260206004820152602360248201527f43726f7373776f7264426f6172643a2063616e6e6f742072656d6f7665206f776044820152623732b960e91b6064820152608490fd5b60405162461bcd60e51b8152602060048201526024808201527f43726f7373776f7264426f6172643a2061646d696e20646f6573206e6f7420656044820152631e1a5cdd60e21b6064820152608490fd5b346104105760203660031901126104105760043560135481101561041057613c29602091614598565b905460405160039290921b1c6001600160a01b03168152f35b346104105760203660031901126104105760043560105481101561041057600090601054811015613c80576020826010829452200154604051908152f35b634e487b7160e01b82526032600452602482fd5b34610410576020366003190112610410576004356001600160401b038111610410576020613cc78192369060040161451b565b91908260405193849283378101600681520301902054604051908152f35b3461041057602036600319011261041057600435613d01615c8a565b613d09615d85565b613d11615d68565b80600052600a6020526040600020906006820154801515600014613fca575b600583015415613f875762278d008101809111611895574210613f2e5780600052601160205260ff6040600020541615613f07575b81546001600160a01b031680613e54575080600052601560205260406000205491613d918315156153eb565b600080808086335af1613da2615443565b5015613df257613de860008051602061676d83398151915291836000526015602052600060408120555b546040516001600160a01b039091169490918291339083614d06565b0390a36001600255005b60405162461bcd60e51b815260206004820152603460248201527f43726f7373776f7264426f6172643a206e61746976652043454c4f207265636f6044820152731d995c9e481d1c985b9cd9995c8819985a5b195960621b6064820152608490fd5b91600080600383019081549160048501915b838110613ea7575050505081613ea2613e95613de893600160008051602061676d8339815191529601546153de565b809661226e8215156153eb565b613dcc565b60ff6040613eb58385614871565b50546001600160a01b031660009081526020869052205416613eda575b600101613e66565b93613eff600191612710613ef8848a015461216f8a60028d016145c9565b0490614b78565b949050613ed2565b613f10816153a5565b8060005260116020526040600020600160ff19825416179055613d65565b60405162461bcd60e51b815260206004820152602b60248201527f43726f7373776f7264426f6172643a207265636f766572792077696e646f772060448201526a1b9bdd08195b185c1cd95960aa1b6064820152608490fd5b60405162461bcd60e51b815260206004820152602760248201526000805160206166ed8339815191526044820152661d1a5d985d195960ca1b6064820152608490fd5b506005820154613d30565b3461041057602036600319011261041057613fee615c8a565b61001c600435615da5565b3461041057602036600319011261041057600435614015615c8a565b61401d615d68565b80600052600a602052604060002090600782019160ff83541692600384101561412757600284146140f5576001600094146140b05781546001600160a01b03161561408f575b600160ff198254161790556005429101556000805160206165ad8339815191526020604051428152a280f35b82845260156020526140ab604085205460018401541115615334565b614063565b60405162461bcd60e51b815260206004820152601e60248201527f43726f7373776f7264426f6172643a20616c72656164792061637469766500006044820152606490fd5b606460405162461bcd60e51b8152602060048201526020602482015260008051602061668d8339815191526044820152fd5b634e487b7160e01b600052602160045260246000fd5b34610410576060366003190112610410576004356024356001600160401b0381116104105761417090369060040161445d565b906044359161417d615c8a565b614185615d85565b61418d615d68565b614199815115156151f0565b6141a4831515615253565b6141b1600a8411156152ba565b60078290558051926001600160401b038411610e75576141d6846113c96008546145e1565b602093601f811160011461421a576116b592916113f7826133dd9360008051602061674d833981519152979860009161420f5750614cf3565b9050850151896113f1565b601f1981166008600052856000209060005b81811061427e5750826116b595949260008051602061674d83398151915297986133dd9560019410614265575050811b016008556113fb565b86015160001960f88460031b161c1916905588806118e8565b8588015183556020978801976001909301920161422c565b346104105760206139a66142a936614548565b916151aa565b346104105760203660031901126104105760043563ffffffff60e01b811680910361041057602090637965db0b60e01b81149081156142f4575b506040519015158152f35b6301ffc9a760e01b149050826142e9565b60e0366003190112610410576024356001600160401b0381116104105761433090369060040161445d565b6044356001600160401b0381116104105761434f90369060040161445d565b6064356001600160401b0381116104105761436e90369060040161445d565b60a435926001600160401b0384116104105761439161001c943690600401614492565b9161439a615c8a565b6143a2615d68565b60c4359360843592600435614d1f565b608081019081106001600160401b03821117610e7557604052565b606081019081106001600160401b03821117610e7557604052565b601f909101601f19168101906001600160401b03821190821017610e7557604052565b6001600160401b038111610e7557601f01601f191660200190565b9291926144328261440b565b9161444060405193846143e8565b829481845281830111610410578281602093846000960137010152565b9080601f830112156104105781602061447893359101614426565b90565b6001600160401b038111610e755760051b60200190565b9080601f830112156104105781356144a98161447b565b926144b760405194856143e8565b81845260208085019260051b82010192831161041057602001905b8282106144df5750505090565b81358152602091820191016144d2565b600435906001600160a01b038216820361041057565b602435906001600160a01b038216820361041057565b9181601f84011215610410578235916001600160401b038311610410576020838186019501011161041057565b604060031982011261041057600435906001600160401b038211610410576145729160040161451b565b909160243590565b3461041057600036600319011261041057602060405162278d008152f35b6013548110156145b357601360005260206000200190600090565b634e487b7160e01b600052603260045260246000fd5b80548210156145b35760005260206000200190600090565b90600182811c92168015614611575b60208310146145fb57565b634e487b7160e01b600052602260045260246000fd5b91607f16916145f0565b604051906000826008549161462f836145e1565b80835292600181169081156146a35750600114614655575b614653925003836143e8565b565b5060086000908152909160008051602061664d8339815191525b81831061468757505090602061465392820101614647565b602091935080600191548385890101520191019091849261466f565b6020925061465394915060ff191682840152151560051b820101614647565b90604051918260008254926146d6846145e1565b808452936001811690811561474257506001146146fb575b50614653925003836143e8565b90506000929192526020600020906000915b81831061472657505090602061465392820101386146ee565b602091935080600191548385890101520191019091849261470d565b90506020925061465394915060ff191682840152151560051b820101386146ee565b60005b8381106147775750506000910152565b8181015183820152602001614767565b906020916147a081518092818552858086019101614764565b601f01601f1916010190565b9493926147d86060936147ca6147e69460808a5260808a0190614787565b9088820360208a0152614787565b908682036040880152614787565b930152565b604060031982011261041057600435906001600160401b038211610410576148159160040161451b565b909160243580151581036104105790565b604051906148356040836143e8565b600b82526a6d61785f77696e6e65727360a81b6020830152565b80516001600160a01b0316825260208082015190830152604090810151910152565b80548210156145b3576000526003602060002091020190600090565b6040519061489c6040836143e8565b6013825272686f6d655f627574746f6e5f76697369626c6560681b6020830152565b9060038210156141275752565b156148d257565b60405162461bcd60e51b815260206004820152603060248201527f43726f7373776f7264426f6172643a2073656e742076616c7565206d7573742060448201526f1b585d18da081c1c9a5e99481c1bdbdb60821b6064820152608490fd5b1561493757565b60405162461bcd60e51b815260206004820152603160248201527f43726f7373776f7264426f6172643a207072697a6520706f6f6c206d75737420604482015270062652067726561746572207468616e203607c1b6064820152608490fd5b1561499d57565b606460405162461bcd60e51b815260206004820152602060248201527f43726f7373776f7264426f6172643a2077696e6e6572732072657175697265646044820152fd5b156149e857565b606460405162461bcd60e51b815260206004820152602060248201527f43726f7373776f7264426f6172643a20746f6f206d616e792077696e6e6572736044820152fd5b15614a3357565b60405162461bcd60e51b815260206004820152603060248201527f43726f7373776f7264426f6172643a207072697a6520706f6f6c20746f6f207360448201526f6d616c6c20666f722077696e6e65727360801b6064820152608490fd5b80518210156145b35760209160051b010190565b15614aac57565b60405162461bcd60e51b815260206004820152603860248201527f43726f7373776f7264426f6172643a2077696e6e65722070657263656e746167604482015277065206d7573742062652067726561746572207468616e20360441b6064820152608490fd5b15614b1957565b60405162461bcd60e51b815260206004820152603160248201527f43726f7373776f7264426f6172643a2073696e676c652077696e6e65722070656044820152700e4c6cadce8c2ceca40e8dede40d0d2ced607b1b6064820152608490fd5b9190820180921161189557565b15614b8c57565b60405162461bcd60e51b815260206004820152602d60248201527f43726f7373776f7264426f6172643a20746f74616c2070657263656e7461676560448201526c2065786365656473203130302560981b6064820152608490fd5b15614bee57565b60405162461bcd60e51b815260206004820152602e60248201527f43726f7373776f7264426f6172643a20656e642074696d6520746f6f2066617260448201526d20696e207468652066757475726560901b6064820152608490fd5b8181029291811591840414171561189557565b818110614c68575050565b60008155600101614c5d565b90601f8211614c81575050565b6146539160086000526020600020906020601f840160051c83019310614caf575b601f0160051c0190614c5d565b9091508190614ca2565b9190601f8111614cc857505050565b614653926000526020600020906020601f840160051c83019310614caf57601f0160051c0190614c5d565b8160011b916000199060031b1c19161790565b9081526001600160a01b03909116602082015260400190565b9290969391614d2f8334146148cb565b60008052600b6020527fdf7de25b7f1fd6d0b5205f0e18f1f35bd7b8d84cce336588d184533ce43a6f765460ff161561515557614d6d831515614930565b614d7986511515614996565b614d888651600c5410156149e1565b614d958651841015614a2c565b600097885b87518a1015614dc957614dc1600191611498611f406114908e61148a6114828f8390614a91565b990198614d9a565b614de29193969950612710909892949795981115614b85565b80615137575b6000878152600a6020526040902080546001600160a01b0319168155600181018790558451909460028601906001600160401b038311610e7557600160401b8311610e7557602090825484845580851061511a575b500190600052602060002060005b8381106151065750505050600684015560078301805460ff1916600117905542600584018190556008840155600060098401558051600a8401916001600160401b038211610e7557614ea182610d1a85546145e1565b602090601f831160011461509f57614ec3929160009183614faa575050614cf3565b90555b8051600b8301916001600160401b038211610e7557614ee982610d1a85546145e1565b602090601f8311600114615034579180614f1092600c969594600092614faa575050614cf3565b90555b82519101906001600160401b038111610e75578492614f3682610d1a85546145e1565b602090601f8311600114614fb55792614f6e83614f8d946000989460008051602061672d833981519152978a92614faa575050614cf3565b90555b8385526015602052806040862055604051918291339083614d06565b0390a36000805160206165ad8339815191526020604051428152a2565b015190503880610cec565b90601f1983169184600052816000209260005b8181106150195750936000979360008051602061672d833981519152969360019383614f8d9810615001575b505050811b019055614f71565b0151891960f88460031b161c19169055388080614ff4565b82840151855589975060019094019360209384019301614fc8565b90601f1983169184600052816000209260005b8181106150875750916001939185600c989796941061506e575b505050811b019055614f13565b015160001960f88460031b161c19169055388080615061565b92936020600181928786015181550195019301615047565b90601f1983169184600052816000209260005b8181106150ee57509084600195949392106150d5575b505050811b019055614ec6565b015160001960f88460031b161c191690553880806150c8565b929360206001819287860151815501950193016150b2565b600190602084519401938184015501614e4b565b615131908460005285846000209182019101614c5d565b38614e3d565b62278d0042018042116118955761515090821115614be7565b614de8565b60405162461bcd60e51b815260206004820152602760248201527f43726f7373776f7264426f6172643a206e61746976652043454c4f206e6f7420604482015266185b1b1bddd95960ca1b6064820152608490fd5b90916151ca604051848482376020818681016004815203019020546145e1565b156151ea5750602090826040519384928337810160068152030190205490565b91505090565b156151f757565b60405162461bcd60e51b815260206004820152602e60248201527f43726f7373776f7264426f6172643a2063726f7373776f72642064617461206360448201526d616e6e6f7420626520656d70747960901b6064820152608490fd5b1561525a57565b60405162461bcd60e51b815260206004820152603260248201527f43726f7373776f7264426f6172643a206d61782077696e6e657273206d75737460448201527102062652067726561746572207468616e20360741b6064820152608490fd5b156152c157565b60405162461bcd60e51b815260206004820152602f602482015260008051602061678d83398151915260448201526e0656473206c696d6974206f6620313608c1b6064820152608490fd5b90615324602091949394604084526040840190614787565b6001600160a01b03909416910152565b1561533b57565b60405162461bcd60e51b815260206004820152603c60248201527f43726f7373776f7264426f6172643a20696e73756666696369656e742043454c60448201527b13c818985b185b98d948199bdc881d1a1a5cc818dc9bdcdcdddbdc9960221b6064820152608490fd5b601054600160401b811015610e75578060016153c6920160105560106145c9565b819291549060031b91821b91600019901b1916179055565b9190820391821161189557565b156153f257565b60405162461bcd60e51b815260206004820152602360248201527f43726f7373776f7264426f6172643a206e6f2066756e647320746f207265636f6044820152623b32b960e91b6064820152608490fd5b3d1561546e573d906154548261440b565b9161546260405193846143e8565b82523d6000602084013e565b606090565b600052600160205260016040600020015490565b916154a6604051838582376020818581016004815203019020546145e1565b156151ea5750602060ff9282604051938492833781016005815203019020541690565b6154e190602060405192828480945193849201614764565b810103902090565b906040516154f6816143cd565b82546001600160a01b03168152600183015460208201526002909201546040830152565b1561552157565b60405162461bcd60e51b815260206004820152603a60248201527f43726f7373776f7264426f6172643a206e6f207072697a6520706f6f6c206176604482015279185a5b18589b1948199bdc881d1a1a5cc818dc9bdcdcdddbdc9960321b6064820152608490fd5b1561559057565b60405162461bcd60e51b815260206004820152603760248201527f43726f7373776f7264426f6172643a20696e73756666696369656e7420746f6b604482015276656e2062616c616e636520746f20706179207072697a6560481b6064820152608490fd5b156155fc57565b60405162461bcd60e51b815260206004820152602b60248201527f43726f7373776f7264426f6172643a206e61746976652043454c4f207472616e60448201526a1cd9995c8819985a5b195960aa1b6064820152608490fd5b1561565c57565b60405162461bcd60e51b815260206004820152603660248201527f43726f7373776f7264426f6172643a20746f6b656e2063616e6e6f742062652060448201527507a65726f206164647265737320666f722045524332360541b6064820152608490fd5b156156c757565b60405162461bcd60e51b815260206004820152602160248201527f43726f7373776f7264426f6172643a20746f6b656e206e6f7420616c6c6f77656044820152601960fa1b6064820152608490fd5b919061575057805182546001600160a01b0319166001600160a01b0391909116178255602081015160018301556040015160029190910155565b634e487b7160e01b600052600060045260246000fd5b1561576d57565b60405162461bcd60e51b8152602060048201526029602482015260008051602061678d83398151915260448201526819591cc81b1a5b5a5d60ba1b6064820152608490fd5b80549190600160401b831015610e755782610c5b91600161465395018155614871565b80600052600a6020526040600020600781019260ff845416600381101561412757600103615c1d576001600160a01b038116938415615bc45783600052600e60205260406000208560005260205260ff6040600020541615615b615760018301916158428354151561551a565b600684015480615b10575b5060038401938454926002820180548510801590615b04575b615af657876000526014602052604060002089600052602052604060002054615af657600185019586861161189557615904612710916158c06040516158ab816143cd565b8d81524260208201528a60408201528b6157b2565b8a600052601460205260406000208c600052602052886040600020558b600052600486016020526040600020600160ff198254161790555461216f600098856145c9565b845491900497906001600160a01b03161580615aed575b615ad7575b549054811090811591615aca575b50615a7e575b5084615961575b50505060008051602061660d8339815191529160409182519182526020820152a3600190565b546001600160a01b0316806159cf5750916040826159b0818080808a879a8d60008051602061660d8339815191529d9b5260156020526159a6828a8520541015615334565b5af16121e9615443565b8681526015602052206159c48382546153de565b90555b91819361593b565b90916040516370a0823160e01b8152306004820152602081602481865afa918215615a72578092615a2c575b505084809360409593615a2260008051602061660d83398151915298615a27951015615589565b615dc2565b6159c7565b9091506020823d602011615a6a575b81615a48602093836143e8565b81010312615a675750518460008051602061660d8339815191526159fb565b80fd5b3d9150615a3b565b604051903d90823e3d90fd5b805460ff191660021790558583526011602052604083205460ff1615615aa5575b38615934565b615aae866153a5565b858352601160205260408320805460ff19166001179055615a9f565b9050600c5411153861592e565b60098401615ae6898254614b78565b9055615920565b5087151561591b565b505050505050505050600090565b50600c54851015615866565b4211615b1c573861584d565b60405162461bcd60e51b815260206004820152601f60248201527f43726f7373776f7264426f6172643a20646561646c696e6520706173736564006044820152606490fd5b60405162461bcd60e51b815260206004820152603560248201527f43726f7373776f7264426f6172643a207573657220686173206e6f7420636f6d6044820152741c1b195d1959081d1a1a5cc818dc9bdcdcdddbdc99605a1b6064820152608490fd5b60405162461bcd60e51b815260206004820152602b60248201527f43726f7373776f7264426f6172643a207573657220616464726573732063616e60448201526a6e6f74206265207a65726f60a81b6064820152608490fd5b60405162461bcd60e51b8152602060048201526024808201526000805160206166ed8339815191526044820152637469766560e01b6064820152608490fd5b6040513481527fedd7fd210c5046985d2cac8bd79b331beb7816848ac1f52930622cb31d9a14fd60203392a2565b33600090815260008051602061666d833981519152602052604090205460ff1615615cb157565b63e2517d3f60e01b600052336004526000805160206166cd83398151915260245260446000fd5b3360009081527fa6eef7e35abe7026729641147f7915573c7e97b47efa546f5f6e3230263bcb49602052604090205460ff1615615d1157565b63e2517d3f60e01b60005233600452600060245260446000fd5b600081815260016020908152604080832033845290915290205460ff1615615d505750565b63e2517d3f60e01b6000523360045260245260446000fd5b60ff60035416615d7457565b63d93c066560e01b60005260046000fd5b6002805414615d945760028055565b633ee5aeb560e01b60005260046000fd5b615db0811515615253565b615dbd600a821115615766565b600c55565b60405163a9059cbb60e01b60208201526001600160a01b03909216602483015260448083019390935291815261465391615dfd6064836143e8565b616404565b6000546001600160a01b03163303615e1657565b63118cdaa760e01b6000523360045260246000fd5b60008181526001602090815260408083206001600160a01b038616845290915290205460ff16615eb35760008181526001602081815260408084206001600160a01b0396909616808552959091528220805460ff19169091179055339291907f2f8788117e7eff1d82e926ec794901d17c78024a50270940304540a733656f0d9080a4600190565b5050600090565b60008181526001602090815260408083206001600160a01b038616845290915290205460ff1615615eb35760008181526001602090815260408083206001600160a01b0395909516808452949091528120805460ff19169055339291907ff6391f5c32d9c69d2a47ea670b442974b53935d1edc7fd64eb21e047a839171b9080a4600190565b6040516323b872dd60e01b60208201526001600160a01b03928316602482015292909116604483015260648083019390935291815261465391615dfd6084836143e8565b80600052600a60205260406000206007810160ff8154166003811015614127576001036163fb576001600160a01b0384169384156163f15760018301928354156163dc57600681015480151590816163e7575b506163dc5760038101938454926002830194855485108015906163d0575b615af657876000526014602052604060002089600052602052604060002054615af657600185019586861161189557616048604051616033816143cd565b8b8152426020820152886040820152896157b2565b88600052601460205260406000208a6000526020528660406000205561271061609460048701958c600052866020526040600020600160ff198254161790555461216f600099856145c9565b865491900498906001600160a01b031615806163c7575b6163b1575b5490548110908115916163a4575b50616358575b50856160d8575b5050505050505050600190565b82546001600160a01b03168061624757508684526015602052604084205486116161d0578380808881945af161610c615443565b50156161585750509160409182848660008051602061660d833981519152965260156020522061613d8382546153de565b905582519182526020820152a35b38808080808080806160cb565b608093509060408360099360008051602061670d8339815191529795508982526020522060ff198154169055016161908282546153de565b905560405190815260406020820152601b60408201527a13985d1a5d994810d15313c81d1c985b9cd9995c8819985a5b1959602a1b6060820152a361614b565b50608093509060408360099360008051602061670d8339815191529795508982526020522060ff198154169055016162098282546153de565b9055604051908152604060208201526019604082015278496e73756666696369656e742043454c4f2062616c616e636560381b6060820152a361614b565b925092906040516370a0823160e01b8152306004820152602081602481875afa90811561634d579087918491616314575b50106162ae5750509161629e8460008051602061660d8339815191529593604095615dc2565b82519182526020820152a361614b565b6080945060008051602061670d833981519152959350604092508782526020522060ff19815416905560405190815260406020820152601a604082015279496e73756666696369656e7420746f6b656e2062616c616e636560301b6060820152a361614b565b9150506020813d602011616345575b81616330602093836143e8565b810103126163415786905138616278565b8280fd5b3d9150616323565b6040513d85823e3d90fd5b805460ff191660021790558684526011602052604084205460ff161561637f575b386160c4565b616388876153a5565b868452601160205260408420805460ff19166001179055616379565b9050600c541115386160be565b600986016163c08a8254614b78565b90556160b0565b508815156160ab565b50600c54851015615ff5565b505050505050600090565b9050421138615fd7565b5050505050600090565b50505050600090565b906000602091828151910182855af1156122b1576000513d61645657506001600160a01b0381163b155b6164355750565b635274afe760e01b60009081526001600160a01b0391909116600452602490fd5b6001141561642e565b81519190604183036164905761648992506020820151906060604084015193015160001a9061650d565b9192909190565b505060009160029190565b919091600481101561412757806164b157509050565b6000600182036164cc5763f645eedf60e01b60005260046000fd5b50600281036164ea578263fce698f760e01b60005260045260246000fd5b90916003600092146164fa575050565b6335e2f38360e21b825260045260249150fd5b91906fa2a8918ca85bafe22016d0b997e4df60600160ff1b038411616580579160209360809260ff60009560405194855216868401526040830152606082015282805260015afa156122b1576000516001600160a01b038116156165745790600090600090565b50600090600190600090565b5050506000916003919056fe57c29d32ec7b521a5d75ec035d2d273f057236f3208adad274595741578e669c866c1294f23fc719c565ed4c7188b24e3e7bccde328f0b50425b902bf19bc83d681618a84b9cb0b8f2ea06632833deb3c57b6cfefca48e98f728692e31a6703897667070c54ef182b0f5858b034beac1b6f3089aa2d3188bb1e8929f4fa9b9290842894bd3663e1d874d069f4495d64331ee07871e8fa4e159ae698421912c908be0079c531659141344cd1fd0a4f28419497f9722a3daafe3b4186f6b6457e0f3f7a9fe364faab93b216da50a3214154f22a0a2b415b23a84c8169e8b636ee350efbde2d46c37e9785f1791697f77e94bb7b701e19f1930a668820722d3769443726f7373776f7264426f6172643a20616c726561647920636f6d706c657465a049c6f94cd0991772bade0e541db8e7acdf1add8c3df2d63b318499b7751288a49807205ce4d355092ef5a8a18f56e8913cf4a201fbe287825b095693c2177543726f7373776f7264426f6172643a2063726f7373776f7264206e6f742061635371e4fa1d9f0e3c6b83c7a9cdca6238a5ec6a25565a40f43c7955dae372c7750fee001940c4884b8fa17931fc404ceb7673af8459a49404e484d47be2f0bcc01fcbf8c050c3ad4a9a3d6c5ca8f983e2e64047546e28251a7cc5a80daae27e734f9dbc6a445a64ff84ec788dbb2b2882a37630c9397338d10c7568bc438d102343726f7373776f7264426f6172643a206d61782077696e6e6572732065786365a2646970667358221220c37eddfd942d2af081c8badeb8a2d8e0536d14f128b2a186535ff47e1b7f2cbf64736f6c634300081c00332f8788117e7eff1d82e926ec794901d17c78024a50270940304540a733656f0da6eef7e35abe7026729641147f7915573c7e97b47efa546f5f6e3230263bcb4931c1e66639f421f1853aeefe8ad6b62a3b96f3287efe23106923cd924aa025c250efbde2d46c37e9785f1791697f77e94bb7b701e19f1930a668820722d37694",
  "linkReferences": {},
  "deployedLinkReferences": {}
}