{
  "_format": "hh-sol-artifact-1",
  "contractName": "CrosswordBoard",
  "sourceName": "contracts/CrosswordBoard.sol",
  "abi": [
    {
      "inputs": [
        {
          "internalType": "address",
          "name": "initialOwner",
          "type": "address"
        }
      ],
      "stateMutability": "nonpayable",
      "type": "constructor"
    },
    {
      "inputs": [],
      "name": "AccessControlBadConfirmation",
      "type": "error"
    },
    {
      "inputs": [
        {
          "internalType": "address",
          "name": "account",
          "type": "address"
        },
        {
          "internalType": "bytes32",
          "name": "neededRole",
          "type": "bytes32"
        }
      ],
      "name": "AccessControlUnauthorizedAccount",
      "type": "error"
    },
    {
      "inputs": [],
      "name": "EnforcedPause",
      "type": "error"
    },
    {
      "inputs": [],
      "name": "ExpectedPause",
      "type": "error"
    },
    {
      "inputs": [
        {
          "internalType": "address",
          "name": "owner",
          "type": "address"
        }
      ],
      "name": "OwnableInvalidOwner",
      "type": "error"
    },
    {
      "inputs": [
        {
          "internalType": "address",
          "name": "account",
          "type": "address"
        }
      ],
      "name": "OwnableUnauthorizedAccount",
      "type": "error"
    },
    {
      "inputs": [],
      "name": "ReentrancyGuardReentrantCall",
      "type": "error"
    },
    {
      "inputs": [
        {
          "internalType": "address",
          "name": "token",
          "type": "address"
        }
      ],
      "name": "SafeERC20FailedOperation",
      "type": "error"
    },
    {
      "anonymous": false,
      "inputs": [
        {
          "indexed": true,
          "internalType": "address",
          "name": "admin",
          "type": "address"
        },
        {
          "indexed": false,
          "internalType": "address",
          "name": "addedBy",
          "type": "address"
        }
      ],
      "name": "AdminAdded",
      "type": "event"
    },
    {
      "anonymous": false,
      "inputs": [
        {
          "indexed": true,
          "internalType": "address",
          "name": "admin",
          "type": "address"
        },
        {
          "indexed": false,
          "internalType": "address",
          "name": "removedBy",
          "type": "address"
        }
      ],
      "name": "AdminRemoved",
      "type": "event"
    },
    {
      "anonymous": false,
      "inputs": [
        {
          "indexed": true,
          "internalType": "string",
          "name": "key",
          "type": "string"
        },
        {
          "indexed": false,
          "internalType": "bool",
          "name": "value",
          "type": "bool"
        },
        {
          "indexed": false,
          "internalType": "address",
          "name": "setter",
          "type": "address"
        }
      ],
      "name": "ConfigBoolSet",
      "type": "event"
    },
    {
      "anonymous": false,
      "inputs": [
        {
          "indexed": true,
          "internalType": "string",
          "name": "key",
          "type": "string"
        },
        {
          "indexed": false,
          "internalType": "string",
          "name": "value",
          "type": "string"
        },
        {
          "indexed": false,
          "internalType": "address",
          "name": "setter",
          "type": "address"
        }
      ],
      "name": "ConfigSet",
      "type": "event"
    },
    {
      "anonymous": false,
      "inputs": [
        {
          "indexed": true,
          "internalType": "string",
          "name": "key",
          "type": "string"
        },
        {
          "indexed": false,
          "internalType": "uint256",
          "name": "value",
          "type": "uint256"
        },
        {
          "indexed": false,
          "internalType": "address",
          "name": "setter",
          "type": "address"
        }
      ],
      "name": "ConfigUIntSet",
      "type": "event"
    },
    {
      "anonymous": false,
      "inputs": [
        {
          "indexed": true,
          "internalType": "bytes32",
          "name": "crosswordId",
          "type": "bytes32"
        },
        {
          "indexed": false,
          "internalType": "uint256",
          "name": "activationTime",
          "type": "uint256"
        }
      ],
      "name": "CrosswordActivated",
      "type": "event"
    },
    {
      "anonymous": false,
      "inputs": [
        {
          "indexed": true,
          "internalType": "bytes32",
          "name": "crosswordId",
          "type": "bytes32"
        },
        {
          "indexed": true,
          "internalType": "address",
          "name": "user",
          "type": "address"
        },
        {
          "indexed": false,
          "internalType": "uint256",
          "name": "timestamp",
          "type": "uint256"
        },
        {
          "indexed": false,
          "internalType": "uint256",
          "name": "durationMs",
          "type": "uint256"
        }
      ],
      "name": "CrosswordCompleted",
      "type": "event"
    },
    {
      "anonymous": false,
      "inputs": [
        {
          "indexed": true,
          "internalType": "bytes32",
          "name": "crosswordId",
          "type": "bytes32"
        },
        {
          "indexed": true,
          "internalType": "address",
          "name": "token",
          "type": "address"
        },
        {
          "indexed": false,
          "internalType": "uint256",
          "name": "prizePool",
          "type": "uint256"
        },
        {
          "indexed": false,
          "internalType": "address",
          "name": "creator",
          "type": "address"
        }
      ],
      "name": "CrosswordCreated",
      "type": "event"
    },
    {
      "anonymous": false,
      "inputs": [
        {
          "indexed": true,
          "internalType": "bytes32",
          "name": "crosswordId",
          "type": "bytes32"
        },
        {
          "indexed": false,
          "internalType": "string",
          "name": "crosswordData",
          "type": "string"
        },
        {
          "indexed": false,
          "internalType": "address",
          "name": "updatedBy",
          "type": "address"
        }
      ],
      "name": "CrosswordUpdated",
      "type": "event"
    },
    {
      "anonymous": false,
      "inputs": [
        {
          "indexed": true,
          "internalType": "address",
          "name": "sender",
          "type": "address"
        },
        {
          "indexed": false,
          "internalType": "uint256",
          "name": "amount",
          "type": "uint256"
        }
      ],
      "name": "NativeCeloReceived",
      "type": "event"
    },
    {
      "anonymous": false,
      "inputs": [
        {
          "indexed": true,
          "internalType": "address",
          "name": "previousOwner",
          "type": "address"
        },
        {
          "indexed": true,
          "internalType": "address",
          "name": "newOwner",
          "type": "address"
        }
      ],
      "name": "OwnershipTransferred",
      "type": "event"
    },
    {
      "anonymous": false,
      "inputs": [
        {
          "indexed": false,
          "internalType": "address",
          "name": "account",
          "type": "address"
        }
      ],
      "name": "Paused",
      "type": "event"
    },
    {
      "anonymous": false,
      "inputs": [
        {
          "indexed": true,
          "internalType": "bytes32",
          "name": "crosswordId",
          "type": "bytes32"
        },
        {
          "indexed": true,
          "internalType": "address",
          "name": "winner",
          "type": "address"
        },
        {
          "indexed": false,
          "internalType": "uint256",
          "name": "amount",
          "type": "uint256"
        },
        {
          "indexed": false,
          "internalType": "uint256",
          "name": "rank",
          "type": "uint256"
        }
      ],
      "name": "PrizeDistributed",
      "type": "event"
    },
    {
      "anonymous": false,
      "inputs": [
        {
          "indexed": true,
          "internalType": "bytes32",
          "name": "role",
          "type": "bytes32"
        },
        {
          "indexed": true,
          "internalType": "bytes32",
          "name": "previousAdminRole",
          "type": "bytes32"
        },
        {
          "indexed": true,
          "internalType": "bytes32",
          "name": "newAdminRole",
          "type": "bytes32"
        }
      ],
      "name": "RoleAdminChanged",
      "type": "event"
    },
    {
      "anonymous": false,
      "inputs": [
        {
          "indexed": true,
          "internalType": "bytes32",
          "name": "role",
          "type": "bytes32"
        },
        {
          "indexed": true,
          "internalType": "address",
          "name": "account",
          "type": "address"
        },
        {
          "indexed": true,
          "internalType": "address",
          "name": "sender",
          "type": "address"
        }
      ],
      "name": "RoleGranted",
      "type": "event"
    },
    {
      "anonymous": false,
      "inputs": [
        {
          "indexed": true,
          "internalType": "bytes32",
          "name": "role",
          "type": "bytes32"
        },
        {
          "indexed": true,
          "internalType": "address",
          "name": "account",
          "type": "address"
        },
        {
          "indexed": true,
          "internalType": "address",
          "name": "sender",
          "type": "address"
        }
      ],
      "name": "RoleRevoked",
      "type": "event"
    },
    {
      "anonymous": false,
      "inputs": [
        {
          "indexed": true,
          "internalType": "address",
          "name": "token",
          "type": "address"
        },
        {
          "indexed": false,
          "internalType": "bool",
          "name": "allowed",
          "type": "bool"
        }
      ],
      "name": "TokenAllowed",
      "type": "event"
    },
    {
      "anonymous": false,
      "inputs": [
        {
          "indexed": true,
          "internalType": "bytes32",
          "name": "crosswordId",
          "type": "bytes32"
        },
        {
          "indexed": true,
          "internalType": "address",
          "name": "token",
          "type": "address"
        },
        {
          "indexed": false,
          "internalType": "uint256",
          "name": "amount",
          "type": "uint256"
        },
        {
          "indexed": false,
          "internalType": "address",
          "name": "recoveredBy",
          "type": "address"
        }
      ],
      "name": "UnclaimedPrizesRecovered",
      "type": "event"
    },
    {
      "anonymous": false,
      "inputs": [
        {
          "indexed": false,
          "internalType": "address",
          "name": "account",
          "type": "address"
        }
      ],
      "name": "Unpaused",
      "type": "event"
    },
    {
      "stateMutability": "payable",
      "type": "fallback"
    },
    {
      "inputs": [],
      "name": "ADMIN_ROLE",
      "outputs": [
        {
          "internalType": "bytes32",
          "name": "",
          "type": "bytes32"
        }
      ],
      "stateMutability": "view",
      "type": "function"
    },
    {
      "inputs": [],
      "name": "DEFAULT_ADMIN_ROLE",
      "outputs": [
        {
          "internalType": "bytes32",
          "name": "",
          "type": "bytes32"
        }
      ],
      "stateMutability": "view",
      "type": "function"
    },
    {
      "inputs": [],
      "name": "HOME_BUTTON_VISIBLE",
      "outputs": [
        {
          "internalType": "string",
          "name": "",
          "type": "string"
        }
      ],
      "stateMutability": "view",
      "type": "function"
    },
    {
      "inputs": [],
      "name": "MAX_CONFIGURABLE_WINNERS",
      "outputs": [
        {
          "internalType": "uint256",
          "name": "",
          "type": "uint256"
        }
      ],
      "stateMutability": "view",
      "type": "function"
    },
    {
      "inputs": [],
      "name": "MAX_END_TIME",
      "outputs": [
        {
          "internalType": "uint256",
          "name": "",
          "type": "uint256"
        }
      ],
      "stateMutability": "view",
      "type": "function"
    },
    {
      "inputs": [],
      "name": "MAX_PERCENTAGE",
      "outputs": [
        {
          "internalType": "uint256",
          "name": "",
          "type": "uint256"
        }
      ],
      "stateMutability": "view",
      "type": "function"
    },
    {
      "inputs": [],
      "name": "MAX_SINGLE_WINNER_PERCENTAGE",
      "outputs": [
        {
          "internalType": "uint256",
          "name": "",
          "type": "uint256"
        }
      ],
      "stateMutability": "view",
      "type": "function"
    },
    {
      "inputs": [],
      "name": "MAX_WINNERS_CONFIG",
      "outputs": [
        {
          "internalType": "string",
          "name": "",
          "type": "string"
        }
      ],
      "stateMutability": "view",
      "type": "function"
    },
    {
      "inputs": [],
      "name": "OPERATOR_ROLE",
      "outputs": [
        {
          "internalType": "bytes32",
          "name": "",
          "type": "bytes32"
        }
      ],
      "stateMutability": "view",
      "type": "function"
    },
    {
      "inputs": [],
      "name": "RECOVERY_WINDOW",
      "outputs": [
        {
          "internalType": "uint256",
          "name": "",
          "type": "uint256"
        }
      ],
      "stateMutability": "view",
      "type": "function"
    },
    {
      "inputs": [
        {
          "internalType": "bytes32",
          "name": "crosswordId",
          "type": "bytes32"
        }
      ],
      "name": "activateCrossword",
      "outputs": [],
      "stateMutability": "nonpayable",
      "type": "function"
    },
    {
      "inputs": [
        {
          "internalType": "address",
          "name": "newAdmin",
          "type": "address"
        }
      ],
      "name": "addAdmin",
      "outputs": [],
      "stateMutability": "nonpayable",
      "type": "function"
    },
    {
      "inputs": [
        {
          "internalType": "uint256",
          "name": "",
          "type": "uint256"
        }
      ],
      "name": "admins",
      "outputs": [
        {
          "internalType": "address",
          "name": "",
          "type": "address"
        }
      ],
      "stateMutability": "view",
      "type": "function"
    },
    {
      "inputs": [
        {
          "internalType": "address",
          "name": "",
          "type": "address"
        }
      ],
      "name": "allowedTokens",
      "outputs": [
        {
          "internalType": "bool",
          "name": "",
          "type": "bool"
        }
      ],
      "stateMutability": "view",
      "type": "function"
    },
    {
      "inputs": [
        {
          "internalType": "bytes32",
          "name": "crosswordId",
          "type": "bytes32"
        }
      ],
      "name": "claimPrize",
      "outputs": [],
      "stateMutability": "nonpayable",
      "type": "function"
    },
    {
      "inputs": [
        {
          "internalType": "uint256",
          "name": "durationMs",
          "type": "uint256"
        },
        {
          "internalType": "string",
          "name": "username",
          "type": "string"
        },
        {
          "internalType": "string",
          "name": "displayName",
          "type": "string"
        },
        {
          "internalType": "string",
          "name": "pfpUrl",
          "type": "string"
        }
      ],
      "name": "completeCrossword",
      "outputs": [],
      "stateMutability": "nonpayable",
      "type": "function"
    },
    {
      "inputs": [
        {
          "internalType": "bytes32",
          "name": "crosswordId",
          "type": "bytes32"
        },
        {
          "internalType": "address",
          "name": "token",
          "type": "address"
        },
        {
          "internalType": "uint256",
          "name": "prizePool",
          "type": "uint256"
        },
        {
          "internalType": "uint256[]",
          "name": "winnerPercentages",
          "type": "uint256[]"
        },
        {
          "internalType": "uint256",
          "name": "endTime",
          "type": "uint256"
        }
      ],
      "name": "createCrossword",
      "outputs": [],
      "stateMutability": "nonpayable",
      "type": "function"
    },
    {
      "inputs": [
        {
          "internalType": "bytes32",
          "name": "crosswordId",
          "type": "bytes32"
        },
        {
          "internalType": "uint256",
          "name": "prizePool",
          "type": "uint256"
        },
        {
          "internalType": "uint256[]",
          "name": "winnerPercentages",
          "type": "uint256[]"
        },
        {
          "internalType": "uint256",
          "name": "endTime",
          "type": "uint256"
        }
      ],
      "name": "createCrosswordWithNativeCELO",
      "outputs": [],
      "stateMutability": "payable",
      "type": "function"
    },
    {
      "inputs": [
        {
          "internalType": "bytes32",
          "name": "crosswordId",
          "type": "bytes32"
        },
        {
          "internalType": "string",
          "name": "crosswordData",
          "type": "string"
        },
        {
          "internalType": "uint256",
          "name": "newMaxWinners",
          "type": "uint256"
        },
        {
          "internalType": "uint256",
          "name": "prizePool",
          "type": "uint256"
        },
        {
          "internalType": "uint256[]",
          "name": "winnerPercentages",
          "type": "uint256[]"
        },
        {
          "internalType": "uint256",
          "name": "endTime",
          "type": "uint256"
        }
      ],
      "name": "createCrosswordWithNativeCELOPrizePool",
      "outputs": [],
      "stateMutability": "payable",
      "type": "function"
    },
    {
      "inputs": [
        {
          "internalType": "bytes32",
          "name": "crosswordId",
          "type": "bytes32"
        },
        {
          "internalType": "string",
          "name": "crosswordData",
          "type": "string"
        },
        {
          "internalType": "uint256",
          "name": "newMaxWinners",
          "type": "uint256"
        },
        {
          "internalType": "address",
          "name": "token",
          "type": "address"
        },
        {
          "internalType": "uint256",
          "name": "prizePool",
          "type": "uint256"
        },
        {
          "internalType": "uint256[]",
          "name": "winnerPercentages",
          "type": "uint256[]"
        },
        {
          "internalType": "uint256",
          "name": "endTime",
          "type": "uint256"
        }
      ],
      "name": "createCrosswordWithPrizePool",
      "outputs": [],
      "stateMutability": "payable",
      "type": "function"
    },
    {
      "inputs": [
        {
          "internalType": "bytes32",
          "name": "",
          "type": "bytes32"
        },
        {
          "internalType": "uint256",
          "name": "",
          "type": "uint256"
        }
      ],
      "name": "crosswordCompletions",
      "outputs": [
        {
          "internalType": "address",
          "name": "user",
          "type": "address"
        },
        {
          "internalType": "uint256",
          "name": "completionTimestamp",
          "type": "uint256"
        },
        {
          "internalType": "uint256",
          "name": "durationMs",
          "type": "uint256"
        }
      ],
      "stateMutability": "view",
      "type": "function"
    },
    {
      "inputs": [
        {
          "internalType": "bytes32",
          "name": "",
          "type": "bytes32"
        }
      ],
      "name": "crosswords",
      "outputs": [
        {
          "internalType": "address",
          "name": "token",
          "type": "address"
        },
        {
          "internalType": "uint256",
          "name": "totalPrizePool",
          "type": "uint256"
        },
        {
          "internalType": "uint256",
          "name": "activationTime",
          "type": "uint256"
        },
        {
          "internalType": "uint256",
          "name": "endTime",
          "type": "uint256"
        },
        {
          "internalType": "enum CrosswordBoard.CrosswordState",
          "name": "state",
          "type": "uint8"
        },
        {
          "internalType": "uint256",
          "name": "createdAt",
          "type": "uint256"
        },
        {
          "internalType": "uint256",
          "name": "claimedAmount",
          "type": "uint256"
        }
      ],
      "stateMutability": "view",
      "type": "function"
    },
    {
      "inputs": [],
      "name": "currentCrosswordData",
      "outputs": [
        {
          "internalType": "string",
          "name": "",
          "type": "string"
        }
      ],
      "stateMutability": "view",
      "type": "function"
    },
    {
      "inputs": [],
      "name": "currentCrosswordId",
      "outputs": [
        {
          "internalType": "bytes32",
          "name": "",
          "type": "bytes32"
        }
      ],
      "stateMutability": "view",
      "type": "function"
    },
    {
      "inputs": [],
      "name": "emergencyClearCrossword",
      "outputs": [],
      "stateMutability": "nonpayable",
      "type": "function"
    },
    {
      "inputs": [],
      "name": "getAdmins",
      "outputs": [
        {
          "internalType": "address[]",
          "name": "",
          "type": "address[]"
        }
      ],
      "stateMutability": "view",
      "type": "function"
    },
    {
      "inputs": [
        {
          "internalType": "string",
          "name": "key",
          "type": "string"
        }
      ],
      "name": "getBoolConfig",
      "outputs": [
        {
          "internalType": "bool",
          "name": "",
          "type": "bool"
        }
      ],
      "stateMutability": "view",
      "type": "function"
    },
    {
      "inputs": [
        {
          "internalType": "string",
          "name": "key",
          "type": "string"
        },
        {
          "internalType": "bool",
          "name": "defaultValue",
          "type": "bool"
        }
      ],
      "name": "getBoolConfigWithDefault",
      "outputs": [
        {
          "internalType": "bool",
          "name": "",
          "type": "bool"
        }
      ],
      "stateMutability": "view",
      "type": "function"
    },
    {
      "inputs": [
        {
          "internalType": "bytes32",
          "name": "crosswordId",
          "type": "bytes32"
        }
      ],
      "name": "getCompletionsCount",
      "outputs": [
        {
          "internalType": "uint256",
          "name": "",
          "type": "uint256"
        }
      ],
      "stateMutability": "view",
      "type": "function"
    },
    {
      "inputs": [
        {
          "internalType": "bytes32",
          "name": "crosswordId",
          "type": "bytes32"
        }
      ],
      "name": "getCompletionsCountPrizes",
      "outputs": [
        {
          "internalType": "uint256",
          "name": "",
          "type": "uint256"
        }
      ],
      "stateMutability": "view",
      "type": "function"
    },
    {
      "inputs": [
        {
          "internalType": "bytes32",
          "name": "crosswordId",
          "type": "bytes32"
        }
      ],
      "name": "getCrosswordCompletions",
      "outputs": [
        {
          "components": [
            {
              "internalType": "address",
              "name": "user",
              "type": "address"
            },
            {
              "internalType": "uint256",
              "name": "completionTimestamp",
              "type": "uint256"
            },
            {
              "internalType": "uint256",
              "name": "durationMs",
              "type": "uint256"
            }
          ],
          "internalType": "struct CrosswordBoard.CrosswordCompletion[]",
          "name": "",
          "type": "tuple[]"
        }
      ],
      "stateMutability": "view",
      "type": "function"
    },
    {
      "inputs": [
        {
          "internalType": "bytes32",
          "name": "crosswordId",
          "type": "bytes32"
        }
      ],
      "name": "getCrosswordDetails",
      "outputs": [
        {
          "internalType": "address",
          "name": "token",
          "type": "address"
        },
        {
          "internalType": "uint256",
          "name": "totalPrizePool",
          "type": "uint256"
        },
        {
          "internalType": "uint256[]",
          "name": "winnerPercentages",
          "type": "uint256[]"
        },
        {
          "components": [
            {
              "internalType": "address",
              "name": "user",
              "type": "address"
            },
            {
              "internalType": "uint256",
              "name": "timestamp",
              "type": "uint256"
            },
            {
              "internalType": "uint256",
              "name": "rank",
              "type": "uint256"
            }
          ],
          "internalType": "struct CrosswordBoard.CompletionRecord[]",
          "name": "completions",
          "type": "tuple[]"
        },
        {
          "internalType": "uint256",
          "name": "activationTime",
          "type": "uint256"
        },
        {
          "internalType": "uint256",
          "name": "endTime",
          "type": "uint256"
        },
        {
          "internalType": "enum CrosswordBoard.CrosswordState",
          "name": "state",
          "type": "uint8"
        }
      ],
      "stateMutability": "view",
      "type": "function"
    },
    {
      "inputs": [],
      "name": "getCurrentCrossword",
      "outputs": [
        {
          "internalType": "bytes32",
          "name": "crosswordId",
          "type": "bytes32"
        },
        {
          "internalType": "string",
          "name": "crosswordData",
          "type": "string"
        },
        {
          "internalType": "uint256",
          "name": "updatedAt",
          "type": "uint256"
        }
      ],
      "stateMutability": "view",
      "type": "function"
    },
    {
      "inputs": [],
      "name": "getMaxWinners",
      "outputs": [
        {
          "internalType": "uint256",
          "name": "",
          "type": "uint256"
        }
      ],
      "stateMutability": "view",
      "type": "function"
    },
    {
      "inputs": [],
      "name": "getMaxWinnersConfig",
      "outputs": [
        {
          "internalType": "uint256",
          "name": "",
          "type": "uint256"
        }
      ],
      "stateMutability": "view",
      "type": "function"
    },
    {
      "inputs": [
        {
          "internalType": "bytes32",
          "name": "role",
          "type": "bytes32"
        }
      ],
      "name": "getRoleAdmin",
      "outputs": [
        {
          "internalType": "bytes32",
          "name": "",
          "type": "bytes32"
        }
      ],
      "stateMutability": "view",
      "type": "function"
    },
    {
      "inputs": [
        {
          "internalType": "string",
          "name": "key",
          "type": "string"
        }
      ],
      "name": "getStringConfig",
      "outputs": [
        {
          "internalType": "string",
          "name": "",
          "type": "string"
        }
      ],
      "stateMutability": "view",
      "type": "function"
    },
    {
      "inputs": [
        {
          "internalType": "string",
          "name": "key",
          "type": "string"
        }
      ],
      "name": "getUIntConfig",
      "outputs": [
        {
          "internalType": "uint256",
          "name": "",
          "type": "uint256"
        }
      ],
      "stateMutability": "view",
      "type": "function"
    },
    {
      "inputs": [
        {
          "internalType": "string",
          "name": "key",
          "type": "string"
        },
        {
          "internalType": "uint256",
          "name": "defaultValue",
          "type": "uint256"
        }
      ],
      "name": "getUIntConfigWithDefault",
      "outputs": [
        {
          "internalType": "uint256",
          "name": "",
          "type": "uint256"
        }
      ],
      "stateMutability": "view",
      "type": "function"
    },
    {
      "inputs": [
        {
          "internalType": "address",
          "name": "user",
          "type": "address"
        }
      ],
      "name": "getUserProfile",
      "outputs": [
        {
          "internalType": "string",
          "name": "username",
          "type": "string"
        },
        {
          "internalType": "string",
          "name": "displayName",
          "type": "string"
        },
        {
          "internalType": "string",
          "name": "pfpUrl",
          "type": "string"
        },
        {
          "internalType": "uint256",
          "name": "timestamp",
          "type": "uint256"
        }
      ],
      "stateMutability": "view",
      "type": "function"
    },
    {
      "inputs": [
        {
          "internalType": "bytes32",
          "name": "crosswordId",
          "type": "bytes32"
        },
        {
          "internalType": "address",
          "name": "user",
          "type": "address"
        }
      ],
      "name": "getUserRank",
      "outputs": [
        {
          "internalType": "uint256",
          "name": "",
          "type": "uint256"
        }
      ],
      "stateMutability": "view",
      "type": "function"
    },
    {
      "inputs": [
        {
          "internalType": "bytes32",
          "name": "role",
          "type": "bytes32"
        },
        {
          "internalType": "address",
          "name": "account",
          "type": "address"
        }
      ],
      "name": "grantRole",
      "outputs": [],
      "stateMutability": "nonpayable",
      "type": "function"
    },
    {
      "inputs": [
        {
          "internalType": "bytes32",
          "name": "",
          "type": "bytes32"
        },
        {
          "internalType": "address",
          "name": "",
          "type": "address"
        }
      ],
      "name": "hasCompletedCrossword",
      "outputs": [
        {
          "internalType": "bool",
          "name": "",
          "type": "bool"
        }
      ],
      "stateMutability": "view",
      "type": "function"
    },
    {
      "inputs": [
        {
          "internalType": "bytes32",
          "name": "role",
          "type": "bytes32"
        },
        {
          "internalType": "address",
          "name": "account",
          "type": "address"
        }
      ],
      "name": "hasRole",
      "outputs": [
        {
          "internalType": "bool",
          "name": "",
          "type": "bool"
        }
      ],
      "stateMutability": "view",
      "type": "function"
    },
    {
      "inputs": [
        {
          "internalType": "address",
          "name": "",
          "type": "address"
        }
      ],
      "name": "isAdmin",
      "outputs": [
        {
          "internalType": "bool",
          "name": "",
          "type": "bool"
        }
      ],
      "stateMutability": "view",
      "type": "function"
    },
    {
      "inputs": [
        {
          "internalType": "address",
          "name": "addr",
          "type": "address"
        }
      ],
      "name": "isAdminAddress",
      "outputs": [
        {
          "internalType": "bool",
          "name": "",
          "type": "bool"
        }
      ],
      "stateMutability": "view",
      "type": "function"
    },
    {
      "inputs": [],
      "name": "isReturnHomeButtonVisible",
      "outputs": [
        {
          "internalType": "bool",
          "name": "",
          "type": "bool"
        }
      ],
      "stateMutability": "view",
      "type": "function"
    },
    {
      "inputs": [
        {
          "internalType": "bytes32",
          "name": "crosswordId",
          "type": "bytes32"
        },
        {
          "internalType": "address",
          "name": "user",
          "type": "address"
        }
      ],
      "name": "isWinner",
      "outputs": [
        {
          "internalType": "bool",
          "name": "",
          "type": "bool"
        }
      ],
      "stateMutability": "view",
      "type": "function"
    },
    {
      "inputs": [],
      "name": "lastUpdateTime",
      "outputs": [
        {
          "internalType": "uint256",
          "name": "",
          "type": "uint256"
        }
      ],
      "stateMutability": "view",
      "type": "function"
    },
    {
      "inputs": [],
      "name": "maxWinners",
      "outputs": [
        {
          "internalType": "uint256",
          "name": "",
          "type": "uint256"
        }
      ],
      "stateMutability": "view",
      "type": "function"
    },
    {
      "inputs": [],
      "name": "owner",
      "outputs": [
        {
          "internalType": "address",
          "name": "",
          "type": "address"
        }
      ],
      "stateMutability": "view",
      "type": "function"
    },
    {
      "inputs": [],
      "name": "pause",
      "outputs": [],
      "stateMutability": "nonpayable",
      "type": "function"
    },
    {
      "inputs": [],
      "name": "paused",
      "outputs": [
        {
          "internalType": "bool",
          "name": "",
          "type": "bool"
        }
      ],
      "stateMutability": "view",
      "type": "function"
    },
    {
      "inputs": [
        {
          "internalType": "bytes32",
          "name": "crosswordId",
          "type": "bytes32"
        },
        {
          "internalType": "address",
          "name": "user",
          "type": "address"
        }
      ],
      "name": "recordCompletion",
      "outputs": [
        {
          "internalType": "bool",
          "name": "awardedPrize",
          "type": "bool"
        }
      ],
      "stateMutability": "nonpayable",
      "type": "function"
    },
    {
      "inputs": [
        {
          "internalType": "bytes32",
          "name": "crosswordId",
          "type": "bytes32"
        }
      ],
      "name": "recoverUnclaimedPrizes",
      "outputs": [],
      "stateMutability": "nonpayable",
      "type": "function"
    },
    {
      "inputs": [
        {
          "internalType": "address",
          "name": "adminToRemove",
          "type": "address"
        }
      ],
      "name": "removeAdmin",
      "outputs": [],
      "stateMutability": "nonpayable",
      "type": "function"
    },
    {
      "inputs": [],
      "name": "renounceOwnership",
      "outputs": [],
      "stateMutability": "nonpayable",
      "type": "function"
    },
    {
      "inputs": [
        {
          "internalType": "bytes32",
          "name": "role",
          "type": "bytes32"
        },
        {
          "internalType": "address",
          "name": "callerConfirmation",
          "type": "address"
        }
      ],
      "name": "renounceRole",
      "outputs": [],
      "stateMutability": "nonpayable",
      "type": "function"
    },
    {
      "inputs": [
        {
          "internalType": "bytes32",
          "name": "role",
          "type": "bytes32"
        },
        {
          "internalType": "address",
          "name": "account",
          "type": "address"
        }
      ],
      "name": "revokeRole",
      "outputs": [],
      "stateMutability": "nonpayable",
      "type": "function"
    },
    {
      "inputs": [
        {
          "internalType": "address",
          "name": "token",
          "type": "address"
        },
        {
          "internalType": "bool",
          "name": "allowed",
          "type": "bool"
        }
      ],
      "name": "setAllowedToken",
      "outputs": [],
      "stateMutability": "nonpayable",
      "type": "function"
    },
    {
      "inputs": [
        {
          "internalType": "string",
          "name": "key",
          "type": "string"
        },
        {
          "internalType": "bool",
          "name": "value",
          "type": "bool"
        }
      ],
      "name": "setBoolConfig",
      "outputs": [],
      "stateMutability": "nonpayable",
      "type": "function"
    },
    {
      "inputs": [
        {
          "internalType": "bytes32",
          "name": "crosswordId",
          "type": "bytes32"
        },
        {
          "internalType": "string",
          "name": "crosswordData",
          "type": "string"
        }
      ],
      "name": "setCrossword",
      "outputs": [],
      "stateMutability": "nonpayable",
      "type": "function"
    },
    {
      "inputs": [
        {
          "internalType": "bytes32",
          "name": "crosswordId",
          "type": "bytes32"
        },
        {
          "internalType": "string",
          "name": "crosswordData",
          "type": "string"
        },
        {
          "internalType": "uint256",
          "name": "newMaxWinners",
          "type": "uint256"
        }
      ],
      "name": "setCrosswordAndMaxWinners",
      "outputs": [],
      "stateMutability": "nonpayable",
      "type": "function"
    },
    {
      "inputs": [],
      "name": "setDefaultConfigurations",
      "outputs": [],
      "stateMutability": "nonpayable",
      "type": "function"
    },
    {
      "inputs": [
        {
          "internalType": "uint256",
          "name": "newMaxWinners",
          "type": "uint256"
        }
      ],
      "name": "setMaxWinners",
      "outputs": [],
      "stateMutability": "nonpayable",
      "type": "function"
    },
    {
      "inputs": [
        {
          "internalType": "uint256",
          "name": "newMaxWinners",
          "type": "uint256"
        }
      ],
      "name": "setMaxWinnersConfig",
      "outputs": [],
      "stateMutability": "nonpayable",
      "type": "function"
    },
    {
      "inputs": [
        {
          "internalType": "string",
          "name": "key",
          "type": "string"
        },
        {
          "internalType": "string",
          "name": "value",
          "type": "string"
        }
      ],
      "name": "setStringConfig",
      "outputs": [],
      "stateMutability": "nonpayable",
      "type": "function"
    },
    {
      "inputs": [
        {
          "internalType": "string",
          "name": "key",
          "type": "string"
        },
        {
          "internalType": "uint256",
          "name": "value",
          "type": "uint256"
        }
      ],
      "name": "setUIntConfig",
      "outputs": [],
      "stateMutability": "nonpayable",
      "type": "function"
    },
    {
      "inputs": [
        {
          "internalType": "bytes4",
          "name": "interfaceId",
          "type": "bytes4"
        }
      ],
      "name": "supportsInterface",
      "outputs": [
        {
          "internalType": "bool",
          "name": "",
          "type": "bool"
        }
      ],
      "stateMutability": "view",
      "type": "function"
    },
    {
      "inputs": [
        {
          "internalType": "address",
          "name": "newOwner",
          "type": "address"
        }
      ],
      "name": "transferOwnership",
      "outputs": [],
      "stateMutability": "nonpayable",
      "type": "function"
    },
    {
      "inputs": [],
      "name": "unpause",
      "outputs": [],
      "stateMutability": "nonpayable",
      "type": "function"
    },
    {
      "inputs": [
        {
          "internalType": "bytes32",
          "name": "crosswordId",
          "type": "bytes32"
        },
        {
          "internalType": "address",
          "name": "user",
          "type": "address"
        }
      ],
      "name": "userCompletedCrossword",
      "outputs": [
        {
          "internalType": "bool",
          "name": "",
          "type": "bool"
        }
      ],
      "stateMutability": "view",
      "type": "function"
    },
    {
      "inputs": [
        {
          "internalType": "address",
          "name": "",
          "type": "address"
        }
      ],
      "name": "userProfiles",
      "outputs": [
        {
          "internalType": "string",
          "name": "username",
          "type": "string"
        },
        {
          "internalType": "string",
          "name": "displayName",
          "type": "string"
        },
        {
          "internalType": "string",
          "name": "pfpUrl",
          "type": "string"
        },
        {
          "internalType": "uint256",
          "name": "timestamp",
          "type": "uint256"
        }
      ],
      "stateMutability": "view",
      "type": "function"
    },
    {
      "stateMutability": "payable",
      "type": "receive"
    }
  ],
  "bytecode": "0x60806040526003600c5534801561001557600080fd5b50604051615ce2380380615ce283398101604081905261003491610257565b806001600160a01b03811661006357604051631e4fbdf760e01b81526000600482015260240160405180910390fd5b61006c81610172565b50600160028190556001600160a01b0382166000818152601060205260408120805460ff19168417905560118054938401815581527f31ecc21a745e3968a04e9570e4425bc18fa8019c68028196b546d1669c200c6890920180546001600160a01b03191690911790556100e090826101c2565b5061010b7fa49807205ce4d355092ef5a8a18f56e8913cf4a201fbe287825b095693c21775826101c2565b506101367f97667070c54ef182b0f5858b034beac1b6f3089aa2d3188bb1e8929f4fa9b929826101c2565b505060008052600b6020527fdf7de25b7f1fd6d0b5205f0e18f1f35bd7b8d84cce336588d184533ce43a6f76805460ff19166001179055610287565b600080546001600160a01b038381166001600160a01b0319831681178455604051919092169283917f8be0079c531659141344cd1fd0a4f28419497f9722a3daafe3b4186f6b6457e09190a35050565b60008281526001602090815260408083206001600160a01b038516845290915281205460ff1661024d5760008381526001602081815260408084206001600160a01b0387168086529252808420805460ff19169093179092559051339286917f2f8788117e7eff1d82e926ec794901d17c78024a50270940304540a733656f0d9190a4506001610251565b5060005b92915050565b60006020828403121561026957600080fd5b81516001600160a01b038116811461028057600080fd5b9392505050565b615a4c806102966000396000f3fe60806040526004361061042a5760003560e01c80637849dbaa11610229578063b38e9dde1161012e578063d547741f116100b6578063e744092e1161007a578063e744092e14610dd9578063ec03a37a14610e09578063ef9923aa14610b9d578063f2fde38b14610e3c578063f5b541a614610e5c57610467565b8063d547741f14610ceb578063d71ecbb214610d0b578063d9cbe53c14610d2b578063dfdfde3014610d4b578063e5b4a8a514610dc457610467565b8063c8f33c91116100fd578063c8f33c9114610c4a578063cbb00d4b14610c60578063cde8e5d314610c9f578063d17b18c414610cb5578063d30c2efe14610cd557610467565b8063b38e9dde14610bb2578063b423a06814610bf7578063b827520514610c17578063bed0600714610c3757610467565b80639c0b1d64116101b1578063a217fddf11610180578063a217fddf14610b41578063a5f00e7d14610b56578063ac9e5b5c14610b6a578063b0fc944014610b7d578063b3542d1714610b9d57610467565b80639c0b1d6414610ab45780639cc19f5b14610ae15780639dc3c54a14610b01578063a090a35614610b1457610467565b80638aaa2284116101f85780638aaa228414610a165780638da5cb5b14610a3657806391d1485414610a545780639745808a14610a74578063987ee15614610a9457610467565b80637849dbaa14610991578063842a42e3146109b55780638456cb59146109ca57806384bc7230146109df57610467565b8063317d609b1161032f5780635a53e88f116102b757806370480275116102865780637048027514610905578063715018a61461092557806375b238fc1461093a57806376cf795d1461095c578063777b19ee1461097157610467565b80635a53e88f1461087d5780635bd059c01461089d5780635c975abb146108cd5780636bc122c9146108e557610467565b806336568abe116102fe57806336568abe146107f25780633ab2648a146108125780633f4ba83a146108325780634c255c97146108475780635265cb0d1461085d57610467565b8063317d609b1461076a57806331ae450b1461078a57806331bd2691146107ac578063332d56d7146107c257610467565b806314bfd6d0116103b25780631e31df88116103815780631e31df881461068c578063248a9ca3146106ae57806324cbad25146106df57806324d7806c1461071a5780632f2ff15d1461074a57610467565b806314bfd6d0146105ee5780631785f53c146106265780631ca1954e146105575780631dc626b11461064657610467565b80630a4636b2116103f95780630a4636b2146105575780630a713d681461056e5780630d67f8431461058e5780630e5e0bb0146105ae5780631087a032146105ce57610467565b806301ffc9a7146104995780630236bb5a146104ce5780630599711d1461050757806307e353c21461053557610467565b366104675760405134815233907fedd7fd210c5046985d2cac8bd79b331beb7816848ac1f52930622cb31d9a14fd906020015b60405180910390a2005b60405134815233907fedd7fd210c5046985d2cac8bd79b331beb7816848ac1f52930622cb31d9a14fd9060200161045d565b3480156104a557600080fd5b506104b96104b4366004614815565b610e90565b60405190151581526020015b60405180910390f35b3480156104da57600080fd5b506104b96104e936600461485b565b6001600160a01b031660009081526010602052604090205460ff1690565b34801561051357600080fd5b506105276105223660046148be565b610ec7565b6040519081526020016104c5565b34801561054157600080fd5b506105556105503660046149be565b610f2f565b005b34801561056357600080fd5b5061052762278d0081565b34801561057a57600080fd5b50610555610589366004614a0e565b611019565b34801561059a57600080fd5b506105556105a9366004614a0e565b6111a1565b3480156105ba57600080fd5b506105556105c9366004614a0e565b6111c6565b3480156105da57600080fd5b506105276105e9366004614a27565b61153a565b3480156105fa57600080fd5b5061060e610609366004614a0e565b611565565b6040516001600160a01b0390911681526020016104c5565b34801561063257600080fd5b5061055561064136600461485b565b61158f565b34801561065257600080fd5b506104b9610661366004614a68565b6000918252600e602090815260408084206001600160a01b0393909316845291905290205460ff1690565b34801561069857600080fd5b506106a16117ec565b6040516104c59190614ae4565b3480156106ba57600080fd5b506105276106c9366004614a0e565b6000908152600160208190526040909120015490565b3480156106eb57600080fd5b506104b96106fa366004614a68565b600e60209081526000928352604080842090915290825290205460ff1681565b34801561072657600080fd5b506104b961073536600461485b565b60106020526000908152604090205460ff1681565b34801561075657600080fd5b50610555610765366004614a68565b61187a565b34801561077657600080fd5b50610555610785366004614af7565b6118a0565b34801561079657600080fd5b5061079f6119c7565b6040516104c59190614b3d565b3480156107b857600080fd5b5061052760075481565b3480156107ce57600080fd5b506107e26107dd36600461485b565b611a29565b6040516104c59493929190614b89565b3480156107fe57600080fd5b5061055561080d366004614a68565b611be9565b34801561081e57600080fd5b5061055561082d366004614c56565b611c21565b34801561083e57600080fd5b50610555611fe8565b34801561085357600080fd5b5061052761271081565b34801561086957600080fd5b50610555610878366004614cce565b611ffe565b34801561088957600080fd5b506105556108983660046148be565b6120b9565b3480156108a957600080fd5b506105276108b8366004614a0e565b6000908152600a602052604090206003015490565b3480156108d957600080fd5b5060035460ff166104b9565b3480156108f157600080fd5b506104b9610900366004614cce565b612190565b34801561091157600080fd5b5061055561092036600461485b565b6121fb565b34801561093157600080fd5b5061055561236f565b34801561094657600080fd5b506105276000805160206159d783398151915281565b34801561096857600080fd5b50610555612383565b34801561097d57600080fd5b5061055561098c366004614d21565b6125fc565b34801561099d57600080fd5b506109a6612991565b6040516104c593929190614dce565b3480156109c157600080fd5b50610555612a36565b3480156109d657600080fd5b50610555612a67565b3480156109eb57600080fd5b506106a16040518060400160405280600b81526020016a6d61785f77696e6e65727360a81b81525081565b348015610a2257600080fd5b50610555610a31366004614df7565b612a7a565b348015610a4257600080fd5b506000546001600160a01b031661060e565b348015610a6057600080fd5b506104b9610a6f366004614a68565b612add565b348015610a8057600080fd5b50610527610a8f366004614a68565b612b08565b348015610aa057600080fd5b506107e2610aaf36600461485b565b612ba5565b348015610ac057600080fd5b50610527610acf366004614a0e565b6000908152600d602052604090205490565b348015610aed57600080fd5b506104b9610afc366004614a68565b612dc0565b610555610b0f366004614e21565b612e2d565b348015610b2057600080fd5b50610b34610b2f366004614a0e565b612f95565b6040516104c59190614ec2565b348015610b4d57600080fd5b50610527600081565b348015610b6257600080fd5b5060016104b9565b610555610b78366004614f22565b61302a565b348015610b8957600080fd5b50610555610b98366004614a0e565b61337d565b348015610ba957600080fd5b50600c54610527565b348015610bbe57600080fd5b50610bd2610bcd366004614f79565b61388d565b604080516001600160a01b0390941684526020840192909252908201526060016104c5565b348015610c0357600080fd5b506104b9610c12366004614a27565b6138d9565b348015610c2357600080fd5b50610555610c32366004614f9b565b613908565b610555610c4536600461500a565b6139b8565b348015610c5657600080fd5b5061052760095481565b348015610c6c57600080fd5b506106a160405180604001604052806013815260200172686f6d655f627574746f6e5f76697369626c6560681b81525081565b348015610cab57600080fd5b50610527600c5481565b348015610cc157600080fd5b50610555610cd0366004614a0e565b613b35565b348015610ce157600080fd5b50610527611f4081565b348015610cf757600080fd5b50610555610d06366004614a68565b613b94565b348015610d1757600080fd5b506106a1610d26366004614a27565b613bba565b348015610d3757600080fd5b506104b9610d46366004614a68565b613c6d565b348015610d5757600080fd5b50610db1610d66366004614a0e565b600a6020526000908152604090208054600182015460058301546006840154600785015460088601546009909601546001600160a01b039095169593949293919260ff909116919087565b6040516104c597969594939291906150d0565b348015610dd057600080fd5b50610527600a81565b348015610de557600080fd5b506104b9610df436600461485b565b600b6020526000908152604090205460ff1681565b348015610e1557600080fd5b50610e29610e24366004614a0e565b6140e4565b6040516104c59796959493929190615153565b348015610e4857600080fd5b50610555610e5736600461485b565b61421d565b348015610e6857600080fd5b506105277f97667070c54ef182b0f5858b034beac1b6f3089aa2d3188bb1e8929f4fa9b92981565b60006001600160e01b03198216637965db0b60e01b1480610ec157506301ffc9a760e01b6001600160e01b03198316145b92915050565b600060048484604051610edb929190615204565b90815260200160405180910390208054610ef490615214565b9050600003610f04575080610f28565b60068484604051610f16929190615204565b90815260200160405180910390205490505b9392505050565b6000805160206159d7833981519152610f4781614258565b610f4f614262565b610f5761428a565b6000835111610f815760405162461bcd60e51b8152600401610f789061524e565b60405180910390fd5b60008211610fa15760405162461bcd60e51b8152600401610f789061529c565b600a821115610fc25760405162461bcd60e51b8152600401610f78906152ee565b60078490556008610fd3848261538b565b5042600955610fe1826142ae565b836000805160206159f78339815191528433604051611001929190615449565b60405180910390a26110136001600255565b50505050565b6000805160206159d783398151915261103181614258565b61103961428a565b6000828152600a602052604090206002600782015460ff16600281111561106257611062615098565b036110af5760405162461bcd60e51b815260206004820181905260248201527f43726f7373776f7264426f6172643a20616c726561647920636f6d706c6574656044820152606401610f78565b6001600782015460ff1660028111156110ca576110ca615098565b036111175760405162461bcd60e51b815260206004820152601e60248201527f43726f7373776f7264426f6172643a20616c72656164792061637469766500006044820152606401610f78565b80546001600160a01b0316151580611133575080600101544710155b61114f5760405162461bcd60e51b8152600401610f7890615473565b60078101805460ff19166001179055426005820181905560405190815283907f866c1294f23fc719c565ed4c7188b24e3e7bccde328f0b50425b902bf19bc83d906020015b60405180910390a2505050565b6000805160206159d78339815191526111b981614258565b6111c2826142ae565b5050565b6000805160206159d78339815191526111de81614258565b6111e6614262565b6111ee61428a565b6000828152600a602052604090206002600782015460ff16600281111561121757611217615098565b146112735760405162461bcd60e51b815260206004820152602660248201527f43726f7373776f7264426f6172643a2063726f7373776f7264206e6f7420636f6044820152656d706c65746560d01b6064820152608401610f78565b62278d00816005015461128691906154d9565b4210156112e95760405162461bcd60e51b815260206004820152602b60248201527f43726f7373776f7264426f6172643a207265636f766572792077696e646f772060448201526a1b9bdd08195b185c1cd95960aa1b6064820152608401610f78565b600081600501541161134d5760405162461bcd60e51b815260206004820152602760248201527f43726f7373776f7264426f6172643a2063726f7373776f7264206e6f742061636044820152661d1a5d985d195960ca1b6064820152608401610f78565b80546000906001600160a01b031661137a578160090154826001015461137391906154ec565b90506113eb565b81546040516370a0823160e01b81523060048201526001600160a01b039091169081906370a0823190602401602060405180830381865afa1580156113c3573d6000803e3d6000fd5b505050506040513d601f19601f820116820180604052508101906113e791906154ff565b9150505b801561152e5781546001600160a01b03166114bb57604051600090339083908381818185875af1925050503d8060008114611442576040519150601f19603f3d011682016040523d82523d6000602084013e611447565b606091505b50509050806114b55760405162461bcd60e51b815260206004820152603460248201527f43726f7373776f7264426f6172643a206e61746976652043454c4f207265636f6044820152731d995c9e481d1c985b9cd9995c8819985a5b195960621b6064820152608401610f78565b506114de565b81546001600160a01b03166114dc335b6001600160a01b03831690846142f4565b505b81546001600160a01b0316847f4f9dbc6a445a64ff84ec788dbb2b2882a37630c9397338d10c7568bc438d10238333604080519283526001600160a01b0390911660208301520160405180910390a35b50506111c26001600255565b60006006838360405161154e929190615204565b908152602001604051809103902054905092915050565b6011818154811061157557600080fd5b6000918252602090912001546001600160a01b0316905081565b611597614353565b6001600160a01b03811660009081526010602052604090205460ff1661160b5760405162461bcd60e51b8152602060048201526024808201527f43726f7373776f7264426f6172643a2061646d696e20646f6573206e6f7420656044820152631e1a5cdd60e21b6064820152608401610f78565b6000546001600160a01b03166001600160a01b0316816001600160a01b0316036116835760405162461bcd60e51b815260206004820152602360248201527f43726f7373776f7264426f6172643a2063616e6e6f742072656d6f7665206f776044820152623732b960e91b6064820152608401610f78565b6001600160a01b0381166000908152601060205260408120805460ff191690555b60115481101561179f57816001600160a01b0316601182815481106116cb576116cb615518565b6000918252602090912001546001600160a01b03160361179757601180546116f5906001906154ec565b8154811061170557611705615518565b600091825260209091200154601180546001600160a01b03909216918390811061173157611731615518565b9060005260206000200160006101000a8154816001600160a01b0302191690836001600160a01b0316021790555060118054806117705761177061552e565b600082815260209020810160001990810180546001600160a01b031916905501905561179f565b6001016116a4565b506001600160a01b0381167fdb9d5d31320daf5bc7181d565b6da4d12e30f0f4d5aa324a992426c14a1d19ce335b6040516001600160a01b0390911681526020015b60405180910390a250565b600880546117f990615214565b80601f016020809104026020016040519081016040528092919081815260200182805461182590615214565b80156118725780601f1061184757610100808354040283529160200191611872565b820191906000526020600020905b81548152906001019060200180831161185557829003601f168201915b505050505081565b6000828152600160208190526040909120015461189681614258565b6110138383614380565b6000546001600160a01b03163314806118c857503360009081526010602052604090205460ff165b806118e657506118e66000805160206159d783398151915233612add565b61194e5760405162461bcd60e51b815260206004820152603360248201527f43726f7373776f7264426f6172643a2063616c6c6572206973206e6f74207468604482015272329037bbb732b91037b91030b71030b236b4b760691b6064820152608401610f78565b611956614262565b61195e61428a565b600081511161197f5760405162461bcd60e51b8152600401610f789061524e565b60078290556008611990828261538b565b5042600955816000805160206159f783398151915282336040516119b5929190615449565b60405180910390a26111c26001600255565b60606011805480602002602001604051908101604052809291908181526020018280548015611a1f57602002820191906000526020600020905b81546001600160a01b03168152600190910190602001808311611a01575b5050505050905090565b600f60205260009081526040902080548190611a4490615214565b80601f0160208091040260200160405190810160405280929190818152602001828054611a7090615214565b8015611abd5780601f10611a9257610100808354040283529160200191611abd565b820191906000526020600020905b815481529060010190602001808311611aa057829003601f168201915b505050505090806001018054611ad290615214565b80601f0160208091040260200160405190810160405280929190818152602001828054611afe90615214565b8015611b4b5780601f10611b2057610100808354040283529160200191611b4b565b820191906000526020600020905b815481529060010190602001808311611b2e57829003601f168201915b505050505090806002018054611b6090615214565b80601f0160208091040260200160405190810160405280929190818152602001828054611b8c90615214565b8015611bd95780601f10611bae57610100808354040283529160200191611bd9565b820191906000526020600020905b815481529060010190602001808311611bbc57829003601f168201915b5050505050908060030154905084565b6001600160a01b0381163314611c125760405163334bd91960e11b815260040160405180910390fd5b611c1c82826143f9565b505050565b6000805160206159d7833981519152611c3981614258565b611c4161428a565b6001600160a01b038516611cb65760405162461bcd60e51b815260206004820152603660248201527f43726f7373776f7264426f6172643a20746f6b656e2063616e6e6f742062652060448201527507a65726f206164647265737320666f722045524332360541b6064820152608401610f78565b6001600160a01b0385166000908152600b602052604090205460ff16611d285760405162461bcd60e51b815260206004820152602160248201527f43726f7373776f7264426f6172643a20746f6b656e206e6f7420616c6c6f77656044820152601960fa1b6064820152608401610f78565b60008411611d485760405162461bcd60e51b8152600401610f7890615544565b6000835111611d995760405162461bcd60e51b815260206004820181905260248201527f43726f7373776f7264426f6172643a2077696e6e6572732072657175697265646044820152606401610f78565b600c5483511115611dec5760405162461bcd60e51b815260206004820181905260248201527f43726f7373776f7264426f6172643a20746f6f206d616e792077696e6e6572736044820152606401610f78565b8251841015611e0d5760405162461bcd60e51b8152600401610f7890615595565b6000805b8451811015611ebd576000858281518110611e2e57611e2e615518565b602002602001015111611e535760405162461bcd60e51b8152600401610f78906155e5565b611f40858281518110611e6857611e68615518565b60200260200101511115611e8e5760405162461bcd60e51b8152600401610f7890615642565b848181518110611ea057611ea0615518565b602002602001015182611eb391906154d9565b9150600101611e11565b50612710811115611ee05760405162461bcd60e51b8152600401610f7890615693565b8215611f1257611ef362278d00426154d9565b831115611f125760405162461bcd60e51b8152600401610f78906156e0565b85611f286001600160a01b038216333089614466565b6000888152600a6020908152604090912080546001600160a01b0319166001600160a01b038a161781556001810188905586519091611f6e9160028401918901906147b5565b506006810185905560078101805460ff19169055426008820155600060098201556001600160a01b038816897f0fee001940c4884b8fa17931fc404ceb7673af8459a49404e484d47be2f0bcc08933604080519283526001600160a01b0390911660208301520160405180910390a3505050505050505050565b6000611ff381614258565b611ffb61449f565b50565b6000805160206159d783398151915261201681614258565b61201e61428a565b8160058585604051612031929190615204565b908152604051908190036020018120805492151560ff199093169290921790915561205f9085908590615204565b60405180910390207f57c29d32ec7b521a5d75ec035d2d273f057236f3208adad274595741578e669c836120903390565b6040805192151583526001600160a01b039091166020830152015b60405180910390a250505050565b6000805160206159d78339815191526120d181614258565b6120d961428a565b81600685856040516120ec929190615204565b90815260405190819003602001902055612105826144f1565b60048585604051612117929190615204565b90815260200160405180910390209081612131919061538b565b508383604051612142929190615204565b60405180910390207f681618a84b9cb0b8f2ea06632833deb3c57b6cfefca48e98f728692e31a67038836121733390565b604080519283526001600160a01b039091166020830152016120ab565b6000600484846040516121a4929190615204565b908152602001604051809103902080546121bd90615214565b90506000036121cd575080610f28565b600584846040516121df929190615204565b9081526040519081900360200190205460ff1690509392505050565b612203614353565b6001600160a01b03811661226e5760405162461bcd60e51b815260206004820152602c60248201527f43726f7373776f7264426f6172643a2061646d696e206164647265737320636160448201526b6e6e6f74206265207a65726f60a01b6064820152608401610f78565b6001600160a01b03811660009081526010602052604090205460ff16156122e35760405162461bcd60e51b8152602060048201526024808201527f43726f7373776f7264426f6172643a2061646d696e20616c72656164792065786044820152636973747360e01b6064820152608401610f78565b6001600160a01b0381166000818152601060205260408120805460ff191660019081179091556011805491820181559091527f31ecc21a745e3968a04e9570e4425bc18fa8019c68028196b546d1669c200c680180546001600160a01b031916821790557fbf3f493c772c8c283fd124432c2d0f539ab343faa04258fe88e52912d36b102b6117cd3390565b612377614353565b6123816000614583565b565b6000805160206159d783398151915261239b81614258565b6040805180820182526013815272686f6d655f627574746f6e5f76697369626c6560681b602082015290516004916123d29161572e565b908152602001604051809103902080546123eb90615214565b90506000036124e4576001600560405180604001604052806013815260200172686f6d655f627574746f6e5f76697369626c6560681b815250604051612431919061572e565b908152602001604051809103902060006101000a81548160ff02191690831515021790555060405180604001604052806013815260200172686f6d655f627574746f6e5f76697369626c6560681b81525060405161248f919061572e565b60405180910390207f57c29d32ec7b521a5d75ec035d2d273f057236f3208adad274595741578e669c60016124c13390565b6040805192151583526001600160a01b0390911660208301520160405180910390a25b604080518082018252600b81526a6d61785f77696e6e65727360a81b602082015290516004916125139161572e565b9081526020016040518091039020805461252c90615214565b9050600003611ffb57600360066040518060400160405280600b81526020016a6d61785f77696e6e65727360a81b81525060405161256a919061572e565b9081526020016040518091039020819055506040518060400160405280600b81526020016a6d61785f77696e6e65727360a81b8152506040516125ad919061572e565b60405180910390207f681618a84b9cb0b8f2ea06632833deb3c57b6cfefca48e98f728692e31a6703860036125df3390565b604080519283526001600160a01b039091166020830152016117e1565b612604614262565b61260c61428a565b336126595760405162461bcd60e51b815260206004820152601e60248201527f43726f7373776f7264426f6172643a20696e76616c69642073656e64657200006044820152606401610f78565b6007546000818152600e6020908152604080832033845290915290205460ff16156126df5760405162461bcd60e51b815260206004820152603060248201527f43726f7373776f7264426f6172643a20616c726561647920636f6d706c65746560448201526f19081d1a1a5cc818dc9bdcdcdddbdc9960821b6064820152608401610f78565b806127385760405162461bcd60e51b815260206004820152602360248201527f43726f7373776f7264426f6172643a206e6f206163746976652063726f7373776044820152621bdc9960ea1b6064820152608401610f78565b600088116127a05760405162461bcd60e51b815260206004820152602f60248201527f43726f7373776f7264426f6172643a206475726174696f6e206d75737420626560448201526e02067726561746572207468616e203608c1b6064820152608401610f78565b6000818152600d602090815260408083208151606081018352338152428185019081528184018e8152835460018181018655948852968690209251600390970290920180546001600160a01b03979097166001600160a01b0319909716969096178655519185019190915551600290930192909255815160a0601f8a01839004909202810182019092526080820188815282918a908a9081908501838280828437600092019190915250505090825250604080516020601f890181900481028201810190925287815291810191908890889081908401838280828437600092019190915250505090825250604080516020601f870181900481028201810190925285815291810191908690869081908401838280828437600092018290525093855250504260209384015250338152600f90915260409020815181906128e6908261538b565b50602082015160018201906128fb908261538b565b5060408201516002820190612910908261538b565b50606091909101516003909101556000818152600e602090815260408083203380855290835292819020805460ff1916600117905580514281529182018b905283917fd874e861282b2f8594edf306850dc2b69894038be0181c78618d086be9d6a7b8910160405180910390a3506129886001600255565b50505050505050565b60006060600060075460086009548180546129ab90615214565b80601f01602080910402602001604051908101604052809291908181526020018280546129d790615214565b8015612a245780601f106129f957610100808354040283529160200191612a24565b820191906000526020600020905b815481529060010190602001808311612a0757829003601f168201915b50505050509150925092509250909192565b612a3e614353565b600060078190556040805160208101909152908152600890612a60908261538b565b5042600955565b6000612a7281614258565b611ffb6145d3565b6000612a8581614258565b6001600160a01b0383166000818152600b6020908152604091829020805460ff191686151590811790915591519182527f9a8e30a8658b96ab3f034ce4bac6806278b4aee5880ccdd1ac35e4ed5bb31d239101611194565b60009182526001602090815260408084206001600160a01b0393909316845291905290205460ff1690565b6000828152600a60205260408120815b6003820154811015612b9a57836001600160a01b0316826003018281548110612b4357612b43615518565b60009182526020909120600390910201546001600160a01b031603612b9257816003018181548110612b7757612b77615518565b90600052602060002090600302016002015492505050610ec1565b600101612b18565b506000949350505050565b6060806060600080600f6000876001600160a01b03166001600160a01b03168152602001908152602001600020604051806080016040529081600082018054612bed90615214565b80601f0160208091040260200160405190810160405280929190818152602001828054612c1990615214565b8015612c665780601f10612c3b57610100808354040283529160200191612c66565b820191906000526020600020905b815481529060010190602001808311612c4957829003601f168201915b50505050508152602001600182018054612c7f90615214565b80601f0160208091040260200160405190810160405280929190818152602001828054612cab90615214565b8015612cf85780601f10612ccd57610100808354040283529160200191612cf8565b820191906000526020600020905b815481529060010190602001808311612cdb57829003601f168201915b50505050508152602001600282018054612d1190615214565b80601f0160208091040260200160405190810160405280929190818152602001828054612d3d90615214565b8015612d8a5780601f10612d5f57610100808354040283529160200191612d8a565b820191906000526020600020905b815481529060010190602001808311612d6d57829003601f168201915b50505091835250506003919091015460209182015281519082015160408301516060909301519199909850919650945092505050565b6000828152600a60205260408120815b6003820154811015612b9a57836001600160a01b0316826003018281548110612dfb57612dfb615518565b60009182526020909120600390910201546001600160a01b031603612e2557600192505050610ec1565b600101612dd0565b6000805160206159d7833981519152612e4581614258565b612e4d614262565b612e5561428a565b6000875111612e765760405162461bcd60e51b8152600401610f789061524e565b60008611612e965760405162461bcd60e51b8152600401610f789061529c565b600a861115612eb75760405162461bcd60e51b8152600401610f78906152ee565b60008411612ed75760405162461bcd60e51b8152600401610f7890615544565b60078890556008612ee8888261538b565b5042600955612ef6866142ae565b604051631d59324560e11b81523090633ab2648a90612f21908b90899089908990899060040161574a565b600060405180830381600087803b158015612f3b57600080fd5b505af1158015612f4f573d6000803e3d6000fd5b50505050876000805160206159f783398151915288612f6b3390565b604051612f79929190615449565b60405180910390a2612f8b6001600255565b5050505050505050565b6060600d6000838152602001908152602001600020805480602002602001604051908101604052809291908181526020016000905b8282101561301f576000848152602090819020604080516060810182526003860290920180546001600160a01b0316835260018082015484860152600290910154918301919091529083529092019101612fca565b505050509050919050565b6000805160206159d783398151915261304281614258565b61304a61428a565b8334146130695760405162461bcd60e51b8152600401610f7890615789565b60008052600b6020527fdf7de25b7f1fd6d0b5205f0e18f1f35bd7b8d84cce336588d184533ce43a6f765460ff166130f35760405162461bcd60e51b815260206004820152602760248201527f43726f7373776f7264426f6172643a206e61746976652043454c4f206e6f7420604482015266185b1b1bddd95960ca1b6064820152608401610f78565b600084116131135760405162461bcd60e51b8152600401610f7890615544565b60008351116131645760405162461bcd60e51b815260206004820181905260248201527f43726f7373776f7264426f6172643a2077696e6e6572732072657175697265646044820152606401610f78565b600c54835111156131b75760405162461bcd60e51b815260206004820181905260248201527f43726f7373776f7264426f6172643a20746f6f206d616e792077696e6e6572736044820152606401610f78565b82518410156131d85760405162461bcd60e51b8152600401610f7890615595565b6000805b84518110156132885760008582815181106131f9576131f9615518565b60200260200101511161321e5760405162461bcd60e51b8152600401610f78906155e5565b611f4085828151811061323357613233615518565b602002602001015111156132595760405162461bcd60e51b8152600401610f7890615642565b84818151811061326b5761326b615518565b60200260200101518261327e91906154d9565b91506001016131dc565b506127108111156132ab5760405162461bcd60e51b8152600401610f7890615693565b82156132dd576132be62278d00426154d9565b8311156132dd5760405162461bcd60e51b8152600401610f78906156e0565b6000868152600a6020908152604090912080546001600160a01b031916815560018101879055855190916133189160028401918801906147b5565b506006810184905560078101805460ff191690554260088201556000600982018190556040805188815233602082015281518a927f0fee001940c4884b8fa17931fc404ceb7673af8459a49404e484d47be2f0bcc0928290030190a350505050505050565b613385614262565b61338d61428a565b6000818152600a602052604090206002600782015460ff1660028111156133b6576133b6615098565b146134375760405162461bcd60e51b8152602060048201526044602482018190527f43726f7373776f7264426f6172643a2063726f7373776f7264206e6f7420636f908201527f6d706c657465206f72207072697a657320616c726561647920646973747269626064820152631d5d195960e21b608482015260a401610f78565b33600090815260048201602052604090205460ff16156134995760405162461bcd60e51b815260206004820152601f60248201527f43726f7373776f7264426f6172643a20616c726561647920636c61696d6564006044820152606401610f78565b6000805b600383015481101561351d57336001600160a01b03168360030182815481106134c8576134c8615518565b60009182526020909120600390910201546001600160a01b031603613515578260030181815481106134fc576134fc615518565b906000526020600020906003020160020154915061351d565b60010161349d565b506000811161357c5760405162461bcd60e51b815260206004820152602560248201527f43726f7373776f7264426f6172643a206e6f742061207665726966696564207760448201526434b73732b960d91b6064820152608401610f78565b60028201548111156135e15760405162461bcd60e51b815260206004820152602860248201527f43726f7373776f7264426f6172643a2072616e6b20746f6f206c6f7720666f726044820152672061207072697a6560c01b6064820152608401610f78565b6000612710600284016135f56001856154ec565b8154811061360557613605615518565b9060005260206000200154846001015461361f91906157d9565b61362991906157f0565b9050600081116136865760405162461bcd60e51b815260206004820152602260248201527f43726f7373776f7264426f6172643a206e6f207072697a6520617661696c61626044820152616c6560f01b6064820152608401610f78565b3360009081526004840160205260409020805460ff1916600117905582546001600160a01b0316613768578083600901546136c191906154d9565b4710156136e05760405162461bcd60e51b8152600401610f7890615473565b604051600090339083908381818185875af1925050503d8060008114613722576040519150601f19603f3d011682016040523d82523d6000602084013e613727565b606091505b50509050806137485760405162461bcd60e51b8152600401610f7890615812565b8184600901600082825461375c91906154d9565b90915550613843915050565b82546040516370a0823160e01b81523060048201526001600160a01b0390911690829082906370a0823190602401602060405180830381865afa1580156137b3573d6000803e3d6000fd5b505050506040513d601f19601f820116820180604052508101906137d791906154ff565b10156138385760405162461bcd60e51b815260206004820152602a60248201527f43726f7373776f7264426f6172643a20696e73756666696369656e7420746f6b604482015269656e2062616c616e636560b01b6064820152608401610f78565b613841336114cb565b505b6040805182815260208101849052339186917f0842894bd3663e1d874d069f4495d64331ee07871e8fa4e159ae698421912c90910160405180910390a3505050611ffb6001600255565b600d60205281600052604060002081815481106138a957600080fd5b60009182526020909120600390910201805460018201546002909201546001600160a01b03909116935090915083565b6000600583836040516138ed929190615204565b9081526040519081900360200190205460ff16905092915050565b6000805160206159d783398151915261392081614258565b61392861428a565b82826004878760405161393c929190615204565b9081526020016040518091039020918261395792919061585d565b508484604051613968929190615204565b60405180910390207fa049c6f94cd0991772bade0e541db8e7acdf1add8c3df2d63b318499b7751288848461399a3390565b6040516139a99392919061591c565b60405180910390a25050505050565b6000805160206159d78339815191526139d081614258565b6139d8614262565b6139e061428a565b6000865111613a015760405162461bcd60e51b8152600401610f789061524e565b60008511613a215760405162461bcd60e51b8152600401610f789061529c565b600a851115613a425760405162461bcd60e51b8152600401610f78906152ee565b60008411613a625760405162461bcd60e51b8152600401610f7890615544565b833414613a815760405162461bcd60e51b8152600401610f7890615789565b60078790556008613a92878261538b565b5042600955613aa0856142ae565b604051632b2796d760e21b8152309063ac9e5b5c903490613acb908b9083908990899060040161595d565b6000604051808303818588803b158015613ae457600080fd5b505af1158015613af8573d6000803e3d6000fd5b5050505050866000805160206159f783398151915287613b153390565b604051613b23929190615449565b60405180910390a26129886001600255565b6000805160206159d7833981519152613b4d81614258565b60008211613b6d5760405162461bcd60e51b8152600401610f789061529c565b600a821115613b8e5760405162461bcd60e51b8152600401610f789061598d565b50600c55565b60008281526001602081905260409091200154613bb081614258565b61101383836143f9565b606060048383604051613bce929190615204565b90815260200160405180910390208054613be790615214565b80601f0160208091040260200160405190810160405280929190818152602001828054613c1390615214565b8015613c605780601f10613c3557610100808354040283529160200191613c60565b820191906000526020600020905b815481529060010190602001808311613c4357829003601f168201915b5050505050905092915050565b60007f97667070c54ef182b0f5858b034beac1b6f3089aa2d3188bb1e8929f4fa9b929613c9981614258565b613ca161428a565b6000848152600a602052604090206001600782015460ff166002811115613cca57613cca615098565b14613d235760405162461bcd60e51b8152602060048201526024808201527f43726f7373776f7264426f6172643a2063726f7373776f7264206e6f742061636044820152637469766560e01b6064820152608401610f78565b6001600160a01b038416613d8d5760405162461bcd60e51b815260206004820152602b60248201527f43726f7373776f7264426f6172643a207573657220616464726573732063616e60448201526a6e6f74206265207a65726f60a81b6064820152608401610f78565b6001600160a01b038416600090815260048201602052604090205460ff1615613e075760405162461bcd60e51b815260206004820152602660248201527f43726f7373776f7264426f6172643a20616c7265616479207265636569766564604482015265207072697a6560d01b6064820152608401610f78565b600681015415613e65578060060154421115613e655760405162461bcd60e51b815260206004820152601f60248201527f43726f7373776f7264426f6172643a20646561646c696e6520706173736564006044820152606401610f78565b60028101546003820154101580613e825750600c54600382015410155b15613e915760009250506140dd565b6003810154600090613ea49060016154d9565b604080516060810182526001600160a01b0388811680835242602080850191825284860187815260038a810180546001808201835560009283528583208a519290940290930180546001600160a01b031916919098161787559351868201559051600295860155928252600489019052938420805460ff191682179055939450909261271091860190613f3790866154ec565b81548110613f4757613f47615518565b90600052602060002001548560010154613f6191906157d9565b613f6b91906157f0565b9050801561405c5783546001600160a01b031661404457808460090154613f9291906154d9565b471015613fb15760405162461bcd60e51b8152600401610f7890615473565b6000876001600160a01b03168260405160006040518083038185875af1925050503d8060008114613ffe576040519150601f19603f3d011682016040523d82523d6000602084013e614003565b606091505b50509050806140245760405162461bcd60e51b8152600401610f7890615812565b8185600901600082825461403891906154d9565b9091555061405c915050565b83546001600160a01b031661405a8189846142f4565b505b60408051828152602081018590526001600160a01b038916918a917f0842894bd3663e1d874d069f4495d64331ee07871e8fa4e159ae698421912c90910160405180910390a3600284015460038501541015806140bf5750600c54600385015410155b156140d45760078401805460ff191660021790555b60019550505050505b5092915050565b6000818152600a60209081526040808320805460018201546005830154600684015460078501546002860180548851818b0281018b019099528089528a996060998a998c998a998a9992986001600160a01b039092169790969560038a01959394929360ff909216929187919083018282801561418057602002820191906000526020600020905b81548152602001906001019080831161416c575b5050505050945083805480602002602001604051908101604052809291908181526020016000905b828210156141fd576000848152602090819020604080516060810182526003860290920180546001600160a01b03168352600180820154848601526002909101549183019190915290835290920191016141a8565b505050509350975097509750975097509750975050919395979092949650565b614225614353565b6001600160a01b03811661424f57604051631e4fbdf760e01b815260006004820152602401610f78565b611ffb81614583565b611ffb8133614610565b600280540361428457604051633ee5aeb560e01b815260040160405180910390fd5b60028055565b60035460ff16156123815760405163d93c066560e01b815260040160405180910390fd5b600081116142ce5760405162461bcd60e51b8152600401610f789061529c565b600a8111156142ef5760405162461bcd60e51b8152600401610f789061598d565b600c55565b6040516001600160a01b03838116602483015260448201839052611c1c91859182169063a9059cbb906064015b604051602081830303815290604052915060e01b6020820180516001600160e01b038381831617835250505050614649565b6000546001600160a01b031633146123815760405163118cdaa760e01b8152336004820152602401610f78565b600061438c8383612add565b6143f15760008381526001602081815260408084206001600160a01b0387168086529252808420805460ff19169093179092559051339286917f2f8788117e7eff1d82e926ec794901d17c78024a50270940304540a733656f0d9190a4506001610ec1565b506000610ec1565b60006144058383612add565b156143f15760008381526001602090815260408083206001600160a01b0386168085529252808320805460ff1916905551339286917ff6391f5c32d9c69d2a47ea670b442974b53935d1edc7fd64eb21e047a839171b9190a4506001610ec1565b6040516001600160a01b0384811660248301528381166044830152606482018390526110139186918216906323b872dd90608401614321565b6144a76146ba565b6003805460ff191690557f5db9ee0a495bf2e6ff9c91a7834c1ba4fdd244a5e8aa4e537bd38aeae4b073aa335b6040516001600160a01b03909116815260200160405180910390a1565b606060006144fe836146dd565b60010190506000816001600160401b0381111561451d5761451d614909565b6040519080825280601f01601f191660200182016040528015614547576020820181803683370190505b5090508181016020015b600019016f181899199a1a9b1b9c1cb0b131b232b360811b600a86061a8153600a850494508461455157509392505050565b600080546001600160a01b038381166001600160a01b0319831681178455604051919092169283917f8be0079c531659141344cd1fd0a4f28419497f9722a3daafe3b4186f6b6457e09190a35050565b6145db61428a565b6003805460ff191660011790557f62e78cea01bee320cd4e420270b5ea74000d11b0c9f74754ebdbfc544b05a2586144d43390565b61461a8282612add565b6111c25760405163e2517d3f60e01b81526001600160a01b038216600482015260248101839052604401610f78565b600080602060008451602086016000885af18061466c576040513d6000823e3d81fd5b50506000513d91508115614684578060011415614691565b6001600160a01b0384163b155b1561101357604051635274afe760e01b81526001600160a01b0385166004820152602401610f78565b60035460ff1661238157604051638dfc202b60e01b815260040160405180910390fd5b60008072184f03e93ff9f4daa797ed6e38ed64bf6a1f0160401b831061471c5772184f03e93ff9f4daa797ed6e38ed64bf6a1f0160401b830492506040015b6d04ee2d6d415b85acef81000000008310614748576d04ee2d6d415b85acef8100000000830492506020015b662386f26fc10000831061476657662386f26fc10000830492506010015b6305f5e100831061477e576305f5e100830492506008015b612710831061479257612710830492506004015b606483106147a4576064830492506002015b600a8310610ec15760010192915050565b8280548282559060005260206000209081019282156147f0579160200282015b828111156147f05782518255916020019190600101906147d5565b506147fc929150614800565b5090565b5b808211156147fc5760008155600101614801565b60006020828403121561482757600080fd5b81356001600160e01b031981168114610f2857600080fd5b80356001600160a01b038116811461485657600080fd5b919050565b60006020828403121561486d57600080fd5b610f288261483f565b60008083601f84011261488857600080fd5b5081356001600160401b0381111561489f57600080fd5b6020830191508360208285010111156148b757600080fd5b9250929050565b6000806000604084860312156148d357600080fd5b83356001600160401b038111156148e957600080fd5b6148f586828701614876565b909790965060209590950135949350505050565b634e487b7160e01b600052604160045260246000fd5b604051601f8201601f191681016001600160401b038111828210171561494757614947614909565b604052919050565b600082601f83011261496057600080fd5b81356001600160401b0381111561497957614979614909565b61498c601f8201601f191660200161491f565b8181528460208386010111156149a157600080fd5b816020850160208301376000918101602001919091529392505050565b6000806000606084860312156149d357600080fd5b8335925060208401356001600160401b038111156149f057600080fd5b6149fc8682870161494f565b93969395505050506040919091013590565b600060208284031215614a2057600080fd5b5035919050565b60008060208385031215614a3a57600080fd5b82356001600160401b03811115614a5057600080fd5b614a5c85828601614876565b90969095509350505050565b60008060408385031215614a7b57600080fd5b82359150614a8b6020840161483f565b90509250929050565b60005b83811015614aaf578181015183820152602001614a97565b50506000910152565b60008151808452614ad0816020860160208601614a94565b601f01601f19169290920160200192915050565b602081526000610f286020830184614ab8565b60008060408385031215614b0a57600080fd5b8235915060208301356001600160401b03811115614b2757600080fd5b614b338582860161494f565b9150509250929050565b602080825282518282018190526000918401906040840190835b81811015614b7e5783516001600160a01b0316835260209384019390920191600101614b57565b509095945050505050565b608081526000614b9c6080830187614ab8565b8281036020840152614bae8187614ab8565b90508281036040840152614bc28186614ab8565b91505082606083015295945050505050565b600082601f830112614be557600080fd5b81356001600160401b03811115614bfe57614bfe614909565b8060051b614c0e6020820161491f565b91825260208185018101929081019086841115614c2a57600080fd5b6020860192505b83831015614c4c578235825260209283019290910190614c31565b9695505050505050565b600080600080600060a08688031215614c6e57600080fd5b85359450614c7e6020870161483f565b93506040860135925060608601356001600160401b03811115614ca057600080fd5b614cac88828901614bd4565b95989497509295608001359392505050565b8035801515811461485657600080fd5b600080600060408486031215614ce357600080fd5b83356001600160401b03811115614cf957600080fd5b614d0586828701614876565b9094509250614d18905060208501614cbe565b90509250925092565b60008060008060008060006080888a031215614d3c57600080fd5b8735965060208801356001600160401b03811115614d5957600080fd5b614d658a828b01614876565b90975095505060408801356001600160401b03811115614d8457600080fd5b614d908a828b01614876565b90955093505060608801356001600160401b03811115614daf57600080fd5b614dbb8a828b01614876565b989b979a50959850939692959293505050565b838152606060208201526000614de76060830185614ab8565b9050826040830152949350505050565b60008060408385031215614e0a57600080fd5b614e138361483f565b9150614a8b60208401614cbe565b600080600080600080600060e0888a031215614e3c57600080fd5b8735965060208801356001600160401b03811115614e5957600080fd5b614e658a828b0161494f565b96505060408801359450614e7b6060890161483f565b93506080880135925060a08801356001600160401b03811115614e9d57600080fd5b614ea98a828b01614bd4565b979a969950949793969295929450505060c09091013590565b602080825282518282018190526000918401906040840190835b81811015614b7e57614f0c83855180516001600160a01b0316825260208082015190830152604090810151910152565b6020939093019260609290920191600101614edc565b60008060008060808587031215614f3857600080fd5b843593506020850135925060408501356001600160401b03811115614f5c57600080fd5b614f6887828801614bd4565b949793965093946060013593505050565b60008060408385031215614f8c57600080fd5b50508035926020909101359150565b60008060008060408587031215614fb157600080fd5b84356001600160401b03811115614fc757600080fd5b614fd387828801614876565b90955093505060208501356001600160401b03811115614ff257600080fd5b614ffe87828801614876565b95989497509550505050565b60008060008060008060c0878903121561502357600080fd5b8635955060208701356001600160401b0381111561504057600080fd5b61504c89828a0161494f565b955050604087013593506060870135925060808701356001600160401b0381111561507657600080fd5b61508289828a01614bd4565b9699959850939692959460a09093013593505050565b634e487b7160e01b600052602160045260246000fd5b600381106150cc57634e487b7160e01b600052602160045260246000fd5b9052565b6001600160a01b038816815260208101879052604081018690526060810185905260e0810161510260808301866150ae565b60a082019390935260c0015295945050505050565b600081518084526020840193506020830160005b8281101561514957815186526020958601959091019060010161512b565b5093949350505050565b60018060a01b038816815286602082015260e06040820152600061517a60e0830188615117565b82810360608401528651808252602080890192019060005b818110156151d8576151c283855180516001600160a01b0316825260208082015190830152604090810151910152565b6020939093019260609290920191600101615192565b505080925050508460808301528360a08301526151f860c08301846150ae565b98975050505050505050565b8183823760009101908152919050565b600181811c9082168061522857607f821691505b60208210810361524857634e487b7160e01b600052602260045260246000fd5b50919050565b6020808252602e908201527f43726f7373776f7264426f6172643a2063726f7373776f72642064617461206360408201526d616e6e6f7420626520656d70747960901b606082015260800190565b60208082526032908201527f43726f7373776f7264426f6172643a206d61782077696e6e657273206d75737460408201527102062652067726561746572207468616e20360741b606082015260800190565b6020808252602f908201527f43726f7373776f7264426f6172643a206d61782077696e6e657273206578636560408201526e0656473206c696d6974206f6620313608c1b606082015260800190565b601f821115611c1c57806000526020600020601f840160051c810160208510156153645750805b601f840160051c820191505b818110156153845760008155600101615370565b5050505050565b81516001600160401b038111156153a4576153a4614909565b6153b8816153b28454615214565b8461533d565b6020601f8211600181146153ec57600083156153d45750848201515b600019600385901b1c1916600184901b178455615384565b600084815260208120601f198516915b8281101561541c57878501518255602094850194600190920191016153fc565b508482101561543a5786840151600019600387901b60f8161c191681555b50505050600190811b01905550565b60408152600061545c6040830185614ab8565b905060018060a01b03831660208301529392505050565b60208082526030908201527f43726f7373776f7264426f6172643a20696e73756666696369656e74206e617460408201526f6976652043454c4f2062616c616e636560801b606082015260800190565b634e487b7160e01b600052601160045260246000fd5b80820180821115610ec157610ec16154c3565b81810381811115610ec157610ec16154c3565b60006020828403121561551157600080fd5b5051919050565b634e487b7160e01b600052603260045260246000fd5b634e487b7160e01b600052603160045260246000fd5b60208082526031908201527f43726f7373776f7264426f6172643a207072697a6520706f6f6c206d75737420604082015270062652067726561746572207468616e203607c1b606082015260800190565b60208082526030908201527f43726f7373776f7264426f6172643a207072697a6520706f6f6c20746f6f207360408201526f6d616c6c20666f722077696e6e65727360801b606082015260800190565b60208082526038908201527f43726f7373776f7264426f6172643a2077696e6e65722070657263656e74616760408201527f65206d7573742062652067726561746572207468616e20300000000000000000606082015260800190565b60208082526031908201527f43726f7373776f7264426f6172643a2073696e676c652077696e6e65722070656040820152700e4c6cadce8c2ceca40e8dede40d0d2ced607b1b606082015260800190565b6020808252602d908201527f43726f7373776f7264426f6172643a20746f74616c2070657263656e7461676560408201526c2065786365656473203130302560981b606082015260800190565b6020808252602e908201527f43726f7373776f7264426f6172643a20656e642074696d6520746f6f2066617260408201526d20696e207468652066757475726560901b606082015260800190565b60008251615740818460208701614a94565b9190910192915050565b85815260018060a01b038516602082015283604082015260a06060820152600061577760a0830185615117565b90508260808301529695505050505050565b60208082526030908201527f43726f7373776f7264426f6172643a2073656e742076616c7565206d7573742060408201526f1b585d18da081c1c9a5e99481c1bdbdb60821b606082015260800190565b8082028115828204841417610ec157610ec16154c3565b60008261580d57634e487b7160e01b600052601260045260246000fd5b500490565b6020808252602b908201527f43726f7373776f7264426f6172643a206e61746976652043454c4f207472616e60408201526a1cd9995c8819985a5b195960aa1b606082015260800190565b6001600160401b0383111561587457615874614909565b615888836158828354615214565b8361533d565b6000601f8411600181146158bc57600085156158a45750838201355b600019600387901b1c1916600186901b178355615384565b600083815260209020601f19861690835b828110156158ed57868501358255602094850194600190920191016158cd565b508682101561590a5760001960f88860031b161c19848701351681555b505060018560011b0183555050505050565b6040815282604082015282846060830137600060608483018101919091526001600160a01b03929092166020820152601f909201601f191690910101919050565b84815283602082015260806040820152600061597c6080830185615117565b905082606083015295945050505050565b60208082526029908201527f43726f7373776f7264426f6172643a206d61782077696e6e657273206578636560408201526819591cc81b1a5b5a5d60ba1b60608201526080019056fea49807205ce4d355092ef5a8a18f56e8913cf4a201fbe287825b095693c217751fcbf8c050c3ad4a9a3d6c5ca8f983e2e64047546e28251a7cc5a80daae27e73a26469706673582212208c6931f8b91f6b5e433ed3d87cec2f2a907388b8e825c1ed7c5bb05911248acb64736f6c634300081c0033",
  "linkReferences": {},
  "deployedLinkReferences": {}
}