{
  "_format": "hh-sol-artifact-1",
  "contractName": "CrosswordCore",
  "sourceName": "contracts/CrosswordCore.sol",
  "abi": [
    {
      "inputs": [
        {
          "internalType": "address",
          "name": "initialOwner",
          "type": "address"
        }
      ],
      "stateMutability": "nonpayable",
      "type": "constructor"
    },
    {
      "inputs": [],
      "name": "AccessControlBadConfirmation",
      "type": "error"
    },
    {
      "inputs": [
        {
          "internalType": "address",
          "name": "account",
          "type": "address"
        },
        {
          "internalType": "bytes32",
          "name": "neededRole",
          "type": "bytes32"
        }
      ],
      "name": "AccessControlUnauthorizedAccount",
      "type": "error"
    },
    {
      "inputs": [],
      "name": "ECDSAInvalidSignature",
      "type": "error"
    },
    {
      "inputs": [
        {
          "internalType": "uint256",
          "name": "length",
          "type": "uint256"
        }
      ],
      "name": "ECDSAInvalidSignatureLength",
      "type": "error"
    },
    {
      "inputs": [
        {
          "internalType": "bytes32",
          "name": "s",
          "type": "bytes32"
        }
      ],
      "name": "ECDSAInvalidSignatureS",
      "type": "error"
    },
    {
      "inputs": [],
      "name": "EnforcedPause",
      "type": "error"
    },
    {
      "inputs": [],
      "name": "ExpectedPause",
      "type": "error"
    },
    {
      "inputs": [
        {
          "internalType": "address",
          "name": "owner",
          "type": "address"
        }
      ],
      "name": "OwnableInvalidOwner",
      "type": "error"
    },
    {
      "inputs": [
        {
          "internalType": "address",
          "name": "account",
          "type": "address"
        }
      ],
      "name": "OwnableUnauthorizedAccount",
      "type": "error"
    },
    {
      "inputs": [],
      "name": "ReentrancyGuardReentrantCall",
      "type": "error"
    },
    {
      "anonymous": false,
      "inputs": [
        {
          "indexed": true,
          "internalType": "bytes32",
          "name": "crosswordId",
          "type": "bytes32"
        },
        {
          "indexed": true,
          "internalType": "address",
          "name": "user",
          "type": "address"
        },
        {
          "indexed": false,
          "internalType": "uint256",
          "name": "timestamp",
          "type": "uint256"
        },
        {
          "indexed": false,
          "internalType": "uint256",
          "name": "durationMs",
          "type": "uint256"
        }
      ],
      "name": "CrosswordCompleted",
      "type": "event"
    },
    {
      "anonymous": false,
      "inputs": [
        {
          "indexed": true,
          "internalType": "bytes32",
          "name": "crosswordId",
          "type": "bytes32"
        },
        {
          "indexed": false,
          "internalType": "string",
          "name": "crosswordData",
          "type": "string"
        },
        {
          "indexed": false,
          "internalType": "address",
          "name": "updatedBy",
          "type": "address"
        }
      ],
      "name": "CrosswordUpdated",
      "type": "event"
    },
    {
      "anonymous": false,
      "inputs": [
        {
          "indexed": true,
          "internalType": "address",
          "name": "previousOwner",
          "type": "address"
        },
        {
          "indexed": true,
          "internalType": "address",
          "name": "newOwner",
          "type": "address"
        }
      ],
      "name": "OwnershipTransferred",
      "type": "event"
    },
    {
      "anonymous": false,
      "inputs": [
        {
          "indexed": false,
          "internalType": "address",
          "name": "account",
          "type": "address"
        }
      ],
      "name": "Paused",
      "type": "event"
    },
    {
      "anonymous": false,
      "inputs": [
        {
          "indexed": true,
          "internalType": "bytes32",
          "name": "role",
          "type": "bytes32"
        },
        {
          "indexed": true,
          "internalType": "bytes32",
          "name": "previousAdminRole",
          "type": "bytes32"
        },
        {
          "indexed": true,
          "internalType": "bytes32",
          "name": "newAdminRole",
          "type": "bytes32"
        }
      ],
      "name": "RoleAdminChanged",
      "type": "event"
    },
    {
      "anonymous": false,
      "inputs": [
        {
          "indexed": true,
          "internalType": "bytes32",
          "name": "role",
          "type": "bytes32"
        },
        {
          "indexed": true,
          "internalType": "address",
          "name": "account",
          "type": "address"
        },
        {
          "indexed": true,
          "internalType": "address",
          "name": "sender",
          "type": "address"
        }
      ],
      "name": "RoleGranted",
      "type": "event"
    },
    {
      "anonymous": false,
      "inputs": [
        {
          "indexed": true,
          "internalType": "bytes32",
          "name": "role",
          "type": "bytes32"
        },
        {
          "indexed": true,
          "internalType": "address",
          "name": "account",
          "type": "address"
        },
        {
          "indexed": true,
          "internalType": "address",
          "name": "sender",
          "type": "address"
        }
      ],
      "name": "RoleRevoked",
      "type": "event"
    },
    {
      "anonymous": false,
      "inputs": [
        {
          "indexed": false,
          "internalType": "address",
          "name": "account",
          "type": "address"
        }
      ],
      "name": "Unpaused",
      "type": "event"
    },
    {
      "inputs": [],
      "name": "DEFAULT_ADMIN_ROLE",
      "outputs": [
        {
          "internalType": "bytes32",
          "name": "",
          "type": "bytes32"
        }
      ],
      "stateMutability": "view",
      "type": "function"
    },
    {
      "inputs": [
        {
          "internalType": "uint256",
          "name": "durationMs",
          "type": "uint256"
        },
        {
          "internalType": "string",
          "name": "username",
          "type": "string"
        },
        {
          "internalType": "string",
          "name": "displayName",
          "type": "string"
        },
        {
          "internalType": "string",
          "name": "pfpUrl",
          "type": "string"
        },
        {
          "internalType": "bytes",
          "name": "signature",
          "type": "bytes"
        }
      ],
      "name": "completeCrossword",
      "outputs": [],
      "stateMutability": "nonpayable",
      "type": "function"
    },
    {
      "inputs": [
        {
          "internalType": "bytes32",
          "name": "",
          "type": "bytes32"
        },
        {
          "internalType": "uint256",
          "name": "",
          "type": "uint256"
        }
      ],
      "name": "crosswordCompletions",
      "outputs": [
        {
          "internalType": "address",
          "name": "user",
          "type": "address"
        },
        {
          "internalType": "uint256",
          "name": "completionTimestamp",
          "type": "uint256"
        },
        {
          "internalType": "uint256",
          "name": "durationMs",
          "type": "uint256"
        }
      ],
      "stateMutability": "view",
      "type": "function"
    },
    {
      "inputs": [],
      "name": "currentCrosswordData",
      "outputs": [
        {
          "internalType": "string",
          "name": "",
          "type": "string"
        }
      ],
      "stateMutability": "view",
      "type": "function"
    },
    {
      "inputs": [],
      "name": "currentCrosswordId",
      "outputs": [
        {
          "internalType": "bytes32",
          "name": "",
          "type": "bytes32"
        }
      ],
      "stateMutability": "view",
      "type": "function"
    },
    {
      "inputs": [],
      "name": "emergencyClearCrossword",
      "outputs": [],
      "stateMutability": "nonpayable",
      "type": "function"
    },
    {
      "inputs": [
        {
          "internalType": "bytes32",
          "name": "crosswordId",
          "type": "bytes32"
        }
      ],
      "name": "getCrosswordCompletions",
      "outputs": [
        {
          "components": [
            {
              "internalType": "address",
              "name": "user",
              "type": "address"
            },
            {
              "internalType": "uint256",
              "name": "completionTimestamp",
              "type": "uint256"
            },
            {
              "internalType": "uint256",
              "name": "durationMs",
              "type": "uint256"
            }
          ],
          "internalType": "struct CrosswordCore.CrosswordCompletion[]",
          "name": "",
          "type": "tuple[]"
        }
      ],
      "stateMutability": "view",
      "type": "function"
    },
    {
      "inputs": [],
      "name": "getCurrentCrossword",
      "outputs": [
        {
          "internalType": "bytes32",
          "name": "",
          "type": "bytes32"
        },
        {
          "internalType": "string",
          "name": "",
          "type": "string"
        },
        {
          "internalType": "uint256",
          "name": "",
          "type": "uint256"
        }
      ],
      "stateMutability": "view",
      "type": "function"
    },
    {
      "inputs": [
        {
          "internalType": "bytes32",
          "name": "role",
          "type": "bytes32"
        }
      ],
      "name": "getRoleAdmin",
      "outputs": [
        {
          "internalType": "bytes32",
          "name": "",
          "type": "bytes32"
        }
      ],
      "stateMutability": "view",
      "type": "function"
    },
    {
      "inputs": [
        {
          "internalType": "address",
          "name": "user",
          "type": "address"
        }
      ],
      "name": "getUserProfile",
      "outputs": [
        {
          "internalType": "string",
          "name": "",
          "type": "string"
        },
        {
          "internalType": "string",
          "name": "",
          "type": "string"
        },
        {
          "internalType": "string",
          "name": "",
          "type": "string"
        },
        {
          "internalType": "uint256",
          "name": "",
          "type": "uint256"
        }
      ],
      "stateMutability": "view",
      "type": "function"
    },
    {
      "inputs": [
        {
          "internalType": "bytes32",
          "name": "role",
          "type": "bytes32"
        },
        {
          "internalType": "address",
          "name": "account",
          "type": "address"
        }
      ],
      "name": "grantRole",
      "outputs": [],
      "stateMutability": "nonpayable",
      "type": "function"
    },
    {
      "inputs": [
        {
          "internalType": "bytes32",
          "name": "",
          "type": "bytes32"
        },
        {
          "internalType": "address",
          "name": "",
          "type": "address"
        }
      ],
      "name": "hasCompletedCrossword",
      "outputs": [
        {
          "internalType": "bool",
          "name": "",
          "type": "bool"
        }
      ],
      "stateMutability": "view",
      "type": "function"
    },
    {
      "inputs": [
        {
          "internalType": "bytes32",
          "name": "role",
          "type": "bytes32"
        },
        {
          "internalType": "address",
          "name": "account",
          "type": "address"
        }
      ],
      "name": "hasRole",
      "outputs": [
        {
          "internalType": "bool",
          "name": "",
          "type": "bool"
        }
      ],
      "stateMutability": "view",
      "type": "function"
    },
    {
      "inputs": [],
      "name": "lastUpdateTime",
      "outputs": [
        {
          "internalType": "uint256",
          "name": "",
          "type": "uint256"
        }
      ],
      "stateMutability": "view",
      "type": "function"
    },
    {
      "inputs": [],
      "name": "owner",
      "outputs": [
        {
          "internalType": "address",
          "name": "",
          "type": "address"
        }
      ],
      "stateMutability": "view",
      "type": "function"
    },
    {
      "inputs": [],
      "name": "pause",
      "outputs": [],
      "stateMutability": "nonpayable",
      "type": "function"
    },
    {
      "inputs": [],
      "name": "paused",
      "outputs": [
        {
          "internalType": "bool",
          "name": "",
          "type": "bool"
        }
      ],
      "stateMutability": "view",
      "type": "function"
    },
    {
      "inputs": [],
      "name": "renounceOwnership",
      "outputs": [],
      "stateMutability": "nonpayable",
      "type": "function"
    },
    {
      "inputs": [
        {
          "internalType": "bytes32",
          "name": "role",
          "type": "bytes32"
        },
        {
          "internalType": "address",
          "name": "callerConfirmation",
          "type": "address"
        }
      ],
      "name": "renounceRole",
      "outputs": [],
      "stateMutability": "nonpayable",
      "type": "function"
    },
    {
      "inputs": [
        {
          "internalType": "bytes32",
          "name": "role",
          "type": "bytes32"
        },
        {
          "internalType": "address",
          "name": "account",
          "type": "address"
        }
      ],
      "name": "revokeRole",
      "outputs": [],
      "stateMutability": "nonpayable",
      "type": "function"
    },
    {
      "inputs": [
        {
          "internalType": "bytes32",
          "name": "crosswordId",
          "type": "bytes32"
        },
        {
          "internalType": "string",
          "name": "crosswordData",
          "type": "string"
        }
      ],
      "name": "setCrossword",
      "outputs": [],
      "stateMutability": "nonpayable",
      "type": "function"
    },
    {
      "inputs": [
        {
          "internalType": "address",
          "name": "newSigner",
          "type": "address"
        }
      ],
      "name": "setSigner",
      "outputs": [],
      "stateMutability": "nonpayable",
      "type": "function"
    },
    {
      "inputs": [],
      "name": "signer",
      "outputs": [
        {
          "internalType": "address",
          "name": "",
          "type": "address"
        }
      ],
      "stateMutability": "view",
      "type": "function"
    },
    {
      "inputs": [
        {
          "internalType": "bytes4",
          "name": "interfaceId",
          "type": "bytes4"
        }
      ],
      "name": "supportsInterface",
      "outputs": [
        {
          "internalType": "bool",
          "name": "",
          "type": "bool"
        }
      ],
      "stateMutability": "view",
      "type": "function"
    },
    {
      "inputs": [
        {
          "internalType": "address",
          "name": "newOwner",
          "type": "address"
        }
      ],
      "name": "transferOwnership",
      "outputs": [],
      "stateMutability": "nonpayable",
      "type": "function"
    },
    {
      "inputs": [],
      "name": "unpause",
      "outputs": [],
      "stateMutability": "nonpayable",
      "type": "function"
    },
    {
      "inputs": [
        {
          "internalType": "bytes32",
          "name": "crosswordId",
          "type": "bytes32"
        },
        {
          "internalType": "address",
          "name": "user",
          "type": "address"
        }
      ],
      "name": "userCompletedCrossword",
      "outputs": [
        {
          "internalType": "bool",
          "name": "",
          "type": "bool"
        }
      ],
      "stateMutability": "view",
      "type": "function"
    },
    {
      "inputs": [
        {
          "internalType": "address",
          "name": "",
          "type": "address"
        }
      ],
      "name": "userProfiles",
      "outputs": [
        {
          "internalType": "string",
          "name": "username",
          "type": "string"
        },
        {
          "internalType": "string",
          "name": "displayName",
          "type": "string"
        },
        {
          "internalType": "string",
          "name": "pfpUrl",
          "type": "string"
        },
        {
          "internalType": "uint256",
          "name": "timestamp",
          "type": "uint256"
        }
      ],
      "stateMutability": "view",
      "type": "function"
    }
  ],
  "bytecode": "0x608060405234610028576100196100146100bf565b6100f4565b60405161251690816103f98239f35b600080fd5b634e487b7160e01b600052604160045260246000fd5b90601f01601f191681019081106001600160401b0382111761006457604052565b61002d565b9061007d61007660405190565b9283610043565b565b6001600160a01b031690565b90565b6100978161007f565b0361002857565b9050519061007d8261008e565b906020828203126100285761008b9161009e565b61008b61290f803803806100d281610069565b9283398101906100ab565b61008b61008b61008b9290565b61008b60006100dd565b6101649061010181610167565b6101128161010d6100ea565b6102b5565b5061013d817fa49807205ce4d355092ef5a8a18f56e8913cf4a201fbe287825b095693c217756102b5565b507f97667070c54ef182b0f5858b034beac1b6f3089aa2d3188bb1e8929f4fa9b9296102b5565b50565b61007d906101a6565b61008b60016100dd565b90600019905b9181191691161790565b61019961008b6101a1926100dd565b60025461017a565b600255565b6101af906101bf565b61007d6101ba610170565b61018a565b61007d9061007d9061007d9061007d90610207565b61007f61008b61008b9290565b61008b906101d4565b6101f39061007f565b9052565b60208101929161007d91906101ea565b6000610212816101e1565b61021b8161007f565b6102248461007f565b1461023457505061007d9061037a565b631e4fbdf760e01b8252819061024d90600483016101f7565b0390fd5b905b600052602052604060002090565b61008b9061007f906001600160a01b031682565b61008b90610261565b61008b90610275565b906102539061027e565b9060ff90610180565b906102aa61008b6102b192151590565b8254610291565b9055565b6102c66102c283836103d6565b1590565b15610334576001916102ed836102e88360006102e28785610251565b01610287565b61029a565b339061032361031d61031d7f2f8788117e7eff1d82e926ec794901d17c78024a50270940304540a733656f0d9590565b9261027e565b9261032d60405190565b600090a490565b5050600090565b61008b9061007f565b61008b60005461033b565b906001600160a01b0390610180565b61036d61008b6103759261027e565b60005461034f565b600055565b610382610344565b9061038c8161035e565b6103bf6103b97f8be0079c531659141344cd1fd0a4f28419497f9722a3daafe3b4186f6b6457e09361027e565b9161027e565b916103c960405190565b600090a3565b5460ff1690565b61008b9160006102e26103f3936103eb600090565b506001610251565b6103cf56fe6080604052600436101561001257600080fd5b60003560e01c806301ffc9a7146101d25780631dc626b1146101cd5780631e31df88146101c8578063238ac933146101c3578063248a9ca3146101be57806324cbad25146101b95780632f2ff15d146101b4578063317d609b146101af57806331bd2691146101aa578063332d56d7146101a557806336568abe146101a05780633f4ba83a1461019b5780635c975abb146101965780636c19e78314610191578063715018a61461018c5780637849dbaa14610187578063842a42e3146101825780638456cb591461017d5780638da5cb5b1461017857806391d1485414610173578063987ee1561461016e578063a090a35614610169578063a217fddf14610164578063b38e9dde1461015f578063c8f33c911461015a578063cb0e184914610155578063d547741f146101505763f2fde38b036101d757610cc4565b610cad565b610c8d565b610bb9565b610b84565b610a7d565b610a39565b61097f565b610965565b61094c565b610936565b610920565b6108f8565b6108c0565b6108aa565b610891565b61087b565b610864565b610835565b61075d565b610724565b61062f565b610615565b610579565b61053d565b6104d6565b6102b7565b610225565b600080fd5b6001600160e01b03191690565b6101f2816101dc565b036101d757565b90503590610206826101e9565b565b602060048203126101d75761021e9060046101f9565b90565b9052565b346101d75761025061023e61023936610208565b610cda565b60405191829182901515815260200190565b0390f35b806101f2565b9050359061020682610254565b6001600160a01b031690565b61021e90610267565b6101f281610273565b905035906102068261027c565b906004916040838203126101d75761021e9060206102b0828661025a565b9401610285565b346101d75761025061023e6102cb36610292565b90610d27565b600460009103126101d757565b634e487b7160e01b600052600060045260246000fd5b634e487b7160e01b600052602260045260246000fd5b906001600283049216801561032a575b602083101461032557565b6102f4565b91607f169161031a565b90600092918054916103526103488461030a565b8083529160200190565b916001936001811690816000146103c65750600114610372575b50505050565b8394955061038890939293600052602060002090565b6000945b61039f575b50505001903880808061036c565b8185939510156103be578054838501526020909201939182018261038c565b829450610391565b60ff191684525050151560200201925038905080808061036c565b9061021e91610334565b634e487b7160e01b600052604160045260246000fd5b90601f01601f191681019081106001600160401b0382111761042257604052565b6103eb565b906102066104419261043860405190565b938480926103e1565b0383610401565b906000106104595761021e90610427565b6102de565b61021e60006005610448565b60005b83811061047d5750506000910152565b818101518382015260200161046d565b6104ae6104b76020936104c1936104a2815190565b80835293849260200190565b9586910161046a565b601f01601f191690565b0190565b602080825261021e9291019061048d565b346101d7576104e4366102d1565b6102506104ef61045e565b604051918291826104c5565b61021e916008021c610267565b610267565b9061021e91546104fb565b61021e6000600a61050d565b61022190610273565b6020810192916102069190610524565b346101d75761054b366102d1565b610250610556610518565b6040515b9182918261052d565b602060048203126101d75761021e90600461025a565b346101d75761025061059261058d36610563565b610d52565b6040519182918290815260200190565b905b600052602052604060002090565b61050861021e61021e92610267565b61021e906105b2565b61021e906105c1565b906105a4906105ca565b61021e916008021c5b60ff1690565b9061021e91546105dd565b61061061021e9261060b60009360086105a2565b6105d3565b6105ec565b346101d75761025061023e61062936610292565b906105f7565b346101d75761064661064036610292565b90610d93565b604051005b60405190610206606083610401565b60405190610206608083610401565b9061020661067660405190565b9283610401565b6001600160401b03811161042257602090601f01601f19160190565b90826000939282370152565b909291926106ba6106b58261067d565b610669565b93818552818301116101d757610206916020850190610699565b9080601f830112156101d75781602061021e933591016106a5565b9060046040818403126101d757610706838261025a565b9260208201356001600160401b0381116101d75761021e92016106d4565b346101d757610646610735366106ef565b9061119d565b61021e916008021c81565b9061021e915461073b565b61021e60006004610746565b346101d75761076b366102d1565b610250610592610751565b602060048203126101d75761021e906004610285565b61021e9081565b61021e60065461078c565b61021e60025461078c565b61021e905461078c565b6107be9060096105d3565b906107c882610427565b916107d560018201610427565b9161021e60036107e760028501610427565b93016107a9565b949391610206936108226108309261081460609560808b01908b820360008d015261048d565b9089820360208b015261048d565b90878203604089015261048d565b940152565b346101d75761025061084e61084936610776565b6107b3565b9061085b94929460405190565b948594856107ee565b346101d75761064661087536610292565b906111a7565b346101d757610889366102d1565b6106466111f8565b346101d75761089f366102d1565b61025061023e611200565b346101d7576106466108bb36610776565b6112e8565b346101d7576108ce366102d1565b610646611329565b908152929161020691604090610830906060870190878203602089015261048d565b346101d757610906366102d1565b61025061091161133a565b604051919391938493846108d6565b346101d75761092e366102d1565b6106466113d7565b346101d757610944366102d1565b6106466113f5565b346101d75761095a366102d1565b6102506105566113fd565b346101d75761025061023e61097936610292565b90611405565b346101d75761025061084e61099336610776565b611428565b90604080610206936109b260008201516000860190610524565b6109c160208201516020860152565b0151910152565b906104c181606093610998565b906109f56109ee6109e4845190565b8084529260200190565b9260200190565b9060005b818110610a065750505090565b909192610a20610a1960019286516109c8565b9460200190565b9291016109f9565b602080825261021e929101906109d5565b346101d757610250610a52610a4d36610563565b611556565b60405191829182610a28565b61021e61021e61021e9290565b61021e6000610a5e565b61021e610a6b565b346101d757610a8b366102d1565b610250610592610a75565b906004916040838203126101d75761021e906020610ab4828661025a565b940161025a565b634e487b7160e01b600052603260045260246000fd5b8054821015610af457610aeb600391600052602060002090565b91020190600090565b610abb565b61021e600054610273565b61021e600a54610273565b61021e9054610273565b610b249060076105a2565b90610b2d825490565b8110156101d757610b3d91610ad1565b50610b4781610b0f565b9161021e60026107e7600185016107a9565b604090610b806102069496959396610b7960608401986000850190610524565b6020830152565b0152565b346101d757610250610b9e610b9836610a96565b90610b19565b60405191939193849384610b59565b61021e60006006610746565b346101d757610bc7366102d1565b610250610592610bad565b909182601f830112156101d7578135916001600160401b0383116101d75760200192600183028401116101d757565b60049160a0838303126101d757610c18828461025a565b926001600160401b039160208201358381116101d75784610c3a918401610bd2565b93909460408401358281116101d75781610c55918601610bd2565b93909460608101358481116101d75783610c70918301610bd2565b93909460808301359081116101d757610c899201610bd2565b9091565b346101d757610646610c9e36610c01565b97969096959195949294611c47565b346101d757610646610cbe36610292565b90611c73565b346101d757610646610cd536610776565b611ccf565b610cea637965db0b60e01b6101dc565b610cf3826101dc565b14908115610cff575090565b61021e9150611cd8565b61021e906105e6565b61021e600354610d09565b61021e9054610d09565b61021e9161060b610d4292610d3a600090565b5060086105a2565b610d1d565b61021e60045461078c565b6001610d6a61021e92610d63600090565b50826105a2565b016107a9565b9061020691610d86610d8182610d52565b611cf5565b90610d9091611d00565b50565b9061020691610d70565b610daa6106b5601261067d565b9060128252565b610dbe6106b5600a61067d565b90600a8252565b610dd26106b5600c61067d565b90600c8252565b610de66106b5600e61067d565b90600e8252565b610dfa6106b5601161067d565b9060118252565b610e0e6106b5601061067d565b9060108252565b610e226106b5601461067d565b9060148252565b610e366106b5600f61067d565b90600f8252565b610e45610d9d565b712737ba1037bbb732b91037b91030b236b4b760711b602082015290565b61021e610e3d565b61021e610e63565b9061020691610ea7610e84306105ca565b610e8d306105ca565b903390610ea1610e9b610e6b565b936105ca565b90611d80565b9061020691610eb4611d94565b611129565b610ec1610db1565b694461746120656d70747960b01b602082015290565b61021e610eb9565b61021e610ed7565b90600019905b9181191691161790565b610f0461021e610f0c9290565b600454610ee7565b600455565b9160001960089290920291821b911b610eed565b9190610f3661021e610f3e93610a5e565b908354610f11565b9055565b6102069060008091610f25565b818110610f5a575050565b80610f66600192610f42565b01610f4f565b9190601f8111610f7b57505050565b610f8d61020693600052602060002090565b906020601f840181900483019310610faf575b6020601f909101040190610f4f565b9091508190610fa0565b9060001960089091021c191690565b81610fd291610fb9565b906002021790565b90610fe3815190565b906001600160401b0382116104225761100682611000855461030a565b85610f6c565b602090601f831160011461103457610f3e929160009183611029575b5050610fc8565b015190503880611022565b601f1983169161104985600052602060002090565b9260005b8181106110885750916002939185600196941061106e575b50505002019055565b61107e910151601f841690610fb9565b9055388080611065565b9193602060018192878701518155019501920161104d565b610206906005610fda565b9061020691610fda565b6110c461021e6110cc92610a5e565b600654610ee7565b600655565b6110e061021e6110e892610a5e565b600254610ee7565b600255565b906110fd61021e610f3e92610a5e565b8254610ee7565b92916020611121610206936040870190878203600089015261048d565b940190610524565b611144611134610edf565b61113e6001610a5e565b84611db4565b61114d81610ef7565b611156826110a0565b61115f426110b5565b337f1fcbf8c050c3ad4a9a3d6c5ca8f983e2e64047546e28251a7cc5a80daae27e73919261119861118f60405190565b92839283611104565b0390a2565b9061020691610e73565b906111b633610273565b610273565b6111bf82610273565b036111cd57610d9091611dd4565b63334bd91960e11b60009081528060045b0390fd5b6111ed610d81610a6b565b610206610206611e85565b6102066111e2565b61021e610d12565b7fa49807205ce4d355092ef5a8a18f56e8913cf4a201fbe287825b095693c2177590565b6102069061123b610d81611208565b6112ce565b611248610dc5565b6b5a65726f206164647265737360a01b602082015290565b61021e611240565b61021e611260565b906001600160a01b0390610eed565b61128e61021e611296926105ca565b600a54611270565b600a55565b6112aa61021e6112b2926105ca565b600054611270565b600055565b906112c761021e610f3e926105ca565b8254611270565b610206906112e36112dd611268565b82611e8d565b61127f565b6102069061122c565b6112f9611eaf565b610206611317565b61050861021e61021e9290565b61021e90611301565b610206611324600061130e565b611ee8565b6102066112f1565b61021e90610427565b611342610d47565b61134a610793565b90916113566005611331565b9190565b611362611eaf565b6102066113b4565b90601f8111611377575050565b61138961020692600052602060002090565b908190610faf565b6113a461139e825461030a565b8261136a565b60009055565b6102066005611391565b6113c66113c16000610a5e565b610ef7565b6113ce6113aa565b610206426110b5565b61020661135a565b6113ea610d81610a6b565b610206610206611f82565b6102066113df565b61021e610af9565b61021e916000611422610d429361141a600090565b5060016105a2565b016105d3565b61021e61143f91611437606090565b5060096105d3565b600181019160028201919061135661146b61146561145f600386016107a9565b94611331565b95611331565b93611331565b6001600160401b0381116104225760208091020190565b906114956106b583611471565b918252565b9061022190610273565b61021e61064b565b906102066114e660026114bd6114a4565b946114d06114ca82610b0f565b8761149a565b610d6a6114df600183016107a9565b6020880152565b6040840152565b61021e906114ac565b906114ff825490565b61150881611488565b92602061151e6020860192600052602060002090565b6000925b848410611530575050505050565b60038360019261153f856114ed565b815201920193019290611522565b61021e906114f6565b61156d61021e91611565606090565b5060076105a2565b61154d565b9061158b9897969594939291611586611f94565b611593565b610206611fd0565b9061020698979695949392916115a7611d94565b611980565b6115b4610dd9565b6d24b73b30b634b21039b2b73232b960911b602082015290565b61021e6115ac565b61021e6115ce565b6115e6610ded565b70105b1c9958591e4818dbdb5c1b195d1959607a1b602082015290565b61021e6115de565b61021e611603565b1561161b5750565b6111de9061162860405190565b62461bcd60e51b8152918291600483016104c5565b611645610dc5565b6b139bc818dc9bdcdcdddbdc9960a21b602082015290565b61021e61163d565b61021e61165d565b611675610dc5565b6b04475726174696f6e203e20360a41b602082015290565b61021e61166d565b61021e61168d565b6116a5610e01565b6f496e76616c696420757365726e616d6560801b602082015290565b61021e61169d565b61021e6116c1565b61021e9136916106a5565b61021e6064610a5e565b6116ee610e15565b73496e76616c696420646973706c6179206e616d6560601b602082015290565b61021e6116e6565b61021e61170e565b61021e60c8610a5e565b61021e6101f4610a5e565b61173b610e01565b6f5066702055524c20746f6f206c6f6e6760801b602082015290565b61021e611733565b61021e611757565b61176f610dd9565b6d14da59db995c881b9bdd081cd95d60921b602082015290565b61021e611767565b61021e611789565b6117a561022191610273565b60601b90565b926117ce60206104c1946117c86014886117c8829b9a8699611799565b01918252565b018092611799565b6117de610ded565b70496e76616c6964207369676e617475726560781b602082015290565b61021e6117d6565b61021e6117fb565b61021e6103e8610a5e565b61181e610e29565b6e4d617820636f6d706c6574696f6e7360881b602082015290565b61021e611816565b61021e611839565b61021e9051610273565b5190565b600261189360406102069461187761187160008301611849565b866112b7565b61188e611885602083015190565b600187016110ed565b015190565b91016110ed565b91906104595761020691611857565b80549190600160401b83101561042257826118cc91600161020695018155610ad1565b9061189a565b9060ff90610eed565b6118ea61021e6118f292151590565b6003546118d2565b600355565b9061190761021e610f3e92151590565b82546118d2565b61021e61065a565b600361189360606102069461193561192f600083015190565b866110ab565b61194c611943602083015190565b600187016110ab565b61188e61195a604083015190565b600287016110ab565b9061020691611916565b9081526040810192916102069160200152565b97969291959390966119906115d6565b61199a9033611e8d565b6119a2610d47565b97889460086119b187826105a2565b336119bb916105d3565b6119c490610d1d565b156119cd61160b565b6119d691611613565b6000936119e285610a5e565b88906119ec611665565b911415906119f991611613565b8c611a02611695565b611a0b91611fe0565b600192611a166116c9565b611a208d876116d1565b611a2986610a5e565b9182611a3492611db4565b611a3c6116dc565b8d611a456116c9565b90611a5090896116d1565b91611a5a92611ff8565b611a62611716565b611a6c898b6116d1565b91611a7692611db4565b611a7e61171e565b611a86611716565b611a90898b6116d1565b91611a9a92611ff8565b611aa2611728565b8a8c611aac61175f565b91611ab6916116d1565b91611ac092611ff8565b8d611ac9610b04565b90611ad2611791565b611adc9083611e8d565b611ae5306105ca565b9a611aef60405190565b91829160209d8e8401923392611b0593856117ab565b908103825203611b159082610401565b8051906020012092611b25611803565b92611b2f94612014565b508a600781611b3e81836105a2565b54611b4761180b565b611b4f611841565b911090611b5b91611613565b611b64916105a2565b8d611b6d6114a4565b90611b7a3389840161149a565b611b8442838d0152565b6040820152611b92916118a9565b611b9b916105a2565b33611ba5916105d3565b90611baf916118f7565b611bb761190e565b97611bc1916116d1565b90870152611bce916116d1565b90840152611bdb916116d1565b6040820152611beb426060830152565b611bf63360096105d3565b90611c0091611963565b7fd874e861282b2f8594edf306850dc2b69894038be0181c78618d086be9d6a7b8611c2a336105ca565b92611c3460405190565b80914290611c42918361196d565b0390a3565b906102069897969594939291611572565b9061020691611c69610d8182610d52565b90610d9091611dd4565b9061020691611c58565b61020690611c89611eaf565b6000611c948161130e565b611c9d81610273565b611ca684610273565b14611cb657505061020690611ee8565b631e4fbdf760e01b825281906111de906004830161052d565b61020690611c7d565b611cf1611ceb6301ffc9a760e01b6101dc565b916101dc565b1490565b61020690339061209b565b611d11611d0d8383611405565b1590565b15611d7957600191611d3283611d2d83600061142287856105a2565b6118f7565b3390611d68611d62611d627f2f8788117e7eff1d82e926ec794901d17c78024a50270940304540a733656f0d9590565b926105ca565b92611d7260405190565b600090a490565b5050600090565b91611d8f916102069493612139565b611613565b611d9c611200565b611da257565b63d93c066560e01b6000908152600490fd5b90611dcd611356611dc9611853610206969590565b9290565b1015611613565b90611ddf8183611405565b15611d7957611df96000611d2d83826114228760016105a2565b3390611e29611d62611d627ff6391f5c32d9c69d2a47ea670b442974b53935d1edc7fd64eb21e047a839171b9590565b92611e3360405190565b600090a4600190565b611e44612265565b610206611e5160006118db565b33611e807f5db9ee0a495bf2e6ff9c91a7834c1ba4fdd244a5e8aa4e537bd38aeae4b073aa9161055a60405190565b0390a1565b610206611e3c565b9061020691611ea8611ea26111b1600061130e565b91610273565b1415611613565b611eb76113fd565b3390611ec5611ea283610273565b03611ecd5750565b63118cdaa760e01b60009081529081906111de90600461052d565b611ef0610af9565b90611efa8161129b565b611f2d611f277f8be0079c531659141344cd1fd0a4f28419497f9722a3daafe3b4186f6b6457e0936105ca565b916105ca565b91611f3760405190565b8080611c42565b611f46611d94565b610206611f5360016118db565b33611e807f62e78cea01bee320cd4e420270b5ea74000d11b0c9f74754ebdbfc544b05a2589161055a60405190565b610206611f3e565b61021e6002610a5e565b611f9c61079e565b611fa4611f8a565b908114611fb457610206906110d1565b633ee5aeb560e01b6000908152600490fd5b61021e6001610a5e565b610206611fdb611fc6565b6110d1565b9061020691611ff26113566000610a5e565b11611613565b9061200d611356611dc9611853610206969590565b1115611613565b6120719161206561021e95969461205f61206b94612030600090565b507b0ca2ba3432b932bab69029b4b3b732b21026b2b9b9b0b3b29d05199960211b600052601c52603c60002090565b926116d1565b90612288565b93610273565b61207a84610273565b14611613565b916020610206929493610b8060408201966000830190610524565b906120a9611d0d8284611405565b6120b1575050565b63e2517d3f60e01b60009081529182916111de91906004612080565b905051906102068261027c565b906020828203126101d75761021e916120cd565b6040513d6000823e3d90fd5b8015156101f2565b90505190610206826120fa565b906020828203126101d75761021e91612102565b9081526040810192916102069160200190610524565b6121516121699193929361214b600090565b506105ca565b638da5cb5b9061216060405190565b92839260e01b90565b825281600481016020948593815a930392fa90811561223357600091612238575b50612197611ea284610273565b149182156121a7575b5050905090565b91506121db6121b682946105ca565b6391d148546121e66121c6611208565b956121d060405190565b968795869460e01b90565b845260048401612123565b91815a930392fa91821561223357600092612206575b50508038806121a0565b6122259250803d1061222c575b61221d8183610401565b81019061210f565b38806121fc565b503d612213565b6120ee565b6122589150823d841161225e575b6122508183610401565b8101906120da565b3861218a565b503d612246565b612270611d0d611200565b61227657565b638dfc202b60e01b6000908152600490fd5b61021e916122959161229e565b9092919261233e565b906000916122aa825190565b6122b76113566041610a5e565b036122e1576122da92506020820151906060604084015193015160001a90612421565b9192909190565b5090506122fe6122f96122f4600061130e565b925190565b610a5e565b909160029190565b634e487b7160e01b600052602160045260246000fd5b6004111561232657565b612306565b906102068261231c565b61021e90610a5e565b9060009161234b8361232b565b6123548261232b565b0361235e57505050565b612368600161232b565b6123718261232b565b036123855763f645eedf60e01b8352600483fd5b61238f600261232b565b6123988261232b565b036123c157506111de6123ab8392612335565b63fce698f760e01b835260048301526024820190565b6123d46123ce600361232b565b9161232b565b146123dd575050565b6335e2f38360e21b82526004820152602490fd5b610b806102069461241a606094989795612410608086019a6000870152565b60ff166020850152565b6040830152565b9392919061242e83612335565b6124506113566fa2a8918ca85bafe22016d0b997e4df60600160ff1b03610a5e565b116124ca579161246d9160209361246660405190565b96876123f1565b9260009384918280526001815a930392fa156122335781519061248f8361130e565b61249881610273565b6124a184610273565b146124b657506124b083610a5e565b91929190565b9150916124c290610a5e565b909160019190565b50509091506124d9600061130e565b916003919056fea2646970667358221220f9d55312028f1e6f3b13e118eaf052252d8423ea1d0c25a4cd1d228af8d41a1a64736f6c634300081c0033",
  "linkReferences": {},
  "deployedLinkReferences": {}
}