{
  "_format": "hh-sol-artifact-1",
  "contractName": "AdminManager",
  "sourceName": "contracts/AdminManager.sol",
  "abi": [
    {
      "inputs": [
        {
          "internalType": "address",
          "name": "initialOwner",
          "type": "address"
        }
      ],
      "stateMutability": "nonpayable",
      "type": "constructor"
    },
    {
      "inputs": [],
      "name": "AccessControlBadConfirmation",
      "type": "error"
    },
    {
      "inputs": [
        {
          "internalType": "address",
          "name": "account",
          "type": "address"
        },
        {
          "internalType": "bytes32",
          "name": "neededRole",
          "type": "bytes32"
        }
      ],
      "name": "AccessControlUnauthorizedAccount",
      "type": "error"
    },
    {
      "inputs": [],
      "name": "EnforcedPause",
      "type": "error"
    },
    {
      "inputs": [],
      "name": "ExpectedPause",
      "type": "error"
    },
    {
      "inputs": [
        {
          "internalType": "address",
          "name": "owner",
          "type": "address"
        }
      ],
      "name": "OwnableInvalidOwner",
      "type": "error"
    },
    {
      "inputs": [
        {
          "internalType": "address",
          "name": "account",
          "type": "address"
        }
      ],
      "name": "OwnableUnauthorizedAccount",
      "type": "error"
    },
    {
      "anonymous": false,
      "inputs": [
        {
          "indexed": true,
          "internalType": "address",
          "name": "admin",
          "type": "address"
        },
        {
          "indexed": false,
          "internalType": "address",
          "name": "addedBy",
          "type": "address"
        }
      ],
      "name": "AdminAdded",
      "type": "event"
    },
    {
      "anonymous": false,
      "inputs": [
        {
          "indexed": true,
          "internalType": "address",
          "name": "admin",
          "type": "address"
        },
        {
          "indexed": false,
          "internalType": "address",
          "name": "removedBy",
          "type": "address"
        }
      ],
      "name": "AdminRemoved",
      "type": "event"
    },
    {
      "anonymous": false,
      "inputs": [
        {
          "indexed": true,
          "internalType": "address",
          "name": "previousOwner",
          "type": "address"
        },
        {
          "indexed": true,
          "internalType": "address",
          "name": "newOwner",
          "type": "address"
        }
      ],
      "name": "OwnershipTransferred",
      "type": "event"
    },
    {
      "anonymous": false,
      "inputs": [
        {
          "indexed": false,
          "internalType": "address",
          "name": "account",
          "type": "address"
        }
      ],
      "name": "Paused",
      "type": "event"
    },
    {
      "anonymous": false,
      "inputs": [
        {
          "indexed": true,
          "internalType": "bytes32",
          "name": "role",
          "type": "bytes32"
        },
        {
          "indexed": true,
          "internalType": "bytes32",
          "name": "previousAdminRole",
          "type": "bytes32"
        },
        {
          "indexed": true,
          "internalType": "bytes32",
          "name": "newAdminRole",
          "type": "bytes32"
        }
      ],
      "name": "RoleAdminChanged",
      "type": "event"
    },
    {
      "anonymous": false,
      "inputs": [
        {
          "indexed": true,
          "internalType": "bytes32",
          "name": "role",
          "type": "bytes32"
        },
        {
          "indexed": true,
          "internalType": "address",
          "name": "account",
          "type": "address"
        },
        {
          "indexed": true,
          "internalType": "address",
          "name": "sender",
          "type": "address"
        }
      ],
      "name": "RoleGranted",
      "type": "event"
    },
    {
      "anonymous": false,
      "inputs": [
        {
          "indexed": true,
          "internalType": "bytes32",
          "name": "role",
          "type": "bytes32"
        },
        {
          "indexed": true,
          "internalType": "address",
          "name": "account",
          "type": "address"
        },
        {
          "indexed": true,
          "internalType": "address",
          "name": "sender",
          "type": "address"
        }
      ],
      "name": "RoleRevoked",
      "type": "event"
    },
    {
      "anonymous": false,
      "inputs": [
        {
          "indexed": false,
          "internalType": "address",
          "name": "account",
          "type": "address"
        }
      ],
      "name": "Unpaused",
      "type": "event"
    },
    {
      "inputs": [],
      "name": "DEFAULT_ADMIN_ROLE",
      "outputs": [
        {
          "internalType": "bytes32",
          "name": "",
          "type": "bytes32"
        }
      ],
      "stateMutability": "view",
      "type": "function"
    },
    {
      "inputs": [
        {
          "internalType": "address",
          "name": "newAdmin",
          "type": "address"
        }
      ],
      "name": "addAdmin",
      "outputs": [],
      "stateMutability": "nonpayable",
      "type": "function"
    },
    {
      "inputs": [
        {
          "internalType": "address",
          "name": "operator",
          "type": "address"
        }
      ],
      "name": "addOperator",
      "outputs": [],
      "stateMutability": "nonpayable",
      "type": "function"
    },
    {
      "inputs": [
        {
          "internalType": "uint256",
          "name": "",
          "type": "uint256"
        }
      ],
      "name": "admins",
      "outputs": [
        {
          "internalType": "address",
          "name": "",
          "type": "address"
        }
      ],
      "stateMutability": "view",
      "type": "function"
    },
    {
      "inputs": [],
      "name": "getAdmins",
      "outputs": [
        {
          "internalType": "address[]",
          "name": "",
          "type": "address[]"
        }
      ],
      "stateMutability": "view",
      "type": "function"
    },
    {
      "inputs": [
        {
          "internalType": "bytes32",
          "name": "role",
          "type": "bytes32"
        }
      ],
      "name": "getRoleAdmin",
      "outputs": [
        {
          "internalType": "bytes32",
          "name": "",
          "type": "bytes32"
        }
      ],
      "stateMutability": "view",
      "type": "function"
    },
    {
      "inputs": [
        {
          "internalType": "bytes32",
          "name": "role",
          "type": "bytes32"
        },
        {
          "internalType": "address",
          "name": "account",
          "type": "address"
        }
      ],
      "name": "grantRole",
      "outputs": [],
      "stateMutability": "nonpayable",
      "type": "function"
    },
    {
      "inputs": [
        {
          "internalType": "bytes32",
          "name": "role",
          "type": "bytes32"
        },
        {
          "internalType": "address",
          "name": "account",
          "type": "address"
        }
      ],
      "name": "hasRole",
      "outputs": [
        {
          "internalType": "bool",
          "name": "",
          "type": "bool"
        }
      ],
      "stateMutability": "view",
      "type": "function"
    },
    {
      "inputs": [
        {
          "internalType": "address",
          "name": "",
          "type": "address"
        }
      ],
      "name": "isAdmin",
      "outputs": [
        {
          "internalType": "bool",
          "name": "",
          "type": "bool"
        }
      ],
      "stateMutability": "view",
      "type": "function"
    },
    {
      "inputs": [
        {
          "internalType": "address",
          "name": "addr",
          "type": "address"
        }
      ],
      "name": "isAdminAddress",
      "outputs": [
        {
          "internalType": "bool",
          "name": "",
          "type": "bool"
        }
      ],
      "stateMutability": "view",
      "type": "function"
    },
    {
      "inputs": [
        {
          "internalType": "address",
          "name": "account",
          "type": "address"
        }
      ],
      "name": "isOperator",
      "outputs": [
        {
          "internalType": "bool",
          "name": "",
          "type": "bool"
        }
      ],
      "stateMutability": "view",
      "type": "function"
    },
    {
      "inputs": [],
      "name": "owner",
      "outputs": [
        {
          "internalType": "address",
          "name": "",
          "type": "address"
        }
      ],
      "stateMutability": "view",
      "type": "function"
    },
    {
      "inputs": [],
      "name": "pause",
      "outputs": [],
      "stateMutability": "nonpayable",
      "type": "function"
    },
    {
      "inputs": [],
      "name": "paused",
      "outputs": [
        {
          "internalType": "bool",
          "name": "",
          "type": "bool"
        }
      ],
      "stateMutability": "view",
      "type": "function"
    },
    {
      "inputs": [
        {
          "internalType": "address",
          "name": "adminToRemove",
          "type": "address"
        }
      ],
      "name": "removeAdmin",
      "outputs": [],
      "stateMutability": "nonpayable",
      "type": "function"
    },
    {
      "inputs": [
        {
          "internalType": "address",
          "name": "operator",
          "type": "address"
        }
      ],
      "name": "removeOperator",
      "outputs": [],
      "stateMutability": "nonpayable",
      "type": "function"
    },
    {
      "inputs": [],
      "name": "renounceOwnership",
      "outputs": [],
      "stateMutability": "nonpayable",
      "type": "function"
    },
    {
      "inputs": [
        {
          "internalType": "bytes32",
          "name": "role",
          "type": "bytes32"
        },
        {
          "internalType": "address",
          "name": "callerConfirmation",
          "type": "address"
        }
      ],
      "name": "renounceRole",
      "outputs": [],
      "stateMutability": "nonpayable",
      "type": "function"
    },
    {
      "inputs": [
        {
          "internalType": "bytes32",
          "name": "role",
          "type": "bytes32"
        },
        {
          "internalType": "address",
          "name": "account",
          "type": "address"
        }
      ],
      "name": "revokeRole",
      "outputs": [],
      "stateMutability": "nonpayable",
      "type": "function"
    },
    {
      "inputs": [
        {
          "internalType": "bytes4",
          "name": "interfaceId",
          "type": "bytes4"
        }
      ],
      "name": "supportsInterface",
      "outputs": [
        {
          "internalType": "bool",
          "name": "",
          "type": "bool"
        }
      ],
      "stateMutability": "view",
      "type": "function"
    },
    {
      "inputs": [
        {
          "internalType": "address",
          "name": "newOwner",
          "type": "address"
        }
      ],
      "name": "transferOwnership",
      "outputs": [],
      "stateMutability": "nonpayable",
      "type": "function"
    },
    {
      "inputs": [],
      "name": "unpause",
      "outputs": [],
      "stateMutability": "nonpayable",
      "type": "function"
    }
  ],
  "bytecode": "0x608060405234610028576100196100146100bf565b6101fa565b60405161133e90816104688239f35b600080fd5b634e487b7160e01b600052604160045260246000fd5b90601f01601f191681019081106001600160401b0382111761006457604052565b61002d565b9061007d61007660405190565b9283610043565b565b6001600160a01b031690565b90565b6100978161007f565b0361002857565b9050519061007d8261008e565b906020828203126100285761008b9161009e565b61008b6117a6803803806100d281610069565b9283398101906100ab565b61008b9061007f906001600160a01b031682565b61008b906100dd565b61008b906100f1565b9061010d906100fa565b600052602052604060002090565b9060ff905b9181191691161790565b9061013a61008b61014192151590565b825461011b565b9055565b634e487b7160e01b600052603260045260246000fd5b805482101561017e57610175600191600052602060002090565b91020190600090565b610145565b916001600160a01b0360089290920291821b911b610120565b91906101ad61008b610141936100fa565b908354610183565b908154916801000000000000000083101561006457826101dd91600161007d9501815561015b565b9061019c565b61008b61008b61008b9290565b61008b60006101e3565b61028a906102078161028d565b61021c6001610217836003610103565b61012a565b6102278160046101b5565b610238816102336101f0565b610329565b50610263817fa49807205ce4d355092ef5a8a18f56e8913cf4a201fbe287825b095693c21775610329565b507f97667070c54ef182b0f5858b034beac1b6f3089aa2d3188bb1e8929f4fa9b929610329565b50565b61007d9061007d9061007d9061007d9061007d906102d9565b61007f61008b61008b9290565b61008b906102a6565b6102c59061007f565b9052565b60208101929161007d91906102bc565b60006102e4816102b3565b6102ed8161007f565b6102f68461007f565b1461030657505061007d906103e9565b631e4fbdf760e01b8252819061031f90600483016102c9565b0390fd5b9061010d565b61033a6103368383610445565b1590565b156103a35760019161035c836102178360006103568785610323565b01610103565b339061039261038c61038c7f2f8788117e7eff1d82e926ec794901d17c78024a50270940304540a733656f0d9590565b926100fa565b9261039c60405190565b600090a490565b5050600090565b61008b9061007f565b61008b6000546103aa565b906001600160a01b0390610120565b6103dc61008b6103e4926100fa565b6000546103be565b600055565b6103f16103b3565b906103fb816103cd565b61042e6104287f8be0079c531659141344cd1fd0a4f28419497f9722a3daafe3b4186f6b6457e0936100fa565b916100fa565b9161043860405190565b600090a3565b5460ff1690565b61008b9160006103566104629361045a600090565b506001610323565b61043e56fe6080604052600436101561001257600080fd5b60003560e01c806301ffc9a7146101725780630236bb5a1461016d57806314bfd6d0146101685780631785f53c14610163578063248a9ca31461015e57806324d7806c146101595780632f2ff15d1461015457806331ae450b1461014f57806336568abe1461014a5780633f4ba83a146101455780635c975abb146101405780636d70f7ae1461013b5780637048027514610136578063715018a6146101315780638456cb591461012c5780638da5cb5b1461012757806391d14854146101225780639870d7fe1461011d578063a217fddf14610118578063ac8a584a14610113578063d547741f1461010e5763f2fde38b0361017757610632565b61061b565b610605565b6105ec565b6105b7565b61059d565b610584565b61056e565b610558565b610542565b610529565b610510565b6104fa565b6104e3565b6104be565b610425565b6103e7565b610356565b61033b565b610315565b610235565b6101c5565b600080fd5b6001600160e01b03191690565b6101928161017c565b0361017757565b905035906101a682610189565b565b60206004820312610177576101be906004610199565b90565b9052565b34610177576101f06101de6101d9366101a8565b610648565b60405191829182901515815260200190565b0390f35b6001600160a01b031690565b6101be906101f4565b61019281610200565b905035906101a682610209565b60206004820312610177576101be906004610212565b34610177576101f06101de6102493661021f565b610695565b80610192565b905035906101a68261024e565b60206004820312610177576101be906004610254565b634e487b7160e01b600052603260045260246000fd5b80548210156102b0576102a7600191600052602060002090565b91020190600090565b610277565b6101be916008021c6101f4565b6101f4565b906101be91546102b5565b600460006102de825490565b8310156102f957506101be916102f39161028d565b906102c7565b80fd5b6101c190610200565b6020810192916101a691906102fc565b34610177576101f061032e61032936610261565b6102d2565b6040515b91829182610305565b346101775761035161034c3661021f565b610b3e565b604051005b34610177576101f061036f61036a36610261565b610b5e565b6040519182918290815260200190565b6102c26101be6101be926101f4565b6101be9061037f565b6101be9061038e565b906103aa90610397565b600052602052604060002090565b6101be916008021c5b60ff1690565b906101be91546103b8565b60006103e26101be9260036103a0565b6103c7565b34610177576101f06101de6103fb3661021f565b6103d2565b90600491604083820312610177576101be90602061041e8286610254565b9401610212565b346101775761035161043636610400565b90610b9f565b6004600091031261017757565b90610456816020936102fc565b0190565b9061047a610473610469845190565b8084529260200190565b9260200190565b9060005b81811061048b5750505090565b9091926104a561049e6001928651610449565b9460200190565b92910161047e565b60208082526101be9291019061045a565b34610177576104cc3661043c565b6101f06104d7610c47565b604051918291826104ad565b34610177576103516104f436610400565b90610c51565b34610177576105083661043c565b610351610c9a565b346101775761051e3661043c565b6101f06101de610ca2565b34610177576101f06101de61053d3661021f565b610caa565b34610177576103516105533661021f565b610e34565b34610177576105663661043c565b610351610e75565b346101775761057c3661043c565b610351610e93565b34610177576105923661043c565b6101f061032e610e9b565b34610177576101f06101de6105b136610400565b90610ea3565b34610177576103516105c83661021f565b610f48565b6101be6101be6101be9290565b6101be60006105cd565b6101be6105da565b34610177576105fa3661043c565b6101f061036f6105e4565b34610177576103516106163661021f565b610f6c565b346101775761035161062c36610400565b90610f90565b34610177576103516106433661021f565b610fec565b610658637965db0b60e01b61017c565b6106618261017c565b1490811561066d575090565b6101be9150610ff5565b6101be906103c1565b6101be600254610677565b6101be9054610677565b6106ac6101be916106a4600090565b5060036103a0565b61068b565b6101a6906106bd611012565b6101a6906106c9611051565b6109ee565b634e487b7160e01b600052604160045260246000fd5b90601f01601f191681019081106001600160401b0382111761070557604052565b6106ce565b906101a661071760405190565b92836106e4565b6001600160401b03811161070557602090601f01601f19160190565b61074c610747602261071e565b61070a565b9060228252565b610760610747602161071e565b9060218252565b610774610747602a61071e565b90602a8252565b610788610747602d61071e565b90602d8252565b61079761073a565b7f41646d696e4d616e616765723a2061646d696e20646f6573206e6f74206578696020820152611cdd60f21b604082015290565b6101be61078f565b6101be6107cb565b60005b8381106107ee5750506000910152565b81810151838201526020016107de565b61081f61082860209361045693610813815190565b80835293849260200190565b958691016107db565b601f01601f191690565b60208082526101be929101906107fe565b1561084b5750565b61086d9061085860405190565b62461bcd60e51b815291829160048301610832565b0390fd5b610879610753565b7f41646d696e4d616e616765723a2063616e6e6f742072656d6f7665206f776e656020820152603960f91b604082015290565b6101be610871565b6101be6108ac565b9060ff905b9181191691161790565b6108da6101be6108e292151590565b6002546108bc565b600255565b906108f76101be6108fe92151590565b82546108bc565b9055565b634e487b7160e01b600052601160045260246000fd5b9190820391821161092557565b610902565b916001600160a01b0360089290920291821b911b6108c1565b91906109546101be6108fe93610397565b90835461092a565b634e487b7160e01b600052603160045260246000fd5b6101a691600091610943565b805480156109a157600019019061099e610998838361028d565b90610972565b55565b61095c565b7fa49807205ce4d355092ef5a8a18f56e8913cf4a201fbe287825b095693c2177590565b7f97667070c54ef182b0f5858b034beac1b6f3089aa2d3188bb1e8929f4fa9b92990565b600390610a0f610a016106ac83856103a0565b610a096107d3565b90610843565b610a5c81610a57610a26610a21610e9b565b610200565b94610a45610a3384610200565b96610a3c6108b4565b90881415610843565b610a5260009384926103a0565b6108e7565b6105cd565b6004610a696101be825490565b821015610b355783610a81610a216102f3858561028d565b14610a8f5750600101610a5c565b610ad89293506101be610ad392610acd610ac66102f3610ac0610ab0875490565b610aba60016105cd565b90610918565b8661028d565b918461028d565b90610943565b61097e565b610ae981610ae46109a6565b611071565b50610af681610ae46109ca565b503390610b30610b267fdb9d5d31320daf5bc7181d565b6da4d12e30f0f4d5aa324a992426c14a1d19ce92610397565b9261033260405190565b0390a2565b50509050610ad8565b6101a6906106b1565b906103aa565b6101be9081565b6101be9054610b4d565b6001610b766101be92610b6f600090565b5082610b47565b01610b54565b906101a691610b92610b8d82610b5e565b6110e6565b90610b9c916110f1565b50565b906101a691610b7c565b6101be600054610200565b6101be9054610200565b90610bd9610bcd610469845490565b92600052602060002090565b9060005b818110610bea5750505090565b909192610c0b610c04600192610bff87610bb4565b610449565b9460010190565b929101610bdd565b906101be91610bbe565b906101a6610c3792610c2e60405190565b93848092610c13565b03836106e4565b6101be90610c1d565b6101be6004610c3e565b90610c5b33610200565b610c6482610200565b03610c7257610b9c91611071565b63334bd91960e11b6000908152600490fd5b610c8f610b8d6105da565b6101a66101a66111a4565b6101a6610c84565b6101be610680565b6101be90610cb66109ca565b610ea3565b6101a690610cc7611012565b6101a690610cd3611051565b610d9b565b610ce0610767565b7f41646d696e4d616e616765723a2061646d696e20616464726573732063616e6e6020820152696f74206265207a65726f60b01b604082015290565b6101be610cd8565b6101be610d1c565b610d3461073a565b7f41646d696e4d616e616765723a2061646d696e20616c72656164792065786973602082015261747360f01b604082015290565b6101be610d2c565b6101be610d68565b80549190600160401b8310156107055782610acd9160016101a69501815561028d565b610dac610da6610d24565b826111ac565b610ddb6001610a52836003610dd6610dce610dca6106ac85856103a0565b1590565b610a09610d70565b6103a0565b610de6816004610d78565b610df781610df26109a6565b6110f1565b50610e0481610df26109ca565b503390610b30610b267fbf3f493c772c8c283fd124432c2d0f539ab343faa04258fe88e52912d36b102b92610397565b6101a690610cbb565b610e45611012565b6101a6610e63565b6102c26101be6101be9290565b6101be90610e4d565b6101a6610e706000610e5a565b6111f3565b6101a6610e3d565b610e88610b8d6105da565b6101a66101a661128c565b6101a6610e7d565b6101be610ba9565b6101be916000610ec06106ac93610eb8600090565b506001610b47565b016103a0565b6101a690610ed5610b8d6109a6565b610f31565b610ee261077b565b7f41646d696e4d616e616765723a206f70657261746f722061646472657373206360208201526c616e6e6f74206265207a65726f60981b604082015290565b6101be610eda565b6101be610f21565b610b9c90610f40610da6610f29565b610df26109ca565b6101a690610ec6565b6101a690610f60610b8d6109a6565b610b9c90610ae46109ca565b6101a690610f51565b906101a691610f86610b8d82610b5e565b90610b9c91611071565b906101a691610f75565b6101a690610fa6611012565b6000610fb181610e5a565b610fba81610200565b610fc384610200565b14610fd35750506101a6906111f3565b631e4fbdf760e01b8252819061086d9060048301610305565b6101a690610f9a565b61100e6110086301ffc9a760e01b61017c565b9161017c565b1490565b61101a610e9b565b339061102e61102883610200565b91610200565b036110365750565b63118cdaa760e01b600090815290819061086d906004610305565b611059610ca2565b61105f57565b63d93c066560e01b6000908152600490fd5b9061107c8183610ea3565b156110df576110966000610a528382610ec0876001610b47565b33906110cc6110c66110c67ff6391f5c32d9c69d2a47ea670b442974b53935d1edc7fd64eb21e047a839171b9590565b92610397565b926110d660405190565b600090a4600190565b5050600090565b6101a69033906112b3565b6110fe610dca8383610ea3565b156110df5760019161111a83610a52836000610ec08785610b47565b339061114a6110c66110c67f2f8788117e7eff1d82e926ec794901d17c78024a50270940304540a733656f0d9590565b9261115460405190565b600090a490565b6111636112e5565b6101a661117060006108cb565b3361119f7f5db9ee0a495bf2e6ff9c91a7834c1ba4fdd244a5e8aa4e537bd38aeae4b073aa9161033260405190565b0390a1565b6101a661115b565b906101a6916111c1611028610a216000610e5a565b1415610843565b906001600160a01b03906108c1565b6111e66101be6111ee92610397565b6000546111c8565b600055565b6111fb610ba9565b90611205816111d7565b6112386112327f8be0079c531659141344cd1fd0a4f28419497f9722a3daafe3b4186f6b6457e093610397565b91610397565b9161124260405190565b600090a3565b611250611051565b6101a661125d60016108cb565b3361119f7f62e78cea01bee320cd4e420270b5ea74000d11b0c9f74754ebdbfc544b05a2589161033260405190565b6101a6611248565b9160206101a69294936112af604082019660008301906102fc565b0152565b906112c1610dca8284610ea3565b6112c9575050565b63e2517d3f60e01b600090815291829161086d91906004611294565b6112f0610dca610ca2565b6112f657565b638dfc202b60e01b6000908152600490fdfea2646970667358221220460a472b5566e48123ad6c4531ec7267e23dfc40c18984f6228c75f4da9844e464736f6c634300081c0033",
  "linkReferences": {},
  "deployedLinkReferences": {}
}