{
  "_format": "hh-sol-artifact-1",
  "contractName": "Config",
  "sourceName": "contracts/Config.sol",
  "abi": [
    {
      "inputs": [
        {
          "internalType": "address",
          "name": "initialAdmin",
          "type": "address"
        }
      ],
      "stateMutability": "nonpayable",
      "type": "constructor"
    },
    {
      "inputs": [],
      "name": "AccessControlBadConfirmation",
      "type": "error"
    },
    {
      "inputs": [
        {
          "internalType": "address",
          "name": "account",
          "type": "address"
        },
        {
          "internalType": "bytes32",
          "name": "neededRole",
          "type": "bytes32"
        }
      ],
      "name": "AccessControlUnauthorizedAccount",
      "type": "error"
    },
    {
      "inputs": [],
      "name": "EnforcedPause",
      "type": "error"
    },
    {
      "inputs": [],
      "name": "ExpectedPause",
      "type": "error"
    },
    {
      "anonymous": false,
      "inputs": [
        {
          "indexed": true,
          "internalType": "string",
          "name": "key",
          "type": "string"
        },
        {
          "indexed": false,
          "internalType": "bool",
          "name": "value",
          "type": "bool"
        },
        {
          "indexed": false,
          "internalType": "address",
          "name": "setter",
          "type": "address"
        }
      ],
      "name": "ConfigBoolSet",
      "type": "event"
    },
    {
      "anonymous": false,
      "inputs": [
        {
          "indexed": true,
          "internalType": "string",
          "name": "key",
          "type": "string"
        },
        {
          "indexed": false,
          "internalType": "string",
          "name": "value",
          "type": "string"
        },
        {
          "indexed": false,
          "internalType": "address",
          "name": "setter",
          "type": "address"
        }
      ],
      "name": "ConfigSet",
      "type": "event"
    },
    {
      "anonymous": false,
      "inputs": [
        {
          "indexed": true,
          "internalType": "string",
          "name": "key",
          "type": "string"
        },
        {
          "indexed": false,
          "internalType": "uint256",
          "name": "value",
          "type": "uint256"
        },
        {
          "indexed": false,
          "internalType": "address",
          "name": "setter",
          "type": "address"
        }
      ],
      "name": "ConfigUIntSet",
      "type": "event"
    },
    {
      "anonymous": false,
      "inputs": [
        {
          "indexed": false,
          "internalType": "address",
          "name": "account",
          "type": "address"
        }
      ],
      "name": "Paused",
      "type": "event"
    },
    {
      "anonymous": false,
      "inputs": [
        {
          "indexed": true,
          "internalType": "bytes32",
          "name": "role",
          "type": "bytes32"
        },
        {
          "indexed": true,
          "internalType": "bytes32",
          "name": "previousAdminRole",
          "type": "bytes32"
        },
        {
          "indexed": true,
          "internalType": "bytes32",
          "name": "newAdminRole",
          "type": "bytes32"
        }
      ],
      "name": "RoleAdminChanged",
      "type": "event"
    },
    {
      "anonymous": false,
      "inputs": [
        {
          "indexed": true,
          "internalType": "bytes32",
          "name": "role",
          "type": "bytes32"
        },
        {
          "indexed": true,
          "internalType": "address",
          "name": "account",
          "type": "address"
        },
        {
          "indexed": true,
          "internalType": "address",
          "name": "sender",
          "type": "address"
        }
      ],
      "name": "RoleGranted",
      "type": "event"
    },
    {
      "anonymous": false,
      "inputs": [
        {
          "indexed": true,
          "internalType": "bytes32",
          "name": "role",
          "type": "bytes32"
        },
        {
          "indexed": true,
          "internalType": "address",
          "name": "account",
          "type": "address"
        },
        {
          "indexed": true,
          "internalType": "address",
          "name": "sender",
          "type": "address"
        }
      ],
      "name": "RoleRevoked",
      "type": "event"
    },
    {
      "anonymous": false,
      "inputs": [
        {
          "indexed": false,
          "internalType": "address",
          "name": "account",
          "type": "address"
        }
      ],
      "name": "Unpaused",
      "type": "event"
    },
    {
      "inputs": [],
      "name": "ADMIN_ROLE",
      "outputs": [
        {
          "internalType": "bytes32",
          "name": "",
          "type": "bytes32"
        }
      ],
      "stateMutability": "view",
      "type": "function"
    },
    {
      "inputs": [],
      "name": "DEFAULT_ADMIN_ROLE",
      "outputs": [
        {
          "internalType": "bytes32",
          "name": "",
          "type": "bytes32"
        }
      ],
      "stateMutability": "view",
      "type": "function"
    },
    {
      "inputs": [],
      "name": "HOME_BUTTON_VISIBLE",
      "outputs": [
        {
          "internalType": "string",
          "name": "",
          "type": "string"
        }
      ],
      "stateMutability": "view",
      "type": "function"
    },
    {
      "inputs": [],
      "name": "MAX_WINNERS_CONFIG",
      "outputs": [
        {
          "internalType": "string",
          "name": "",
          "type": "string"
        }
      ],
      "stateMutability": "view",
      "type": "function"
    },
    {
      "inputs": [],
      "name": "OPERATOR_ROLE",
      "outputs": [
        {
          "internalType": "bytes32",
          "name": "",
          "type": "bytes32"
        }
      ],
      "stateMutability": "view",
      "type": "function"
    },
    {
      "inputs": [
        {
          "internalType": "string",
          "name": "key",
          "type": "string"
        }
      ],
      "name": "getBoolConfig",
      "outputs": [
        {
          "internalType": "bool",
          "name": "",
          "type": "bool"
        }
      ],
      "stateMutability": "view",
      "type": "function"
    },
    {
      "inputs": [
        {
          "internalType": "string",
          "name": "key",
          "type": "string"
        },
        {
          "internalType": "bool",
          "name": "defaultValue",
          "type": "bool"
        }
      ],
      "name": "getBoolConfigWithDefault",
      "outputs": [
        {
          "internalType": "bool",
          "name": "",
          "type": "bool"
        }
      ],
      "stateMutability": "view",
      "type": "function"
    },
    {
      "inputs": [
        {
          "internalType": "bytes32",
          "name": "role",
          "type": "bytes32"
        }
      ],
      "name": "getRoleAdmin",
      "outputs": [
        {
          "internalType": "bytes32",
          "name": "",
          "type": "bytes32"
        }
      ],
      "stateMutability": "view",
      "type": "function"
    },
    {
      "inputs": [
        {
          "internalType": "string",
          "name": "key",
          "type": "string"
        }
      ],
      "name": "getStringConfig",
      "outputs": [
        {
          "internalType": "string",
          "name": "",
          "type": "string"
        }
      ],
      "stateMutability": "view",
      "type": "function"
    },
    {
      "inputs": [
        {
          "internalType": "string",
          "name": "key",
          "type": "string"
        }
      ],
      "name": "getUIntConfig",
      "outputs": [
        {
          "internalType": "uint256",
          "name": "",
          "type": "uint256"
        }
      ],
      "stateMutability": "view",
      "type": "function"
    },
    {
      "inputs": [
        {
          "internalType": "string",
          "name": "key",
          "type": "string"
        },
        {
          "internalType": "uint256",
          "name": "defaultValue",
          "type": "uint256"
        }
      ],
      "name": "getUIntConfigWithDefault",
      "outputs": [
        {
          "internalType": "uint256",
          "name": "",
          "type": "uint256"
        }
      ],
      "stateMutability": "view",
      "type": "function"
    },
    {
      "inputs": [
        {
          "internalType": "bytes32",
          "name": "role",
          "type": "bytes32"
        },
        {
          "internalType": "address",
          "name": "account",
          "type": "address"
        }
      ],
      "name": "grantRole",
      "outputs": [],
      "stateMutability": "nonpayable",
      "type": "function"
    },
    {
      "inputs": [
        {
          "internalType": "bytes32",
          "name": "role",
          "type": "bytes32"
        },
        {
          "internalType": "address",
          "name": "account",
          "type": "address"
        }
      ],
      "name": "hasRole",
      "outputs": [
        {
          "internalType": "bool",
          "name": "",
          "type": "bool"
        }
      ],
      "stateMutability": "view",
      "type": "function"
    },
    {
      "inputs": [],
      "name": "pause",
      "outputs": [],
      "stateMutability": "nonpayable",
      "type": "function"
    },
    {
      "inputs": [],
      "name": "paused",
      "outputs": [
        {
          "internalType": "bool",
          "name": "",
          "type": "bool"
        }
      ],
      "stateMutability": "view",
      "type": "function"
    },
    {
      "inputs": [
        {
          "internalType": "bytes32",
          "name": "role",
          "type": "bytes32"
        },
        {
          "internalType": "address",
          "name": "callerConfirmation",
          "type": "address"
        }
      ],
      "name": "renounceRole",
      "outputs": [],
      "stateMutability": "nonpayable",
      "type": "function"
    },
    {
      "inputs": [
        {
          "internalType": "bytes32",
          "name": "role",
          "type": "bytes32"
        },
        {
          "internalType": "address",
          "name": "account",
          "type": "address"
        }
      ],
      "name": "revokeRole",
      "outputs": [],
      "stateMutability": "nonpayable",
      "type": "function"
    },
    {
      "inputs": [
        {
          "internalType": "string",
          "name": "key",
          "type": "string"
        },
        {
          "internalType": "bool",
          "name": "value",
          "type": "bool"
        }
      ],
      "name": "setBoolConfig",
      "outputs": [],
      "stateMutability": "nonpayable",
      "type": "function"
    },
    {
      "inputs": [],
      "name": "setDefaultConfigurations",
      "outputs": [],
      "stateMutability": "nonpayable",
      "type": "function"
    },
    {
      "inputs": [
        {
          "internalType": "string",
          "name": "key",
          "type": "string"
        },
        {
          "internalType": "string",
          "name": "value",
          "type": "string"
        }
      ],
      "name": "setStringConfig",
      "outputs": [],
      "stateMutability": "nonpayable",
      "type": "function"
    },
    {
      "inputs": [
        {
          "internalType": "string",
          "name": "key",
          "type": "string"
        },
        {
          "internalType": "uint256",
          "name": "value",
          "type": "uint256"
        }
      ],
      "name": "setUIntConfig",
      "outputs": [],
      "stateMutability": "nonpayable",
      "type": "function"
    },
    {
      "inputs": [
        {
          "internalType": "bytes4",
          "name": "interfaceId",
          "type": "bytes4"
        }
      ],
      "name": "supportsInterface",
      "outputs": [
        {
          "internalType": "bool",
          "name": "",
          "type": "bool"
        }
      ],
      "stateMutability": "view",
      "type": "function"
    },
    {
      "inputs": [],
      "name": "unpause",
      "outputs": [],
      "stateMutability": "nonpayable",
      "type": "function"
    }
  ],
  "bytecode": "0x608060405234801561001057600080fd5b5060405161157838038061157883398101604081905261002f91610143565b61003a600082610097565b506100657fa49807205ce4d355092ef5a8a18f56e8913cf4a201fbe287825b095693c2177582610097565b506100907f97667070c54ef182b0f5858b034beac1b6f3089aa2d3188bb1e8929f4fa9b92982610097565b5050610173565b6000828152602081815260408083206001600160a01b038516845290915281205460ff16610139576000838152602081815260408083206001600160a01b03861684529091529020805460ff191660011790556100f13390565b6001600160a01b0316826001600160a01b0316847f2f8788117e7eff1d82e926ec794901d17c78024a50270940304540a733656f0d60405160405180910390a450600161013d565b5060005b92915050565b60006020828403121561015557600080fd5b81516001600160a01b038116811461016c57600080fd5b9392505050565b6113f6806101826000396000f3fe608060405234801561001057600080fd5b506004361061014d5760003560e01c806375b238fc116100c3578063b423a0681161007c578063b423a068146102bc578063b8275205146102cf578063cbb00d4b146102e2578063d547741f14610314578063d71ecbb214610327578063f5b541a61461033a57600080fd5b806375b238fc1461024557806376cf795d1461025a5780638456cb591461026257806384bc72301461026a57806391d14854146102a1578063a217fddf146102b457600080fd5b806336568abe1161011557806336568abe146101e65780633f4ba83a146101f95780635265cb0d146102015780635a53e88f146102145780635c975abb146102275780636bc122c91461023257600080fd5b806301ffc9a7146101525780630599711d1461017a5780631087a0321461019b578063248a9ca3146101ae5780632f2ff15d146101d1575b600080fd5b610165610160366004610e9c565b610361565b60405190151581526020015b60405180910390f35b61018d610188366004610f0f565b610398565b604051908152602001610171565b61018d6101a9366004610f5b565b610400565b61018d6101bc366004610f9d565b60009081526020819052604090206001015490565b6101e46101df366004610fb6565b61042b565b005b6101e46101f4366004610fb6565b610456565b6101e461048e565b6101e461020f366004610ff2565b6104a4565b6101e4610222366004610f0f565b61055f565b60015460ff16610165565b610165610240366004610ff2565b610636565b61018d6000805160206113a183398151915281565b6101e46106a1565b6101e4610920565b6102946040518060400160405280600b81526020016a6d61785f77696e6e65727360a81b81525081565b6040516101719190611072565b6101656102af366004610fb6565b610933565b61018d600081565b6101656102ca366004610f5b565b61095c565b6101e46102dd3660046110a5565b61098b565b61029460405180604001604052806013815260200172686f6d655f627574746f6e5f76697369626c6560681b81525081565b6101e4610322366004610fb6565b610a3b565b610294610335366004610f5b565b610a60565b61018d7f97667070c54ef182b0f5858b034beac1b6f3089aa2d3188bb1e8929f4fa9b92981565b60006001600160e01b03198216637965db0b60e01b148061039257506301ffc9a760e01b6001600160e01b03198316145b92915050565b6000600284846040516103ac929190611116565b908152602001604051809103902080546103c590611126565b90506000036103d55750806103f9565b600484846040516103e7929190611116565b90815260200160405180910390205490505b9392505050565b600060048383604051610414929190611116565b908152602001604051809103902054905092915050565b60008281526020819052604090206001015461044681610b13565b6104508383610b1d565b50505050565b6001600160a01b038116331461047f5760405163334bd91960e11b815260040160405180910390fd5b6104898282610baf565b505050565b600061049981610b13565b6104a1610c1a565b50565b6000805160206113a18339815191526104bc81610b13565b6104c4610c6c565b81600385856040516104d7929190611116565b908152604051908190036020018120805492151560ff19909316929092179091556105059085908590611116565b60405180910390207f57c29d32ec7b521a5d75ec035d2d273f057236f3208adad274595741578e669c836105363390565b6040805192151583526001600160a01b039091166020830152015b60405180910390a250505050565b6000805160206113a183398151915261057781610b13565b61057f610c6c565b8160048585604051610592929190611116565b908152604051908190036020019020556105ab82610c92565b600285856040516105bd929190611116565b908152602001604051809103902090816105d791906111c4565b5083836040516105e8929190611116565b60405180910390207f681618a84b9cb0b8f2ea06632833deb3c57b6cfefca48e98f728692e31a67038836106193390565b604080519283526001600160a01b03909116602083015201610551565b60006002848460405161064a929190611116565b9081526020016040518091039020805461066390611126565b90506000036106735750806103f9565b60038484604051610685929190611116565b9081526040519081900360200190205460ff1690509392505050565b6000805160206113a18339815191526106b981610b13565b6040805180820182526013815272686f6d655f627574746f6e5f76697369626c6560681b602082015290516002916106f091611283565b9081526020016040518091039020805461070990611126565b9050600003610802576001600360405180604001604052806013815260200172686f6d655f627574746f6e5f76697369626c6560681b81525060405161074f9190611283565b908152602001604051809103902060006101000a81548160ff02191690831515021790555060405180604001604052806013815260200172686f6d655f627574746f6e5f76697369626c6560681b8152506040516107ad9190611283565b60405180910390207f57c29d32ec7b521a5d75ec035d2d273f057236f3208adad274595741578e669c60016107df3390565b6040805192151583526001600160a01b0390911660208301520160405180910390a25b604080518082018252600b81526a6d61785f77696e6e65727360a81b6020820152905160029161083191611283565b9081526020016040518091039020805461084a90611126565b90506000036104a157600360046040518060400160405280600b81526020016a6d61785f77696e6e65727360a81b8152506040516108889190611283565b9081526020016040518091039020819055506040518060400160405280600b81526020016a6d61785f77696e6e65727360a81b8152506040516108cb9190611283565b60405180910390207f681618a84b9cb0b8f2ea06632833deb3c57b6cfefca48e98f728692e31a6703860036108fd3390565b604080519283526001600160a01b0390911660208301520160405180910390a250565b600061092b81610b13565b6104a1610d25565b6000918252602082815260408084206001600160a01b0393909316845291905290205460ff1690565b600060038383604051610970929190611116565b9081526040519081900360200190205460ff16905092915050565b6000805160206113a18339815191526109a381610b13565b6109ab610c6c565b8282600287876040516109bf929190611116565b908152602001604051809103902091826109da92919061129f565b5084846040516109eb929190611116565b60405180910390207fa049c6f94cd0991772bade0e541db8e7acdf1add8c3df2d63b318499b77512888484610a1d3390565b604051610a2c9392919061135f565b60405180910390a25050505050565b600082815260208190526040902060010154610a5681610b13565b6104508383610baf565b606060028383604051610a74929190611116565b90815260200160405180910390208054610a8d90611126565b80601f0160208091040260200160405190810160405280929190818152602001828054610ab990611126565b8015610b065780601f10610adb57610100808354040283529160200191610b06565b820191906000526020600020905b815481529060010190602001808311610ae957829003601f168201915b5050505050905092915050565b6104a18133610d60565b6000610b298383610933565b610ba7576000838152602081815260408083206001600160a01b03861684529091529020805460ff19166001179055610b5f3390565b6001600160a01b0316826001600160a01b0316847f2f8788117e7eff1d82e926ec794901d17c78024a50270940304540a733656f0d60405160405180910390a4506001610392565b506000610392565b6000610bbb8383610933565b15610ba7576000838152602081815260408083206001600160a01b0386168085529252808320805460ff1916905551339286917ff6391f5c32d9c69d2a47ea670b442974b53935d1edc7fd64eb21e047a839171b9190a4506001610392565b610c22610da1565b6001805460ff191690557f5db9ee0a495bf2e6ff9c91a7834c1ba4fdd244a5e8aa4e537bd38aeae4b073aa335b6040516001600160a01b03909116815260200160405180910390a1565b60015460ff1615610c905760405163d93c066560e01b815260040160405180910390fd5b565b60606000610c9f83610dc4565b600101905060008167ffffffffffffffff811115610cbf57610cbf611160565b6040519080825280601f01601f191660200182016040528015610ce9576020820181803683370190505b5090508181016020015b600019016f181899199a1a9b1b9c1cb0b131b232b360811b600a86061a8153600a8504945084610cf357509392505050565b610d2d610c6c565b6001805460ff1916811790557f62e78cea01bee320cd4e420270b5ea74000d11b0c9f74754ebdbfc544b05a25833610c4f565b610d6a8282610933565b610d9d5760405163e2517d3f60e01b81526001600160a01b03821660048201526024810183905260440160405180910390fd5b5050565b60015460ff16610c9057604051638dfc202b60e01b815260040160405180910390fd5b60008072184f03e93ff9f4daa797ed6e38ed64bf6a1f0160401b8310610e035772184f03e93ff9f4daa797ed6e38ed64bf6a1f0160401b830492506040015b6d04ee2d6d415b85acef81000000008310610e2f576d04ee2d6d415b85acef8100000000830492506020015b662386f26fc100008310610e4d57662386f26fc10000830492506010015b6305f5e1008310610e65576305f5e100830492506008015b6127108310610e7957612710830492506004015b60648310610e8b576064830492506002015b600a83106103925760010192915050565b600060208284031215610eae57600080fd5b81356001600160e01b0319811681146103f957600080fd5b60008083601f840112610ed857600080fd5b50813567ffffffffffffffff811115610ef057600080fd5b602083019150836020828501011115610f0857600080fd5b9250929050565b600080600060408486031215610f2457600080fd5b833567ffffffffffffffff811115610f3b57600080fd5b610f4786828701610ec6565b909790965060209590950135949350505050565b60008060208385031215610f6e57600080fd5b823567ffffffffffffffff811115610f8557600080fd5b610f9185828601610ec6565b90969095509350505050565b600060208284031215610faf57600080fd5b5035919050565b60008060408385031215610fc957600080fd5b8235915060208301356001600160a01b0381168114610fe757600080fd5b809150509250929050565b60008060006040848603121561100757600080fd5b833567ffffffffffffffff81111561101e57600080fd5b61102a86828701610ec6565b9094509250506020840135801515811461104357600080fd5b809150509250925092565b60005b83811015611069578181015183820152602001611051565b50506000910152565b602081526000825180602084015261109181604085016020870161104e565b601f01601f19169190910160400192915050565b600080600080604085870312156110bb57600080fd5b843567ffffffffffffffff8111156110d257600080fd5b6110de87828801610ec6565b909550935050602085013567ffffffffffffffff8111156110fe57600080fd5b61110a87828801610ec6565b95989497509550505050565b8183823760009101908152919050565b600181811c9082168061113a57607f821691505b60208210810361115a57634e487b7160e01b600052602260045260246000fd5b50919050565b634e487b7160e01b600052604160045260246000fd5b601f82111561048957806000526020600020601f840160051c8101602085101561119d5750805b601f840160051c820191505b818110156111bd57600081556001016111a9565b5050505050565b815167ffffffffffffffff8111156111de576111de611160565b6111f2816111ec8454611126565b84611176565b6020601f821160018114611226576000831561120e5750848201515b600019600385901b1c1916600184901b1784556111bd565b600084815260208120601f198516915b828110156112565787850151825560209485019460019092019101611236565b50848210156112745786840151600019600387901b60f8161c191681555b50505050600190811b01905550565b6000825161129581846020870161104e565b9190910192915050565b67ffffffffffffffff8311156112b7576112b7611160565b6112cb836112c58354611126565b83611176565b6000601f8411600181146112ff57600085156112e75750838201355b600019600387901b1c1916600186901b1783556111bd565b600083815260209020601f19861690835b828110156113305786850135825560209485019460019092019101611310565b508682101561134d5760001960f88860031b161c19848701351681555b505060018560011b0183555050505050565b6040815282604082015282846060830137600060608483018101919091526001600160a01b03929092166020820152601f909201601f19169091010191905056fea49807205ce4d355092ef5a8a18f56e8913cf4a201fbe287825b095693c21775a264697066735822122075bdf1b7655d16f0bff97476048d1d57326f4893656929b257f2d1da68f83c5764736f6c634300081c0033",
  "linkReferences": {},
  "deployedLinkReferences": {}
}