{
  "_format": "hh-sol-artifact-1",
  "contractName": "CrosswordBoard",
  "sourceName": "contracts/CrosswordBoard.sol",
  "abi": [
    {
      "inputs": [
        {
          "internalType": "address",
          "name": "_crosswordCore",
          "type": "address"
        },
        {
          "internalType": "address",
          "name": "_crosswordPrizes",
          "type": "address"
        },
        {
          "internalType": "address",
          "name": "_userProfiles",
          "type": "address"
        },
        {
          "internalType": "address",
          "name": "_configManager",
          "type": "address"
        },
        {
          "internalType": "address",
          "name": "_adminManager",
          "type": "address"
        }
      ],
      "stateMutability": "nonpayable",
      "type": "constructor"
    },
    {
      "inputs": [],
      "name": "EnforcedPause",
      "type": "error"
    },
    {
      "inputs": [],
      "name": "ExpectedPause",
      "type": "error"
    },
    {
      "inputs": [
        {
          "internalType": "address",
          "name": "owner",
          "type": "address"
        }
      ],
      "name": "OwnableInvalidOwner",
      "type": "error"
    },
    {
      "inputs": [
        {
          "internalType": "address",
          "name": "account",
          "type": "address"
        }
      ],
      "name": "OwnableUnauthorizedAccount",
      "type": "error"
    },
    {
      "inputs": [],
      "name": "ReentrancyGuardReentrantCall",
      "type": "error"
    },
    {
      "anonymous": false,
      "inputs": [
        {
          "indexed": false,
          "internalType": "address",
          "name": "core",
          "type": "address"
        },
        {
          "indexed": false,
          "internalType": "address",
          "name": "prizes",
          "type": "address"
        },
        {
          "indexed": false,
          "internalType": "address",
          "name": "profiles",
          "type": "address"
        },
        {
          "indexed": false,
          "internalType": "address",
          "name": "config",
          "type": "address"
        },
        {
          "indexed": false,
          "internalType": "address",
          "name": "admin",
          "type": "address"
        }
      ],
      "name": "ContractsUpdated",
      "type": "event"
    },
    {
      "anonymous": false,
      "inputs": [
        {
          "indexed": true,
          "internalType": "address",
          "name": "previousOwner",
          "type": "address"
        },
        {
          "indexed": true,
          "internalType": "address",
          "name": "newOwner",
          "type": "address"
        }
      ],
      "name": "OwnershipTransferred",
      "type": "event"
    },
    {
      "anonymous": false,
      "inputs": [
        {
          "indexed": false,
          "internalType": "address",
          "name": "account",
          "type": "address"
        }
      ],
      "name": "Paused",
      "type": "event"
    },
    {
      "anonymous": false,
      "inputs": [
        {
          "indexed": false,
          "internalType": "address",
          "name": "account",
          "type": "address"
        }
      ],
      "name": "Unpaused",
      "type": "event"
    },
    {
      "inputs": [
        {
          "internalType": "bytes32",
          "name": "crosswordId",
          "type": "bytes32"
        }
      ],
      "name": "activateCrossword",
      "outputs": [],
      "stateMutability": "nonpayable",
      "type": "function"
    },
    {
      "inputs": [],
      "name": "adminManager",
      "outputs": [
        {
          "internalType": "contract IAdminManager",
          "name": "",
          "type": "address"
        }
      ],
      "stateMutability": "view",
      "type": "function"
    },
    {
      "inputs": [
        {
          "internalType": "bytes32",
          "name": "crosswordId",
          "type": "bytes32"
        }
      ],
      "name": "claimPrize",
      "outputs": [],
      "stateMutability": "nonpayable",
      "type": "function"
    },
    {
      "inputs": [
        {
          "internalType": "uint256",
          "name": "durationMs",
          "type": "uint256"
        },
        {
          "internalType": "string",
          "name": "username",
          "type": "string"
        },
        {
          "internalType": "string",
          "name": "displayName",
          "type": "string"
        },
        {
          "internalType": "string",
          "name": "pfpUrl",
          "type": "string"
        },
        {
          "internalType": "bytes",
          "name": "signature",
          "type": "bytes"
        }
      ],
      "name": "completeCrossword",
      "outputs": [],
      "stateMutability": "nonpayable",
      "type": "function"
    },
    {
      "inputs": [],
      "name": "configManager",
      "outputs": [
        {
          "internalType": "contract IConfigManager",
          "name": "",
          "type": "address"
        }
      ],
      "stateMutability": "view",
      "type": "function"
    },
    {
      "inputs": [
        {
          "internalType": "bytes32",
          "name": "crosswordId",
          "type": "bytes32"
        },
        {
          "internalType": "address",
          "name": "token",
          "type": "address"
        },
        {
          "internalType": "uint256",
          "name": "prizePool",
          "type": "uint256"
        },
        {
          "internalType": "uint256[]",
          "name": "winnerPercentages",
          "type": "uint256[]"
        },
        {
          "internalType": "uint256",
          "name": "endTime",
          "type": "uint256"
        }
      ],
      "name": "createCrossword",
      "outputs": [],
      "stateMutability": "payable",
      "type": "function"
    },
    {
      "inputs": [],
      "name": "crosswordCore",
      "outputs": [
        {
          "internalType": "contract ICrosswordCore",
          "name": "",
          "type": "address"
        }
      ],
      "stateMutability": "view",
      "type": "function"
    },
    {
      "inputs": [],
      "name": "crosswordPrizes",
      "outputs": [
        {
          "internalType": "contract ICrosswordPrizes",
          "name": "",
          "type": "address"
        }
      ],
      "stateMutability": "view",
      "type": "function"
    },
    {
      "inputs": [],
      "name": "emergencyClearCrossword",
      "outputs": [],
      "stateMutability": "nonpayable",
      "type": "function"
    },
    {
      "inputs": [],
      "name": "getCurrentCrossword",
      "outputs": [
        {
          "internalType": "bytes32",
          "name": "",
          "type": "bytes32"
        },
        {
          "internalType": "string",
          "name": "",
          "type": "string"
        },
        {
          "internalType": "uint256",
          "name": "",
          "type": "uint256"
        }
      ],
      "stateMutability": "view",
      "type": "function"
    },
    {
      "inputs": [
        {
          "internalType": "bytes32",
          "name": "crosswordId",
          "type": "bytes32"
        },
        {
          "internalType": "address",
          "name": "user",
          "type": "address"
        }
      ],
      "name": "getUserRank",
      "outputs": [
        {
          "internalType": "uint256",
          "name": "",
          "type": "uint256"
        }
      ],
      "stateMutability": "view",
      "type": "function"
    },
    {
      "inputs": [
        {
          "internalType": "address",
          "name": "addr",
          "type": "address"
        }
      ],
      "name": "isAdminAddress",
      "outputs": [
        {
          "internalType": "bool",
          "name": "",
          "type": "bool"
        }
      ],
      "stateMutability": "view",
      "type": "function"
    },
    {
      "inputs": [],
      "name": "isReturnHomeButtonVisible",
      "outputs": [
        {
          "internalType": "bool",
          "name": "",
          "type": "bool"
        }
      ],
      "stateMutability": "view",
      "type": "function"
    },
    {
      "inputs": [
        {
          "internalType": "bytes32",
          "name": "crosswordId",
          "type": "bytes32"
        },
        {
          "internalType": "address",
          "name": "user",
          "type": "address"
        }
      ],
      "name": "isWinner",
      "outputs": [
        {
          "internalType": "bool",
          "name": "",
          "type": "bool"
        }
      ],
      "stateMutability": "view",
      "type": "function"
    },
    {
      "inputs": [],
      "name": "owner",
      "outputs": [
        {
          "internalType": "address",
          "name": "",
          "type": "address"
        }
      ],
      "stateMutability": "view",
      "type": "function"
    },
    {
      "inputs": [],
      "name": "pauseAll",
      "outputs": [],
      "stateMutability": "nonpayable",
      "type": "function"
    },
    {
      "inputs": [],
      "name": "paused",
      "outputs": [
        {
          "internalType": "bool",
          "name": "",
          "type": "bool"
        }
      ],
      "stateMutability": "view",
      "type": "function"
    },
    {
      "inputs": [],
      "name": "renounceOwnership",
      "outputs": [],
      "stateMutability": "nonpayable",
      "type": "function"
    },
    {
      "inputs": [
        {
          "internalType": "bytes32",
          "name": "crosswordId",
          "type": "bytes32"
        },
        {
          "internalType": "string",
          "name": "crosswordData",
          "type": "string"
        }
      ],
      "name": "setCrossword",
      "outputs": [],
      "stateMutability": "nonpayable",
      "type": "function"
    },
    {
      "inputs": [
        {
          "internalType": "address",
          "name": "newSigner",
          "type": "address"
        }
      ],
      "name": "setSigner",
      "outputs": [],
      "stateMutability": "nonpayable",
      "type": "function"
    },
    {
      "inputs": [
        {
          "internalType": "address",
          "name": "newOwner",
          "type": "address"
        }
      ],
      "name": "transferOwnership",
      "outputs": [],
      "stateMutability": "nonpayable",
      "type": "function"
    },
    {
      "inputs": [],
      "name": "unpauseAll",
      "outputs": [],
      "stateMutability": "nonpayable",
      "type": "function"
    },
    {
      "inputs": [
        {
          "internalType": "address",
          "name": "_crosswordCore",
          "type": "address"
        },
        {
          "internalType": "address",
          "name": "_crosswordPrizes",
          "type": "address"
        },
        {
          "internalType": "address",
          "name": "_userProfiles",
          "type": "address"
        },
        {
          "internalType": "address",
          "name": "_configManager",
          "type": "address"
        },
        {
          "internalType": "address",
          "name": "_adminManager",
          "type": "address"
        }
      ],
      "name": "updateContractAddresses",
      "outputs": [],
      "stateMutability": "nonpayable",
      "type": "function"
    },
    {
      "inputs": [
        {
          "internalType": "string",
          "name": "username",
          "type": "string"
        },
        {
          "internalType": "string",
          "name": "displayName",
          "type": "string"
        },
        {
          "internalType": "string",
          "name": "pfpUrl",
          "type": "string"
        },
        {
          "internalType": "string",
          "name": "bio",
          "type": "string"
        },
        {
          "internalType": "string",
          "name": "website",
          "type": "string"
        }
      ],
      "name": "updateProfile",
      "outputs": [],
      "stateMutability": "nonpayable",
      "type": "function"
    },
    {
      "inputs": [
        {
          "internalType": "bytes32",
          "name": "crosswordId",
          "type": "bytes32"
        },
        {
          "internalType": "address",
          "name": "user",
          "type": "address"
        }
      ],
      "name": "userCompletedCrossword",
      "outputs": [
        {
          "internalType": "bool",
          "name": "",
          "type": "bool"
        }
      ],
      "stateMutability": "view",
      "type": "function"
    },
    {
      "inputs": [],
      "name": "userProfiles",
      "outputs": [
        {
          "internalType": "contract IUserProfiles",
          "name": "",
          "type": "address"
        }
      ],
      "stateMutability": "view",
      "type": "function"
    },
    {
      "stateMutability": "payable",
      "type": "receive"
    }
  ],
  "bytecode": "0x60806040523461002c5761001d6100146100fb565b93929092610120565b60405161196190816107eb8239f35b600080fd5b634e487b7160e01b600052604160045260246000fd5b90601f01601f191681019081106001600160401b0382111761006857604052565b610031565b9061008161007a60405190565b9283610047565b565b6001600160a01b031690565b90565b61009b81610083565b0361002c57565b9050519061008182610092565b919060a08382031261002c576100c581846100a2565b926100d382602083016100a2565b9261008f6100e484604085016100a2565b9360806100f482606087016100a2565b94016100a2565b61011961214c8038038061010e8161006d565b9283398101906100af565b9091929394565b906100819493929161013133610136565b61065e565b61008190610182565b61008f61008f61008f9290565b61008f600161013f565b90600019905b9181191691161790565b61017561008f61017d9261013f565b600154610156565b600155565b61018b906101ce565b61008161019661014c565b610166565b61008361008f61008f9290565b61008f9061019b565b6101ba90610083565b9052565b60208101929161008191906101b1565b60006101d9816101a8565b6101e281610083565b6101eb84610083565b146101fb5750506100819061069b565b631e4fbdf760e01b8252819061021490600483016101be565b0390fd5b90610081949392916102286106f0565b610574565b6001600160401b03811161006857602090601f01601f19160190565b0190565b61025f61025a602b61022d565b61006d565b90602b8252565b61027361025a602d61022d565b90602d8252565b61028761025a602f61022d565b90602f8252565b61029b61025a602c61022d565b90602c8252565b6102aa61024d565b7f43726f7373776f7264426f6172643a20636f726520616464726573732063616e60208201526a6e6f74206265207a65726f60a81b604082015290565b61008f6102a2565b61008f6102e7565b6102ff610266565b7f43726f7373776f7264426f6172643a207072697a65732061646472657373206360208201526c616e6e6f74206265207a65726f60981b604082015290565b61008f6102f7565b61008f61033e565b61035661027a565b7f43726f7373776f7264426f6172643a2070726f66696c6573206164647265737360208201526e2063616e6e6f74206265207a65726f60881b604082015290565b61008f61034e565b61008f610397565b6103af610266565b7f43726f7373776f7264426f6172643a20636f6e6669672061646472657373206360208201526c616e6e6f74206265207a65726f60981b604082015290565b61008f6103a7565b61008f6103ee565b61040661028e565b7f43726f7373776f7264426f6172643a2061646d696e206164647265737320636160208201526b6e6e6f74206265207a65726f60a01b604082015290565b61008f6103fe565b61008f610444565b61008f90610083906001600160a01b031682565b61008f90610454565b61008f90610468565b90610100600160a81b039060081b61015c565b61049c61008f6104a492610471565b60025461047a565b600255565b906001600160a01b039061015c565b6104c761008f6104cf92610471565b6003546104a9565b600355565b6104e361008f6104eb92610471565b6004546104a9565b600455565b6104ff61008f61050792610471565b6005546104a9565b600555565b61051b61008f61052392610471565b6006546104a9565b600655565b909594926100819461056361056d9261055960809661054f60a088019c60008901906101b1565b60208701906101b1565b60408501906101b1565b60608301906101b1565b01906101b1565b9193610659919361058c6105866102ef565b856107c1565b61059d610597610346565b866107c1565b6105ae6105a861039f565b876107c1565b6105bf6105b96103f6565b826107c1565b6105d06105ca61044c565b836107c1565b6105e16105dc85610471565b61048d565b6105f26105ed86610471565b6104b8565b6106036105fe87610471565b6104d4565b61061461060f82610471565b6104f0565b61062561062083610471565b61050c565b7f0ef794e787fc9c91fefe4a55535c1a78a09d1cfb5ef3042e4ea952fbec5bfab39561065060405190565b95869586610528565b0390a1565b9061008194939291610218565b61008f90610083565b61008f60005461066b565b61068e61008f61069692610471565b6000546104a9565b600055565b6106a3610674565b906106ad8161067f565b6106e06106da7f8be0079c531659141344cd1fd0a4f28419497f9722a3daafe3b4186f6b6457e093610471565b91610471565b916106ea60405190565b600090a3565b6106f86107e2565b339061070c61070683610083565b91610083565b036107145750565b63118cdaa760e01b60009081529081906102149060046101be565b60005b8381106107425750506000910152565b8181015183820152602001610732565b61077361077c60209361024993610767815190565b80835293849260200190565b9586910161072f565b601f01601f191690565b602080825261008f92910190610752565b1561079f5750565b610214906107ac60405190565b62461bcd60e51b815291829160048301610786565b90610081916107db6107066107d660006101a8565b610083565b1415610797565b61008f61067456fe6080604052600436101561001b575b361561001957600080fd5b005b60003560e01c80630236bb5a146101bb5780630a713d68146101b65780631a831f16146101b15780631dc626b1146101ac578063317d609b146101a75780633ab2648a146101a257806340553dcd1461019d578063595c6a67146101985780635c975abb146101935780636c19e7831461018e578063715018a61461018957806371764105146101845780637849dbaa1461017f578063842a42e31461017a5780638a2ddd03146101755780638da5cb5b146101705780639745808a1461016b5780639cc19f5b14610166578063a210b6a414610161578063a5f00e7d1461015c578063b043e03214610157578063b0fc944014610152578063b55c3f971461014d578063ca0ab07514610148578063cb0e1849146101435763f2fde38b0361000e5761093d565b61091d565b6108cb565b6108a6565b610884565b610861565b610781565b610768565b610742565b610718565b6106f3565b6106c4565b6106ae565b610686565b6105ee565b610591565b61057b565b61055e565b610548565b61052f565b61050b565b610463565b61034e565b610304565b61026e565b610216565b6001600160a01b031690565b6101d5906101c0565b90565b6101e1816101cc565b036101e857565b600080fd5b905035906101fa826101d8565b565b602060048203126101e8576101d59060046101ed565b9052565b346101e85761024161022f61022a366101fc565b610993565b60405191829182901515815260200190565b0390f35b806101e1565b905035906101fa82610245565b602060048203126101e8576101d590600461024b565b346101e85761028461027f36610258565b610a21565b604051005b600460009103126101e857565b60009103126101e857565b6101d5916008021c6101c0565b6101c0565b906101d591546102a1565b6101d5600160026102b3565b6102ae6101d56101d5926101c0565b6101d5906102ca565b6101d5906102d9565b610212906102e2565b6020810192916101fa91906102eb565b346101e85761031236610289565b61024161031d6102be565b604051918291826102f4565b906004916040838203126101e8576101d5906020610347828661024b565b94016101ed565b346101e85761024161022f61036236610329565b90610ad1565b634e487b7160e01b600052604160045260246000fd5b90601f01601f191681019081106001600160401b0382111761039f57604052565b610368565b906101fa6103b160405190565b928361037e565b6001600160401b03811161039f57602090601f01601f19160190565b0190565b90826000939282370152565b909291926103f96103f4826103b8565b6103a4565b93818552818301116101e8576101fa9160208501906103d8565b9080601f830112156101e8578160206101d5933591016103e4565b9060046040818403126101e857610445838261024b565b9260208201356001600160401b0381116101e8576101d59201610413565b346101e8576102846104743661042e565b90610b2d565b909182601f830112156101e8578135916001600160401b0383116101e85760200192602083028401116101e857565b60049160a0838303126101e8576104c0828461024b565b926104ce83602083016101ed565b926104dc816040840161024b565b9260608301356001600160401b0381116101e857826105026080946101d593870161047a565b9490950161024b565b610284610517366104a9565b94939093929192610bda565b6101d5600060036102b3565b346101e85761053d36610289565b61024161031d610523565b346101e85761055636610289565b610284610d50565b346101e85761056c36610289565b61024161022f60025460ff1690565b346101e85761028461058c366101fc565b610f83565b346101e85761059f36610289565b610284610fe3565b9060049160a0838203126101e8576105bf81846101ed565b926105cd82602083016101ed565b926101d56105de84604085016101ed565b93608061034782606087016101ed565b346101e8576102846105ff366105a7565b93929092611395565b60005b83811061061b5750506000910152565b818101518382015260200161060b565b61064c6106556020936103d493610640815190565b80835293849260200190565b95869101610608565b601f01601f191690565b90815292916101fa91604090610681906060870190878203602089015261062b565b940152565b346101e85761069436610289565b61024161069f611436565b6040519193919384938461065f565b346101e8576106bc36610289565b6102846114b4565b346101e8576106d236610289565b6102846114ed565b610212906101cc565b6020810192916101fa91906106da565b346101e85761070136610289565b61024161070c611570565b604051918291826106e3565b346101e85761024161073261072c36610329565b9061158c565b6040519182918290815260200190565b346101e85761024161022f61075636610329565b906115fc565b6101d5600060066102b3565b346101e85761077636610289565b61024161031d61075c565b346101e85761078f36610289565b61024161022f61162a565b909182601f830112156101e8578135916001600160401b0383116101e85760200192600183028401116101e857565b60049060a0828203126101e8576001600160401b0382358181116101e857826107f391850161079a565b93909460208201358381116101e8578461080e91840161079a565b93909460408401358281116101e8578161082991860161079a565b93909460608101358481116101e8578361084491830161079a565b93909460808301359081116101e85761085d920161079a565b9091565b346101e857610284610872366107c9565b98979097969196959295949394611712565b346101e85761028461089536610258565b61175b565b6101d5600060046102b3565b346101e8576108b436610289565b61024161031d61089a565b6101d5600060056102b3565b346101e8576108d936610289565b61024161031d6108bf565b60049160a0838303126101e8576108fb828461024b565b926001600160401b039160208201358381116101e8578461080e91840161079a565b346101e85761028461092e366108e4565b979690969591959492946117b5565b346101e85761028461094e366101fc565b611851565b6101d56006546101cc565b8015156101e1565b905051906101fa8261095e565b906020828203126101e8576101d591610966565b6040513d6000823e3d90fd5b60206109c46109a86109a3610953565b6102e2565b630236bb5a6109cf6109b960405190565b958694859360e01b90565b8352600483016106e3565b91815a930392fa908115610a11576000916109e8575090565b6101d5915060203d602011610a0a575b610a02818361037e565b810190610973565b503d6109f8565b610987565b6101d56003546101cc565b610a2c6109a3610a16565b630a713d6890803b156101e857610a5491610a62610a4960405190565b948594859360e01b90565b835260048301526024820190565b600094858094825a940393f18015610a1157610a7c575050565b816101fa92903d10610a9b575b610a93818361037e565b810190610296565b503d610a89565b6101d59060081c6101c0565b6101d5600254610aa2565b9081526040810192916101fa916020905b01906106da565b90610b0a602091610ae0600090565b50610aec6109a3610aae565b906109cf631dc626b191610aff60405190565b968795869460e01b90565b845260048401610ab9565b9081526040602082018190526101d59291019061062b565b90610b396109a3610aae565b63317d609b813b156101e857610a62610b6093610b5560405190565b958695869460e01b90565b845260048401610b15565b9037565b8183529091602001916001600160fb1b0381116101e857829160206103d49202938491610b6b565b969593946101fa95610bcd608095610bc661068196610bbc8d97600060a08a01990152565b60208d01906106da565b60408b0152565b88830360608a0152610b6f565b9491929390610bea6109a3610a16565b92633ab2648a92843b156101e857600096610c1796610c2294610c0c60405190565b9a8b998a9860e01b90565b885260048801610b97565b815a9103923491f18015610a1157610c375750565b6101fa906000610a93818361037e565b610c546103f460266103b8565b9060268252565b610c686103f4602b6103b8565b90602b8252565b610c7c6103f4602d6103b8565b90602d8252565b610c906103f4602f6103b8565b90602f8252565b610ca46103f4602c6103b8565b90602c8252565b610cb3610c47565b7f43726f7373776f7264426f6172643a2063616c6c6572206973206e6f7420616e6020820152651030b236b4b760d11b604082015290565b6101d5610cab565b6101d5610ceb565b60208082526101d59291019061062b565b15610d145750565b610d3690610d2160405190565b62461bcd60e51b815291829160048301610cfb565b0390fd5b6101d56004546101cc565b6101d56005546101cc565b610d5b6109a3610953565b630236bb5a610d73610d6c60405190565b9160e01b90565b815260208160049381610d88338783016106e3565b91815a930392fa8015610a1157610db091600091610f64575b50610daa610cf3565b90610d0c565b610dbb6109a3610aae565b90638456cb5991803b156101e857610ddf92610dd660405190565b93849160e01b90565b8082529181848101600096878094825a940393f18015610a1157610f48575b50610e0a6109a3610a16565b803b156101e85783610e1b60405190565b838152918290818387820192825a940393f18015610a1157610f2c575b50610e446109a3610d3a565b803b156101e85783610e5560405190565b838152918290818387820192825a940393f18015610a1157610f10575b50610e7e6109a3610d45565b803b156101e85783610e8f60405190565b838152918290818387820192825a940393f18015610a1157610ef4575b50610eb86109a3610953565b91823b156101e857610edf92849283610ed060405190565b95869485938452830160000190565b92825a940393f18015610a1157610a7c575050565b610f0a90843d8611610a9b57610a93818361037e565b38610eac565b610f2690843d8611610a9b57610a93818361037e565b38610e72565b610f4290843d8611610a9b57610a93818361037e565b38610e38565b610f5e90843d8611610a9b57610a93818361037e565b38610dfe565b610f7d915060203d602011610a0a57610a02818361037e565b38610da1565b610f8e6109a3610aae565b636c19e78390803b156101e8576109c491610a62610a4960405190565b610fb361185a565b6101fa610fd1565b6102ae6101d56101d59290565b6101d590610fbb565b6101fa610fde6000610fc8565b6118b5565b6101fa610fab565b906101fa94939291610ffb61185a565b6112ab565b611008610c5b565b7f43726f7373776f7264426f6172643a20636f726520616464726573732063616e60208201526a6e6f74206265207a65726f60a81b604082015290565b6101d5611000565b6101d5611045565b61105d610c6f565b7f43726f7373776f7264426f6172643a207072697a65732061646472657373206360208201526c616e6e6f74206265207a65726f60981b604082015290565b6101d5611055565b6101d561109c565b6110b4610c83565b7f43726f7373776f7264426f6172643a2070726f66696c6573206164647265737360208201526e2063616e6e6f74206265207a65726f60881b604082015290565b6101d56110ac565b6101d56110f5565b61110d610c6f565b7f43726f7373776f7264426f6172643a20636f6e6669672061646472657373206360208201526c616e6e6f74206265207a65726f60981b604082015290565b6101d5611105565b6101d561114c565b611164610c97565b7f43726f7373776f7264426f6172643a2061646d696e206164647265737320636160208201526b6e6e6f74206265207a65726f60a01b604082015290565b6101d561115c565b6101d56111a2565b90610100600160a81b039060081b5b9181191691161790565b6111da6101d56111e2926102e2565b6002546111b2565b600255565b906001600160a01b03906111c1565b6112056101d561120d926102e2565b6003546111e7565b600355565b6112216101d5611229926102e2565b6004546111e7565b600455565b61123d6101d5611245926102e2565b6005546111e7565b600555565b6112596101d5611261926102e2565b6006546111e7565b600655565b909594926101fa946112a1610aca9261129760809661128d60a088019c60008901906106da565b60208701906106da565b60408501906106da565b60608301906106da565b919361139091936112c36112bd61104d565b8561190a565b6112d46112ce6110a4565b8661190a565b6112e56112df6110fd565b8761190a565b6112f66112f0611154565b8261190a565b6113076113016111aa565b8361190a565b611318611313856102e2565b6111cb565b611329611324866102e2565b6111f6565b61133a611335876102e2565b611212565b61134b611346826102e2565b61122e565b61135c611357836102e2565b61124a565b7f0ef794e787fc9c91fefe4a55535c1a78a09d1cfb5ef3042e4ea952fbec5bfab39561138760405190565b95869586611266565b0390a1565b906101fa94939291610feb565b905051906101fa82610245565b909291926113bf6103f4826103b8565b93818552818301116101e8576101fa916020850190610608565b9080601f830112156101e85781516101d5926020016113af565b90916060828403126101e85761140983836113a2565b602083015190936001600160401b0382116101e857604061142f826101d59487016113d9565b94016113a2565b61145e906114456109a3610aae565b90637849dbaa9161145560405190565b93849360e01b90565b835282600481016000958693815a930392fa918215610a11578390848094611488575b5050929190565b91509193506114a992503d8091833e6114a1818361037e565b8101906113f3565b913880949294611481565b6114bf6109a3610aae565b63842a42e3813b156101e8576114e1916114d860405190565b92839260e01b90565b82528160048101610a62565b6114f86109a3610953565b630236bb5a611509610d6c60405190565b81526020816004938161151e338783016106e3565b91815a930392fa8015610a115761153f91600091610f645750610daa610cf3565b61154a6109a3610aae565b90633f4ba83a91803b156101e857610ddf92610dd660405190565b6101d56000546101cc565b6101d5611565565b906020828203126101e8576101d5916113a2565b90610b0a60209161159b600090565b506115a76109a3610a16565b906115ba639745808a91610aff60405190565b91815a930392fa908115610a11576000916115d3575090565b6101d5915060203d6020116115f5575b6115ed818361037e565b810190611578565b503d6115e3565b90610b0a60209161160b600090565b506116176109a3610a16565b906109cf639cc19f5b91610aff60405190565b611652602061163a6109a3610d45565b636bc122c99061164960405190565b93849260e01b90565b8252604060048301526013604483015272686f6d655f627574746f6e5f76697369626c6560681b60648301526001602483015281608481016109cf565b9190610655816116a6816103d49560209181520190565b80956103d8565b989694916116f6936101d59b99956116da8c6116e8946117049b9660a0830192600081850391015261168f565b8c810360208e01529161168f565b9189830360408b015261168f565b91868303606088015261168f565b92608081850391015261168f565b9893969197929590946117266109a3610d3a565b9763b043e03297893b156101e8576117509a610a629861174560405190565b9d8e9d8e9c60e01b90565b8c5260048c016116ad565b6117666109a3610a16565b63b0fc944090803b156101e857610a5491610a62610a4960405190565b97959390946116e8896101d59b99956116f6956117a86117049a600060a08601950152565b8c830360208e015261168f565b979294969196959093956117ca6109a3610aae565b9663cb0e184996883b156101e8576117f499610a62976117e960405190565b9c8d9c8d9b60e01b90565b8b5260048b01611783565b6101fa9061180b61185a565b600061181681610fc8565b61181f816101cc565b611828846101cc565b146118385750506101fa906118b5565b631e4fbdf760e01b82528190610d3690600483016106e3565b6101fa906117ff565b611862611570565b3390611876611870836101cc565b916101cc565b0361187e5750565b63118cdaa760e01b6000908152908190610d369060046106e3565b6118a86101d56118b0926102e2565b6000546111e7565b600055565b6118bd611565565b906118c781611899565b6118fa6118f47f8be0079c531659141344cd1fd0a4f28419497f9722a3daafe3b4186f6b6457e0936102e2565b916102e2565b9161190460405190565b600090a3565b906101fa9161192461187061191f6000610fc8565b6101cc565b1415610d0c56fea2646970667358221220d1a4263225e76fe0536b001f61600590c920ca8e907aebe8336fc52133e0856464736f6c634300081c0033",
  "linkReferences": {},
  "deployedLinkReferences": {}
}