{
  "_format": "hh-sol-artifact-1",
  "contractName": "CrosswordPrizes",
  "sourceName": "contracts/CrosswordPrizes.sol",
  "abi": [
    {
      "inputs": [
        {
          "internalType": "address",
          "name": "initialAdmin",
          "type": "address"
        }
      ],
      "stateMutability": "nonpayable",
      "type": "constructor"
    },
    {
      "inputs": [],
      "name": "AccessControlBadConfirmation",
      "type": "error"
    },
    {
      "inputs": [
        {
          "internalType": "address",
          "name": "account",
          "type": "address"
        },
        {
          "internalType": "bytes32",
          "name": "neededRole",
          "type": "bytes32"
        }
      ],
      "name": "AccessControlUnauthorizedAccount",
      "type": "error"
    },
    {
      "inputs": [],
      "name": "EnforcedPause",
      "type": "error"
    },
    {
      "inputs": [],
      "name": "ExpectedPause",
      "type": "error"
    },
    {
      "inputs": [],
      "name": "ReentrancyGuardReentrantCall",
      "type": "error"
    },
    {
      "inputs": [
        {
          "internalType": "address",
          "name": "token",
          "type": "address"
        }
      ],
      "name": "SafeERC20FailedOperation",
      "type": "error"
    },
    {
      "anonymous": false,
      "inputs": [
        {
          "indexed": true,
          "internalType": "bytes32",
          "name": "crosswordId",
          "type": "bytes32"
        },
        {
          "indexed": false,
          "internalType": "uint256",
          "name": "activationTime",
          "type": "uint256"
        }
      ],
      "name": "CrosswordActivated",
      "type": "event"
    },
    {
      "anonymous": false,
      "inputs": [
        {
          "indexed": true,
          "internalType": "bytes32",
          "name": "crosswordId",
          "type": "bytes32"
        },
        {
          "indexed": true,
          "internalType": "address",
          "name": "token",
          "type": "address"
        },
        {
          "indexed": false,
          "internalType": "uint256",
          "name": "prizePool",
          "type": "uint256"
        },
        {
          "indexed": false,
          "internalType": "address",
          "name": "creator",
          "type": "address"
        }
      ],
      "name": "CrosswordCreated",
      "type": "event"
    },
    {
      "anonymous": false,
      "inputs": [
        {
          "indexed": false,
          "internalType": "address",
          "name": "account",
          "type": "address"
        }
      ],
      "name": "Paused",
      "type": "event"
    },
    {
      "anonymous": false,
      "inputs": [
        {
          "indexed": true,
          "internalType": "bytes32",
          "name": "crosswordId",
          "type": "bytes32"
        },
        {
          "indexed": true,
          "internalType": "address",
          "name": "winner",
          "type": "address"
        },
        {
          "indexed": false,
          "internalType": "uint256",
          "name": "amount",
          "type": "uint256"
        },
        {
          "indexed": false,
          "internalType": "uint256",
          "name": "rank",
          "type": "uint256"
        }
      ],
      "name": "PrizeDistributed",
      "type": "event"
    },
    {
      "anonymous": false,
      "inputs": [
        {
          "indexed": true,
          "internalType": "bytes32",
          "name": "role",
          "type": "bytes32"
        },
        {
          "indexed": true,
          "internalType": "bytes32",
          "name": "previousAdminRole",
          "type": "bytes32"
        },
        {
          "indexed": true,
          "internalType": "bytes32",
          "name": "newAdminRole",
          "type": "bytes32"
        }
      ],
      "name": "RoleAdminChanged",
      "type": "event"
    },
    {
      "anonymous": false,
      "inputs": [
        {
          "indexed": true,
          "internalType": "bytes32",
          "name": "role",
          "type": "bytes32"
        },
        {
          "indexed": true,
          "internalType": "address",
          "name": "account",
          "type": "address"
        },
        {
          "indexed": true,
          "internalType": "address",
          "name": "sender",
          "type": "address"
        }
      ],
      "name": "RoleGranted",
      "type": "event"
    },
    {
      "anonymous": false,
      "inputs": [
        {
          "indexed": true,
          "internalType": "bytes32",
          "name": "role",
          "type": "bytes32"
        },
        {
          "indexed": true,
          "internalType": "address",
          "name": "account",
          "type": "address"
        },
        {
          "indexed": true,
          "internalType": "address",
          "name": "sender",
          "type": "address"
        }
      ],
      "name": "RoleRevoked",
      "type": "event"
    },
    {
      "anonymous": false,
      "inputs": [
        {
          "indexed": true,
          "internalType": "address",
          "name": "token",
          "type": "address"
        },
        {
          "indexed": false,
          "internalType": "bool",
          "name": "allowed",
          "type": "bool"
        }
      ],
      "name": "TokenAllowed",
      "type": "event"
    },
    {
      "anonymous": false,
      "inputs": [
        {
          "indexed": true,
          "internalType": "bytes32",
          "name": "crosswordId",
          "type": "bytes32"
        },
        {
          "indexed": true,
          "internalType": "address",
          "name": "token",
          "type": "address"
        },
        {
          "indexed": false,
          "internalType": "uint256",
          "name": "amount",
          "type": "uint256"
        },
        {
          "indexed": false,
          "internalType": "address",
          "name": "recoveredBy",
          "type": "address"
        }
      ],
      "name": "UnclaimedPrizesRecovered",
      "type": "event"
    },
    {
      "anonymous": false,
      "inputs": [
        {
          "indexed": false,
          "internalType": "address",
          "name": "account",
          "type": "address"
        }
      ],
      "name": "Unpaused",
      "type": "event"
    },
    {
      "inputs": [],
      "name": "ADMIN_ROLE",
      "outputs": [
        {
          "internalType": "bytes32",
          "name": "",
          "type": "bytes32"
        }
      ],
      "stateMutability": "view",
      "type": "function"
    },
    {
      "inputs": [],
      "name": "DEFAULT_ADMIN_ROLE",
      "outputs": [
        {
          "internalType": "bytes32",
          "name": "",
          "type": "bytes32"
        }
      ],
      "stateMutability": "view",
      "type": "function"
    },
    {
      "inputs": [],
      "name": "MAX_CONFIGURABLE_WINNERS",
      "outputs": [
        {
          "internalType": "uint256",
          "name": "",
          "type": "uint256"
        }
      ],
      "stateMutability": "view",
      "type": "function"
    },
    {
      "inputs": [],
      "name": "MAX_END_TIME",
      "outputs": [
        {
          "internalType": "uint256",
          "name": "",
          "type": "uint256"
        }
      ],
      "stateMutability": "view",
      "type": "function"
    },
    {
      "inputs": [],
      "name": "MAX_PERCENTAGE",
      "outputs": [
        {
          "internalType": "uint256",
          "name": "",
          "type": "uint256"
        }
      ],
      "stateMutability": "view",
      "type": "function"
    },
    {
      "inputs": [],
      "name": "MAX_SINGLE_WINNER_PERCENTAGE",
      "outputs": [
        {
          "internalType": "uint256",
          "name": "",
          "type": "uint256"
        }
      ],
      "stateMutability": "view",
      "type": "function"
    },
    {
      "inputs": [],
      "name": "OPERATOR_ROLE",
      "outputs": [
        {
          "internalType": "bytes32",
          "name": "",
          "type": "bytes32"
        }
      ],
      "stateMutability": "view",
      "type": "function"
    },
    {
      "inputs": [],
      "name": "RECOVERY_WINDOW",
      "outputs": [
        {
          "internalType": "uint256",
          "name": "",
          "type": "uint256"
        }
      ],
      "stateMutability": "view",
      "type": "function"
    },
    {
      "inputs": [
        {
          "internalType": "bytes32",
          "name": "crosswordId",
          "type": "bytes32"
        }
      ],
      "name": "activateCrossword",
      "outputs": [],
      "stateMutability": "nonpayable",
      "type": "function"
    },
    {
      "inputs": [
        {
          "internalType": "address",
          "name": "",
          "type": "address"
        }
      ],
      "name": "allowedTokens",
      "outputs": [
        {
          "internalType": "bool",
          "name": "",
          "type": "bool"
        }
      ],
      "stateMutability": "view",
      "type": "function"
    },
    {
      "inputs": [
        {
          "internalType": "bytes32",
          "name": "crosswordId",
          "type": "bytes32"
        }
      ],
      "name": "claimPrize",
      "outputs": [],
      "stateMutability": "nonpayable",
      "type": "function"
    },
    {
      "inputs": [
        {
          "internalType": "bytes32",
          "name": "crosswordId",
          "type": "bytes32"
        },
        {
          "internalType": "address",
          "name": "token",
          "type": "address"
        },
        {
          "internalType": "uint256",
          "name": "prizePool",
          "type": "uint256"
        },
        {
          "internalType": "uint256[]",
          "name": "winnerPercentages",
          "type": "uint256[]"
        },
        {
          "internalType": "uint256",
          "name": "endTime",
          "type": "uint256"
        }
      ],
      "name": "createCrossword",
      "outputs": [],
      "stateMutability": "nonpayable",
      "type": "function"
    },
    {
      "inputs": [
        {
          "internalType": "bytes32",
          "name": "",
          "type": "bytes32"
        }
      ],
      "name": "crosswords",
      "outputs": [
        {
          "internalType": "contract IERC20",
          "name": "token",
          "type": "address"
        },
        {
          "internalType": "uint256",
          "name": "totalPrizePool",
          "type": "uint256"
        },
        {
          "internalType": "uint256",
          "name": "activationTime",
          "type": "uint256"
        },
        {
          "internalType": "uint256",
          "name": "endTime",
          "type": "uint256"
        },
        {
          "internalType": "enum CrosswordPrizes.CrosswordState",
          "name": "state",
          "type": "uint8"
        },
        {
          "internalType": "uint256",
          "name": "createdAt",
          "type": "uint256"
        }
      ],
      "stateMutability": "view",
      "type": "function"
    },
    {
      "inputs": [
        {
          "internalType": "bytes32",
          "name": "crosswordId",
          "type": "bytes32"
        }
      ],
      "name": "getCompletionsCount",
      "outputs": [
        {
          "internalType": "uint256",
          "name": "",
          "type": "uint256"
        }
      ],
      "stateMutability": "view",
      "type": "function"
    },
    {
      "inputs": [
        {
          "internalType": "bytes32",
          "name": "crosswordId",
          "type": "bytes32"
        }
      ],
      "name": "getCrosswordDetails",
      "outputs": [
        {
          "internalType": "address",
          "name": "token",
          "type": "address"
        },
        {
          "internalType": "uint256",
          "name": "totalPrizePool",
          "type": "uint256"
        },
        {
          "internalType": "uint256[]",
          "name": "winnerPercentages",
          "type": "uint256[]"
        },
        {
          "components": [
            {
              "internalType": "address",
              "name": "user",
              "type": "address"
            },
            {
              "internalType": "uint256",
              "name": "timestamp",
              "type": "uint256"
            },
            {
              "internalType": "uint256",
              "name": "rank",
              "type": "uint256"
            }
          ],
          "internalType": "struct CrosswordPrizes.CompletionRecord[]",
          "name": "completions",
          "type": "tuple[]"
        },
        {
          "internalType": "uint256",
          "name": "activationTime",
          "type": "uint256"
        },
        {
          "internalType": "uint256",
          "name": "endTime",
          "type": "uint256"
        },
        {
          "internalType": "enum CrosswordPrizes.CrosswordState",
          "name": "state",
          "type": "uint8"
        }
      ],
      "stateMutability": "view",
      "type": "function"
    },
    {
      "inputs": [],
      "name": "getMaxWinners",
      "outputs": [
        {
          "internalType": "uint256",
          "name": "",
          "type": "uint256"
        }
      ],
      "stateMutability": "view",
      "type": "function"
    },
    {
      "inputs": [
        {
          "internalType": "bytes32",
          "name": "role",
          "type": "bytes32"
        }
      ],
      "name": "getRoleAdmin",
      "outputs": [
        {
          "internalType": "bytes32",
          "name": "",
          "type": "bytes32"
        }
      ],
      "stateMutability": "view",
      "type": "function"
    },
    {
      "inputs": [
        {
          "internalType": "bytes32",
          "name": "crosswordId",
          "type": "bytes32"
        },
        {
          "internalType": "address",
          "name": "user",
          "type": "address"
        }
      ],
      "name": "getUserRank",
      "outputs": [
        {
          "internalType": "uint256",
          "name": "",
          "type": "uint256"
        }
      ],
      "stateMutability": "view",
      "type": "function"
    },
    {
      "inputs": [
        {
          "internalType": "bytes32",
          "name": "role",
          "type": "bytes32"
        },
        {
          "internalType": "address",
          "name": "account",
          "type": "address"
        }
      ],
      "name": "grantRole",
      "outputs": [],
      "stateMutability": "nonpayable",
      "type": "function"
    },
    {
      "inputs": [
        {
          "internalType": "bytes32",
          "name": "role",
          "type": "bytes32"
        },
        {
          "internalType": "address",
          "name": "account",
          "type": "address"
        }
      ],
      "name": "hasRole",
      "outputs": [
        {
          "internalType": "bool",
          "name": "",
          "type": "bool"
        }
      ],
      "stateMutability": "view",
      "type": "function"
    },
    {
      "inputs": [
        {
          "internalType": "bytes32",
          "name": "crosswordId",
          "type": "bytes32"
        },
        {
          "internalType": "address",
          "name": "user",
          "type": "address"
        }
      ],
      "name": "isWinner",
      "outputs": [
        {
          "internalType": "bool",
          "name": "",
          "type": "bool"
        }
      ],
      "stateMutability": "view",
      "type": "function"
    },
    {
      "inputs": [],
      "name": "maxWinners",
      "outputs": [
        {
          "internalType": "uint256",
          "name": "",
          "type": "uint256"
        }
      ],
      "stateMutability": "view",
      "type": "function"
    },
    {
      "inputs": [],
      "name": "pause",
      "outputs": [],
      "stateMutability": "nonpayable",
      "type": "function"
    },
    {
      "inputs": [],
      "name": "paused",
      "outputs": [
        {
          "internalType": "bool",
          "name": "",
          "type": "bool"
        }
      ],
      "stateMutability": "view",
      "type": "function"
    },
    {
      "inputs": [
        {
          "internalType": "bytes32",
          "name": "crosswordId",
          "type": "bytes32"
        },
        {
          "internalType": "address",
          "name": "user",
          "type": "address"
        }
      ],
      "name": "recordCompletion",
      "outputs": [
        {
          "internalType": "bool",
          "name": "awardedPrize",
          "type": "bool"
        }
      ],
      "stateMutability": "nonpayable",
      "type": "function"
    },
    {
      "inputs": [
        {
          "internalType": "bytes32",
          "name": "crosswordId",
          "type": "bytes32"
        }
      ],
      "name": "recoverUnclaimedPrizes",
      "outputs": [],
      "stateMutability": "nonpayable",
      "type": "function"
    },
    {
      "inputs": [
        {
          "internalType": "bytes32",
          "name": "role",
          "type": "bytes32"
        },
        {
          "internalType": "address",
          "name": "callerConfirmation",
          "type": "address"
        }
      ],
      "name": "renounceRole",
      "outputs": [],
      "stateMutability": "nonpayable",
      "type": "function"
    },
    {
      "inputs": [
        {
          "internalType": "bytes32",
          "name": "role",
          "type": "bytes32"
        },
        {
          "internalType": "address",
          "name": "account",
          "type": "address"
        }
      ],
      "name": "revokeRole",
      "outputs": [],
      "stateMutability": "nonpayable",
      "type": "function"
    },
    {
      "inputs": [
        {
          "internalType": "address",
          "name": "token",
          "type": "address"
        },
        {
          "internalType": "bool",
          "name": "allowed",
          "type": "bool"
        }
      ],
      "name": "setAllowedToken",
      "outputs": [],
      "stateMutability": "nonpayable",
      "type": "function"
    },
    {
      "inputs": [
        {
          "internalType": "uint256",
          "name": "newMaxWinners",
          "type": "uint256"
        }
      ],
      "name": "setMaxWinners",
      "outputs": [],
      "stateMutability": "nonpayable",
      "type": "function"
    },
    {
      "inputs": [
        {
          "internalType": "bytes4",
          "name": "interfaceId",
          "type": "bytes4"
        }
      ],
      "name": "supportsInterface",
      "outputs": [
        {
          "internalType": "bool",
          "name": "",
          "type": "bool"
        }
      ],
      "stateMutability": "view",
      "type": "function"
    },
    {
      "inputs": [],
      "name": "unpause",
      "outputs": [],
      "stateMutability": "nonpayable",
      "type": "function"
    }
  ],
  "bytecode": "0x6080604052600360055534801561001557600080fd5b506040516125cf3803806125cf8339810160408190526100349161014c565b600180556100436000826100a0565b5061006e7fa49807205ce4d355092ef5a8a18f56e8913cf4a201fbe287825b095693c21775826100a0565b506100997f97667070c54ef182b0f5858b034beac1b6f3089aa2d3188bb1e8929f4fa9b929826100a0565b505061017c565b6000828152602081815260408083206001600160a01b038516845290915281205460ff16610142576000838152602081815260408083206001600160a01b03861684529091529020805460ff191660011790556100fa3390565b6001600160a01b0316826001600160a01b0316847f2f8788117e7eff1d82e926ec794901d17c78024a50270940304540a733656f0d60405160405180910390a4506001610146565b5060005b92915050565b60006020828403121561015e57600080fd5b81516001600160a01b038116811461017557600080fd5b9392505050565b6124448061018b6000396000f3fe608060405234801561001057600080fd5b50600436106101f05760003560e01c80639745808a1161010f578063d547741f116100a2578063e744092e11610071578063e744092e14610435578063ec03a37a14610458578063ef9923aa1461047e578063f5b541a61461048657600080fd5b8063d547741f146103a2578063d9cbe53c146103b5578063dfdfde30146103c8578063e5b4a8a51461042d57600080fd5b8063b0fc9440116100de578063b0fc94401461036a578063cde8e5d31461037d578063d17b18c414610386578063d30c2efe1461039957600080fd5b80639745808a146103185780639c0b1d641461032b5780639cc19f5b1461034f578063a217fddf1461036257600080fd5b80633ab2648a1161018757806375b238fc1161015657806375b238fc146102d55780638456cb59146102ea5780638aaa2284146102f257806391d148541461030557600080fd5b80633ab2648a146102a65780633f4ba83a146102b95780634c255c97146102c15780635c975abb146102ca57600080fd5b80631ca1954e116101c35780631ca1954e1461021d578063248a9ca31461025d5780632f2ff15d1461028057806336568abe1461029357600080fd5b806301ffc9a7146101f55780630a4636b21461021d5780630a713d68146102355780630e5e0bb01461024a575b600080fd5b610208610203366004611fd2565b6104ad565b60405190151581526020015b60405180910390f35b61022762278d0081565b604051908152602001610214565b610248610243366004612003565b6104e4565b005b610248610258366004612003565b6106a9565b61022761026b366004612003565b60009081526020819052604090206001015490565b61024861028e366004612038565b6109bb565b6102486102a1366004612038565b6109e6565b6102486102b436600461207a565b610a1e565b610248610faf565b61022761271081565b60025460ff16610208565b6102276000805160206123ef83398151915281565b610248610fc5565b610248610300366004612173565b610fd8565b610208610313366004612038565b61103b565b610227610326366004612038565b611064565b610227610339366004612003565b6000908152600360208190526040909120015490565b61020861035d366004612038565b611101565b610227600081565b610248610378366004612003565b61116e565b61022760055481565b610248610394366004612003565b6115ce565b610227611f4081565b6102486103b0366004612038565b6116bc565b6102086103c3366004612038565b6116e1565b61041b6103d6366004612003565b6003602052600090815260409020805460018201546005830154600684015460078501546008909501546001600160a01b039094169492939192909160ff9091169086565b604051610214969594939291906121e7565b610227600a81565b61020861044336600461222a565b60046020526000908152604090205460ff1681565b61046b610466366004612003565b611a89565b60405161021497969594939291906122a3565b600554610227565b6102277f97667070c54ef182b0f5858b034beac1b6f3089aa2d3188bb1e8929f4fa9b92981565b60006001600160e01b03198216637965db0b60e01b14806104de57506301ffc9a760e01b6001600160e01b03198316145b92915050565b6000805160206123ef8339815191526104fc81611bc0565b610504611bca565b60008281526003602052604090206002600782015460ff16600281111561052d5761052d6121af565b036105895760405162461bcd60e51b815260206004820152602160248201527f43726f7373776f72645072697a65733a20616c726561647920636f6d706c65746044820152606560f81b60648201526084015b60405180910390fd5b6001600782015460ff1660028111156105a4576105a46121af565b036105f15760405162461bcd60e51b815260206004820152601f60248201527f43726f7373776f72645072697a65733a20616c726561647920616374697665006044820152606401610580565b80546001600160a01b03166106575760405162461bcd60e51b815260206004820152602660248201527f43726f7373776f72645072697a65733a2063726f7373776f7264206e6f7420636044820152651c99585d195960d21b6064820152608401610580565b60078101805460ff19166001179055426005820181905560405190815283907f866c1294f23fc719c565ed4c7188b24e3e7bccde328f0b50425b902bf19bc83d906020015b60405180910390a2505050565b6000805160206123ef8339815191526106c181611bc0565b6106c9611c33565b6106d1611bca565b60008281526003602052604090206002600782015460ff1660028111156106fa576106fa6121af565b146107575760405162461bcd60e51b815260206004820152602760248201527f43726f7373776f72645072697a65733a2063726f7373776f7264206e6f7420636044820152666f6d706c65746560c81b6064820152608401610580565b62278d00816005015461076a9190612347565b4210156107ce5760405162461bcd60e51b815260206004820152602c60248201527f43726f7373776f72645072697a65733a207265636f766572792077696e646f7760448201526b081b9bdd08195b185c1cd95960a21b6064820152608401610580565b60008160050154116108335760405162461bcd60e51b815260206004820152602860248201527f43726f7373776f72645072697a65733a2063726f7373776f7264206e6f74206160448201526718dd1a5d985d195960c21b6064820152608401610580565b80546040516370a0823160e01b81523060048201526000916001600160a01b0316906370a0823190602401602060405180830381865afa15801561087b573d6000803e3d6000fd5b505050506040513d601f19601f8201168201806040525081019061089f919061235a565b90506000805b6002840154811080156108bb5750600384015481105b1561091a576127108460020182815481106108d8576108d8612373565b906000526020600020015485600101546108f29190612389565b6108fc91906123a0565b6109069083612347565b915080610912816123c2565b9150506108a5565b50600081846001015461092d91906123db565b905060008111801561093f5750808310155b156109aa5761095a3385546001600160a01b03169083611c5d565b83546001600160a01b0316867f4f9dbc6a445a64ff84ec788dbb2b2882a37630c9397338d10c7568bc438d10238333604080519283526001600160a01b0390911660208301520160405180910390a35b505050506109b760018055565b5050565b6000828152602081905260409020600101546109d681611bc0565b6109e08383611cbc565b50505050565b6001600160a01b0381163314610a0f5760405163334bd91960e11b815260040160405180910390fd5b610a198282611d4e565b505050565b6000805160206123ef833981519152610a3681611bc0565b610a3e611bca565b6001600160a01b038516610aaa5760405162461bcd60e51b815260206004820152602d60248201527f43726f7373776f72645072697a65733a20746f6b656e2063616e6e6f7420626560448201526c207a65726f206164647265737360981b6064820152608401610580565b6001600160a01b03851660009081526004602052604090205460ff16610b1d5760405162461bcd60e51b815260206004820152602260248201527f43726f7373776f72645072697a65733a20746f6b656e206e6f7420616c6c6f77604482015261195960f21b6064820152608401610580565b60008411610b885760405162461bcd60e51b815260206004820152603260248201527f43726f7373776f72645072697a65733a207072697a6520706f6f6c206d75737460448201527102062652067726561746572207468616e20360741b6064820152608401610580565b6000835111610be35760405162461bcd60e51b815260206004820152602160248201527f43726f7373776f72645072697a65733a2077696e6e65727320726571756972656044820152601960fa1b6064820152608401610580565b60055483511115610c405760405162461bcd60e51b815260206004820152602160248201527f43726f7373776f72645072697a65733a20746f6f206d616e792077696e6e65726044820152607360f81b6064820152608401610580565b8251841015610cab5760405162461bcd60e51b815260206004820152603160248201527f43726f7373776f72645072697a65733a207072697a6520706f6f6c20746f6f20604482015270736d616c6c20666f722077696e6e65727360781b6064820152608401610580565b6000805b8451811015610dfc576000858281518110610ccc57610ccc612373565b602002602001015111610d475760405162461bcd60e51b815260206004820152603960248201527f43726f7373776f72645072697a65733a2077696e6e65722070657263656e746160448201527f6765206d7573742062652067726561746572207468616e2030000000000000006064820152608401610580565b611f40858281518110610d5c57610d5c612373565b60200260200101511115610dcd5760405162461bcd60e51b815260206004820152603260248201527f43726f7373776f72645072697a65733a2073696e676c652077696e6e657220706044820152710cae4c6cadce8c2ceca40e8dede40d0d2ced60731b6064820152608401610580565b848181518110610ddf57610ddf612373565b602002602001015182610df29190612347565b9150600101610caf565b50612710811115610e665760405162461bcd60e51b815260206004820152602e60248201527f43726f7373776f72645072697a65733a20746f74616c2070657263656e74616760448201526d652065786365656473203130302560901b6064820152608401610580565b8215610ee057610e7962278d0042612347565b831115610ee05760405162461bcd60e51b815260206004820152602f60248201527f43726f7373776f72645072697a65733a20656e642074696d6520746f6f20666160448201526e7220696e207468652066757475726560881b6064820152608401610580565b85610ef66001600160a01b038216333089611db9565b600088815260036020908152604090912080546001600160a01b0319166001600160a01b0384161781556001810188905586519091610f3c916002840191890190611f72565b506006810185905560078101805460ff191690554260088201556001600160a01b038816897f0fee001940c4884b8fa17931fc404ceb7673af8459a49404e484d47be2f0bcc08933604080519283526001600160a01b0390911660208301520160405180910390a3505050505050505050565b6000610fba81611bc0565b610fc2611df2565b50565b6000610fd081611bc0565b610fc2611e44565b6000610fe381611bc0565b6001600160a01b038316600081815260046020908152604091829020805460ff191686151590811790915591519182527f9a8e30a8658b96ab3f034ce4bac6806278b4aee5880ccdd1ac35e4ed5bb31d23910161069c565b6000918252602082815260408084206001600160a01b0393909316845291905290205460ff1690565b6000828152600360205260408120815b60038201548110156110f657836001600160a01b031682600301828154811061109f5761109f612373565b60009182526020909120600390910201546001600160a01b0316036110ee578160030181815481106110d3576110d3612373565b906000526020600020906003020160020154925050506104de565b600101611074565b506000949350505050565b6000828152600360205260408120815b60038201548110156110f657836001600160a01b031682600301828154811061113c5761113c612373565b60009182526020909120600390910201546001600160a01b031603611166576001925050506104de565b600101611111565b611176611c33565b61117e611bca565b60008181526003602052604090206002600782015460ff1660028111156111a7576111a76121af565b146112285760405162461bcd60e51b815260206004820152604560248201527f43726f7373776f72645072697a65733a2063726f7373776f7264206e6f74206360448201527f6f6d706c657465206f72207072697a657320616c726561647920646973747269606482015264189d5d195960da1b608482015260a401610580565b33600090815260048201602052604090205460ff161561128a5760405162461bcd60e51b815260206004820181905260248201527f43726f7373776f72645072697a65733a20616c726561647920636c61696d65646044820152606401610580565b6000805b600383015481101561130e57336001600160a01b03168360030182815481106112b9576112b9612373565b60009182526020909120600390910201546001600160a01b031603611306578260030181815481106112ed576112ed612373565b906000526020600020906003020160020154915061130e565b60010161128e565b506000811161136e5760405162461bcd60e51b815260206004820152602660248201527f43726f7373776f72645072697a65733a206e6f742061207665726966696564206044820152653bb4b73732b960d11b6064820152608401610580565b60028201548111156113d45760405162461bcd60e51b815260206004820152602960248201527f43726f7373776f72645072697a65733a2072616e6b20746f6f206c6f7720666f604482015268722061207072697a6560b81b6064820152608401610580565b6000612710600284016113e86001856123db565b815481106113f8576113f8612373565b906000526020600020015484600101546114129190612389565b61141c91906123a0565b90506000811161147a5760405162461bcd60e51b815260206004820152602360248201527f43726f7373776f72645072697a65733a206e6f207072697a6520617661696c61604482015262626c6560e81b6064820152608401610580565b82546040516370a0823160e01b81523060048201526000916001600160a01b0316906370a0823190602401602060405180830381865afa1580156114c2573d6000803e3d6000fd5b505050506040513d601f19601f820116820180604052508101906114e6919061235a565b90508181101561154f5760405162461bcd60e51b815260206004820152602e60248201527f43726f7373776f72645072697a65733a20696e73756666696369656e7420636f60448201526d6e74726163742062616c616e636560901b6064820152608401610580565b3360008181526004860160205260409020805460ff191660011790558454611584916001600160a01b03919091169084611c5d565b6040805183815260208101859052339187917f0842894bd3663e1d874d069f4495d64331ee07871e8fa4e159ae698421912c90910160405180910390a350505050610fc260018055565b6000805160206123ef8339815191526115e681611bc0565b600082116116525760405162461bcd60e51b815260206004820152603360248201527f43726f7373776f72645072697a65733a206d61782077696e6e657273206d75736044820152720742062652067726561746572207468616e203606c1b6064820152608401610580565b600a8211156116b65760405162461bcd60e51b815260206004820152602a60248201527f43726f7373776f72645072697a65733a206d61782077696e6e657273206578636044820152691959591cc81b1a5b5a5d60b21b6064820152608401610580565b50600555565b6000828152602081905260409020600101546116d781611bc0565b6109e08383611d4e565b60007f97667070c54ef182b0f5858b034beac1b6f3089aa2d3188bb1e8929f4fa9b92961170d81611bc0565b611715611bca565b60008481526003602052604090206001600782015460ff16600281111561173e5761173e6121af565b146117995760405162461bcd60e51b815260206004820152602560248201527f43726f7373776f72645072697a65733a2063726f7373776f7264206e6f742061604482015264637469766560d81b6064820152608401610580565b6001600160a01b0384166118045760405162461bcd60e51b815260206004820152602c60248201527f43726f7373776f72645072697a65733a2075736572206164647265737320636160448201526b6e6e6f74206265207a65726f60a01b6064820152608401610580565b6001600160a01b038416600090815260048201602052604090205460ff161561187f5760405162461bcd60e51b815260206004820152602760248201527f43726f7373776f72645072697a65733a20616c7265616479207265636569766560448201526664207072697a6560c81b6064820152608401610580565b6006810154156118dd5780600601544211156118dd5760405162461bcd60e51b815260206004820181905260248201527f43726f7373776f72645072697a65733a20646561646c696e65207061737365646044820152606401610580565b600281015460038201541015806118fa5750600554600382015410155b15611909576000925050611a82565b600381015460009061191c906001612347565b604080516060810182526001600160a01b0388811680835242602080850191825284860187815260038a810180546001808201835560009283528583208a519290940290930180546001600160a01b031916919098161787559351868201559051600295860155928252600489019052938420805460ff1916821790559394509092612710918601906119af90866123db565b815481106119bf576119bf612373565b906000526020600020015485600101546119d99190612389565b6119e391906123a0565b90508015611a01578354611a01906001600160a01b03168883611c5d565b60408051828152602081018590526001600160a01b038916918a917f0842894bd3663e1d874d069f4495d64331ee07871e8fa4e159ae698421912c90910160405180910390a360028401546003850154101580611a645750600554600385015410155b15611a795760078401805460ff191660021790555b60019550505050505b5092915050565b6000818152600360208181526040808420805460018201546005830154600684015460078501546002860180548851818b0281018b019099528089528b9a60609a8b9a8d9a8b9a8b9a91996001600160a01b03909116989197948a01959094919360ff9092169291879190830182828015611b2357602002820191906000526020600020905b815481526020019060010190808311611b0f575b5050505050945083805480602002602001604051908101604052809291908181526020016000905b82821015611ba0576000848152602090819020604080516060810182526003860290920180546001600160a01b0316835260018082015484860152600290910154918301919091529083529092019101611b4b565b505050509350975097509750975097509750975050919395979092949650565b610fc28133611e81565b60025460ff1615611c295760405162461bcd60e51b815260206004820152602360248201527f43726f7373776f72645072697a65733a20636f6e7472616374206973207061756044820152621cd95960ea1b6064820152608401610580565b611c31611eba565b565b600260015403611c5657604051633ee5aeb560e01b815260040160405180910390fd5b6002600155565b6040516001600160a01b03838116602483015260448201839052610a1991859182169063a9059cbb906064015b604051602081830303815290604052915060e01b6020820180516001600160e01b038381831617835250505050611ede565b6000611cc8838361103b565b611d46576000838152602081815260408083206001600160a01b03861684529091529020805460ff19166001179055611cfe3390565b6001600160a01b0316826001600160a01b0316847f2f8788117e7eff1d82e926ec794901d17c78024a50270940304540a733656f0d60405160405180910390a45060016104de565b5060006104de565b6000611d5a838361103b565b15611d46576000838152602081815260408083206001600160a01b0386168085529252808320805460ff1916905551339286917ff6391f5c32d9c69d2a47ea670b442974b53935d1edc7fd64eb21e047a839171b9190a45060016104de565b6040516001600160a01b0384811660248301528381166044830152606482018390526109e09186918216906323b872dd90608401611c8a565b611dfa611f4f565b6002805460ff191690557f5db9ee0a495bf2e6ff9c91a7834c1ba4fdd244a5e8aa4e537bd38aeae4b073aa335b6040516001600160a01b03909116815260200160405180910390a1565b611e4c611bca565b6002805460ff191660011790557f62e78cea01bee320cd4e420270b5ea74000d11b0c9f74754ebdbfc544b05a258611e273390565b611e8b828261103b565b6109b75760405163e2517d3f60e01b81526001600160a01b038216600482015260248101839052604401610580565b60025460ff1615611c315760405163d93c066560e01b815260040160405180910390fd5b600080602060008451602086016000885af180611f01576040513d6000823e3d81fd5b50506000513d91508115611f19578060011415611f26565b6001600160a01b0384163b155b156109e057604051635274afe760e01b81526001600160a01b0385166004820152602401610580565b60025460ff16611c3157604051638dfc202b60e01b815260040160405180910390fd5b828054828255906000526020600020908101928215611fad579160200282015b82811115611fad578251825591602001919060010190611f92565b50611fb9929150611fbd565b5090565b5b80821115611fb95760008155600101611fbe565b600060208284031215611fe457600080fd5b81356001600160e01b031981168114611ffc57600080fd5b9392505050565b60006020828403121561201557600080fd5b5035919050565b80356001600160a01b038116811461203357600080fd5b919050565b6000806040838503121561204b57600080fd5b8235915061205b6020840161201c565b90509250929050565b634e487b7160e01b600052604160045260246000fd5b600080600080600060a0868803121561209257600080fd5b853594506120a26020870161201c565b935060408601359250606086013567ffffffffffffffff8111156120c557600080fd5b8601601f810188136120d657600080fd5b803567ffffffffffffffff8111156120f0576120f0612064565b8060051b604051601f19603f830116810181811067ffffffffffffffff8211171561211d5761211d612064565b60405291825260208184018101929081018b84111561213b57600080fd5b6020850194505b8385101561215e57843580825260209586019590935001612142565b50979a96995094976080013595945050505050565b6000806040838503121561218657600080fd5b61218f8361201c565b9150602083013580151581146121a457600080fd5b809150509250929050565b634e487b7160e01b600052602160045260246000fd5b600381106121e357634e487b7160e01b600052602160045260246000fd5b9052565b6001600160a01b038716815260208101869052604081018590526060810184905260c0810161221960808301856121c5565b8260a0830152979650505050505050565b60006020828403121561223c57600080fd5b611ffc8261201c565b600081518084526020840193506020830160005b8281101561229957815180516001600160a01b03168752602080820151818901526040918201519188019190915260609096019590910190600101612259565b5093949350505050565b6001600160a01b0388168152602080820188905260e0604083018190528751908301819052600091880190610100840190835b818110156122f45783518352602093840193909201916001016122d6565b505083810360608501526123088189612245565b925050508460808301528360a083015261232560c08301846121c5565b98975050505050505050565b634e487b7160e01b600052601160045260246000fd5b808201808211156104de576104de612331565b60006020828403121561236c57600080fd5b5051919050565b634e487b7160e01b600052603260045260246000fd5b80820281158282048414176104de576104de612331565b6000826123bd57634e487b7160e01b600052601260045260246000fd5b500490565b6000600182016123d4576123d4612331565b5060010190565b818103818111156104de576104de61233156fea49807205ce4d355092ef5a8a18f56e8913cf4a201fbe287825b095693c21775a26469706673582212206dd74db09e2cefddb52d11db45e071aa14f52ee574e348dc60ab38080b50d13c64736f6c634300081c0033",
  "linkReferences": {},
  "deployedLinkReferences": {}
}