{
  "_format": "hh-sol-artifact-1",
  "contractName": "ConfigManager",
  "sourceName": "contracts/ConfigManager.sol",
  "abi": [
    {
      "inputs": [
        {
          "internalType": "address",
          "name": "initialAdmin",
          "type": "address"
        }
      ],
      "stateMutability": "nonpayable",
      "type": "constructor"
    },
    {
      "inputs": [],
      "name": "AccessControlBadConfirmation",
      "type": "error"
    },
    {
      "inputs": [
        {
          "internalType": "address",
          "name": "account",
          "type": "address"
        },
        {
          "internalType": "bytes32",
          "name": "neededRole",
          "type": "bytes32"
        }
      ],
      "name": "AccessControlUnauthorizedAccount",
      "type": "error"
    },
    {
      "inputs": [],
      "name": "EnforcedPause",
      "type": "error"
    },
    {
      "inputs": [],
      "name": "ExpectedPause",
      "type": "error"
    },
    {
      "inputs": [
        {
          "internalType": "address",
          "name": "owner",
          "type": "address"
        }
      ],
      "name": "OwnableInvalidOwner",
      "type": "error"
    },
    {
      "inputs": [
        {
          "internalType": "address",
          "name": "account",
          "type": "address"
        }
      ],
      "name": "OwnableUnauthorizedAccount",
      "type": "error"
    },
    {
      "anonymous": false,
      "inputs": [
        {
          "indexed": true,
          "internalType": "string",
          "name": "key",
          "type": "string"
        },
        {
          "indexed": false,
          "internalType": "bool",
          "name": "value",
          "type": "bool"
        },
        {
          "indexed": false,
          "internalType": "address",
          "name": "setter",
          "type": "address"
        }
      ],
      "name": "ConfigBoolSet",
      "type": "event"
    },
    {
      "anonymous": false,
      "inputs": [
        {
          "indexed": true,
          "internalType": "string",
          "name": "key",
          "type": "string"
        },
        {
          "indexed": false,
          "internalType": "string",
          "name": "value",
          "type": "string"
        },
        {
          "indexed": false,
          "internalType": "address",
          "name": "setter",
          "type": "address"
        }
      ],
      "name": "ConfigSet",
      "type": "event"
    },
    {
      "anonymous": false,
      "inputs": [
        {
          "indexed": true,
          "internalType": "string",
          "name": "key",
          "type": "string"
        },
        {
          "indexed": false,
          "internalType": "uint256",
          "name": "value",
          "type": "uint256"
        },
        {
          "indexed": false,
          "internalType": "address",
          "name": "setter",
          "type": "address"
        }
      ],
      "name": "ConfigUIntSet",
      "type": "event"
    },
    {
      "anonymous": false,
      "inputs": [
        {
          "indexed": true,
          "internalType": "address",
          "name": "previousOwner",
          "type": "address"
        },
        {
          "indexed": true,
          "internalType": "address",
          "name": "newOwner",
          "type": "address"
        }
      ],
      "name": "OwnershipTransferred",
      "type": "event"
    },
    {
      "anonymous": false,
      "inputs": [
        {
          "indexed": false,
          "internalType": "address",
          "name": "account",
          "type": "address"
        }
      ],
      "name": "Paused",
      "type": "event"
    },
    {
      "anonymous": false,
      "inputs": [
        {
          "indexed": true,
          "internalType": "bytes32",
          "name": "role",
          "type": "bytes32"
        },
        {
          "indexed": true,
          "internalType": "bytes32",
          "name": "previousAdminRole",
          "type": "bytes32"
        },
        {
          "indexed": true,
          "internalType": "bytes32",
          "name": "newAdminRole",
          "type": "bytes32"
        }
      ],
      "name": "RoleAdminChanged",
      "type": "event"
    },
    {
      "anonymous": false,
      "inputs": [
        {
          "indexed": true,
          "internalType": "bytes32",
          "name": "role",
          "type": "bytes32"
        },
        {
          "indexed": true,
          "internalType": "address",
          "name": "account",
          "type": "address"
        },
        {
          "indexed": true,
          "internalType": "address",
          "name": "sender",
          "type": "address"
        }
      ],
      "name": "RoleGranted",
      "type": "event"
    },
    {
      "anonymous": false,
      "inputs": [
        {
          "indexed": true,
          "internalType": "bytes32",
          "name": "role",
          "type": "bytes32"
        },
        {
          "indexed": true,
          "internalType": "address",
          "name": "account",
          "type": "address"
        },
        {
          "indexed": true,
          "internalType": "address",
          "name": "sender",
          "type": "address"
        }
      ],
      "name": "RoleRevoked",
      "type": "event"
    },
    {
      "anonymous": false,
      "inputs": [
        {
          "indexed": false,
          "internalType": "address",
          "name": "account",
          "type": "address"
        }
      ],
      "name": "Unpaused",
      "type": "event"
    },
    {
      "inputs": [],
      "name": "DEFAULT_ADMIN_ROLE",
      "outputs": [
        {
          "internalType": "bytes32",
          "name": "",
          "type": "bytes32"
        }
      ],
      "stateMutability": "view",
      "type": "function"
    },
    {
      "inputs": [],
      "name": "HOME_BUTTON_VISIBLE",
      "outputs": [
        {
          "internalType": "string",
          "name": "",
          "type": "string"
        }
      ],
      "stateMutability": "view",
      "type": "function"
    },
    {
      "inputs": [],
      "name": "MAX_WINNERS_CONFIG",
      "outputs": [
        {
          "internalType": "string",
          "name": "",
          "type": "string"
        }
      ],
      "stateMutability": "view",
      "type": "function"
    },
    {
      "inputs": [
        {
          "internalType": "string",
          "name": "key",
          "type": "string"
        }
      ],
      "name": "configKeyExists",
      "outputs": [
        {
          "internalType": "bool",
          "name": "",
          "type": "bool"
        }
      ],
      "stateMutability": "view",
      "type": "function"
    },
    {
      "inputs": [
        {
          "internalType": "string",
          "name": "key",
          "type": "string"
        }
      ],
      "name": "getBoolConfig",
      "outputs": [
        {
          "internalType": "bool",
          "name": "",
          "type": "bool"
        }
      ],
      "stateMutability": "view",
      "type": "function"
    },
    {
      "inputs": [
        {
          "internalType": "string",
          "name": "key",
          "type": "string"
        },
        {
          "internalType": "bool",
          "name": "defaultValue",
          "type": "bool"
        }
      ],
      "name": "getBoolConfigWithDefault",
      "outputs": [
        {
          "internalType": "bool",
          "name": "",
          "type": "bool"
        }
      ],
      "stateMutability": "view",
      "type": "function"
    },
    {
      "inputs": [
        {
          "internalType": "bytes32",
          "name": "role",
          "type": "bytes32"
        }
      ],
      "name": "getRoleAdmin",
      "outputs": [
        {
          "internalType": "bytes32",
          "name": "",
          "type": "bytes32"
        }
      ],
      "stateMutability": "view",
      "type": "function"
    },
    {
      "inputs": [
        {
          "internalType": "string",
          "name": "key",
          "type": "string"
        }
      ],
      "name": "getStringConfig",
      "outputs": [
        {
          "internalType": "string",
          "name": "",
          "type": "string"
        }
      ],
      "stateMutability": "view",
      "type": "function"
    },
    {
      "inputs": [
        {
          "internalType": "string",
          "name": "key",
          "type": "string"
        }
      ],
      "name": "getUIntConfig",
      "outputs": [
        {
          "internalType": "uint256",
          "name": "",
          "type": "uint256"
        }
      ],
      "stateMutability": "view",
      "type": "function"
    },
    {
      "inputs": [
        {
          "internalType": "string",
          "name": "key",
          "type": "string"
        },
        {
          "internalType": "uint256",
          "name": "defaultValue",
          "type": "uint256"
        }
      ],
      "name": "getUIntConfigWithDefault",
      "outputs": [
        {
          "internalType": "uint256",
          "name": "",
          "type": "uint256"
        }
      ],
      "stateMutability": "view",
      "type": "function"
    },
    {
      "inputs": [
        {
          "internalType": "bytes32",
          "name": "role",
          "type": "bytes32"
        },
        {
          "internalType": "address",
          "name": "account",
          "type": "address"
        }
      ],
      "name": "grantRole",
      "outputs": [],
      "stateMutability": "nonpayable",
      "type": "function"
    },
    {
      "inputs": [
        {
          "internalType": "bytes32",
          "name": "role",
          "type": "bytes32"
        },
        {
          "internalType": "address",
          "name": "account",
          "type": "address"
        }
      ],
      "name": "hasRole",
      "outputs": [
        {
          "internalType": "bool",
          "name": "",
          "type": "bool"
        }
      ],
      "stateMutability": "view",
      "type": "function"
    },
    {
      "inputs": [],
      "name": "owner",
      "outputs": [
        {
          "internalType": "address",
          "name": "",
          "type": "address"
        }
      ],
      "stateMutability": "view",
      "type": "function"
    },
    {
      "inputs": [],
      "name": "pause",
      "outputs": [],
      "stateMutability": "nonpayable",
      "type": "function"
    },
    {
      "inputs": [],
      "name": "paused",
      "outputs": [
        {
          "internalType": "bool",
          "name": "",
          "type": "bool"
        }
      ],
      "stateMutability": "view",
      "type": "function"
    },
    {
      "inputs": [],
      "name": "renounceOwnership",
      "outputs": [],
      "stateMutability": "nonpayable",
      "type": "function"
    },
    {
      "inputs": [
        {
          "internalType": "bytes32",
          "name": "role",
          "type": "bytes32"
        },
        {
          "internalType": "address",
          "name": "callerConfirmation",
          "type": "address"
        }
      ],
      "name": "renounceRole",
      "outputs": [],
      "stateMutability": "nonpayable",
      "type": "function"
    },
    {
      "inputs": [
        {
          "internalType": "bytes32",
          "name": "role",
          "type": "bytes32"
        },
        {
          "internalType": "address",
          "name": "account",
          "type": "address"
        }
      ],
      "name": "revokeRole",
      "outputs": [],
      "stateMutability": "nonpayable",
      "type": "function"
    },
    {
      "inputs": [
        {
          "internalType": "string",
          "name": "key",
          "type": "string"
        },
        {
          "internalType": "bool",
          "name": "value",
          "type": "bool"
        }
      ],
      "name": "setBoolConfig",
      "outputs": [],
      "stateMutability": "nonpayable",
      "type": "function"
    },
    {
      "inputs": [],
      "name": "setDefaultConfigurations",
      "outputs": [],
      "stateMutability": "nonpayable",
      "type": "function"
    },
    {
      "inputs": [
        {
          "internalType": "string",
          "name": "key",
          "type": "string"
        },
        {
          "internalType": "string",
          "name": "value",
          "type": "string"
        }
      ],
      "name": "setStringConfig",
      "outputs": [],
      "stateMutability": "nonpayable",
      "type": "function"
    },
    {
      "inputs": [
        {
          "internalType": "string",
          "name": "key",
          "type": "string"
        },
        {
          "internalType": "uint256",
          "name": "value",
          "type": "uint256"
        }
      ],
      "name": "setUIntConfig",
      "outputs": [],
      "stateMutability": "nonpayable",
      "type": "function"
    },
    {
      "inputs": [
        {
          "internalType": "bytes4",
          "name": "interfaceId",
          "type": "bytes4"
        }
      ],
      "name": "supportsInterface",
      "outputs": [
        {
          "internalType": "bool",
          "name": "",
          "type": "bool"
        }
      ],
      "stateMutability": "view",
      "type": "function"
    },
    {
      "inputs": [
        {
          "internalType": "address",
          "name": "newOwner",
          "type": "address"
        }
      ],
      "name": "transferOwnership",
      "outputs": [],
      "stateMutability": "nonpayable",
      "type": "function"
    },
    {
      "inputs": [],
      "name": "unpause",
      "outputs": [],
      "stateMutability": "nonpayable",
      "type": "function"
    }
  ],
  "bytecode": "0x608060405234610028576100196100146100bf565b6100f4565b6040516118ee90816103808239f35b600080fd5b634e487b7160e01b600052604160045260246000fd5b90601f01601f191681019081106001600160401b0382111761006457604052565b61002d565b9061007d61007660405190565b9283610043565b565b6001600160a01b031690565b90565b6100978161007f565b0361002857565b9050519061007d8261008e565b906020828203126100285761008b9161009e565b61008b611c6e803803806100d281610069565b9283398101906100ab565b61008b61008b61008b9290565b61008b60006100dd565b610139906101018161013c565b6101128161010d6100ea565b61023c565b507fa49807205ce4d355092ef5a8a18f56e8913cf4a201fbe287825b095693c2177561023c565b50565b61007d9061007d9061007d9061007d9061007d90610188565b61007f61008b61008b9290565b61008b90610155565b6101749061007f565b9052565b60208101929161007d919061016b565b600061019381610162565b61019c8161007f565b6101a58461007f565b146101b557505061007d90610301565b631e4fbdf760e01b825281906101ce9060048301610178565b0390fd5b905b600052602052604060002090565b61008b9061007f906001600160a01b031682565b61008b906101e2565b61008b906101f6565b906101d4906101ff565b9060ff905b9181191691161790565b9061023161008b61023892151590565b8254610212565b9055565b61024d610249838361035d565b1590565b156102bb576001916102748361026f83600061026987856101d2565b01610208565b610221565b33906102aa6102a46102a47f2f8788117e7eff1d82e926ec794901d17c78024a50270940304540a733656f0d9590565b926101ff565b926102b460405190565b600090a490565b5050600090565b61008b9061007f565b61008b6000546102c2565b906001600160a01b0390610217565b6102f461008b6102fc926101ff565b6000546102d6565b600055565b6103096102cb565b90610313816102e5565b6103466103407f8be0079c531659141344cd1fd0a4f28419497f9722a3daafe3b4186f6b6457e0936101ff565b916101ff565b9161035060405190565b600090a3565b5460ff1690565b61008b91600061026961037a93610372600090565b5060016101d2565b61035656fe6080604052600436101561001257600080fd5b60003560e01c806301ffc9a7146101a25780630599711d1461019d5780631087a0321461019857806319ade2a114610193578063248a9ca31461018e5780632f2ff15d1461018957806336568abe146101845780633f4ba83a1461017f5780635265cb0d1461017a5780635a53e88f146101755780635c975abb146101705780636bc122c91461016b578063715018a61461016657806376cf795d146101615780638456cb591461015c57806384bc7230146101575780638da5cb5b1461015257806391d148541461014d578063a217fddf14610148578063b423a06814610143578063b82752051461013e578063cbb00d4b14610139578063d547741f14610134578063d71ecbb21461012f5763f2fde38b036101a7576107fe565b6107ce565b6107b7565b61079e565b610745565b6106e7565b6106ce565b610695565b61066f565b610631565b6104cd565b6104b7565b6104a1565b610487565b61046e565b610457565b610440565b6103dd565b6103b9565b61039d565b61033d565b61030d565b6102f3565b61029e565b6101f5565b600080fd5b6001600160e01b03191690565b6101c2816101ac565b036101a757565b905035906101d6826101b9565b565b602060048203126101a7576101ee9060046101c9565b90565b9052565b346101a75761022061020e610209366101d8565b610814565b60405191829182901515815260200190565b0390f35b909182601f830112156101a7578135916001600160401b0383116101a75760200192600183028401116101a757565b806101c2565b905035906101d682610253565b6004916040838303126101a75782356001600160401b0381116101a757826102956020946101ee938701610224565b94909501610259565b346101a7576102206102b86102b236610266565b916108f3565b6040519182918290815260200190565b6004906020828203126101a75781356001600160401b0381116101a7576102ef9201610224565b9091565b346101a7576102206102b8610307366102c8565b9061093d565b346101a75761022061020e610321366102c8565b9061094c565b602060048203126101a7576101ee906004610259565b346101a7576102206102b861035136610327565b610988565b6001600160a01b031690565b6101c281610356565b905035906101d682610362565b906004916040838203126101a7576101ee9060206103968286610259565b940161036b565b346101a7576103b46103ae36610378565b906109c9565b604051005b346101a7576103b46103ca36610378565b906109d3565b600460009103126101a757565b346101a7576103eb366103d0565b6103b4610a1f565b8015156101c2565b905035906101d6826103f3565b6004916040838303126101a75782356001600160401b0381116101a757826104376020946101ee938701610224565b949095016103fb565b346101a7576103b461045136610408565b91610b3a565b346101a7576103b461046836610266565b91610da9565b346101a75761047c366103d0565b61022061020e610db4565b346101a75761022061020e61049b36610408565b91610dbd565b346101a7576104af366103d0565b6103b4610e32565b346101a7576104c5366103d0565b6103b4610f90565b346101a7576104db366103d0565b6103b4610fae565b634e487b7160e01b600052604160045260246000fd5b90601f01601f191681019081106001600160401b0382111761051a57604052565b6104e3565b906101d661052c60405190565b92836104f9565b6001600160401b03811161051a57602090601f01601f19160190565b0190565b610565610560600b610533565b61051f565b90600b8252565b6105796105606013610533565b9060138252565b9061058d61056083610533565b918252565b61059a610553565b6a6d61785f77696e6e65727360a81b602082015290565b6101ee610592565b6101ee6105b1565b6101ee6105b9565b60005b8381106105dc5750506000910152565b81810151838201526020016105cc565b61060d61061660209361054f93610601815190565b80835293849260200190565b958691016105c9565b601f01601f191690565b60208082526101ee929101906105ec565b346101a75761063f366103d0565b61022061064a6105c1565b60405191829182610620565b6101f190610356565b6020810192916101d69190610656565b346101a75761067d366103d0565b610220610688610fca565b6040515b9182918261065f565b346101a75761022061020e6106a936610378565b90611002565b6101ee6101ee6101ee9290565b6101ee60006106af565b6101ee6106bc565b346101a7576106dc366103d0565b6102206102b86106c6565b346101a75761022061020e6106fb366102c8565b90611025565b6004916040838303126101a7576001600160401b039280358481116101a7578361072c918301610224565b93909460208301359081116101a7576102ef9201610224565b346101a7576103b461075636610701565b929190916111b2565b61076761056c565b72686f6d655f627574746f6e5f76697369626c6560681b602082015290565b6101ee61075f565b6101ee610786565b6101ee61078e565b346101a7576107ac366103d0565b61022061064a610796565b346101a7576103b46107c836610378565b906111d9565b346101a75761022061064a6107e2366102c8565b906112c4565b602060048203126101a7576101ee90600461036b565b346101a7576103b461080f366107e8565b61132a565b610824637965db0b60e01b6101ac565b61082d826101ac565b14908115610839575090565b6101ee9150611333565b90826000939282370152565b909161054f9083908093610843565b61058d906020949361054f9361084f565b90916108879061087e60405190565b9384938461085e565b03902090565b90916101ee9261086f565b634e487b7160e01b600052602260045260246000fd5b90600160028304921680156108ce575b60208310146108c957565b610898565b91607f16916108be565b6101ee90546108ae565b6101ee9081565b6101ee90546108e2565b909161090c6109076101ee8585600361088d565b6108d8565b61091d61091960006106af565b9190565b1461093757506101ee9161093291600561088d565b6108e9565b91505090565b6101ee9161093291600561088d565b6101ee610967926109079261095f600090565b50600361088d565b61097461091960006106af565b1190565b905b600052602052604060002090565b60016109a06101ee92610999600090565b5082610978565b016108e9565b906101d6916109bc6109b782610988565b611350565b906109c69161135b565b50565b906101d6916109a6565b906109dd33610356565b6109e682610356565b036109f4576109c6916113d6565b63334bd91960e11b60009081528060045b0390fd5b610a146109b76106bc565b6101d66101d6611487565b6101d6610a09565b7fa49807205ce4d355092ef5a8a18f56e8913cf4a201fbe287825b095693c2177590565b906101d69291610a5c6109b7610a27565b906101d69291610a6a61148f565b610aef565b9060ff905b9181191691161790565b610a8d6101ee610a9592151590565b600254610a6f565b600255565b90610aaa6101ee610ab192151590565b8254610a6f565b9055565b90916101ee9261084f565b610887610acc60405190565b92839283610ab5565b90151581526040810192916101d6916020905b0190610656565b90610b0583610b008385600461088d565b610a9a565b610b1f339160008051602061189983398151915293610ac0565b92610b35610b2c60405190565b92839283610ad5565b0390a2565b906101d69291610a4b565b906101d69291610b566109b7610a27565b906101d69291610b6461148f565b610d34565b9060001990610a74565b90610b836101ee610ab1926106af565b8254610b69565b9160001960089290920291821b911b610a74565b9190610baf6101ee610ab1936106af565b908354610b8a565b6101d69060008091610b9e565b818110610bcf575050565b80610bdb600192610bb7565b01610bc4565b9190601f8111610bf057505050565b610c026101d693600052602060002090565b906020601f840181900483019310610c24575b6020601f909101040190610bc4565b9091508190610c15565b9060001960089091021c191690565b81610c4791610c2e565b906002021790565b90610c58815190565b906001600160401b03821161051a57610c7b82610c7585546108ae565b85610be1565b602090601f8311600114610ca957610ab1929160009183610c9e575b5050610c3d565b015190503880610c97565b601f19831691610cbe85600052602060002090565b9260005b818110610cfd57509160029391856001969410610ce3575b50505002019055565b610cf3910151601f841690610c2e565b9055388080610cda565b91936020600181928787015181550195019201610cc2565b906101d691610c4f565b9081526040810192916101d691602090610ae8565b90610d4a83610d458385600561088d565b610b73565b610d67610d56846114fc565b610d628385600361088d565b610d15565b610d9333917f681618a84b9cb0b8f2ea06632833deb3c57b6cfefca48e98f728692e31a6703893610ac0565b92610b35610da060405190565b92839283610d1f565b906101d69291610b45565b60025460ff1690565b9091610dd16109076101ee8585600361088d565b610dde61091960006106af565b1461093757506101ee91610df391600461088d565b5460ff1690565b610e0261158d565b6101d6610e20565b6103566101ee6101ee9290565b6101ee90610e0a565b6101d6610e2d6000610e17565b6115f7565b6101d6610dfa565b610e456109b7610a27565b6101d6610f0f565b61054f610e6592602092610e5f815190565b94859290565b938491016105c9565b61058d61054f9160209493610e4d565b610887610e8a60405190565b92839283610e6e565b6101ee91610e7e565b90601f8111610ea9575050565b610ebb6101d692600052602060002090565b6001810191610c24565b610ed8610ed282546108ae565b82610e9c565b6008637472756560e01b019055565b6101d690610ec5565b6101ee91610e4d565b61088790610f0660405190565b91829182610ef0565b6003610f286109076101ee610f2261078e565b84610e93565b610f3561091960006106af565b14610f3d5750565b610f6f610f6a600192610f5c84610b00610f5561078e565b6004610e93565b610f6461078e565b90610e93565b610ee7565b610f7761078e565b33610b1f60008051602061189983398151915292610ef9565b6101d6610e3a565b610fa36109b76106bc565b6101d66101d6611690565b6101d6610f98565b6101ee90610356565b6101ee600054610fb6565b6101ee610fbf565b6101ee90610356906001600160a01b031682565b6101ee90610fd2565b6101ee90610fe6565b9061097a90610fef565b6101ee91600061101f610df393611017600090565b506001610978565b01610ff8565b6101ee91610df391600461088d565b906101d69392916110466109b7610a27565b906101d693929161105561148f565b611156565b91906001600160401b03821161051a5761107882610c7585546108ae565b600090601f83116001146110a557610ab192916000918361109a575050610c3d565b013590503880610c97565b601f19831691906110bb85600052602060002090565b92825b8181106110ee575091600293918560019694106110de5750505002019055565b610cf391601f8516910135610c2e565b929360206001819287860135815501950193016110be565b906101d6929161105a565b9190610616816111288161054f9560209181520190565b8095610843565b93929061114e6020916101d694604088019188830360008a0152611111565b940190610656565b91929092611170828261116b8787600361088d565b611106565b610b3561119f33957fa049c6f94cd0991772bade0e541db8e7acdf1add8c3df2d63b318499b775128895610ac0565b946111a960405190565b9384938461112f565b906101d6939291611034565b906101d6916111cf6109b782610988565b906109c6916113d6565b906101d6916111be565b90600092918054916112016111f7846108ae565b8083529160200190565b916001936001811690816000146112755750600114611221575b50505050565b8394955061123790939293600052602060002090565b6000945b61124e575b50505001903880808061121b565b81859395101561126d578054838501526020909201939182018261123b565b829450611240565b60ff191684525050151560200201925038905080808061121b565b906101ee916111e3565b906101d66112b4926112ab60405190565b93848092611290565b03836104f9565b6101ee9061129a565b6101ee916112d391606061095f565b6112bb565b6101d6906112e461158d565b60006112ef81610e17565b6112f881610356565b61130184610356565b146113115750506101d6906115f7565b631e4fbdf760e01b82528190610a05906004830161065f565b6101d6906112d8565b61134c6113466301ffc9a760e01b6101ac565b916101ac565b1490565b6101d69033906116b7565b61136c6113688383611002565b1590565b156113cf5760019161138883610b0083600061101f8785610978565b33906113be6113b86113b87f2f8788117e7eff1d82e926ec794901d17c78024a50270940304540a733656f0d9590565b92610fef565b926113c860405190565b600090a490565b5050600090565b906113e18183611002565b156113cf576113fb6000610b00838261101f876001610978565b339061142b6113b86113b87ff6391f5c32d9c69d2a47ea670b442974b53935d1edc7fd64eb21e047a839171b9590565b9261143560405190565b600090a4600190565b6114466116e9565b6101d66114536000610a7e565b336114827f5db9ee0a495bf2e6ff9c91a7834c1ba4fdd244a5e8aa4e537bd38aeae4b073aa9161068c60405190565b0390a1565b6101d661143e565b611497610db4565b61149d57565b63d93c066560e01b6000908152600490fd5b369037565b906101d66114ca6114c484610580565b93610533565b601f1901602084016114af565b634e487b7160e01b600052601260045260246000fd5b81156114f7570490565b6114d7565b6115058161170c565b9061151560019261054f846106af565b9180611520846114b4565b936020850101905b611533575b50505090565b81156115885761156c906000190192611566600a6f181899199a1a9b1b9c1cb0b131b232b360811b8184061a86536106af565b906114ed565b908161157b61091960006106af565b1461158857909181611528565b61152d565b611595610fca565b33906115a96115a383610356565b91610356565b036115b15750565b63118cdaa760e01b6000908152908190610a0590600461065f565b906001600160a01b0390610a74565b6115ea6101ee6115f292610fef565b6000546115cc565b600055565b6115ff610fbf565b90611609816115db565b61163c6116367f8be0079c531659141344cd1fd0a4f28419497f9722a3daafe3b4186f6b6457e093610fef565b91610fef565b9161164660405190565b600090a3565b61165461148f565b6101d66116616001610a7e565b336114827f62e78cea01bee320cd4e420270b5ea74000d11b0c9f74754ebdbfc544b05a2589161068c60405190565b6101d661164c565b9160206101d69294936116b360408201966000830190610656565b0152565b906116c56113688284611002565b6116cd575050565b63e2517d3f60e01b6000908152918291610a0591906004611698565b6116f4611368610db4565b6116fa57565b638dfc202b60e01b6000908152600490fd5b61171660006106af565b9061173672184f03e93ff9f4daa797ed6e38ed64bf6a1f0160401b6106af565b80821015611879575b506117566904ee2d6d415b85acef8160201b6106af565b8082101561185a575b50611770662386f26fc100006106af565b8082101561183b575b506117876305f5e1006106af565b8082101561181c575b5061179c6127106106af565b808210156117fd575b506117b060646106af565b808210156117de575b506117c7610919600a6106af565b10156117d05790565b6101ee9061054f60016106af565b6117eb906117f6926114ed565b9161054f60026106af565b90386117b9565b61180a90611815926114ed565b9161054f60046106af565b90386117a5565b61182990611834926114ed565b9161054f60086106af565b9038611790565b61184890611853926114ed565b9161054f60106106af565b9038611779565b61186790611872926114ed565b9161054f60206106af565b903861175f565b61188690611891926114ed565b9161054f60406106af565b903861173f56fe57c29d32ec7b521a5d75ec035d2d273f057236f3208adad274595741578e669ca26469706673582212203fe2c1cce5ee3a6cb14258c784e45cad1dcd53d85a82edd2c5649a8e55939b1864736f6c634300081c0033",
  "linkReferences": {},
  "deployedLinkReferences": {}
}