{
  "_format": "hh-sol-artifact-1",
  "contractName": "UserProfiles",
  "sourceName": "contracts/UserProfiles.sol",
  "abi": [
    {
      "inputs": [
        {
          "internalType": "address",
          "name": "initialAdmin",
          "type": "address"
        }
      ],
      "stateMutability": "nonpayable",
      "type": "constructor"
    },
    {
      "inputs": [],
      "name": "AccessControlBadConfirmation",
      "type": "error"
    },
    {
      "inputs": [
        {
          "internalType": "address",
          "name": "account",
          "type": "address"
        },
        {
          "internalType": "bytes32",
          "name": "neededRole",
          "type": "bytes32"
        }
      ],
      "name": "AccessControlUnauthorizedAccount",
      "type": "error"
    },
    {
      "inputs": [],
      "name": "EnforcedPause",
      "type": "error"
    },
    {
      "inputs": [],
      "name": "ExpectedPause",
      "type": "error"
    },
    {
      "inputs": [
        {
          "internalType": "address",
          "name": "owner",
          "type": "address"
        }
      ],
      "name": "OwnableInvalidOwner",
      "type": "error"
    },
    {
      "inputs": [
        {
          "internalType": "address",
          "name": "account",
          "type": "address"
        }
      ],
      "name": "OwnableUnauthorizedAccount",
      "type": "error"
    },
    {
      "anonymous": false,
      "inputs": [
        {
          "indexed": true,
          "internalType": "address",
          "name": "previousOwner",
          "type": "address"
        },
        {
          "indexed": true,
          "internalType": "address",
          "name": "newOwner",
          "type": "address"
        }
      ],
      "name": "OwnershipTransferred",
      "type": "event"
    },
    {
      "anonymous": false,
      "inputs": [
        {
          "indexed": false,
          "internalType": "address",
          "name": "account",
          "type": "address"
        }
      ],
      "name": "Paused",
      "type": "event"
    },
    {
      "anonymous": false,
      "inputs": [
        {
          "indexed": true,
          "internalType": "address",
          "name": "user",
          "type": "address"
        },
        {
          "indexed": false,
          "internalType": "address",
          "name": "clearedBy",
          "type": "address"
        }
      ],
      "name": "ProfileCleared",
      "type": "event"
    },
    {
      "anonymous": false,
      "inputs": [
        {
          "indexed": true,
          "internalType": "address",
          "name": "user",
          "type": "address"
        },
        {
          "indexed": false,
          "internalType": "string",
          "name": "username",
          "type": "string"
        },
        {
          "indexed": false,
          "internalType": "string",
          "name": "displayName",
          "type": "string"
        },
        {
          "indexed": false,
          "internalType": "string",
          "name": "pfpUrl",
          "type": "string"
        },
        {
          "indexed": false,
          "internalType": "string",
          "name": "bio",
          "type": "string"
        },
        {
          "indexed": false,
          "internalType": "string",
          "name": "website",
          "type": "string"
        }
      ],
      "name": "ProfileUpdated",
      "type": "event"
    },
    {
      "anonymous": false,
      "inputs": [
        {
          "indexed": true,
          "internalType": "bytes32",
          "name": "role",
          "type": "bytes32"
        },
        {
          "indexed": true,
          "internalType": "bytes32",
          "name": "previousAdminRole",
          "type": "bytes32"
        },
        {
          "indexed": true,
          "internalType": "bytes32",
          "name": "newAdminRole",
          "type": "bytes32"
        }
      ],
      "name": "RoleAdminChanged",
      "type": "event"
    },
    {
      "anonymous": false,
      "inputs": [
        {
          "indexed": true,
          "internalType": "bytes32",
          "name": "role",
          "type": "bytes32"
        },
        {
          "indexed": true,
          "internalType": "address",
          "name": "account",
          "type": "address"
        },
        {
          "indexed": true,
          "internalType": "address",
          "name": "sender",
          "type": "address"
        }
      ],
      "name": "RoleGranted",
      "type": "event"
    },
    {
      "anonymous": false,
      "inputs": [
        {
          "indexed": true,
          "internalType": "bytes32",
          "name": "role",
          "type": "bytes32"
        },
        {
          "indexed": true,
          "internalType": "address",
          "name": "account",
          "type": "address"
        },
        {
          "indexed": true,
          "internalType": "address",
          "name": "sender",
          "type": "address"
        }
      ],
      "name": "RoleRevoked",
      "type": "event"
    },
    {
      "anonymous": false,
      "inputs": [
        {
          "indexed": false,
          "internalType": "address",
          "name": "account",
          "type": "address"
        }
      ],
      "name": "Unpaused",
      "type": "event"
    },
    {
      "inputs": [],
      "name": "DEFAULT_ADMIN_ROLE",
      "outputs": [
        {
          "internalType": "bytes32",
          "name": "",
          "type": "bytes32"
        }
      ],
      "stateMutability": "view",
      "type": "function"
    },
    {
      "inputs": [
        {
          "internalType": "address",
          "name": "user",
          "type": "address"
        }
      ],
      "name": "clearProfile",
      "outputs": [],
      "stateMutability": "nonpayable",
      "type": "function"
    },
    {
      "inputs": [],
      "name": "getMyProfile",
      "outputs": [
        {
          "internalType": "string",
          "name": "username",
          "type": "string"
        },
        {
          "internalType": "string",
          "name": "displayName",
          "type": "string"
        },
        {
          "internalType": "string",
          "name": "pfpUrl",
          "type": "string"
        },
        {
          "internalType": "uint256",
          "name": "timestamp",
          "type": "uint256"
        },
        {
          "internalType": "string",
          "name": "bio",
          "type": "string"
        },
        {
          "internalType": "string",
          "name": "website",
          "type": "string"
        }
      ],
      "stateMutability": "view",
      "type": "function"
    },
    {
      "inputs": [
        {
          "internalType": "bytes32",
          "name": "role",
          "type": "bytes32"
        }
      ],
      "name": "getRoleAdmin",
      "outputs": [
        {
          "internalType": "bytes32",
          "name": "",
          "type": "bytes32"
        }
      ],
      "stateMutability": "view",
      "type": "function"
    },
    {
      "inputs": [
        {
          "internalType": "address",
          "name": "user",
          "type": "address"
        }
      ],
      "name": "getUserProfile",
      "outputs": [
        {
          "internalType": "string",
          "name": "username",
          "type": "string"
        },
        {
          "internalType": "string",
          "name": "displayName",
          "type": "string"
        },
        {
          "internalType": "string",
          "name": "pfpUrl",
          "type": "string"
        },
        {
          "internalType": "uint256",
          "name": "timestamp",
          "type": "uint256"
        },
        {
          "internalType": "string",
          "name": "bio",
          "type": "string"
        },
        {
          "internalType": "string",
          "name": "website",
          "type": "string"
        }
      ],
      "stateMutability": "view",
      "type": "function"
    },
    {
      "inputs": [
        {
          "internalType": "bytes32",
          "name": "role",
          "type": "bytes32"
        },
        {
          "internalType": "address",
          "name": "account",
          "type": "address"
        }
      ],
      "name": "grantRole",
      "outputs": [],
      "stateMutability": "nonpayable",
      "type": "function"
    },
    {
      "inputs": [
        {
          "internalType": "address",
          "name": "user",
          "type": "address"
        }
      ],
      "name": "hasProfile",
      "outputs": [
        {
          "internalType": "bool",
          "name": "",
          "type": "bool"
        }
      ],
      "stateMutability": "view",
      "type": "function"
    },
    {
      "inputs": [
        {
          "internalType": "bytes32",
          "name": "role",
          "type": "bytes32"
        },
        {
          "internalType": "address",
          "name": "account",
          "type": "address"
        }
      ],
      "name": "hasRole",
      "outputs": [
        {
          "internalType": "bool",
          "name": "",
          "type": "bool"
        }
      ],
      "stateMutability": "view",
      "type": "function"
    },
    {
      "inputs": [],
      "name": "owner",
      "outputs": [
        {
          "internalType": "address",
          "name": "",
          "type": "address"
        }
      ],
      "stateMutability": "view",
      "type": "function"
    },
    {
      "inputs": [],
      "name": "pause",
      "outputs": [],
      "stateMutability": "nonpayable",
      "type": "function"
    },
    {
      "inputs": [],
      "name": "paused",
      "outputs": [
        {
          "internalType": "bool",
          "name": "",
          "type": "bool"
        }
      ],
      "stateMutability": "view",
      "type": "function"
    },
    {
      "inputs": [],
      "name": "renounceOwnership",
      "outputs": [],
      "stateMutability": "nonpayable",
      "type": "function"
    },
    {
      "inputs": [
        {
          "internalType": "bytes32",
          "name": "role",
          "type": "bytes32"
        },
        {
          "internalType": "address",
          "name": "callerConfirmation",
          "type": "address"
        }
      ],
      "name": "renounceRole",
      "outputs": [],
      "stateMutability": "nonpayable",
      "type": "function"
    },
    {
      "inputs": [
        {
          "internalType": "bytes32",
          "name": "role",
          "type": "bytes32"
        },
        {
          "internalType": "address",
          "name": "account",
          "type": "address"
        }
      ],
      "name": "revokeRole",
      "outputs": [],
      "stateMutability": "nonpayable",
      "type": "function"
    },
    {
      "inputs": [
        {
          "internalType": "bytes4",
          "name": "interfaceId",
          "type": "bytes4"
        }
      ],
      "name": "supportsInterface",
      "outputs": [
        {
          "internalType": "bool",
          "name": "",
          "type": "bool"
        }
      ],
      "stateMutability": "view",
      "type": "function"
    },
    {
      "inputs": [
        {
          "internalType": "address",
          "name": "newOwner",
          "type": "address"
        }
      ],
      "name": "transferOwnership",
      "outputs": [],
      "stateMutability": "nonpayable",
      "type": "function"
    },
    {
      "inputs": [],
      "name": "unpause",
      "outputs": [],
      "stateMutability": "nonpayable",
      "type": "function"
    },
    {
      "inputs": [
        {
          "internalType": "string",
          "name": "username",
          "type": "string"
        },
        {
          "internalType": "string",
          "name": "displayName",
          "type": "string"
        },
        {
          "internalType": "string",
          "name": "pfpUrl",
          "type": "string"
        },
        {
          "internalType": "string",
          "name": "bio",
          "type": "string"
        },
        {
          "internalType": "string",
          "name": "website",
          "type": "string"
        }
      ],
      "name": "updateProfile",
      "outputs": [],
      "stateMutability": "nonpayable",
      "type": "function"
    },
    {
      "inputs": [
        {
          "internalType": "address",
          "name": "",
          "type": "address"
        }
      ],
      "name": "userProfiles",
      "outputs": [
        {
          "internalType": "string",
          "name": "username",
          "type": "string"
        },
        {
          "internalType": "string",
          "name": "displayName",
          "type": "string"
        },
        {
          "internalType": "string",
          "name": "pfpUrl",
          "type": "string"
        },
        {
          "internalType": "uint256",
          "name": "timestamp",
          "type": "uint256"
        },
        {
          "internalType": "string",
          "name": "bio",
          "type": "string"
        },
        {
          "internalType": "string",
          "name": "website",
          "type": "string"
        }
      ],
      "stateMutability": "view",
      "type": "function"
    }
  ],
  "bytecode": "0x608060405234610028576100196100146100bf565b6100f4565b60405161181890816103808239f35b600080fd5b634e487b7160e01b600052604160045260246000fd5b90601f01601f191681019081106001600160401b0382111761006457604052565b61002d565b9061007d61007660405190565b9283610043565b565b6001600160a01b031690565b90565b6100978161007f565b0361002857565b9050519061007d8261008e565b906020828203126100285761008b9161009e565b61008b611b98803803806100d281610069565b9283398101906100ab565b61008b61008b61008b9290565b61008b60006100dd565b610139906101018161013c565b6101128161010d6100ea565b61023c565b507fa49807205ce4d355092ef5a8a18f56e8913cf4a201fbe287825b095693c2177561023c565b50565b61007d9061007d9061007d9061007d9061007d90610188565b61007f61008b61008b9290565b61008b90610155565b6101749061007f565b9052565b60208101929161007d919061016b565b600061019381610162565b61019c8161007f565b6101a58461007f565b146101b557505061007d90610301565b631e4fbdf760e01b825281906101ce9060048301610178565b0390fd5b905b600052602052604060002090565b61008b9061007f906001600160a01b031682565b61008b906101e2565b61008b906101f6565b906101d4906101ff565b9060ff905b9181191691161790565b9061023161008b61023892151590565b8254610212565b9055565b61024d610249838361035d565b1590565b156102bb576001916102748361026f83600061026987856101d2565b01610208565b610221565b33906102aa6102a46102a47f2f8788117e7eff1d82e926ec794901d17c78024a50270940304540a733656f0d9590565b926101ff565b926102b460405190565b600090a490565b5050600090565b61008b9061007f565b61008b6000546102c2565b906001600160a01b0390610217565b6102f461008b6102fc926101ff565b6000546102d6565b600055565b6103096102cb565b90610313816102e5565b6103466103407f8be0079c531659141344cd1fd0a4f28419497f9722a3daafe3b4186f6b6457e0936101ff565b916101ff565b9161035060405190565b600090a3565b5460ff1690565b61008b91600061026961037a93610372600090565b5060016101d2565b61035656fe6080604052600436101561001257600080fd5b60003560e01c806301ffc9a71461014257806321527e501461013d578063248a9ca3146101385780632f2ff15d14610133578063332d56d71461012e57806336568abe146101295780633f4ba83a146101245780635c975abb1461011f578063715018a61461011a5780638456cb59146101155780638da5cb5b1461011057806391d148541461010b578063987ee15614610106578063a217fddf14610101578063a787c80b146100fc578063b043e032146100f7578063c83c62ab146100f2578063d547741f146100ed5763f2fde38b03610147576107f1565b6107da565b6107c4565b6107a1565b6106c1565b6106a8565b610670565b610656565b610630565b610601565b6105eb565b6105d2565b6105bc565b6105a5565b61058c565b610362565b6102f2565b610297565b610195565b600080fd5b6001600160e01b03191690565b6101628161014c565b0361014757565b9050359061017682610159565b565b602060048203126101475761018e906004610169565b90565b9052565b34610147576101c06101ae6101a936610178565b610807565b60405191829182901515815260200190565b0390f35b6004600091031261014757565b60005b8381106101e45750506000910152565b81810151838201526020016101d4565b61021561021e60209361022893610209815190565b80835293849260200190565b958691016101d1565b601f01601f191690565b0190565b94906102746102899461026661018e99979561025861027c9560c08c01908c60008184039101526101f4565b908a820360208c01526101f4565b9088820360408a01526101f4565b926060870152565b84820360808601526101f4565b9160a08184039101526101f4565b34610147576102a5366101c4565b6101c06102b061083f565b926102c096949692919260405190565b9687968761022c565b80610162565b90503590610176826102c9565b602060048203126101475761018e9060046102cf565b34610147576101c061030b610306366102dc565b6108a1565b6040519182918290815260200190565b6001600160a01b031690565b6101628161031b565b9050359061017682610327565b906004916040838203126101475761018e90602061035b82866102cf565b9401610330565b34610147576103796103733661033d565b906108e2565b604051005b602060048203126101475761018e906004610330565b61018e9061031b906001600160a01b031682565b61018e90610394565b61018e906103a8565b906103c4906103b1565b600052602052604060002090565b634e487b7160e01b600052602260045260246000fd5b9060016002830492168015610408575b602083101461040357565b6103d2565b91607f16916103f8565b9060009291805491610430610426846103e8565b8083529160200190565b916001936001811690816000146104a45750600114610450575b50505050565b8394955061046690939293600052602060002090565b6000945b61047d575b50505001903880808061044a565b81859395101561049c578054838501526020909201939182018261046a565b82945061046f565b60ff191684525050151560200201925038905080808061044a565b9061018e91610412565b634e487b7160e01b600052604160045260246000fd5b90601f01601f191681019081106001600160401b0382111761050057604052565b6104c9565b9061017661051f9261051660405190565b938480926104bf565b03836104df565b61018e9081565b61018e9054610526565b6105429060036103ba565b9061054c82610505565b9161055960018201610505565b9161056660028301610505565b916105736003820161052d565b9161018e600561058560048501610505565b9301610505565b34610147576101c06102b06105a03661037e565b610537565b34610147576103796105b63661033d565b906108ec565b34610147576105ca366101c4565b610379610938565b34610147576105e0366101c4565b6101c06101ae610950565b34610147576105f9366101c4565b610379610990565b346101475761060f366101c4565b6103796109ae565b6101919061031b565b6020810192916101769190610617565b346101475761063e366101c4565b6101c06106496109ca565b6040515b91829182610620565b34610147576101c06101ae61066a3661033d565b906109d2565b34610147576101c06102b06106843661037e565b6109fa565b61018e61018e61018e9290565b61018e6000610689565b61018e610696565b34610147576106b6366101c4565b6101c061030b6106a0565b34610147576101c06101ae6106d53661037e565b610a1b565b909182601f83011215610147578135916001600160401b03831161014757602001926001830284011161014757565b60049060a082820312610147576001600160401b03823581811161014757826107339185016106da565b9390946020820135838111610147578461074e9184016106da565b939094604084013582811161014757816107699186016106da565b939094606081013584811161014757836107849183016106da565b93909460808301359081116101475761079d92016106da565b9091565b34610147576103796107b236610709565b98979097969196959295949394611134565b34610147576103796107d53661037e565b6113a6565b34610147576103796107eb3661033d565b906113ca565b34610147576103796108023661037e565b611426565b610817637965db0b60e01b61014c565b6108208261014c565b1490811561082c575090565b61018e915061142f565b61018e90610505565b61084d61018e3360036103ba565b60018101916002820191806108646003820161052d565b9261018e61089561088e610888610882600560048901980196610836565b99610836565b97610836565b9594610836565b92610836565b906103c4565b60016108b961018e926108b2600090565b508261089b565b0161052d565b90610176916108d56108d0826108a1565b61144c565b906108df91611493565b50565b90610176916108bf565b906108f63361031b565b6108ff8261031b565b0361090d576108df91611513565b63334bd91960e11b60009081528060045b0390fd5b61092d6108d0610696565b6101766101766115c4565b610176610922565b60025460ff1690565b5460ff1690565b61018e610940565b6109606115cc565b61017661097e565b61031b61018e61018e9290565b61018e90610968565b61017661098b6000610975565b611636565b610176610958565b6109a36108d0610696565b6101766101766116cf565b610176610998565b61018e9061031b565b61018e6000546109b6565b61018e6109bf565b61018e9160006109ef6109f5936109e7600090565b50600161089b565b016103ba565b610949565b61018e61084d91610a09606090565b5060036103ba565b61018e90546103e8565b610a2f6000610228610a3493610a09600090565b610a11565b610a45610a416000610689565b9190565b1190565b90610176999897969594939291610a5e6116d7565b610f93565b6040519061017660c0836104df565b90610176610a7f60405190565b92836104df565b6001600160401b03811161050057602090601f01601f19160190565b610ab4610aaf6025610a86565b610a72565b9060258252565b610ac8610aaf6029610a86565b9060298252565b610adc610aaf601d610a86565b90601d8252565b610af0610aaf600c610a86565b90600c8252565b610b04610aaf6010610a86565b9060108252565b610b13610aa2565b7f5573657250726f66696c65733a20696e76616c696420757365726e616d65206c6020820152640cadccee8d60db1b604082015290565b61018e610b0b565b61018e610b4a565b90826000939282370152565b90929192610b76610aaf82610a86565b938185528183011161014757610176916020850190610b5a565b61018e913691610b66565b61018e6064610689565b610bad610abb565b7f5573657250726f66696c65733a20696e76616c696420646973706c6179206e616020820152680daca40d8cadccee8d60bb1b604082015290565b61018e610ba5565b61018e610be8565b61018e60c8610689565b61018e6101f4610689565b610c15610acf565b7f5573657250726f66696c65733a2070667055726c20746f6f206c6f6e67000000602082015290565b61018e610c0d565b61018e610c3e565b610c56610ae3565b6b62696f20746f6f206c6f6e6760a01b602082015290565b61018e610c4e565b61018e610c6e565b610c86610af7565b6f7765627369746520746f6f206c6f6e6760801b602082015290565b61018e610c7e565b61018e610ca2565b61018e610a63565b9160001960089290920291821b911b5b9181191691161790565b9190610ce561018e610ced93610689565b908354610cba565b9055565b6101769060008091610cd4565b818110610d09575050565b80610d15600192610cf1565b01610cfe565b9190601f8111610d2a57505050565b610d3c61017693600052602060002090565b906020601f840181900483019310610d5f575b6020601f909101045b0190610cfe565b9091508190610d4f565b9060001960089091021c191690565b81610d8291610d69565b906002021790565b90610d93815190565b906001600160401b03821161050057610db682610db085546103e8565b85610d1b565b602090601f8311600114610de457610ced929160009183610dd9575b5050610d78565b015190503880610dd2565b601f19831691610df985600052602060002090565b9260005b818110610e3857509160029391856001969410610e1e575b50505002019055565b610e2e910151601f841690610d69565b9055388080610e15565b91936020600181928787015181550195019201610dfd565b9061017691610d8a565b5190565b9060001990610cca565b90610e7861018e610ced92610689565b8254610e5e565b6005610eff60a061017694610e9e610e98600083015190565b86610e50565b610eb5610eac602083015190565b60018701610e50565b610ecc610ec3604083015190565b60028701610e50565b610ee3610eda606083015190565b60038701610e68565b610efa610ef1608083015190565b60048701610e50565b015190565b9101610e50565b9061017691610e7f565b919061021e81610f27816102289560209181520190565b8095610b5a565b98969491610f779361018e9b9995610f5b8c610f6994610f859b9660a08301926000818503910152610f10565b8c810360208e015291610f10565b9189830360408b0152610f10565b918683036060880152610f10565b926080818503910152610f10565b95909691989394856110f18861109a611093888f819f9a8f8061112f9f8f8f908f8f918f611029936110298f6110299561106c61107c9a8f9661108e9f61108a9f98611059916110466110749b61102e6110299a610fef610b52565b9261100f610ffd8284610b90565b946110086001610689565b8096611732565b61102961101a610b9b565b91611023610b52565b93610b90565b611752565b611036610bf0565b906110418486610b90565b611732565b61104e610bf8565b9d8e91611023610bf0565b611061610c02565b958691611023610c46565b611023610c76565b611023610caa565b611084610cb2565b97610b90565b8652565b610b90565b6020830152565b6110ae6110a78585610b90565b6040830152565b6110b9426060830152565b6110cd6110c68787610b90565b6080830152565b6110e16110da8989610b90565b60a0830152565b6110ec3360036103ba565b610f06565b7f5844f757d4048a08453bf1dc9d4a8a1a67df216d9cecc54d3e4f10be32adc9319961111c336103b1565b9b61112660405190565b9a8b9a8b610f2e565b0390a2565b90610176999897969594939291610a49565b610176906111737fa49807205ce4d355092ef5a8a18f56e8913cf4a201fbe287825b095693c2177561144c565b61135a565b9061118b90602003600802600019901c90565b8154169055565b906000916111b06111a882600052602060002090565b928354610d78565b905555565b919290602082101561120d57601f84116001146111d757610ced929350610d78565b50906112086101769360016111ff6111f485600052602060002090565b92601f602091010490565b82019101610cfe565b611192565b506112468293611224600194600052602060002090565b610d586020601f860104820192601f86168061124e575b50601f602091010490565b600202179055565b61125a90888603611178565b3861123b565b929091600160401b821161050057602011156112a757602081101561128857610ced91610d78565b60019160ff191661129e84600052602060002090565b55600202019055565b60019150600202019055565b600081546112c0816103e8565b908183116112e8575b8183106112d65750505050565b6112df936111b5565b3880808061044a565b6112f483838387611260565b6112c9565b610176906112b3565b610176906112f9565b6101769060059061131b81611302565b61132760018201611302565b61133360028201611302565b61133f60038201610cf1565b61134b60048201611302565b01611302565b6101769061130b565b61136d6113688260036103ba565b611351565b339061112f61139c7fb404c709712b6ce97f563549b53d9e13c6e4645c77a104acaa3337d71ea84485926103b1565b9261064d60405190565b61017690611146565b90610176916113c06108d0826108a1565b906108df91611513565b90610176916113af565b610176906113e06115cc565b60006113eb81610975565b6113f48161031b565b6113fd8461031b565b1461140d57505061017690611636565b631e4fbdf760e01b8252819061091e9060048301610620565b610176906113d4565b6114486114426301ffc9a760e01b61014c565b9161014c565b1490565b61017690339061178d565b9060ff90610cca565b61146f61018e61147792151590565b600254611457565b600255565b9061148c61018e610ced92151590565b8254611457565b6114a46114a083836109d2565b1590565b1561150c576001916114c5836114c08360006109ef878561089b565b61147c565b33906114fb6114f56114f57f2f8788117e7eff1d82e926ec794901d17c78024a50270940304540a733656f0d9590565b926103b1565b9261150560405190565b600090a490565b5050600090565b9061151e81836109d2565b1561150c5761153860006114c083826109ef87600161089b565b33906115686114f56114f57ff6391f5c32d9c69d2a47ea670b442974b53935d1edc7fd64eb21e047a839171b9590565b9261157260405190565b600090a4600190565b6115836117bf565b6101766115906000611460565b336115bf7f5db9ee0a495bf2e6ff9c91a7834c1ba4fdd244a5e8aa4e537bd38aeae4b073aa9161064d60405190565b0390a1565b61017661157b565b6115d46109ca565b33906115e86115e28361031b565b9161031b565b036115f05750565b63118cdaa760e01b600090815290819061091e906004610620565b906001600160a01b0390610cca565b61162961018e611631926103b1565b60005461160b565b600055565b61163e6109bf565b906116488161161a565b61167b6116757f8be0079c531659141344cd1fd0a4f28419497f9722a3daafe3b4186f6b6457e0936103b1565b916103b1565b9161168560405190565b600090a3565b6116936116d7565b6101766116a06001611460565b336115bf7f62e78cea01bee320cd4e420270b5ea74000d11b0c9f74754ebdbfc544b05a2589161064d60405190565b61017661168b565b6116df610950565b6116e557565b63d93c066560e01b6000908152600490fd5b602080825261018e929101906101f4565b156117105750565b61091e9061171d60405190565b62461bcd60e51b8152918291600483016116f7565b9061174b610a41611747610e5a610176969590565b9290565b1015611708565b90611767610a41611747610e5a610176969590565b1115611708565b91602061017692949361178960408201966000830190610617565b0152565b9061179b6114a082846109d2565b6117a3575050565b63e2517d3f60e01b600090815291829161091e9190600461176e565b6117ca6114a0610950565b6117d057565b638dfc202b60e01b6000908152600490fdfea26469706673582212204dab674aacd5d4ccc7585fd44c08ab86617647f683eea191351d7ed989e72f3964736f6c634300081c0033",
  "linkReferences": {},
  "deployedLinkReferences": {}
}