{
  "_format": "hh-sol-artifact-1",
  "contractName": "CrosswordPrizes",
  "sourceName": "contracts/CrosswordPrizes.sol",
  "abi": [
    {
      "inputs": [
        {
          "internalType": "address",
          "name": "initialAdmin",
          "type": "address"
        }
      ],
      "stateMutability": "nonpayable",
      "type": "constructor"
    },
    {
      "inputs": [],
      "name": "AccessControlBadConfirmation",
      "type": "error"
    },
    {
      "inputs": [
        {
          "internalType": "address",
          "name": "account",
          "type": "address"
        },
        {
          "internalType": "bytes32",
          "name": "neededRole",
          "type": "bytes32"
        }
      ],
      "name": "AccessControlUnauthorizedAccount",
      "type": "error"
    },
    {
      "inputs": [],
      "name": "EnforcedPause",
      "type": "error"
    },
    {
      "inputs": [],
      "name": "ExpectedPause",
      "type": "error"
    },
    {
      "inputs": [
        {
          "internalType": "address",
          "name": "owner",
          "type": "address"
        }
      ],
      "name": "OwnableInvalidOwner",
      "type": "error"
    },
    {
      "inputs": [
        {
          "internalType": "address",
          "name": "account",
          "type": "address"
        }
      ],
      "name": "OwnableUnauthorizedAccount",
      "type": "error"
    },
    {
      "inputs": [],
      "name": "ReentrancyGuardReentrantCall",
      "type": "error"
    },
    {
      "inputs": [
        {
          "internalType": "address",
          "name": "token",
          "type": "address"
        }
      ],
      "name": "SafeERC20FailedOperation",
      "type": "error"
    },
    {
      "anonymous": false,
      "inputs": [
        {
          "indexed": true,
          "internalType": "bytes32",
          "name": "crosswordId",
          "type": "bytes32"
        },
        {
          "indexed": false,
          "internalType": "uint256",
          "name": "activationTime",
          "type": "uint256"
        }
      ],
      "name": "CrosswordActivated",
      "type": "event"
    },
    {
      "anonymous": false,
      "inputs": [
        {
          "indexed": true,
          "internalType": "bytes32",
          "name": "crosswordId",
          "type": "bytes32"
        },
        {
          "indexed": true,
          "internalType": "address",
          "name": "token",
          "type": "address"
        },
        {
          "indexed": false,
          "internalType": "uint256",
          "name": "prizePool",
          "type": "uint256"
        },
        {
          "indexed": false,
          "internalType": "address",
          "name": "creator",
          "type": "address"
        }
      ],
      "name": "CrosswordCreated",
      "type": "event"
    },
    {
      "anonymous": false,
      "inputs": [
        {
          "indexed": false,
          "internalType": "uint256",
          "name": "oldMaxWinners",
          "type": "uint256"
        },
        {
          "indexed": false,
          "internalType": "uint256",
          "name": "newMaxWinners",
          "type": "uint256"
        },
        {
          "indexed": false,
          "internalType": "address",
          "name": "changedBy",
          "type": "address"
        }
      ],
      "name": "MaxWinnersChanged",
      "type": "event"
    },
    {
      "anonymous": false,
      "inputs": [
        {
          "indexed": true,
          "internalType": "address",
          "name": "sender",
          "type": "address"
        },
        {
          "indexed": false,
          "internalType": "uint256",
          "name": "amount",
          "type": "uint256"
        }
      ],
      "name": "NativeCeloReceived",
      "type": "event"
    },
    {
      "anonymous": false,
      "inputs": [
        {
          "indexed": true,
          "internalType": "address",
          "name": "previousOwner",
          "type": "address"
        },
        {
          "indexed": true,
          "internalType": "address",
          "name": "newOwner",
          "type": "address"
        }
      ],
      "name": "OwnershipTransferred",
      "type": "event"
    },
    {
      "anonymous": false,
      "inputs": [
        {
          "indexed": false,
          "internalType": "address",
          "name": "account",
          "type": "address"
        }
      ],
      "name": "Paused",
      "type": "event"
    },
    {
      "anonymous": false,
      "inputs": [
        {
          "indexed": true,
          "internalType": "bytes32",
          "name": "crosswordId",
          "type": "bytes32"
        },
        {
          "indexed": true,
          "internalType": "address",
          "name": "winner",
          "type": "address"
        },
        {
          "indexed": false,
          "internalType": "uint256",
          "name": "amount",
          "type": "uint256"
        },
        {
          "indexed": false,
          "internalType": "uint256",
          "name": "rank",
          "type": "uint256"
        }
      ],
      "name": "PrizeDistributed",
      "type": "event"
    },
    {
      "anonymous": false,
      "inputs": [
        {
          "indexed": true,
          "internalType": "bytes32",
          "name": "crosswordId",
          "type": "bytes32"
        },
        {
          "indexed": true,
          "internalType": "address",
          "name": "user",
          "type": "address"
        },
        {
          "indexed": false,
          "internalType": "uint256",
          "name": "amount",
          "type": "uint256"
        },
        {
          "indexed": false,
          "internalType": "string",
          "name": "reason",
          "type": "string"
        }
      ],
      "name": "PrizeTransferFailed",
      "type": "event"
    },
    {
      "anonymous": false,
      "inputs": [
        {
          "indexed": true,
          "internalType": "bytes32",
          "name": "role",
          "type": "bytes32"
        },
        {
          "indexed": true,
          "internalType": "bytes32",
          "name": "previousAdminRole",
          "type": "bytes32"
        },
        {
          "indexed": true,
          "internalType": "bytes32",
          "name": "newAdminRole",
          "type": "bytes32"
        }
      ],
      "name": "RoleAdminChanged",
      "type": "event"
    },
    {
      "anonymous": false,
      "inputs": [
        {
          "indexed": true,
          "internalType": "bytes32",
          "name": "role",
          "type": "bytes32"
        },
        {
          "indexed": true,
          "internalType": "address",
          "name": "account",
          "type": "address"
        },
        {
          "indexed": true,
          "internalType": "address",
          "name": "sender",
          "type": "address"
        }
      ],
      "name": "RoleGranted",
      "type": "event"
    },
    {
      "anonymous": false,
      "inputs": [
        {
          "indexed": true,
          "internalType": "bytes32",
          "name": "role",
          "type": "bytes32"
        },
        {
          "indexed": true,
          "internalType": "address",
          "name": "account",
          "type": "address"
        },
        {
          "indexed": true,
          "internalType": "address",
          "name": "sender",
          "type": "address"
        }
      ],
      "name": "RoleRevoked",
      "type": "event"
    },
    {
      "anonymous": false,
      "inputs": [
        {
          "indexed": true,
          "internalType": "address",
          "name": "token",
          "type": "address"
        },
        {
          "indexed": false,
          "internalType": "bool",
          "name": "allowed",
          "type": "bool"
        }
      ],
      "name": "TokenAllowed",
      "type": "event"
    },
    {
      "anonymous": false,
      "inputs": [
        {
          "indexed": true,
          "internalType": "bytes32",
          "name": "crosswordId",
          "type": "bytes32"
        },
        {
          "indexed": true,
          "internalType": "address",
          "name": "token",
          "type": "address"
        },
        {
          "indexed": false,
          "internalType": "uint256",
          "name": "amount",
          "type": "uint256"
        },
        {
          "indexed": false,
          "internalType": "address",
          "name": "recoveredBy",
          "type": "address"
        }
      ],
      "name": "UnclaimedPrizesRecovered",
      "type": "event"
    },
    {
      "anonymous": false,
      "inputs": [
        {
          "indexed": false,
          "internalType": "address",
          "name": "account",
          "type": "address"
        }
      ],
      "name": "Unpaused",
      "type": "event"
    },
    {
      "stateMutability": "payable",
      "type": "fallback"
    },
    {
      "inputs": [],
      "name": "DEFAULT_ADMIN_ROLE",
      "outputs": [
        {
          "internalType": "bytes32",
          "name": "",
          "type": "bytes32"
        }
      ],
      "stateMutability": "view",
      "type": "function"
    },
    {
      "inputs": [
        {
          "internalType": "bytes32",
          "name": "crosswordId",
          "type": "bytes32"
        }
      ],
      "name": "activateCrossword",
      "outputs": [],
      "stateMutability": "nonpayable",
      "type": "function"
    },
    {
      "inputs": [
        {
          "internalType": "address",
          "name": "",
          "type": "address"
        }
      ],
      "name": "allowedTokens",
      "outputs": [
        {
          "internalType": "bool",
          "name": "",
          "type": "bool"
        }
      ],
      "stateMutability": "view",
      "type": "function"
    },
    {
      "inputs": [
        {
          "internalType": "bytes32",
          "name": "crosswordId",
          "type": "bytes32"
        }
      ],
      "name": "claimPrize",
      "outputs": [],
      "stateMutability": "nonpayable",
      "type": "function"
    },
    {
      "inputs": [
        {
          "internalType": "bytes32",
          "name": "crosswordId",
          "type": "bytes32"
        },
        {
          "internalType": "address",
          "name": "token",
          "type": "address"
        },
        {
          "internalType": "uint256",
          "name": "prizePool",
          "type": "uint256"
        },
        {
          "internalType": "uint256[]",
          "name": "winnerPercentages",
          "type": "uint256[]"
        },
        {
          "internalType": "uint256",
          "name": "endTime",
          "type": "uint256"
        }
      ],
      "name": "createCrossword",
      "outputs": [],
      "stateMutability": "payable",
      "type": "function"
    },
    {
      "inputs": [
        {
          "internalType": "bytes32",
          "name": "",
          "type": "bytes32"
        }
      ],
      "name": "crosswordCeloBalance",
      "outputs": [
        {
          "internalType": "uint256",
          "name": "",
          "type": "uint256"
        }
      ],
      "stateMutability": "view",
      "type": "function"
    },
    {
      "inputs": [
        {
          "internalType": "bytes32",
          "name": "",
          "type": "bytes32"
        }
      ],
      "name": "crosswords",
      "outputs": [
        {
          "internalType": "address",
          "name": "token",
          "type": "address"
        },
        {
          "internalType": "uint256",
          "name": "totalPrizePool",
          "type": "uint256"
        },
        {
          "internalType": "uint256",
          "name": "activationTime",
          "type": "uint256"
        },
        {
          "internalType": "uint256",
          "name": "endTime",
          "type": "uint256"
        },
        {
          "internalType": "enum CrosswordPrizes.CrosswordState",
          "name": "state",
          "type": "uint8"
        },
        {
          "internalType": "uint256",
          "name": "createdAt",
          "type": "uint256"
        },
        {
          "internalType": "uint256",
          "name": "claimedAmount",
          "type": "uint256"
        }
      ],
      "stateMutability": "view",
      "type": "function"
    },
    {
      "inputs": [
        {
          "internalType": "bytes32",
          "name": "crosswordId",
          "type": "bytes32"
        }
      ],
      "name": "getCrosswordDetails",
      "outputs": [
        {
          "internalType": "address",
          "name": "token",
          "type": "address"
        },
        {
          "internalType": "uint256",
          "name": "totalPrizePool",
          "type": "uint256"
        },
        {
          "internalType": "uint256[]",
          "name": "winnerPercentages",
          "type": "uint256[]"
        },
        {
          "internalType": "address[]",
          "name": "winners",
          "type": "address[]"
        },
        {
          "internalType": "uint256",
          "name": "activationTime",
          "type": "uint256"
        },
        {
          "internalType": "uint256",
          "name": "endTime",
          "type": "uint256"
        },
        {
          "internalType": "enum CrosswordPrizes.CrosswordState",
          "name": "state",
          "type": "uint8"
        },
        {
          "internalType": "bool",
          "name": "isFinalized",
          "type": "bool"
        }
      ],
      "stateMutability": "view",
      "type": "function"
    },
    {
      "inputs": [],
      "name": "getMaxWinners",
      "outputs": [
        {
          "internalType": "uint256",
          "name": "",
          "type": "uint256"
        }
      ],
      "stateMutability": "view",
      "type": "function"
    },
    {
      "inputs": [
        {
          "internalType": "bytes32",
          "name": "role",
          "type": "bytes32"
        }
      ],
      "name": "getRoleAdmin",
      "outputs": [
        {
          "internalType": "bytes32",
          "name": "",
          "type": "bytes32"
        }
      ],
      "stateMutability": "view",
      "type": "function"
    },
    {
      "inputs": [
        {
          "internalType": "bytes32",
          "name": "crosswordId",
          "type": "bytes32"
        },
        {
          "internalType": "address",
          "name": "user",
          "type": "address"
        }
      ],
      "name": "getUserRank",
      "outputs": [
        {
          "internalType": "uint256",
          "name": "",
          "type": "uint256"
        }
      ],
      "stateMutability": "view",
      "type": "function"
    },
    {
      "inputs": [
        {
          "internalType": "bytes32",
          "name": "role",
          "type": "bytes32"
        },
        {
          "internalType": "address",
          "name": "account",
          "type": "address"
        }
      ],
      "name": "grantRole",
      "outputs": [],
      "stateMutability": "nonpayable",
      "type": "function"
    },
    {
      "inputs": [
        {
          "internalType": "bytes32",
          "name": "role",
          "type": "bytes32"
        },
        {
          "internalType": "address",
          "name": "account",
          "type": "address"
        }
      ],
      "name": "hasRole",
      "outputs": [
        {
          "internalType": "bool",
          "name": "",
          "type": "bool"
        }
      ],
      "stateMutability": "view",
      "type": "function"
    },
    {
      "inputs": [
        {
          "internalType": "bytes32",
          "name": "crosswordId",
          "type": "bytes32"
        },
        {
          "internalType": "address",
          "name": "user",
          "type": "address"
        }
      ],
      "name": "isWinner",
      "outputs": [
        {
          "internalType": "bool",
          "name": "",
          "type": "bool"
        }
      ],
      "stateMutability": "view",
      "type": "function"
    },
    {
      "inputs": [],
      "name": "maxWinners",
      "outputs": [
        {
          "internalType": "uint256",
          "name": "",
          "type": "uint256"
        }
      ],
      "stateMutability": "view",
      "type": "function"
    },
    {
      "inputs": [],
      "name": "owner",
      "outputs": [
        {
          "internalType": "address",
          "name": "",
          "type": "address"
        }
      ],
      "stateMutability": "view",
      "type": "function"
    },
    {
      "inputs": [],
      "name": "pause",
      "outputs": [],
      "stateMutability": "nonpayable",
      "type": "function"
    },
    {
      "inputs": [],
      "name": "paused",
      "outputs": [
        {
          "internalType": "bool",
          "name": "",
          "type": "bool"
        }
      ],
      "stateMutability": "view",
      "type": "function"
    },
    {
      "inputs": [
        {
          "internalType": "bytes32",
          "name": "crosswordId",
          "type": "bytes32"
        },
        {
          "internalType": "address",
          "name": "user",
          "type": "address"
        }
      ],
      "name": "recordCompletion",
      "outputs": [
        {
          "internalType": "bool",
          "name": "awardedPrize",
          "type": "bool"
        }
      ],
      "stateMutability": "nonpayable",
      "type": "function"
    },
    {
      "inputs": [
        {
          "internalType": "bytes32",
          "name": "crosswordId",
          "type": "bytes32"
        }
      ],
      "name": "recoverUnclaimedPrizes",
      "outputs": [],
      "stateMutability": "nonpayable",
      "type": "function"
    },
    {
      "inputs": [],
      "name": "renounceOwnership",
      "outputs": [],
      "stateMutability": "nonpayable",
      "type": "function"
    },
    {
      "inputs": [
        {
          "internalType": "bytes32",
          "name": "role",
          "type": "bytes32"
        },
        {
          "internalType": "address",
          "name": "callerConfirmation",
          "type": "address"
        }
      ],
      "name": "renounceRole",
      "outputs": [],
      "stateMutability": "nonpayable",
      "type": "function"
    },
    {
      "inputs": [
        {
          "internalType": "bytes32",
          "name": "role",
          "type": "bytes32"
        },
        {
          "internalType": "address",
          "name": "account",
          "type": "address"
        }
      ],
      "name": "revokeRole",
      "outputs": [],
      "stateMutability": "nonpayable",
      "type": "function"
    },
    {
      "inputs": [
        {
          "internalType": "address",
          "name": "token",
          "type": "address"
        },
        {
          "internalType": "bool",
          "name": "allowed",
          "type": "bool"
        }
      ],
      "name": "setAllowedToken",
      "outputs": [],
      "stateMutability": "nonpayable",
      "type": "function"
    },
    {
      "inputs": [
        {
          "internalType": "uint256",
          "name": "newMaxWinners",
          "type": "uint256"
        }
      ],
      "name": "setMaxWinners",
      "outputs": [],
      "stateMutability": "nonpayable",
      "type": "function"
    },
    {
      "inputs": [
        {
          "internalType": "bytes4",
          "name": "interfaceId",
          "type": "bytes4"
        }
      ],
      "name": "supportsInterface",
      "outputs": [
        {
          "internalType": "bool",
          "name": "",
          "type": "bool"
        }
      ],
      "stateMutability": "view",
      "type": "function"
    },
    {
      "inputs": [
        {
          "internalType": "address",
          "name": "newOwner",
          "type": "address"
        }
      ],
      "name": "transferOwnership",
      "outputs": [],
      "stateMutability": "nonpayable",
      "type": "function"
    },
    {
      "inputs": [],
      "name": "unpause",
      "outputs": [],
      "stateMutability": "nonpayable",
      "type": "function"
    },
    {
      "inputs": [
        {
          "internalType": "bytes32",
          "name": "",
          "type": "bytes32"
        },
        {
          "internalType": "address",
          "name": "",
          "type": "address"
        }
      ],
      "name": "userRankInCrossword",
      "outputs": [
        {
          "internalType": "uint256",
          "name": "",
          "type": "uint256"
        }
      ],
      "stateMutability": "view",
      "type": "function"
    },
    {
      "stateMutability": "payable",
      "type": "receive"
    }
  ],
  "bytecode": "0x608060405234610028576100196100146100bf565b610198565b604051612def908161043a8239f35b600080fd5b634e487b7160e01b600052604160045260246000fd5b90601f01601f191681019081106001600160401b0382111761006457604052565b61002d565b9061007d61007660405190565b9283610043565b565b6001600160a01b031690565b90565b6100978161007f565b0361002857565b9050519061007d8261008e565b906020828203126100285761008b9161009e565b61008b613229803803806100d281610069565b9283398101906100ab565b90600019905b9181191691161790565b61008b61008b61008b9290565b61010961008b610111926100ed565b6006546100dd565b600655565b61008b60006100ed565b61007f61008b61008b9290565b61008b90610120565b61008b9061007f906001600160a01b031682565b61008b90610136565b61008b9061014a565b9061016690610153565b600052602052604060002090565b9060ff906100e3565b9061018d61008b61019492151590565b8254610174565b9055565b610212906101a581610231565b6101af60036100fa565b6101c0816101bb610116565b6102fb565b506101eb817fa49807205ce4d355092ef5a8a18f56e8913cf4a201fbe287825b095693c217756102fb565b507f97667070c54ef182b0f5858b034beac1b6f3089aa2d3188bb1e8929f4fa9b9296102fb565b5061007d600161022c610225600061012d565b600561015c565b61017d565b61007d90610260565b61008b60016100ed565b61025361008b61025b926100ed565b6002546100dd565b600255565b61026990610279565b61007d61027461023a565b610244565b61007d9061007d9061007d9061007d906102ab565b6102979061007f565b9052565b60208101929161007d919061028e565b60006102b68161012d565b6102bf8161007f565b6102c88461007f565b146102d857505061007d906103bb565b631e4fbdf760e01b825281906102f1906004830161029b565b0390fd5b90610166565b61030c6103088383610417565b1590565b156103755760019161032e8361022c83600061032887856102f5565b0161015c565b339061036461035e61035e7f2f8788117e7eff1d82e926ec794901d17c78024a50270940304540a733656f0d9590565b92610153565b9261036e60405190565b600090a490565b5050600090565b61008b9061007f565b61008b60005461037c565b906001600160a01b03906100e3565b6103ae61008b6103b692610153565b600054610390565b600055565b6103c3610385565b906103cd8161039f565b6104006103fa7f8be0079c531659141344cd1fd0a4f28419497f9722a3daafe3b4186f6b6457e093610153565b91610153565b9161040a60405190565b600090a3565b5460ff1690565b61008b9160006103286104349361042c600090565b5060016102f5565b61041056fe60806040526004361015610026575b361561001e5761001c611edf565b005b61001c611edf565b60003560e01c806301ffc9a7146101f65780630a713d68146101f15780630e5e0bb0146101ec578063248a9ca3146101e75780632f2ff15d146101e2578063353ca9a5146101dd57806336568abe146101d85780633ab2648a146101d35780633f4ba83a146101ce5780635c975abb146101c9578063715018a6146101c45780638456cb59146101bf5780638aaa2284146101ba5780638da5cb5b146101b557806391d14854146101b05780639745808a146101ab5780639cc19f5b146101a6578063a217fddf146101a1578063b0fc94401461019c578063b289e28414610197578063cde8e5d314610192578063d17b18c41461018d578063d547741f14610188578063d9cbe53c14610183578063dfdfde301461017e578063e744092e14610179578063ec03a37a14610174578063ef9923aa1461016f5763f2fde38b0361000e57610a03565b6109ea565b6109b5565b610883565b61080e565b6106b7565b6106a0565b61068a565b610671565b61064c565b610626565b61060d565b6105d4565b6105ba565b6105a0565b61057a565b61054a565b6104fa565b6104e4565b6104cb565b6104b5565b610490565b6103e8565b6103ce565b610343565b6102d3565b6102bd565b6102a2565b610249565b6001600160e01b03191690565b610211816101fb565b0361021857565b600080fd5b9050359061022a82610208565b565b602060048203126102185761024290600461021d565b90565b9052565b346102185761027561026261025d3661022c565b610a19565b6040515b91829182901515815260200190565b0390f35b80610211565b9050359061022a82610279565b602060048203126102185761024290600461027f565b34610218576102b86102b33661028c565b610e1f565b604051005b34610218576102b86102ce3661028c565b61123d565b34610218576102756102ec6102e73661028c565b611246565b6040519182918290815260200190565b6001600160a01b031690565b610211816102fc565b9050359061022a82610308565b906004916040838203126102185761024290602061033c828661027f565b9401610311565b34610218576102b86103543661031e565b90611282565b905b600052602052604060002090565b610242906102fc906001600160a01b031682565b6102429061036a565b6102429061037e565b9061035c90610387565b610242916008021c81565b90610242915461039a565b6103c9610242926103c4600093600761035a565b610390565b6103a5565b34610218576102756102ec6103e23661031e565b906103b0565b34610218576102b86103f93661031e565b9061128c565b909182601f83011215610218578135916001600160401b03831161021857602001926020830284011161021857565b60049160a08383031261021857610445828461027f565b926104538360208301610311565b92610461816040840161027f565b9260608301356001600160401b03811161021857826104876080946102429387016103ff565b9490950161027f565b6102b861049c3661042e565b949390939291926113c3565b6004600091031261021857565b34610218576104c3366104a8565b6102b86113e7565b34610218576104d9366104a8565b6102756102626113fa565b34610218576104f2366104a8565b6102b861141f565b3461021857610508366104a8565b6102b861143d565b801515610211565b9050359061022a82610510565b90600491604083820312610218576102429060206105438286610311565b9401610518565b34610218576102b861055b36610525565b906114d1565b610245906102fc565b60208101929161022a9190610561565b3461021857610588366104a8565b6102756105936114db565b6040515b9182918261056a565b34610218576102756102626105b43661031e565b906114e3565b34610218576102756102ec6105ce3661031e565b9061150b565b34610218576102756102626105e83661031e565b90611526565b6102426102426102429290565b61024260006105ee565b6102426105fb565b346102185761061b366104a8565b6102756102ec610605565b34610218576102b86106373661028c565b611acc565b60006103c961024292600861035a565b34610218576102756102ec6106603661028c565b61063c565b610242600060066103a5565b346102185761067f366104a8565b6102756102ec610665565b34610218576102b861069b3661028c565b611be4565b34610218576102b86106b13661031e565b90611c08565b34610218576102756102626106cb3661031e565b90611c5a565b610242906102fc565b6102426000546106d1565b61024290546106d1565b6102429081565b6102426006546106ef565b6102426002546106ef565b61024290546106ef565b610242905b60ff1690565b6102429054610716565b61073690600461035a565b61073f816106e5565b9161074c6001830161070c565b916107596005820161070c565b916107666006830161070c565b9161077360078201610721565b9161024260096107856008850161070c565b930161070c565b634e487b7160e01b600052602160045260246000fd5b600311156107ac57565b61078c565b9061022a826107a2565b610242906107b1565b610245906107bb565b949290979695939160e0860198600087016107e791610561565b60208601526040850152606084015260808301610803916107c4565b60a082015260c00152565b34610218576102756108276108223661028c565b61072b565b9361083797959793919360405190565b978897886107cd565b6020600482031261021857610242906004610311565b610242916008021c61071b565b906102429154610856565b600061087e610242926005610390565b610863565b346102185761027561026261089736610840565b61086e565b0190565b906108c06108b96108af845190565b8084529260200190565b9260200190565b9060005b8181106108d15750505090565b9091926108ee6108e76001928651815260200190565b9460200190565b9291016108c4565b9061089c81602093610561565b906109126108b96108af845190565b9060005b8181106109235750505090565b9091926109366108e760019286516108f6565b929101610916565b939561099c61099460e0979b9a98610986886109ad9861097961022a9e996109726109a39a60006101008701960190610561565b60208d0152565b8a820360408c01526108a0565b9088820360608a0152610903565b9a6080870152565b60a0850152565b60c08301906107c4565b019015159052565b34610218576102756109ce6109c93661028c565b611d65565b946109e198969894919493929360405190565b9889988961093e565b34610218576109f8366104a8565b6102756102ec611e7c565b34610218576102b8610a1436610840565b611ed6565b610a29637965db0b60e01b6101fb565b610a32826101fb565b14908115610a3e575090565b6102429150611f20565b7fa49807205ce4d355092ef5a8a18f56e8913cf4a201fbe287825b095693c2177590565b61022a90610a80610a7b610a48565b611f3d565b61022a90610a8c611f48565b610d68565b634e487b7160e01b600052604160045260246000fd5b90601f01601f191681019081106001600160401b03821117610ac857604052565b610a91565b6040519061022a606083610aa7565b9061022a610ae960405190565b9283610aa7565b6001600160401b038111610ac857602090601f01601f19160190565b610b1e610b19600e610af0565b610adc565b90600e8252565b610b32610b196012610af0565b9060128252565b610b46610b196013610af0565b9060138252565b610b5a610b19600f610af0565b90600f8252565b610b6e610b19600c610af0565b90600c8252565b610b82610b196009610af0565b9060098252565b610b96610b196014610af0565b9060148252565b610baa610b196007610af0565b9060078252565b610bbe610b196011610af0565b9060118252565b610bd2610b196010610af0565b9060108252565b6d111bd95cc81b9bdd08195e1a5cdd60921b9052565b610bf7610b0c565b9061022a60208301610bd9565b610242610bef565b610242610c04565b60005b838110610c275750506000910152565b8181015183820152602001610c17565b610c58610c6160209361089c93610c4c815190565b80835293849260200190565b95869101610c14565b601f01601f191690565b602080825261024292910190610c37565b15610c845750565b610ca690610c9160405190565b62461bcd60e51b815291829160048301610c6b565b0390fd5b15610cb157565b60405162461bcd60e51b815260206004820152600c60248201526b4e6f7420696e61637469766560a01b6044820152606490fd5b9060ff905b9181191691161790565b90610d04610242610d0b926107bb565b8254610ce5565b9055565b9060001990610cea565b610d28610242610d30926105ee565b600654610d0f565b600655565b610d44610242610d4c926105ee565b600254610d0f565b600255565b90610d61610242610d0b926105ee565b8254610d0f565b610de7610d7961024283600461035a565b610daa610d886008830161070c565b610d99610d9560006105ee565b9190565b90610da2610c0c565b911415610c7c565b610ddd600160078301610dd8610dbf82610721565b610dd2610dcc60006107b1565b916107b1565b14610caa565b610cf4565b6005429101610d51565b7f866c1294f23fc719c565ed4c7188b24e3e7bccde328f0b50425b902bf19bc83d610e1160405190565b42815280602081015b0390a2565b61022a90610a6c565b61022a90610e37610a7b610a48565b610e4890610e43611f72565b610e50565b61022a611fae565b61022a90610e5c611f48565b611021565b600e8152602090810161089c81610bd9565b60208082526102429101610e61565b15610e8957565b60405162461bcd60e51b815280610ca660048201610e73565b15610ea957565b60405162461bcd60e51b815260206004820152600c60248201526b4e6f7420636f6d706c65746560a01b6044820152606490fd5b61024262278d006105ee565b634e487b7160e01b600052601160045260246000fd5b91908201809211610f0c57565b610ee9565b15610f1857565b60405162461bcd60e51b815260206004820152601260248201527115da5b991bddc81b9bdd08195b185c1cd95960721b6044820152606490fd5b6102fc6102426102429290565b61024290610f52565b9050519061022a82610279565b906020828203126102185761024291610f68565b6040513d6000823e3d90fd5b90610fa2610b1983610af0565b918252565b3d15610fc157610fb63d610f95565b903d6000602084013e565b606090565b15610fcd57565b60405162461bcd60e51b815260206004820152601460248201527310d15313c81c9958dbdd995c9e4819985a5b195960621b6044820152606490fd5b90815260408101929161022a916020905b0190610561565b61102f61024282600461035a565b9061105961106060089361104485820161070c565b906000928392611053846105ee565b95869190565b1415610e82565b61108261106f60078301610721565b61107c610dcc60026107b1565b14610ea2565b6110ad6110a56102426110976005850161070c565b61109f610edd565b90610eff565b421015610f11565b01916110b8836106e5565b6110d26110cc6110c785610f5f565b6102fc565b916102fc565b0361118a578161113c9392611137926111076110f66110f1898b61035a565b61070c565b9161110289849b61035a565b610d51565b6111166111113381565b610387565b9061112060405190565b908192825a940393f1611131610fa7565b50610fc6565b6106e5565b903361116f6111697f4f9dbc6a445a64ff84ec788dbb2b2882a37630c9397338d10c7568bc438d10239390565b93610387565b9361118561117c60405190565b92839283611009565b0390a3565b50925061119c611111611111836106e5565b60206111c86370a08231926111b030610387565b936111d36111bd60405190565b958694859360e01b90565b83526004830161056a565b91815a930392fa9384156112385793611203575b5061113c90611137846111fc611111846106e5565b3390611ff7565b61113c91935061122a9060203d602011611231575b6112228183610aa7565b810190610f75565b92906111e7565b503d611218565b610f89565b61022a90610e28565b600161125e61024292611257600090565b508261035a565b0161070c565b9061022a91611275610a7b82611246565b9061127f9161203f565b50565b9061022a91611264565b90611296336102fc565b61129f826102fc565b036112ad5761127f916120ba565b63334bd91960e11b6000908152600490fd5b6112c7610b25565b712737ba1037bbb732b91037b91030b236b4b760711b602082015290565b6102426112bf565b6102426112e5565b9061022a959493929161132761130a30610387565b61131330610387565b9033906113216111696112ed565b90612122565b9061022a9594939291611338611f48565b6113ae565b6001600160401b038111610ac85760208091020190565b92919092611364610b198561133d565b9380855260209283808701920283019281841161021857915b83831061138b575050505050565b848091611398848661027f565b81520192019161137d565b610242913691611354565b9261022a95946113bd916113a3565b92612486565b9061022a95949392916112f5565b6113dc610a7b6105fb565b61022a61022a612703565b61022a6113d1565b610242600354610716565b6102426113ef565b61140a61270b565b61022a61022a61141a6000610f5f565b612744565b61022a611402565b611432610a7b6105fb565b61022a61022a6127de565b61022a611427565b9061022a91611455610a7b6105fb565b611486565b61146961024261147192151590565b600354610ce5565b600355565b90610d04610242610d0b92151590565b61149a82611495836005610390565b611476565b610e1a6114c77f9a8e30a8658b96ab3f034ce4bac6806278b4aee5880ccdd1ac35e4ed5bb31d2392610387565b9261026660405190565b9061022a91611445565b6102426106da565b610242916000611500611506936114f8600090565b50600161035a565b01610390565b610721565b610242916103c46110f19261151e600090565b50600761035a565b611539916103c46110f19261151e600090565b611546610d9560006105ee565b1190565b610e4890611556611f72565b61022a90611562611f48565b61178f565b61156f610b39565b724e6f74206163746976652f636f6d706c65746560681b602082015290565b610242611567565b61024261158e565b6e105b1c9958591e4818db185a5b5959608a1b9052565b6115bd610b4d565b9061022a6020830161159e565b6102426115b5565b6102426115ca565b6115e2610b61565b6b2737ba1030903bb4b73732b960a11b602082015290565b6102426115da565b6102426115fa565b611612610b61565b6b496e76616c69642072616e6b60a01b602082015290565b61024261160a565b61024261162a565b91908203918211610f0c57565b634e487b7160e01b600052603260045260246000fd5b805482101561168057611677600191600052602060002090565b91020190600090565b611647565b81810292918115918404141715610f0c57565b6102426127106105ee565b634e487b7160e01b600052601260045260246000fd5b81156116c3570490565b6116a3565b6116d0610b75565b6805072697a65203e20360bc1b602082015290565b6102426116c8565b6102426116e5565b6116fd610b89565b73496e73756666696369656e742062616c616e636560601b602082015290565b6102426116f5565b61024261171d565b611735610b4d565b6e151c985b9cd9995c8819985a5b1959608a1b602082015290565b61024261172d565b610242611750565b90815260406020820181905261024292910190610c37565b90815260408101929161022a9160200152565b0152565b60049061179f610242828461035a565b906008916117ae83820161070c565b9260006117cd6117c46117c0836105ee565b9690565b86610da2610c0c565b600792838101966117dd88610721565b976001986117ed610dcc8b6107b1565b14908115611aae575b506117ff611596565b61180891610c7c565b810193856118163387610390565b61181f90610721565b151584151561182c6115d2565b91149061183891610c7c565b6118419161035a565b3361184b91610390565b6118549061070c565b95869061185f611602565b61186a918311610c7c565b6002820190611877825490565b61187f611632565b9111159061188c91610c7c565b611895886105ee565b61189f908861163a565b6118a89161165d565b6118b1916103a5565b6118bc82890161070c565b906118c691611685565b6118ce611698565b6118d7916116b9565b966118e06116ed565b6118ea90896127e6565b6118f43386610390565b906118fe91611476565b8682820161190b816106e5565b61191485610f5f565b61191d906102fc565b90611927906102fc565b03611a925750506009906119566119446102426110f1898861035a565b899061194e611725565b911115610c7c565b61197b611963878661035a565b6119758a6119708361070c565b61163a565b90610d51565b01926119986119928861198d8761070c565b610eff565b85610d51565b6119c282806119a961111133610387565b6040518b8192825a940393f16119bd610fa7565b501590565b611a0d57505050505b7f0842894bd3663e1d874d069f4495d64331ee07871e8fa4e159ae698421912c9090916119f733610387565b93611185611a0460405190565b92839283611778565b84955093611a3c92611a2a611a2f93611495611a49983390610390565b61035a565b6119758661198d8361070c565b611975846119708361070c565b611a51611758565b7f5371e4fa1d9f0e3c6b83c7a9cdca6238a5ec6a25565a40f43c7955dae372c77590611a7c33610387565b93611185611a8960405190565b92839283611760565b909350611aa994506111fc925061111191506106e5565b6119cb565b611ab89150610721565b611ac5610dcc60026107b1565b14386117f6565b61022a9061154a565b61022a90611ae4610a7b610a48565b611b69565b611af1610b9d565b6604d6178203e20360cc1b602082015290565b610242611ae9565b6102426103e86105ee565b611b1f610bb1565b7013585e08195e18d959591cc81b1a5b5a5d607a1b602082015290565b610242611b17565b610242611b3c565b90815260608101939261022a92909160409161101a906020830152565b611b7a611b74611b04565b826127e6565b611b94611b85611b0c565b611b8d611b44565b90836127fe565b611b9c6106f6565b90611ba681610d19565b3391611bdf7f03de711598b94393a7a0ad6765b4322e8bea2022937f56eabbc8d5d1ff99046f93611bd660405190565b93849384611b4c565b0390a1565b61022a90611ad5565b9061022a91611bfe610a7b82611246565b9061127f916120ba565b9061022a91611bed565b610242929190611c417f97667070c54ef182b0f5858b034beac1b6f3089aa2d3188bb1e8929f4fa9b929611f3d565b906102429291611c4f611f48565b50610242919061295d565b61024291906000611c12565b90611c81611c756108af845490565b92600052602060002090565b9060005b818110611c925750505090565b909192611cb6611caf600192611ca78761070c565b815260200190565b9460010190565b929101611c85565b9061024291611c66565b9061022a611ce292611cd960405190565b93848092611cbe565b0383610aa7565b61024290611cc8565b90610fa2610b198361133d565b369037565b9061022a611d1a611d1484611cf2565b9361133d565b601f190160208401611cff565b805482101561168057611677600391600052602060002090565b90611d4a825190565b811015611680576020809102010190565b90610245906102fc565b610242611d7c91611d74600090565b50600461035a565b60009190611d89816106e5565b92600191611d996001820161070c565b93611da660028301611ce9565b93611db36005840161070c565b92611dc06006820161070c565b9260078201926003611dda611dd486610721565b95610721565b611de7610dcc60026107b1565b14930190611df3825490565b611e01610d956102428c5190565b1015611e74578154975b611e1489611d04565b92839983611e21846105ee565b905b611e30575b505050505050565b81811015611e6f5780611e63611e5486611e4d611e699588611d27565b50016106e5565b611e5e838a611d41565b611d5b565b60010190565b84611e23565b611e28565b885197611e0b565b6102426106f6565b61022a90611e9061270b565b6000611e9b81610f5f565b611ea4816102fc565b611ead846102fc565b14611ebd57505061022a90612744565b631e4fbdf760e01b82528190610ca6906004830161056a565b61022a90611e84565b7fedd7fd210c5046985d2cac8bd79b331beb7816848ac1f52930622cb31d9a14fd611f0933610387565b90611f1360405190565b3481528060208101610e1a565b611f39611f336301ffc9a760e01b6101fb565b916101fb565b1490565b61022a903390612b0c565b611f506113fa565b611f5657565b63d93c066560e01b6000908152600490fd5b61024260026105ee565b611f7a610701565b611f82611f68565b908114611f925761022a90610d35565b633ee5aeb560e01b6000908152600490fd5b61024260016105ee565b61022a611fb9611fa4565b610d35565b611fd7611fd16102429263ffffffff1690565b60e01b90565b6101fb565b91602061022a92949361178b60408201966000830190610561565b61203a60049261202b61022a9561201163a9059cbb611fbe565b9261201b60405190565b9687946020860190815201611fdc565b60208201810382520383610aa7565b612b3e565b61205061204c83836114e3565b1590565b156120b35760019161206c83611495836000611500878561035a565b33906120a261209c61209c7f2f8788117e7eff1d82e926ec794901d17c78024a50270940304540a733656f0d9590565b92610387565b926120ac60405190565b600090a490565b5050600090565b906120c581836114e3565b156120b3576120df6000611495838261150087600161035a565b339061210f61209c61209c7ff6391f5c32d9c69d2a47ea670b442974b53935d1edc7fd64eb21e047a839171b9590565b9261211960405190565b600090a4600190565b916121319161022a9493612c0f565b610c7c565b61213e610b0c565b6d416c72656164792065786973747360901b602082015290565b610242612136565b610242612158565b612170610bb1565b70151bdad95b881b9bdd08185b1b1bddd959607a1b602082015290565b610242612168565b61024261218d565b156121a457565b60405162461bcd60e51b815260206004820152601260248201527114195c98d95b9d1859d95cc81b995959195960721b6044820152606490fd5b6121e6610bc5565b6f546f6f206d616e792077696e6e65727360801b602082015290565b6102426121de565b610242612202565b61221a610bc5565b6f22b732103a34b6b2903a37b7903330b960811b602082015290565b610242612212565b610242612236565b610242611f406105ee565b612259610b39565b720a0cae4c6cadce8c2ceca40e8dede40d0d2ced606b1b602082015290565b610242612251565b610242612278565b612290610b0c565b6d050657263656e74616765203e20360941b602082015290565b610242612288565b6122ba610b61565b6b546f74616c203e203130302560a01b602082015290565b6102426122b2565b6102426122d2565b6122ea610b0c565b6d0acc2d8eaca40dad2e6dac2e8c6d60931b602082015290565b6102426122e2565b610242612304565b906001600160a01b0390610cea565b61233261024261233a92610387565b600054612314565b600055565b9061234f610242610d0b92610387565b8254612314565b634e487b7160e01b600052600060045260246000fd5b9160001960089290920291821b911b610cea565b9190612391610242610d0b936105ee565b90835461236c565b61022a9060008091612380565b8181106123b1575050565b806123bd600192612399565b016123a6565b9190918282106123d257505050565b61022a92916123e8905b91600052602060002090565b91820191016123a6565b90600160401b8111610ac8578161240a61022a935490565b908281556123c3565b8151906001600160401b038211610ac85761243d6123dc60019461243785856123f2565b60200190565b838493046000935b612451575b5050505050565b80841015612477578480946020612469610242875190565b950194818501550193612445565b61244a565b9061022a91612413565b93949190600494612497818761035a565b966124a5600880990161070c565b9760006124cb6124bb6124b7836105ee565b9b90565b8b6124c4612160565b9114610c7c565b6124ea6124dc611506876005610390565b6124e4612195565b90610c7c565b6124fb6124f56116ed565b876127e6565b6125108a61250a6102428b5190565b1161219d565b61253161251b895190565b6125236106f6565b61252b61220a565b916127fe565b8983036126a0575b895b6125466102428a5190565b8b10156125b1576125a46125ab9161109f6125778e61259e6125908f838161258b61257b6125778461257796611d41565b5190565b612583612246565b61252b612280565b611d41565b6125986122aa565b906127e6565b8d611d41565b9a60010190565b9961253b565b84979a50612652929161264061261d6102426006988b9e8b9e999b6126589d6125e7612649996125df611698565b61252b6122da565b6125f36110c789610f5f565b6125fc836102fc565b0361268457611a2a915061261334826124c461230c565b611102848b61035a565b9561262a8c84890161233f565b6126378d60018901610d51565b6002870161247c565b60078501610cf4565b42908301610d51565b01610d51565b3361116f6111697f0fee001940c4884b8fa17931fc404ceb7673af8459a49404e484d47be2f0bcc09390565b612690611a2a92610387565b3361269a30610387565b91612d60565b6126ba6126ab610edd565b6126b361223e565b90856127fe565b612539565b6126c7612d96565b61022a6126d4600061145a565b33611bdf7f5db9ee0a495bf2e6ff9c91a7834c1ba4fdd244a5e8aa4e537bd38aeae4b073aa9161059760405190565b61022a6126bf565b6127136114db565b33906127216110cc836102fc565b036127295750565b63118cdaa760e01b6000908152908190610ca690600461056a565b61274c6106da565b9061275681612323565b6127896127837f8be0079c531659141344cd1fd0a4f28419497f9722a3daafe3b4186f6b6457e093610387565b91610387565b9161279360405190565b8080611185565b6127a2611f48565b61022a6127af600161145a565b33611bdf7f62e78cea01bee320cd4e420270b5ea74000d11b0c9f74754ebdbfc544b05a2589161059760405190565b61022a61279a565b9061022a916127f8610d9560006105ee565b11610c7c565b61280c610d9561022a949390565b1115610c7c565b1561281a57565b60405162461bcd60e51b815260206004820152600a6024820152694e6f742061637469766560b01b6044820152606490fd5b600f8152602090810161089c8161159e565b6020808252610242910161284c565b1561287457565b60405162461bcd60e51b815280610ca66004820161285e565b1561289457565b60405162461bcd60e51b815260206004820152600f60248201526e111958591b1a5b99481c185cdcd959608a1b6044820152606490fd5b610242610acd565b61024290516102fc565b6002612919604061022a946128fd6128f7600083016128d3565b8661233f565b61291461290b602083015190565b60018701610d51565b015190565b9101610d51565b919061292f5761022a916128dd565b612356565b80549190600160401b831015610ac8578261295791600161022a95018155611d27565b90612920565b9060006129d461297161024285600461035a565b9160078084019461298186610721565b9661299a600198612994610dcc8b6107b1565b14612813565b6129aa6115068360048901610390565b600093906129b8901561286d565b600687016129c58161070c565b6129ce866105ee565b97889190565b119081612ae6575b50612ac1575b60038701936129fb6129f2865490565b61109f8c6105ee565b94600280990196612a0d610242895490565b9887998a11612a7d575050936103c4612a66946102429794611a2a61110295612a37612a6a9c9a90565b612a4b87612a436128cb565b938401611d5b565b612a56426020840152565b612a61896040840152565b612934565b5490565b14612a7457505090565b61024291610cf4565b96509b9a509150965061022a9750612aaf929550612a619450612a9e915090565b93612aa76128cb565b958601611d5b565b612aba426020860152565b6040840152565b612ae1612acd89610721565b612ada610dcc60026107b1565b141561288d565b6129e2565b612b039150612af76102429161070c565b61109f60058b0161070c565b421015386129dc565b90612b1a61204c82846114e3565b612b22575050565b63e2517d3f60e01b6000908152918291610ca691906004611fdc565b6020600083819451908285855a930192f115612bc057612b6a3d835190612b64856105ee565b92839190565b03612baa5750612b80612b7c83610387565b3b90565b145b612b8a575050565b610ca6612b978392610387565b635274afe760e01b83526004830161056a565b9050612bb9610d9560016105ee565b1415612b82565b50604051903d90823e3d90fd5b9050519061022a82610308565b906020828203126102185761024291612bcd565b9050519061022a82610510565b906020828203126102185761024291612bee565b612c27612c3f91939293612c21600090565b50610387565b638da5cb5b90612c3660405190565b92839260e01b90565b825281600481016020948593815a930392fa90811561123857600091612d09575b50612c6d6110cc846102fc565b14918215612c7d575b5050905090565b9150612cb1612c8c8294610387565b6391d14854612cbc612c9c610a48565b95612ca660405190565b968795869460e01b90565b845260048401611009565b91815a930392fa91821561123857600092612cdc575b5050803880612c76565b612cfb9250803d10612d02575b612cf38183610aa7565b810190612bfb565b3880612cd2565b503d612ce9565b612d299150823d8411612d2f575b612d218183610aa7565b810190612bda565b38612c60565b503d612d17565b60409061178b61022a9496959396612d5660608401986000850190610561565b6020830190610561565b9061203a9061202b61022a95600495612d7c6323b872dd611fbe565b93612d8660405190565b9788956020870190815201612d36565b612da161204c6113fa565b612da757565b638dfc202b60e01b6000908152600490fdfea2646970667358221220e1d82dbd268c3b85471c7cf0319631b6392a061edb153b6a8bf29b6304da458c64736f6c634300081c0033",
  "linkReferences": {},
  "deployedLinkReferences": {}
}